:020000040800F2
:10000000005000200D0100088DC100088FC10008BC
:1000100091C1000893C1000895C1000800000000CC
:1000200000000000000000000000000097C1000870
:1000300099C10008000000009BC100089DC1000894
:1000400015C2000815C2000815C2000815C2000834
:1000500015C2000815C2000815C2000815C2000824
:1000600015C2000815C20008B9C1000815C2000871
:1000700015C2000815C2000815C2000815C2000804
:1000800015C2000815C20008A9C1000815C2000861
:1000900015C2000815C2000815C20008C5C1000835
:1000A00015C2000815C2000815C2000815C20008D4
:1000B00015C2000815C2000815C200089D7100088D
:1000C000AD710008BD710008CD71000815C20008AF
:1000D00015C20008DD71000815C2000815C200082D
:1000E000E1C1000815C2000815C2000800000000A8
:1000F0000000000000000000000000000000000000
:1001000000000000000000005FF808F108B500F0F2
:10011000ABF82DE9F04182B004460D46124B5F6BFF
:10012000D3F838809E6A1B6B13F0020F03D00E4B7E
:10013000DB6A002B0BDB0D4803F052FB00954346B6
:100140003A463146204603F065FB00BEFEE74BF61B
:10015000AB6103F0E9FB0028EDD0034B4FF0004208
:10016000DA6202B0BDE8F08100ED00E008E30008CB
:1001700080B582B004460D46084B5F6BD3F83880DB
:100180009E6A074803F02CFB009543463A463146E9
:10019000204603F03FFB00BEFEE700BF00ED00E09D
:1001A00018E3000880B582B004460D46084B5F6B2B
:1001B000D3F838809E6A074803F012FB0095434647
:1001C0003A463146204603F025FB00BEFEE700BF5D
:0801D00000ED00E024E300084B
:1001D80014F10008000000206800002014F1000855
:1001E80000000000000000006800002090260020A9
:1001F8000000000000000000F8B500BFF8BC08BC13
:100208009E467047F8B500BFF8BC08BC9E467047CC
:08021800450200082102000864
:1002200010B5054C237833B9044B13B10448AFF330
:1002300000800123237010BD680000200000000032
:1002400008F1000808B5034B1BB103490348AFF39D
:10025000008008BD000000006C00002008F10008CC
:10026000A3F5803A704700BF174B002B08BF134B14
:100270009D46FFF7F5FF00218B460F461348144AB1
:10028000121A0DF0C1F90E4B002B00D098470D4B00
:10029000002B00D098470020002104000D000D48DD
:1002A000002802D00C48AFF300800DF087F9200041
:1002B00029000BF0F3FD0DF06DF900BF0000080000
:1002C0000000000000000000005000206800002036
:1002D000902600200000000000000000014B18687C
:1002E000704700BFE822002030B583B0002301939F
:1002F00003689A6812F0010F2ED104469A6842F002
:1003000001029A60164B1B68164AA2FB03239B0C42
:10031000019302E0019B013B0193019B002BF9D16A
:10032000FFF7DCFF054623689B6813F0010F11D12E
:10033000FFF7D4FF431B022BF5D9A36A43F0100348
:10034000A362E36A43F00103E362002384F82430EC
:10035000012002E0002000E0002003B030BD00BF1B
:100360000000002083DE1B4338B503689A6812F052
:10037000010F01D1002038BD04469A6822F0010225
:100380009A60FFF7ABFF054623689B6813F0010FE7
:100390000ED0FFF7A3FF431B022BF5D9A36A43F04E
:1003A0001003A362E36A43F00103E3620120E2E782
:1003B0000020E0E70138B0F1807F0BD24FF0E0235E
:1003C0005861054AF02182F8231000209861072225
:1003D0001A6170470120704700ED00E00379012B9E
:1003E0001BD010B401230371022343710468A36876
:1003F00043F00103A360002305E0046851F823C023
:10040000C4F800C001339342F7D3012343710023A2
:1004100003710368186810BC7047022070470346D8
:1004200001680A6822F00E020A6001680A6822F078
:1004300001020A60026CC06B012101FA02F2426003
:1004400083F82110002083F82000704708B590F849
:100450002130022B03D004238363012008BD0268EE
:10046000136823F00E0313600268136823F001037E
:1004700013600368194A934214D0143293421FD078
:10048000143293421ED0143293421ED0143293423F
:100490001ED01432934202D04FF0807203E04FF42A
:1004A000801200E001220E4B5A60012380F82130B7
:1004B000002380F82030436B6BB198470020CDE7D4
:1004C0001022F0E74FF48072EDE74FF48052EAE734
:1004D0004FF48032E7E70020C0E700BF0800024089
:1004E0000000024090F83D30DBB2222B01D000200A
:1004F0007047438D9BB2032B0BD903681A69436A7B
:10050000591C41621A70438D9BB2013B9BB24385DB
:10051000EDE7023B012B25D9C36A022B3BD00268D1
:10052000136823F4806313600268536823F4E06364
:10053000536003681A69436A591C41621A70438DFB
:100540009BB2013B9BB24385202380F83D300023C2
:10055000036390F83E30DBB2402B22D0002380F8BA
:100560003E30C4E7C36A022B0FD00268136823F43D
:10057000806313600268136843F4006313600268C9
:10058000536823F480635360B1E70268136843F44F
:1005900080631360F3E70268136843F480631360B9
:1005A000C2E7002380F83E30A1E7C26A438D9BB2C8
:1005B000032B10D0438D9BB2022B24D003681A6901
:1005C000436A591C41621A70438D9BB2013B9BB236
:1005D000438500207047042A04D0082A02D012F56F
:1005E000803F04D10268136823F4806313600368BA
:1005F0001A69436A591C41621A70438D9BB2013BD0
:100600009BB24385E5E7042A17D0082A15D012F5D6
:10061000803F12D0022A0AD00268136823F4806354
:1006200013600268536823F4407353600FE002685C
:10063000136843F480631360F3E70268536823F49C
:10064000407353600268136843F4007313600368D7
:100650001A69436A591C41621A70438D9BB2013B6F
:100660009BB2438503681A69436A591C41621A7038
:10067000438D9BB2013B9BB24385202380F83D30E4
:100680000023036390F83E30DBB2402B03D00023FD
:1006900080F83E309DE7002380F83E3099E790F8DF
:1006A0003E30DBB2402B10D00369B3F5804F1BD036
:1006B000036D5BBB436C0268C3F3C81303F006030E
:1006C00043F0F003136100207047036D2BB9436CB6
:1006D000026803F0FE031361F5E7436C026843F020
:1006E0000103DBB21361EEE790F83D30DBB2212B62
:1006F00006D0436C026843F00103DBB21361E2E70A
:10070000436C026803F0FE031361DCE7036D012B09
:10071000D9D1436C0268C3F3C81303F0060343F056
:10072000F1031361CFE7436C0268DBB21361002071
:10073000704710B48DB090F83E30DAB2C16A046BE5
:1007400090F83D30DBB2222B0BD000230B930368D3
:100750005A690B929B690B930B9B00200DB010BC48
:100760007047036D0BB9402A17D0036D1BB903699D
:10077000B3F5404F19D0438D9BB2002B25D1039385
:1007800003685A6903929A690392039A1A6842F4B9
:1007900000721A6000230365DFE7019303685A695A
:1007A00001929B690193019BD7E7002302930368A1
:1007B0005A6902929A690292029A1A6842F4807205
:1007C0001A60036D01330365C7E7438D9BB2012BAC
:1007D0001AD0438D9BB2022B6BD00268136843F48E
:1007E0008063136003685A6812F4006F03D05A687C
:1007F00042F480525A6000230A9303685A690A92AD
:100800009B690A930A9BC5E711F5803F16D004291E
:100810003DD008293BD0122C39D0C36A022B30D0EE
:100820000268136823F4806313600023069303684F
:100830005A6906929B690693069BABE702681368A8
:1008400023F48063136003685A6812F4006F0CD0BD
:100850001A6822F480621A600023049303685A69BC
:1008600004929B690493049B94E7002205925A69C1
:1008700005929A690592059A1A6842F400721A6004
:1008800088E70268136843F480631360CDE7026869
:10089000136823F4806313600023079303685A6985
:1008A00007929A690792079A1A6842F400721A60CE
:1008B00070E7C36A022B1BD00268136843F400631D
:1008C00013600023089303685A6908929A69089292
:1008D000089A1A6822F480621A6003685A6812F44F
:1008E000006F3FF457AF5A6842F480525A6051E7A4
:1008F0000268136843F4806313600023099303685C
:100900005A6909929B690993099BE6E790F83D3083
:10091000DAB2438D9BB27BB1436A591C41620168D4
:100920001B780B61438D9BB2013B9BB24385438D8A
:100930009BB20BB9292A01D0002070470268536886
:1009400023F48063536021230363282380F83D3020
:10095000F2E7438D9BB253B1436A5A1C426202686C
:100960001B781361438D9BB2013B9BB243850020F2
:10097000704790F83D30DAB2438D9BB2F3B110B4BA
:1009800003681969436A5C1C44621970438D9BB209
:10099000013B9BB24385438D9BB20BB92A2A02D0FF
:1009A000002010BC70470268536823F480635360D2
:1009B00022230363282380F83D30F1E700207047AD
:1009C000438D9BB253B103681A69436A591C416253
:1009D0001A70438D9BB2013B9BB243850020704748
:1009E00003689A699B6900207047000090F83D30C9
:1009F000DBB2C26A042A01D0082A01D1282B07D011
:100A0000212B1DD003686FF480625A61002070476B
:100A1000184BC3620268536823F4E06353600368B1
:100A20006FF480625A610268136823F48063136074
:100A300000230363202280F83D2080F83E30E5E764
:100A40000C4BC36221230363202380F83D30002335
:100A500080F83E300268536823F4E0635360036813
:100A60006FF480625A610268136823F48063136034
:100A7000CCE700BF0000FFFF10B5044690F83D3002
:100A8000293B012B36D990F83D30DBB2602B07D0E3
:100A900003685B6813F4006F02D1202380F83D30B7
:100AA0000023236384F83E302268136823F4006334
:100AB000136023685A6812F4006F3FD05A6822F41A
:100AC00000625A60636B93F82120012A18D0364ADD
:100AD0005A63606BFFF7BAFC002851D02268136894
:100AE00023F001031360202384F83D30606B436BD7
:100AF000984745E000230363282380F83D30D3E77F
:100B0000A36B294A5A63A06BFFF7A0FC002837D0DB
:100B100023685A6912F0400F04D01A69636A591C9D
:100B200061621A702268136823F0010313602023A6
:100B300084F83D30A06B436B984721E094F83D204A
:100B4000D2B2602A09D05A6912F0400F18D01A693F
:100B5000636A591C61621A7012E0202284F83D20F9
:100B6000002222645A6912F0400F04D01A69636AA5
:100B7000591C61621A702268136823F00103136024
:100B800094F83D30DBB2282B00D010BD236C13F05D
:100B9000040FFAD0054BE36200232363202284F87C
:100BA0003D2084F83E30F0E7890D00080000FFFF8B
:100BB00070B5044603685D695E68334A15420ED01D
:100BC00016F4807F0BD0026C42F0010202646FF4D5
:100BD00080725A610268136843F40043136015F48D
:100BE000813F0AD016F4807F07D0236C43F00203C4
:100BF000236423686FF400725A6115F4823F1AD09F
:100C000016F4807F17D094F83E30DBB2628D91B23B
:100C100094F83D20D2B2206B202B1DD0236C43F0E2
:100C20000403236494F83E30DBB2102B22D02368F7
:100C30006FF480625A6115F4843F0AD016F4807F05
:100C400007D0236C43F00803236423686FF4006229
:100C50005A61236CA3B970BD0029DFD1212A05D0C8
:100C6000292A03D0282AD9D12128D7D12046FFF715
:100C7000BDFEE0E72268136843F400731360D6E713
:100C80002046FFF7F9FEE6E70001010010B582B04B
:100C900090F83D30DBB201684A6822F4E0624A60B5
:100CA00000220192026851690191116841F001012D
:100CB0001160019A01680A6822F480620A60016882
:100CC0004A6812F4006F14D090F83D20D2B2222A64
:100CD0000AD090F83D20D2B22A2A05D0426B126881
:100CE000526892B2428504E0826B1268526892B2F6
:100CF0004285428D92B202B34A6912F0040F09D0C4
:100D00000969426A541C44621170428D92B2013AE0
:100D100092B242850268516911F0400F09D0116901
:100D2000426A541C44621170428D92B2013A92B2EE
:100D30004285026C42F004020264026C92B9282BD4
:100D400013D02A2B11D0292B0FD0026B222A01D0CD
:100D5000222B13D100230363202280F83D2080F84A
:100D60003E300BE0FFF788FE08E0064BC36200232D
:100D70000363202280F83D2080F83E30002002B03E
:100D800010BD00BF0000FFFF436A19680A6822F423
:100D900080620A6000225A85596B4A63996B4A63E4
:100DA00093F83D20D2B2602A0BD0202283F83D2058
:100DB000002283F83E201A68136823F001031360B1
:100DC0007047202283F83D20002283F83E201A64D9
:100DD0001A68136823F00103136070472DE9F0418E
:100DE00007460D4690461E4620E02EB1FFF776FAE4
:100DF000069BC01AB04219D900233B63202287F812
:100E00003D2087F83E3087F83C3003201EE03B68E9
:100E10009C6925EA040C1FFA8CFCBCFA8CFC4FEA96
:100E20005C1CE04511D1B6F1FF3FDED1C5F30743AD
:100E3000012BECD13B685B6925EA030C1FFA8CFCA3
:100E4000BCFA8CFC4FEA5C1CEBE70020BDE8F081AB
:100E50002DE9F04385B00446884691461D46FFF7CC
:100E60003DFA94F83D30DBB2202B03D0022005B0D0
:100E7000BDE8F0830646009019230122554920461B
:100E8000FFF7ACFF002840F09A8094F83C30012B2B
:100E900000F09780012384F83C3023681A6812F030
:100EA000010F03D11A6842F001021A602268136828
:100EB00023F400631360242384F83D30002323646B
:100EC000A3F58033E362012735E0A02384F83D30A9
:100ED00022685369C3F340035269C2F3802294F835
:100EE0003D10C9B253B94AB9A02907D0002DECD0A2
:100EF000FFF7F4F9801BA842EAD9E6E7202384F83B
:100F00003D3023685A6912F0020F35D11A6842F455
:100F100000721A6023686FF480625A610096192388
:100F200001222C492046FFF759FF00284FD17B1C96
:100F30004F453CD21F462268136843F48073136008
:100F400000962B4600224FF001112046FFF746FF86
:100F5000002838D1236808F0FE021A61FFF7BEF9B5
:100F6000064622685369C3F340035269C2F38022E4
:100F700094F83D10C9B2B5E71A6842F400721A60DD
:100F80000023039323685A6903929B690393039B8D
:100F90000096192301220F492046FFF71FFFA0B931
:100FA000202384F83D30002384F83C305FE7202381
:100FB00084F83D30002384F83C30012057E70220BC
:100FC00055E7022053E7032051E703204FE70320B2
:100FD0004DE700BF020010002DE9F04105460E4626
:100FE0001746984633E01A6842F400721A602B687C
:100FF0006FF480625A6104232B6400232B63202248
:1010000085F83D2085F83C3001202EE02FB1FFF718
:1010100065F9A0EB0800B84219D900232B63202200
:1010200085F83D2085F83C3003201EE02B689C6944
:1010300026EA0404A4B2003C18BF0124A4B12B6822
:101040005A6912F4806FCED1B7F1FF3FDED1C6F3FB
:101050000743012BEAD12B685C6926EA0404A4B299
:10106000003C18BF0124E9E70020BDE8F081000042
:10107000F0B583B004460D4616461F46C16A0429E2
:101080000DD001290BD011F5803F08D0036B122B36
:101090000AD10268136843F48073136004E0236884
:1010A000196841F4807119600097334600224FF0AF
:1010B00001112046FFF792FE70BB2369B3F5804F04
:1010C0000FD1236805F0FE051D613B4632461449E9
:1010D0002046FFF781FF00B3236C042B1AD00320B6
:1010E0001BE02268EB1103F0060343F0F0031361E9
:1010F0003B4632460B492046FFF76EFF30B1236C6A
:10110000042B01D0032008E0012006E02368EDB2A3
:101110001D61DAE7012000E0032003B0F0BD00BF4D
:10112000020001000800010070B505460C46164695
:101130002B68596911F0400F22D1596911F0100F35
:1011400011D124B1FFF7CAF8801BA042F0D92B6C53
:1011500043F020032B64202385F83D30002385F8DD
:101160003C30032070BD6FF010025A6100232B64E5
:101170002B63202285F83D2085F83C300120F1E7E3
:101180000020EFE703685A6912F4806F01D1002054
:1011900070476FF480625A61042303640023036381
:1011A000202280F83D2080F83C300120704770B547
:1011B00004460D46164623685B6913F0800F19D16B
:1011C0002046FFF7DFFFB8B9B5F1FF3FF3D025B1F7
:1011D000FFF784F8801BA842EDD9236C43F020036D
:1011E000236400232363202284F83D2084F83C30CC
:1011F000032000E0002070BD0120FCE72DE9F04352
:1012000085B004460D46914698460C9E0D9F036896
:10121000196841F4807119600097334600224FF03D
:101220000111FFF7DBFD00284ED1236805F0FE0514
:101230001D613B46324626492046FFF7CDFE30B1C0
:10124000236C042B01D003203FE001203DE000236C
:10125000039323685A6903929B690393039B3A465D
:1012600031462046FFF7A3FF58B1236C042B01D071
:1012700003202AE02268136843F4007313600120FE
:1012800023E0B8F1010F04D123685FFA89F61E61EB
:101290001BE023684FEA19221A613A46314620467C
:1012A000FFF785FF58B1236C042B01D003200CE01D
:1012B0002268136843F400731360012005E023687B
:1012C0005FFA89F61E6100E0032005B0BDE8F083F7
:1012D000020001002DE9F04784B004460D46164691
:1012E0009946DDF830800D9F0268136843F48063EF
:1012F00013600368196841F48071196000974346D0
:1013000000224FF00111FFF769FD00287ED15FFA3E
:1013100085FA236805F0FE051D613B4642463E49BD
:101320002046FFF759FE30B1236C042B01D0032077
:101330006DE001206BE00023039323685A69039258
:101340009B690393039B3A4641462046FFF72FFFD4
:1013500058B1236C042B01D0032058E02268136895
:1013600043F400731360012051E0B9F1010F0DD176
:101370002368F6B21E613A4641462046FFF717FF42
:1013800020B3236C042B1AD0032040E02368320AD8
:101390001A613A4641462046FFF709FF58B1236CCF
:1013A000042B01D0032032E02268136843F4007359
:1013B000136001202BE02368F6B21E61DBE7226890
:1013C000136843F400731360012020E0226813685F
:1013D00043F4807313600097434600224FF00111DD
:1013E0002046FFF7FBFCA8B922684AF0010313610D
:1013F0003B46424608492046FFF7EEFD38B1236CD4
:10140000042B01D0032002E0012000E0032004B0FF
:10141000BDE8F0870320FAE70200010070B504463A
:101420000D46164623685B6913F0040F19D1204658
:10143000FFF7A8FEB8B9B5F1FF3FF3D025B1FEF72D
:101440004DFF801BA842EDD9236C43F02003236499
:1014500000232363202284F83D2084F83C300320BD
:1014600000E0002070BD0120FCE700002DE9F04302
:1014700085B004460F46914698460C9EFEF72EFF17
:10148000054694F83D00C0B2202804D00227384613
:1014900005B0BDE8F0830095192301225549204687
:1014A000FFF79CFC002840F0A08094F83C30012B12
:1014B00000F09D80012384F83C3023681A6812F004
:1014C000010F03D11A6842F001021A602268136802
:1014D00023F400631360212384F83D30102384F843
:1014E0003E3000232364C4F82490A4F82A80A3F596
:1014F0008033E362638D23852B463246394620468E
:10150000FFF7B6FD074660B1236C042B04D000231F
:1015100084F83C300327BAE7002384F83C300127E5
:10152000B5E70023039323685A6903929B690393E9
:10153000039B12E0236C042B01D00327A7E722684A
:10154000136843F4007313600127A0E72A4631466D
:101550002046FFF763FF00282DD1238D002B36D0C6
:101560002A4631462046FFF722FE0028E2D1636A70
:101570005A1C626222681B781361618D89B201393D
:1015800089B26185238D013B9BB223852268516915
:1015900011F0040FDAD0002BD8D0636A591C6162B5
:1015A0001B781361638D9BB2013B9BB26385238DD6
:1015B000013B2385CAE7236C042B01D0032766E790
:1015C0002268136843F40073136001275FE7226801
:1015D000136843F400731360202384F83D30002324
:1015E00084F83E3084F83C3051E702274FE7022769
:1015F0004DE700BF0200100086B0164B0FCB0DF177
:10160000180C0CE90F0040F20123ADF80430124B26
:101610005B6803F00C02082A02D0104806B070473D
:10162000C3F38342624412F8100C13F4803F0CD0D1
:10163000094B5B68C3F34043634413F8143C074A07
:1016400002FB00F0B0FBF3F0E8E7054B03FB00F012
:10165000E4E700BF58DF00080010024000127A00E3
:1016600000093D00014B1868704700BF00000020D2
:1016700008B5FFF7F7FF044B5B68C3F30223034A87
:10168000D35CD84008BD00BF001002407CE30008D6
:1016900008B5FFF7E7FF044B5B68C3F3C223034AB7
:1016A000D35CD84008BD00BF001002407CE30008B6
:1016B00082B0084B1B68084AA2FB03235B0A00FBAD
:1016C00003F3019300BF019B5A1E0192002BF9D135
:1016D00002B0704700000020D34D6210C0B138B591
:1016E00005460268536823F008035360FEF7F6FDD1
:1016F00004462B685B6813F0080F07D1FEF7EEFD78
:10170000001BB0F57A7FF4D9032000E0002038BD3B
:101710000120704710B4026894691FFA84FCD369F1
:10172000916988B2844505D0D06980B240EA014011
:1017300010BC704798B240EA0440F9E70368186AA1
:101740005B6A9BB243EA0040704738B50446FEF737
:10175000C5FD054623685A6812F0200F07D1FEF731
:10176000BDFD401BB0F57A7FF4D9032004E05A6830
:1017700042F010025A60002038BD38B504460268B5
:10178000536823F010035360FEF7A8FD0546236855
:101790005B6813F0200F07D1FEF7A0FD401BB0F5EA
:1017A0007A7FF4D9032000E0002038BD38B5054623
:1017B0000C46FFF7CAFF08B1012038BD2B68220C88
:1017C0009A612B68A4B2DC612846FFF7D6FF002897
:1017D000F3D00120F1E738B505460C46FFF7B5FF19
:1017E00008B1012038BD2B68220C1A622B68A4B204
:1017F0005C622846FFF7C1FF0028F3D00120F1E723
:10180000002302E001330A38C0B20928FAD81B01CC
:10181000DBB218437047030903EB830300F00F00AA
:1018200000EB4300C0B2704710F0030F14D10D4B12
:10183000A3FB00235B09642202FB13039BB26BB979
:10184000084BA3FB0023DB094FF4C87202FB130013
:1018500080B228B9012070470020704701207047EE
:10186000002070471F85EB5100F5FA6C022921D842
:1018700001EB4103C1EBC3011E4BA3FB011302EBC0
:101880005303634400F2CF7003EB90031A4AA2FBA8
:101890000020A3EB501303EBD01304331748A0FB35
:1018A00003201A1A00EB52008008C0EBC000181A7F
:1018B000C0B2704701EB4103C1EBC3010D4BA3FB69
:1018C000011302EB5303634403EB9C030A4AA2FB9C
:1018D0000C2CA3EB5C1303EBDC1302330748A0FBD7
:1018E00003201A1A00EB52008008C0EBC000181A3F
:1018F000DEE700BF398EE3381F85EB51254992247E
:101900002DE9F84380460F4690F80F90447B857B85
:10191000002603E01E2D1FD801350136BE423DD200
:10192000012CF7D0032CF5D0052CF3D0072CF1D0E7
:10193000082CEFD00A2CEDD00C2CEBD0042C15D0B9
:10194000062C13D0092C11D00B2C0FD0022CE4D173
:101950001B2D12D80135E0E70C2C02D001340125F3
:10196000DBE709F1010901252C46D6E71D2D01D839
:101970000135D2E701340125CFE71C2D04D01D2D00
:10198000CBD101340125C8E71FFA89F0FFF74CFFDE
:1019900008B10135C1E701340125BEE788F80F9091
:1019A000E1B288F80D10EAB288F80E204846FFF739
:1019B0005BFF88F80C00BDE8F8832DE9F04106468E
:1019C000884617461D463CE02DB1FEF787FC069B76
:1019D000C01AA84235D33268536823F0E00353603D
:1019E0007368B3F5827F0BD0B36AB3F5005F14D090
:1019F000012386F85130002386F85030032029E077
:101A0000B368B3F5004F02D0B3F5806FECD1326804
:101A1000136823F040031360E6E73268136823F489
:101A200000531B041B0C13603268136843F400530B
:101A30001360DDE74FF0010CBC450AD0B5F1FF3F64
:101A4000C2D13468A46838EA0403F3D04FF0000C24
:101A5000F2E70020BDE8F08110B582B004460B46E5
:101A6000009200228021FFF7A8FF08B902B010BD44
:101A7000636D43F0200363650320F7E703681B4AA7
:101A800090420AD0B0F1804F07D0A2F59432904234
:101A900003D002F58062904203D123F070034A68BC
:101AA0001343124A90420AD0B0F1804F07D0A2F5FA
:101AB0009432904203D002F58062904203D123F425
:101AC0004073CA68134323F080034A6913430360D9
:101AD0008B68C3620B688362044B984202D0012377
:101AE000436170470B690363F9E700BF002C0140B5
:101AF00010B504460268D36823F4F073D36002681B
:101B0000536923F00103536103685A6912F0800F8F
:101B10000AD05A6922F080025A61036B23B1002275
:101B20005A63006BFEF77BFC23685A6912F0400F82
:101B30000AD05A6922F040025A61636B23B1002235
:101B40005A63606BFEF76BFC0020E084E085E06385
:101B5000202384F83A3084F8393010BD436A0022DB
:101B6000DA85DA8470472DE9F84305460F461646B4
:101B70009946DDF820802C68246837EA04030CBFFE
:101B80004FF0010C4FF0000CB4451FD1B8F1FF3FEE
:101B9000F1D0B8F1000F05D0FEF7A0FBA0EB0900D3
:101BA0004045E8D92A68D36823F4D073D3602A6803
:101BB000536923F001035361202385F8393085F8F8
:101BC0003A30002385F83830032000E00020BDE8DB
:101BD000F8832DE9F04182B01E4690F83930DBB22F
:101BE000202B55D104460D469046002954D0002A9A
:101BF00054D090F83830012B52D0012380F838307F
:101C00000023C363212380F83930FEF767FB0746C2
:101C1000A4F82480A4F8268010E000963B46002219
:101C200080212046FFF79FFF00283BD12B882268A8
:101C3000C3F3080353602369CBB90235E38C9BB22D
:101C4000BBB1E28C92B2013A92B2E284A368B3F5DE
:101C5000805FE2D000963B46002280212046FFF7BD
:101C600082FF08BB15F8012B23685A60E6E70135AF
:101C7000E4E700963B46002240212046FFF773FF31
:101C8000A0B9202384F83930002384F8383000E0EC
:101C9000022002B0BDE8F0810120FAE70120F8E758
:101CA0000220F6E70320F4E70320F2E70320F0E741
:101CB0002DE9F04182B01E4690F83A30DBB2202B7D
:101CC0005BD104460D46904600295AD0002A5AD0CE
:101CD00090F83830012B58D0012380F83830002399
:101CE000C363222380F83A30FEF7F8FA0746A4F8D7
:101CF0002C80A4F82E801DE000963B460022202177
:101D00002046FFF730FF002841D1236933B923680B
:101D10005B68C3F3080325F8023B0BE023685B68AC
:101D2000DBB225F8013B05E023685B6803F07F0325
:101D300005F8013BE38D9BB2C3B1E28D92B2013A4B
:101D400092B2E285A368B3F5805FD5D000963B469A
:101D5000002220212046FFF706FFD0B92369002B7F
:101D6000E2D123685B6805F8013BE3E7202384F8B0
:101D70003A30002084F8380000E0022002B0BDE8CC
:101D8000F0810120FAE70120F8E70220F6E70320BE
:101D9000F4E70320F2E70268D36823F49073D3607A
:101DA0000268536923F001035361202380F83A301D
:101DB000704790F83930DBB2212B01D002207047F8
:101DC0008368B3F5805F17D0036A5A1C02621A78E1
:101DD00003685A60C38C9BB2013B9BB2C3844BB96E
:101DE0000268D36823F08003D3600268D36843F0AD
:101DF0004003D36000207047036A1B880268C3F366
:101E00000803536003691BB9036A02330362E1E705
:101E1000036A01330362DDE72DE9F04385B0044630
:101E20000F46435633BB042528462146ABBE044625
:101E3000384605B0BDE8F08314F901CB04AA1A4472
:101E400002F810CC0133AB42F6D304AA13440022AB
:101E500003F8102C4FF00408E94640464946ABBE53
:101E60008046761B002EE3D03546102E28BF102565
:101E70000023E8E70E46F5E708B5FFF7CDFF08BDFC
:101E80009A4200D28854704770470146002008E00B
:101E900000EB8000531C0B6092F9003003EB400014
:101EA00030380A6892F90030303BDBB2092BEFD9A9
:101EB00070472DE9F04F83B005460E4693461F4606
:101EC000DDF830A00D9CDDF838900F9B13F0030F68
:101ED00019D1A0460192C84509D202F1010B3B4637
:101EE00031462020A84708F101085A46F3E7DDF8FB
:101EF00004B008E0013C02F101083B4631461AF902
:101F00000400A8474246002CF4D10F9B13F0020FA7
:101F100003D1104603B0BDE8F08FA2EB0B034B4595
:101F2000F7D2541C3B4631462020A8472246F4E70E
:101F30002DE9F04385B00C9D0D9C9DF83890DDF89F
:101F40003C80DDF840E0119F129E16F0020F21D177
:101F50007FB116F0010F0CD0B9F1000F02D116F0CD
:101F60000C0F06D0013F04E04FF0300C05F804C020
:101F70000134744501D21F2CF6D916F0010F09D097
:101F8000BC4207D21F2C05D84FF0300C05F804C016
:101F90000134F2E716F0100F17D016F4806F04D159
:101FA0001CB1744524D0BC4222D0B8F1100F2BD004
:101FB000B8F1100F33D0B8F1020F3BD01F2C04D86A
:101FC0004FF0300C05F804C001341F2C07D8B9F1CC
:101FD000000F37D04FF02D0C05F804C001340396E4
:101FE000029701940095FFF764FF05B0BDE8F08308
:101FF000B4F1010C06D0B8F1100F01D06446D4E75B
:10200000023CD2E76446D0E716F0200FD0D11F2C57
:10201000CED84FF0780C05F804C00134CEE716F0A6
:10202000200FC8D01F2CC6D84FF0580C05F804C09C
:102030000134C3E71F2CC1D84FF0620C05F804C06F
:102040000134BBE716F0040F05D04FF02B0C05F858
:1020500004C00134C3E716F0080FC0D04FF0200CC5
:1020600005F804C00134BAE72DE9F04190B0169CA0
:10207000189E1B9F0CB927F0100717F4806516D027
:1020800074B3002513E00EF1300C4FFA8CFC05F10F
:10209000010E0DF14008454405F820CCB4FBF6FCD8
:1020A000B4421ED3BEF11F0F1BD875466446B4FB65
:1020B000F6FC06FB1C4E4FFA8EFCBCF1090FE2DD6C
:1020C00017F0200F09D04FF0410CF4445FFA8CFC5C
:1020D000ACF10A0C4FFA8CFCD9E74FF0610CF4E735
:1020E000A64606971A9C0594199C049403969DF89D
:1020F0005C400294CDF804E008AC0094FFF718FFB0
:1021000010B0BDE8F0812DE9F04F95B009900A912B
:102110000B929B461E9D1F9E229FDDF88C80DDF852
:1021200098A055EA060301D12AF0100A1AF4806437
:102130001CD055EA06032DD0002417E0303252B2ED
:1021400004F1010914AB1C4404F8202C3A46434620
:10215000284631460BF094F8BD4276EB08031BD3BA
:10216000B9F11F0F18D84C4605460E463A4643466D
:10217000284631460BF084F853B2092BDEDD1AF005
:10218000200F05D041231A44D2B20A3A52B2D7E7FF
:102190006123F8E74FF00009CDF818A0259B0593BF
:1021A000249B049303979DF880300293CDF804900C
:1021B0000CAB00935B460B9A0A990998FFF7B8FE9F
:1021C00015B0BDE8F08F00002DE9F04F93B08346C5
:1021D0000D4614469A461C9E07961D9F0897324648
:1021E0003B46304639460AF0A5FA002800F00C813B
:1021F0004FF0FF32AE4B304639460AF0C3FA0028A2
:1022000040F002814FF0FF326FF4801330463946C0
:102210000AF09AFA002840F0F78000220023079E77
:102220003046089F39460AF08FFA002840F0FF80B8
:10223000079A089B09921093209B13F480631193D3
:1022400001D106231E93099A109BC3F30A50C3F3CE
:102250001303164643F07F5747F44017A0F2FF30B0
:102260000AF0A8F982A3D3E900230AF095FA82A321
:10227000D3E900230AF052F88046894600228D4BAC
:10228000304639460AF048F87DA3D3E900230AF026
:1022900083FA02460B46404649460AF03FF80AF0E8
:1022A0008DFC81460AF086F906460F4676A3D3E9EF
:1022B00000230AF071FA00227F4B0AF02FF80AF08F
:1022C0007DFC804672A3D3E90023304639460AF0EC
:1022D00063FA06460F4640460AF06CF96EA3D3E94E
:1022E00000230AF059FA02460B46304639460AF0F6
:1022F00013F806460F4602460B460AF04DFACDE9A2
:102300000C0108F2FF3800210022CDE90A124FEA41
:1023100008510B9100210A9132463B46304639461E
:1023200009F0FCFFCDE90E0132463B4600204FF09C
:10233000804109F0F1FF06460F4600225F4BDDE9C0
:102340000C010AF053FB00225D4B09F0E7FF024647
:102350000B46DDE90C010AF049FB0022594B09F05C
:10236000DDFF02460B46DDE90C010AF03FFB0246A9
:102370000B463046394609F0D1FF02460B46DDE9EF
:102380000E010AF033FB00224F4B09F0C7FFDDE9D5
:102390000A230AF001FA06460F46CDE90A67099AB0
:1023A000109B0AF0EFF948B109F1FF390022444BC4
:1023B000304639460AF01AFBCDE90A0109F16303F8
:1023C000C62B39D80426209B13F4006F3ED034A3CB
:1023D000D3E90023DDF824804046109F39460AF0F7
:1023E000C7F9002837D030A3D3E900234046394647
:1023F0000AF0AAF900282ED01E9B4B451EDDA3EB48
:102400000903013B1E931BE0209B04931F9B039336
:102410001E9B0293079A089BCDE900235346224650
:102420002946584600F0BCF813B0BDE8F08F099675
:1024300007F100431093FFE60526C4E700231E932F
:10244000209B43F4806320930026B1461F9B9E424D
:102450003CD29F1B3BE01E9B002BF7D0119B002B17
:10246000F4D01E9B013B1E93F0E700BFAFF300804A
:10247000FB799F501344D33FB3C8608B288AC63F73
:1024800061436F63A787D23F71A379094F930A40D5
:102490001655B5BBB16B0240EF39FAFE422EE63F4E
:1024A0002D431CEBE2361A3F0000000080842E41D1
:1024B000FFFFEF7F0000F83F0000E03F00002C40EE
:1024C00000002440000018400000F03F0027209B3F
:1024D00013F0020801D006B10027B9F1000F07D0B0
:1024E000DDE90A23099810990AF080FA0990109101
:1024F00000220023079808990AF026F900283BD10A
:10250000209B23F40063049303971E9B0293099A74
:10251000109BCDE90023534622462946584600F039
:102520003FF8002E80D0209B13F0200F29D04527A4
:10253000431C07935346024629463846D84789EA42
:10254000E973A3EBE97305220592013E049600228C
:1025500003920A2202924FEAD970019000935346E7
:10256000079A29465846FFF77FFDB8F1000F3FF460
:102570005BAF02461F9F0CE0109901F100431093DE
:10258000BEE76527D4E7561C534629462020D84786
:102590003246131BBB42F6D3104645E7000000004D
:1025A0002DE9F04F97B007900A9192469B46DDE9DE
:1025B0002089229D42464B46404649460AF0BAF8D9
:1025C00000283FD04FF0FF326FF480134046494659
:1025D0000AF0BAF8002844D14FF0FF32AC4B404625
:1025E00049460AF0CFF800284AD1A5A3D3E9002331
:1025F000404649460AF0C6F8002859D1A2A3D3E9BB
:102600000023404649460AF09FF8002850D1002296
:102610000023404649460AF097F8002856D1002387
:102620000B93249B13F4806F5BD000241F2C5AD88B
:10263000092D58D916AB2344302203F8202C013D34
:102640000134F3E7249B0393239B02930323019319
:10265000904B00935B4652460A990798FFF729FC76
:1026600009E1249B0393239B0293042301938A4B48
:1026700000935B4652460A990798FFF71AFCFAE066
:10268000249B13F004030FD0844A7BB104232499C4
:10269000039123990291019300925B4652460A9955
:1026A0000798FFF706FCE6E07D4AEEE70323EEE736
:1026B000249B0493239B03930295CDE900895B46F9
:1026C00052460A990798FFF77FFDD4E042464B46F1
:1026D0000020002109F020FE8046894601230B934B
:1026E0009FE70625A1E7404649460AF067FA0646F5
:1026F00009F060FF02460B464046494609F00CFED1
:10270000684B03EBC503D3E90023CDE90C230AF0A2
:1027100043F802460B46CDE908230AF077FA07464C
:1027200009F038FF02460B46DDE9080109F0F4FD27
:1027300002460B46CDE9082300225B4B0AF022F843
:1027400050B30137384609F025FF02460B46DDE954
:102750000C010AF003F808B10136002755BB3046DA
:1027600009F028FF02460B464046494609F0D4FDD1
:102770000746884600224C4B09F0E6FF38B100229C
:10278000494B3846414609F0FDFF00283ED016F07F
:10279000010F3BD0013639E00022434BDDE908014F
:1027A00009F0D2FF0028D9D117B117F0010FD5D009
:1027B0000137D3E71F2C15D8013D3C4BA3FB072362
:1027C000DB08194603EB8303A7EB43033033621C9A
:1027D00016A8044404F8203C092F02D90F461446D9
:1027E000E8E714461F2C09D86B1E3DB116AA2244F7
:1027F000302102F8201C1D460134F3E71F2C05D8B8
:1028000016AB23442E2203F8202C01341F2C15D89C
:10281000274A82FB0632F317C3EBA2031A4603EBE7
:102820008303A6EB43033033611C16A8044404F869
:10283000203C16460AB10C46E8E70C46249B03F000
:102840000303012B36D01F2C08D80B9B002B4DD037
:1028500016AB23442D2203F8202C0134249B039330
:10286000239B029301940EAB00935B4652460A9958
:102870000798FFF71EFB17B0BDE8F08FAFF300809D
:102880000000000065CDCD410000000065CDCDC148
:10289000FFFFEF7F78DF00087CDF000870DF0008B3
:1028A0006CDF000810EE00080000E03FCDCCCCCC7F
:1028B00067666666239BABB10B9B1BB9249B13F029
:1028C0000C0F11D0239B013B2393194605E016AB57
:1028D0002344302203F8202C01348C42B3D21F2C25
:1028E000F5D9B0E72399F8E72399F6E7249B13F08D
:1028F000040F06D016AB23442B2203F8202C0134FE
:10290000ACE7249B13F0080FA8D016AB2344202279
:1029100003F8202C0134A1E72DE9F04F8FB00746D2
:1029200016460D938846002900F02D8300240D9B48
:1029300093F90000002800F02883252809D0651CA1
:10294000334622464146B8470D9B01330D932C4632
:10295000EDE701330D9300250D9B93F90010A1F1D4
:102960002002102A0AD8DFE802F03A09093F0909D3
:10297000090909090935093009092B00A1F13003BA
:10298000DBB2092B35D92A2938D000230A930D9BB5
:1029900093F900202E2A41D04FF0000B0D9A92F9A6
:1029A0000030683B122B7AD8DFE803F06679D779DC
:1029B0005779797979797979757979797979DC00C3
:1029C00045F0010501330D93C6E745F002050133DB
:1029D0000D93C1E745F0040501330D93BCE745F0C5
:1029E000080501330D93B7E745F0100501330D934A
:1029F000B2E70DA8FFF749FA0A90C8E7189B1A1D1D
:102A000018921868002804DB0A900D9B01330D937F
:102A1000BDE745F0020543420A93F6E745F48065B9
:102A20005A1C0D9293F90120A2F13003DBB2092B5D
:102A300004D92A2A07D04FF0000BAFE70DA8FFF703
:102A400024FA8346AAE7189B1A1D18921B6823EAEA
:102A5000E37B0D9B01330D93A0E745F48071531C7C
:102A60000D9392F901206C2A01D00D4617E045F430
:102A7000407501330D9312E045F08001531C0D9316
:102A800092F90120682A01D00D4608E045F0C00502
:102A900001330D9303E045F4807501320D920D9BD7
:102AA00093F90000A0F12503532B00F26282DFE8C6
:102AB00013F0550260026002600260026002600270
:102AC00060026002600260026002600260026002F6
:102AD00060026002600260026002600260026002E6
:102AE00060026002600260026002600260026002D6
:102AF00060027401540174016002600260026002AD
:102B000060026002600260026002600260026002B5
:102B100060026002600260025E00600260026002A9
:102B20006002600260026002600260025E009B015F
:102B30005E0074015401740160025E006002600274
:102B40006002600260025E003A0260026002D5012B
:102B500060025E00600260025E0045F400750132B2
:102B60000D929CE745F4807501320D9297E7782825
:102B700009D058283AD06F283AD062283AD025F0A8
:102B800010050A2300E01023582835D0692803D007
:102B9000642801D025F00C0515F4806F01D025F0D4
:102BA000010569282BD0642829D015F4007F40F056
:102BB000978015F4807F40F0AE8015F0400F00F054
:102BC000BF80189A111D1891127805950A990491E1
:102BD000CDF80CB0029300230193009233462246B5
:102BE00041463846FFF740FA04462AE01023CBE777
:102BF0000823C9E70223C7E745F02005C6E715F417
:102C0000007F22D115F4807F43D115F0400F59D0B9
:102C1000189A111D189192F9002082EAE271A1EB35
:102C2000E27105950A980490CDF80CB00293D20F8A
:102C3000019200913346224641463846FFF714FA86
:102C400004460D9B01330D9371E6189A073222F06A
:102C5000070202F10801189151681268084600291C
:102C600013DB08950A9D0795CDF818B0049300234F
:102C70000593C90F029100920190334622464146C6
:102C80003846FFF740FA0446DBE7524261EB410069
:102C9000E7E7189A111D1891126882EAE271A1EB18
:102CA000E27105950A980490CDF80CB00293D20F0A
:102CB000019200913346224641463846FFF7D4F947
:102CC0000446BEE715F0800F05D0189A111D189123
:102CD000B2F90020A1E7189A111D189112689CE71B
:102CE000189A073222F0070202F10801189108959C
:102CF0000A990791CDF818B000210493059102912B
:102D00000CCACDE900233346224641463846FFF738
:102D1000FAF9044695E7189A111D189105950A9934
:102D20000491CDF80CB00293002301931368009333
:102D30003346224641463846FFF796F9044680E777
:102D400015F0800F04D0189A111D189112883CE7D5
:102D5000189A111D1891126837E746281AD0189B47
:102D6000073323F0070303F10802189204950A9A27
:102D70000392CDF808B0D3E90023CDE90023334610
:102D8000224641463846FFF70BFC04460D9B0133B3
:102D90000D93CCE545F02005E1E7672801D04728F1
:102DA00001D145F40065452801D0472801D145F0FF
:102DB0002005189B073323F0070303F1080218923C
:102DC00004950A9A0392CDF808B0D3E90023CDE91F
:102DD00000233346224641463846FFF7F5F90446BC
:102DE0000D9B01330D93A2E515F0020520D04FF0A5
:102DF00001091898031D189304F1010A334622466D
:102E0000414690F90000B847BDB90D9B01330D93C1
:102E100054468CE502F1010A334641462020B8476A
:102E20004B46524603F101099B45F3D81446E0E7AF
:102E30000123DDF828B02246F4E75246DDF828A049
:102E400006E0551C334641462020B847A1462A4695
:102E500009F10104CA45F4D89246D6E7189B1A1D19
:102E60001892D3F800A0BBF1000F1ED14FF0FF3332
:102E7000D14602E009F10109134699F9002012B187
:102E80005A1E002BF6D1A9EB0A0915F480630B93A7
:102E900002D0D94528BFD94615F002030C9306D0BD
:102EA00022465C46B3460B9E1DE05B46E0E72246A9
:102EB0000A9C4B4607E002F10109334641462020B7
:102EC000B8472B464A465D1C9C42F4D8A9465C464E
:102ED000B3460B9E07E01C460AF1010A551C5B46EF
:102EE0004146B8472A469AF9000020B1002EF3D097
:102EF000631E002CEFD114465E460C9B1BB90D9B44
:102F000001330D9313E5DDF828A006E0551C334688
:102F100041462020B847A1462A4609F10104CA4586
:102F2000F4D81446EBE745F02105189B1A1D1892BA
:102F30001B68059508220492CDF80CB0102202926D
:102F40000022019200933346224641463846FFF75D
:102F50008BF804460D9B01330D93E8E4651C334662
:102F6000224641462520B8470D9B01330D932C4640
:102F7000DDE4651C334622464146B8470D9B0133CC
:102F80000D932C46D3E4074FD0E4B44201D3721E14
:102F900000E02246334641460020B84720460FB0A5
:102FA000BDE8F08F891E000882B0064B5A6942F0D6
:102FB00040025A615B6903F040030193019B02B038
:102FC000704700BF0010024070B504460E4615461B
:102FD000002303706423012229463046FDF738FFA1
:102FE00038B966602572FF23237004F50053002270
:102FF0009A72204670BD00F500539B7A002BFAD1DF
:10300000704780280FD880290FD8C90189B20144A0
:1030100088B2C1F34E01118080F0010202F001027A
:103020001A70FF2070470020704700207047000092
:1030300082B001919DF804209DF80530B62101FB76
:1030400003F3362101FB02339DF8062002EBC20296
:1030500003EB4203084AA2FB03129B1A02EB530341
:10306000C3F3C72300F50052D3720F2B01D90F23EE
:10307000D37202B0704700BF0101100010B582B0DA
:103080000446084611460DF105030DF10602FFF74F
:10309000B8FF80B19DF805307BB1BDF80620224411
:1030A000937A03F00F03937204F50054E17A090157
:1030B000C9B20B43937202B010BDBDF80620224482
:1030C000937A03F0F003937204F50054E17A01F06F
:1030D0000F010B439372EEE710B584B00446084627
:1030E000114600238DF808308DF809308DF80A302C
:1030F0000DF105030DF10602FFF783FF28B39DF8DC
:1031000005304BB3BDF806002044837A1B0903EB5E
:103110000313DBB28DF808308DF809308DF80A30D2
:10312000029BADF80C301B0C8DF80E3000209DF882
:103130000C3063F307009DF80D3063F30F209DF80A
:103140000E3063F3174004B010BD029BADF80C3095
:103150001B0C8DF80E30E9E7BDF806002044837A99
:1031600003F00F03D3E7802070478020704700F5FD
:1031700000539B7A1BB100F5005000238372704707
:1031800008B50268034B9A4200D008BD0248FFF719
:10319000EEFFFAE7005400402C01002010B590F833
:1031A0003D30DBB290F83E20D2B2C46A018D09B93D
:1031B000212B05D0212B38D0402A34D0002010BD3F
:1031C000042C04D0082C02D014F5803F17D10268DB
:1031D000536823F4E06353600268136843F4007398
:1031E000136000230363202380F83D3090F83E30C5
:1031F000DBB2402B11D0002380F83E30DEE70268BE
:10320000536823F4E063536011230363002380F8C1
:103210003E30202380F83D30D0E7002380F83E3058
:10322000FFF7AEFFCAE7222BC8D1438D9BB22BB963
:103230000268536823F480635360BFE790F83E3020
:10324000DBB2402B0BD0436A5A1C426202681B78E7
:103250001361438D9BB2013B9BB24385AEE7036D87
:103260009BB9C36C012B08D0836C0268C3F307239E
:103270001361036D01330365A0E7836C0268DBB261
:103280001361036D0233036598E7036D012B18D0BA
:10329000036D022B92D190F83D30DBB2222B18D077
:1032A00090F83D30DBB2212B88D1436A5A1C426230
:1032B00002681B781361438D9BB2013B9BB243852F
:1032C0007CE7836C0268DBB21361036D0133036535
:1032D00074E70268136843F4807313606EE708B5FF
:1032E000C26A90F83D30DBB2212B01D0002008BD2E
:1032F000438D9BB25BB1436A5A1C426202681B78E1
:103300001361438D9BB2013B9BB24385EEE7042AD8
:1033100004D0082A02D012F5803F17D10268536802
:1033200023F4E06353600268136843F4007313608E
:1033300000230363202380F83D3090F83E30DBB259
:10334000402B11D0002380F83E30CFE7026853684D
:1033500023F4E063536011230363002380F83E30BD
:10336000202380F83D30C1E7002380F83E30FFF78E
:1033700007FFBBE7F8B5044603689F695E695D68AF
:1033800090F83E30DBB2102B25D0402B23D04C4B95
:10339000334013B115F4007F6ED14A4B334013B163
:1033A00015F4007F6BD1484B3B40002B6FD0474B4F
:1033B000334033B115F4806F03D0454B3340002BBD
:1033C00061D0434B334053B315F4007F27D02046E0
:1033D000FDF7BFFA23E016F0011F02D015F4007FBD
:1033E0001ED13C4B334013B115F4007F1CD1344B3C
:1033F000334013B115F4007F1AD1334B3B401BB35C
:10340000324B33402BB115F4806F02D0304B334038
:1034100093B12F4B334013B115F4007F10D1F8BD99
:103420002046FDF73CF9E8E72046FDF77CF9E4E7A4
:103430002046FDF77EF9E0E72046FFF7AFFEEEE716
:103440002046FFF74CFFEAE7234B33402BB115F43E
:10345000806F02D01E4B334053B11D4B3340002BC5
:10346000DDD015F4007FDAD02046FDF79EF8D6E7D0
:103470002046FDF737F8D2E7FDF7B2FACFE720464E
:10348000FDF704FCCBE72046FDF740FAC7E7124BF7
:1034900033402BB115F4806F02D00D4B334053B144
:1034A0000B4B3340002BBAD015F4007FB7D0204629
:1034B000FDF786FAB3E72046FDF75BFAAFE700BFFA
:1034C0000200010010000100040010008000010053
:1034D00004000100080001004000010082B0002348
:1034E000019302E0019B01330193019B312BF9D938
:1034F00002B0704782B0036AADF804301B0C8DF83F
:10350000063000209DF8043063F307009DF8053075
:1035100063F30F209DF8063063F3174002B0704745
:1035200008B5838B8B4205D3C38B934202D30369C7
:103530000068984708BD08B58368984708BDF8B586
:103540001E46C38BB34217D3054614468A4228BF92
:103550000C46878BA7420FD38A4238BF0A46974250
:1035600008D3174606E0324621462846FFF7D8FF23
:103570000134A4B2A742F6D2F8BDF8B50E46818B4D
:10358000B14217D305461C46934228BF1446C78B49
:10359000A7420FD3934238BF13469F4208D31F461A
:1035A00006E0224631462846FFF7BAFF0134A4B2AE
:1035B000A742F6D2F8BD03888B4219D9B0F802C0F1
:1035C000944517D94FEAD30C13F0070F01D00CF133
:1035D000010CCB080CFB023201F00701012303FAB6
:1035E00001F14368985C084000D17047FF207047A4
:1035F000002070470020F8E7062070471F2806D9F2
:10360000203800EB4000034B03EB8000704702487A
:10361000704700BF84E3000804EE000808B50168A5
:10362000CA6822F04002CA60202280F8392008F0DF
:10363000C3FB002008BD08B590F83A30DBB2222B5E
:1036400046D18368B3F5805F0FD003690BBB036875
:103650005A68836A591C81621A70C38D9BB2013B00
:103660009BB2C385F3B1002008BD826A036943B9E8
:1036700003685B68C3F308031380836A02338362C1
:10368000EBE703685B68DBB21380836A0133836214
:10369000E3E703685B68826A511C816203F07F0381
:1036A0001370DAE70268D36823F02003D36002685E
:1036B000D36823F48073D3600268536923F0010355
:1036C0005361202380F83A3008F088FB0020CBE7D4
:1036D0000220C9E710B5044602681368D168526930
:1036E00013F00F0005D113F0200F02D011F0200FBE
:1036F00013D128B112F0010213D111F4907F10D12F
:1037000013F0800F02D011F0800F5FD113F0400F43
:1037100002D011F0400F5DD110BD2046FFF78BFFA6
:10372000FAE713F0010F06D011F4807F03D0E06BAD
:1037300040F00100E06313F0040F04D01AB1E06B15
:1037400040F00200E06313F0020F04D01AB1E06B06
:1037500040F00400E06313F0080F04D01AB1E26BEC
:1037600042F00802E263E26B002AD5D013F0200F8A
:1037700002D011F0200F22D123685B6903F04003CF
:10378000E26B12F0080F00D1EBB12046FEF703FB0D
:1037900023685A6912F0400FBED05A6922F04002E5
:1037A0005A61636B002BB7D00C4A5A63606BFCF70D
:1037B0004DFE0028B0D0606B436B9847ACE72046C5
:1037C000FFF739FFD8E70023E363A5E72046FEF7BC
:1037D000F0FAA1E72046FFF721FF9DE75D1B0008F7
:1037E0000FB400B583B004AB53F8042B01938021D0
:1037F00007480AF05BF8002804DC03B05DF804EB2E
:1038000004B0704701460248FEF736FBF5E700BFFB
:1038100008220020F8B504460D4617461E462748E4
:10382000FFF7DEFF21682648FFF7DAFF61682548C9
:10383000FFF7D6FFA1682448FFF7D2FFE1682348CD
:10384000FFF7CEFF21692248FFF7CAFF61692148CF
:10385000FFF7C6FFA1692048FFF7C2FFE1691F48D3
:10386000FFF7BEFF1E48FFF7BBFF29461D48FFF7C5
:10387000B7FF1D4CE16A1D48FFF7B2FF216B1C48E2
:10388000FFF7AEFFE16B1B48FFF7AAFF15F0800FB3
:103890000AD115F4004F0CD11748FFF7A1FF069984
:1038A0001648FFF79DFFF8BD39461548FFF798FF0A
:1038B000EFE731461348FFF793FFEDE784DF000899
:1038C00094DF0008A4DF0008B4DF0008C4DF0008AC
:1038D000D4DF0008E4DF0008F4DF000804E000089B
:1038E00014E0000820E0000800ED00E030E00008EF
:1038F00040E0000850E0000880E0000888E0000890
:1039000060E0000870E0000810B5044609F09AFF76
:1039100001462046FEF7B0FA01210248FEF7ACFA54
:1039200010BD00BF1CE0000838B583691B888B42BE
:1039300001D0002038BD044603684568013B302BA8
:1039400069D8DFE803F046211C1C5E30332D1919BD
:1039500068191919191936192468192768396868F6
:1039600068686868686868686868686868686868D7
:1039700068686868681919004FF0FF330360A3692D
:103980000233A3610120D5E700230360F7E700239A
:103990000360F4E700232B606B60AB60EB60EEE745
:1039A00000230360EBE7AB680360E8E700230360F4
:1039B000E5E700230360E2E7BFF34F8F1749CA68CA
:1039C00002F4E062164B1343CB60BFF34F8F00BF8E
:1039D000FDE71449286809F023FF40B96B6813B963
:1039E00001232360CBE7042B05D0082B06D04FF032
:1039F000FF332360C3E702232360C0E70323236070
:103A0000BDE72B68023B012B02D9AB680360B6E728
:103A100000230360B3E700208CE700BF00ED00E067
:103A20000400FA05A0E0000808B509F0BBFE08BDD7
:103A3000F8B507460E461446501C09F0ABFE054685
:103A40002246B91909F0B6FE00232B552846F8BDC9
:103A500008B5002009F09EFE014B586008BD00BF6C
:103A600038210020024A136801331360704700BFF9
:103A7000E822002038B50446FCF730FC0546B4F1D6
:103A8000FF3F00D00134FCF729FC401BA042FAD3D1
:103A900038BD000008B5054B5B69034200D108BD85
:103AA000024B586108F03CF9F9E700BF00040140FF
:103AB000014B01221A62704700000E4290F83D004F
:103AC000704790F83930DBB2202B19D1D1B1DAB17F
:103AD00090F83830012B19D0012380F8383001627A
:103AE0008284C2840023C363212280F8392080F8B5
:103AF00038300168CA6842F08002CA6018467047D0
:103B00000220704701207047012070470220704753
:103B100090F83A30DBB2202B23D121B32AB390F8AE
:103B20003830012B23D0012380F838308162828520
:103B3000C2850023C363222280F83A2080F83830FF
:103B40000168CA6842F48072CA6001684A6942F03A
:103B500001024A610168CA6842F02002CA60184640
:103B600070470220704701207047012070470220F3
:103B70007047000008B503460C4A12685AB10B4A58
:103B80001068033323F003030344094A934206D821
:103B9000064A136008BD054A06491160EFE709F0BF
:103BA000F3FC0C2303604FF0FF30F3E7A02200206A
:103BB000004C00209026002000B530B9044D182498
:103BC00020462946ABBE0446FEE7024DF7E700BF9C
:103BD000260002002300020008B50348FFF794FE08
:103BE0000120FFF7E9FF00BFA4E0000808B50A467E
:103BF00001460248FFF7F4FDFFF7EEFFB8E00008CA
:103C000010B5044603683F4A934208D002F580622B
:103C1000934204D040F254413B48FFF7E7FF94F849
:103C20002430012B6CD0012384F824302046FCF78B
:103C30005BFB002860D1A36A23F4706323F00103C7
:103C400043F48073A3622368304A93422CD0A26A63
:103C500022F48012A2625A6812F4806F05D0A26A20
:103C600022F4405242F48052A262A26A12F4805FAF
:103C700030D0E26A22F00602E262002284F82420B8
:103C80006FF002021A602268536843F02003536009
:103C900023689A6802F46022B2F5602F1DD09A68FA
:103CA00042F480129A602AE0A2F58062526812F40F
:103CB000702FCCD0A26A42F48012A262114A5268DC
:103CC00012F4806FD1D0A26A22F4405242F48052A2
:103CD000A262CAE70022E262CFE70C4A934204D014
:103CE0009A6842F4A0029A6009E0A2F580625268E4
:103CF00012F4702FD3D1F3E7002384F8243010BDE1
:103D00000220FCE700240140E4E000080028014014
:103D100010B504460368154A934208D002F5806244
:103D2000934204D040F2C3411148FFF75FFF94F87B
:103D30002430012B17D0012384F824302046FCF7CF
:103D400013FB60B92268536823F020035360A36A11
:103D500023F4885323F0010343F00103A3620023FB
:103D600084F8243010BD0220FCE700BF002401408D
:103D7000E4E0000810B504460368074A934208D0FF
:103D800002F58062934204D04FF4B9610348FFF713
:103D90002DFF2368D86C10BD00240140E4E000082A
:103DA00010B5044603684E4A934208D002F580627B
:103DB000934204D040F2D9514A48FFF717FFE36815
:103DC000012B50D82369013B0F2B52D823685A6826
:103DD00012F0200F18D01A6812F0020F14D0A26A45
:103DE00012F0100F03D1A26A42F40072A2629A6824
:103DF00002F46022B2F5602F41D0204607F082FF26
:103E000023686FF012021A6023685A6812F0800F5C
:103E10001FD01A6812F0040F1BD0A26A12F0100F04
:103E200003D1A26A42F40052A2629A6802F4E0420C
:103E3000B2F5E04F3AD05A6812F4806F05D19A6813
:103E400002F46022B2F5602F2DD023686FF00C02CF
:103E50001A6023685A6812F0400F03D01B6813F0F1
:103E6000010F34D110BD40F2DA511E48FFF7BEFEFB
:103E7000A8E740F2DB511B48FFF7B8FEA6E7E2686F
:103E8000002ABAD15A6822F020025A60A36A23F4A9
:103E90008073A362A36A13F4805FAED1A36A43F078
:103EA0000103A362A9E7E268002ACED15A6822F092
:103EB00080025A60A36A23F48053A362A36A13F4B6
:103EC000807FC2D1A36A43F00103A362BDE7A36A66
:103ED00043F48033A36223686FF001021A60C1E7E4
:103EE00000240140E4E0000830B583B005460C46EC
:103EF0000023019303685C4A934208D002F5806274
:103F0000934204D040F2AA615848FFF76FFE23683D
:103F1000112B3AD86368013B0F2B3CD8A368072BC1
:103F20003FD895F82430012B00F09B80012385F8C1
:103F300024306368062B3AD82868426B03EB83036E
:103F4000053B1F21994022EA0102216801FA03F38F
:103F5000134343632368092B49D92868C26803EBDC
:103F600043031E3B0721994022EA0102A16801FA9E
:103F700003F31343C3602368103B012B45D9002092
:103F8000002385F8243003B030BD40F2AB613748E0
:103F9000FFF72CFEBEE740F2AC613448FFF726FE87
:103FA000BCE740F2AD613148FFF720FEB9E70C2BCA
:103FB0000ED82868026B03EB8303233B1F21994033
:103FC00022EA0102216801FA03F313430363C1E704
:103FD0002868C26A03EB8303413B1F21994022EA10
:103FE0000102216801FA03F31343C362B2E72868B0
:103FF000026903EB43030721994022EA0102A16809
:1040000001FA03F313430361B5E72B68164A9342A1
:1040100005D0AB6A43F02003AB620120B0E79A6899
:1040200012F4000F1BD19A6842F400029A602368D0
:10403000102B01D00020A3E70D4B1B680D4AA2FBFB
:1040400003239B0C03EB83035B00019302E0019BC2
:10405000013B0193019B002BF9D1002090E7002048
:104060008EE702208FE700BF00240140E4E0000853
:104070000000002083DE1B4370B505460C46164643
:104080000F2A25D80F2C28D81B4BDB68C3F302233B
:10409000C3F10701042928BF04211A1D062A21D9CA
:1040A000033B4FF0FF3202FA01F124EA01049C4085
:1040B00002FA03F326EA03063443002D14DB24013D
:1040C000E4B205F1604505F5614585F8004370BD32
:1040D000BA210A48FFF78AFDD4E7BB210748FFF75A
:1040E00085FDD1E70023DCE705F00F052401E4B2EC
:1040F000034B5C55EBE700BF00ED00E010E100086A
:1041000014ED00E010B504460C4B18680C4BA3FBF3
:1041100000308009FCF74EF968B90F2C01D9012055
:104120000AE0002221464FF0FF30FFF7A5FF054BC4
:104130001C60002000E0012010BD00BF0000002036
:10414000D34D6210EC22002010B5041E08DB04F0F1
:104150001F02640901239340044A42F8243010BD31
:10416000CE210348FFF742FDF1E700BF00E100E088
:1041700010E1000810B5041E09DB04F01F026409F9
:10418000012393402034044A42F8243010BDDE213C
:104190000248FFF72BFDF0E700E100E010E1000826
:1041A000A0B110B504460268094B9A4203D07721AA
:1041B0000848FFF71BFD63791BB1012363710020E1
:1041C00010BD23712046FEF7EFFEF6E70120704791
:1041D0000030024040E100082DE9F04383B0804602
:1041E0000E46844B984213D003F5806398420FD05B
:1041F00003F5806398420BD003F58063984207D0A3
:1042000003F58063984203D0CD217B48FFF7EEFC95
:1042100033689AB212B11B0C1B041BB1CE21764835
:10422000FFF7E4FC7368012B40F28881112B00F04A
:104230008981022B00F08A81122B00F08B816F4A5A
:10424000934200F08B8102F58012934200F08A8144
:1042500002F58012934200F08981A2F5F812934290
:1042600000F0888102F58012934200F0878102F508
:104270008012934200F08681032B03D14FF0000996
:104280004D46EDE0CF215C48FFF7B0FC4FF0000950
:104290004D46E5E05A4A934210D007D9594A934215
:1042A0000CD002F58032934208D019E0A2F58012BA
:1042B000934203D002F5702293420DD1B368022BD2
:1042C0007ED8B368002B00F08980012B7ED0C8F81F
:1042D00014404FF0080903E0A2F580129342EDD09C
:1042E000FF2F7ED84046FF2F7ED8AA0003680F21FB
:1042F000914023EA010309FA02F213430360736851
:1043000013F0805F00F0AB803F4B9A6942F00102EE
:104310009A619B6903F001030193019BAA08911C18
:104320003A4B53F8210005F0030399000F238B400B
:1043300020EA03002F4B98456AD003F58063984527
:1043400000F0E08003F58063984500F0DD8003F520
:10435000806398454CD004235BE0F368013B022B5B
:1043600002D8D6F80C90BBE7E5212348FFF73EFCC6
:10437000F7E7F368013B022B03D8F36803F1040964
:10438000AEE7EC211C48FFF731FCF6E7F368013B90
:10439000022B03D8F36803F10809A1E7F3211648BB
:1043A000FFF724FCF6E7F368013B022B03D8F36820
:1043B00003F10C0994E7FA210F48FFF717FCF6E721
:1043C00040F207110C48FFF711FC7AE7C8F81040DB
:1043D0004FF0080984E74FF0000981E74FF0040926
:1043E0007EE708F104007EE7A5F1080292007DE770
:1043F00003230EE0000801406CE1000800001110EA
:1044000000002210000031100010024000000140A6
:1044100000238B40034302325E4941F82230736827
:1044200013F4803F72D05C4A13683B431360736897
:1044300013F4003F70D0584A53683B43536073688D
:1044400013F4801F6ED0544A93683B4393607368A3
:1044500013F4001F6CD0504AD3681F43D760013556
:104460000F2D00F293800124AC40336803EA040767
:1044700034EA0303F3D1494B984513D003F5806325
:1044800098450FD003F5806398450BD003F5806302
:10449000984507D003F58063984503D0DD21404857
:1044A000FFF7A4FB7368122B3FF6F4AE122B3FF616
:1044B00017AF01A252F823F0BD4200085B43000889
:1044C0008D430008D7430008E1420008E14200089C
:1044D000E1420008E1420008E1420008E142000830
:1044E000E1420008E1420008E1420008E142000820
:1044F000E1420008E1420008E1420008734300087D
:10450000A7430008012384E7022382E7224A1368B5
:1045100023EA070313608AE71F4A536823EA070365
:1045200053608CE71C4A936823EA070393608EE785
:10453000194AD36823EA0707D76090E74FF00009CC
:104540004D468DE74FF000094D4689E74FF00009D1
:104550004D4685E74FF000094D4681E74FF00009D1
:104560004D467DE74FF000094D4679E74FF00009D1
:104570004D4675E74FF000094D4671E74FF00009D1
:104580004D466DE74FF000094D4669E703B0BDE8C1
:10459000F08300BF0000014000040140000801401A
:1045A0006CE1000810B586B003682B4A934204D032
:1045B0002A4A934228D006B010BD294B9A6942F08E
:1045C00008029A619B6903F008030093009BC023D3
:1045D000029312230393012404940323059302A955
:1045E0002048FFF7F9FD224600212020FFF744FD77
:1045F0002020FFF7A9FD022200211F20FFF73CFD2C
:104600001F20FFF7A1FDD6E7154B9A6942F008027B
:104610009A619B6903F008030193019B4FF4406387
:10462000029312230393012404940323059302A904
:104630000C48FFF7D1FD224600212220FFF71CFD88
:104640002220FFF781FD022200212120FFF714FD27
:104650002120FFF779FDAEE70054004000580040EC
:1046600000100240000C014002681E4B9A4200D02C
:104670007047F0B587B003F558439A6942F4804219
:104680009A619A6902F480420092009A9A6942F013
:1046900004029A619B6903F004030193019B4FF4A8
:1046A00000730293022303930124049403270597C4
:1046B0000D4E02A93046FFF78FFD4FF48063029341
:1046C000002503950494059702A93046FFF784FD61
:1046D000224629462520FFF7CFFC2520FFF734FD91
:1046E00007B0F0BD00380140000801400268144BDB
:1046F0009A4200D0704700B587B003F560439A69CD
:1047000042F004029A619A6902F004020092009A4F
:104710009A6942F480529A619B6903F48053019331
:10472000019BA0230293022303930022049205938A
:1047300002A90448FFF750FD07B05DF804FB00BF75
:1047400000300140000801400268144B9A4200D03A
:10475000704700B587B003F50333DA6942F002020F
:10476000DA61DA6902F002020092009A9A6942F074
:1047700008029A619B6903F008030193019B0123DE
:10478000029302230393002304930323059302A9B6
:104790000348FFF721FD07B05DF804FB000400406B
:1047A000000C014002680A4B9A4200D0704700B5E5
:1047B00085B0012300930193002302930323039305
:1047C00069460448FFF708FD05B05DF804FB00BF2B
:1047D00000040040000C0140F8B505460C46494B6A
:1047E000984214D003F58063984210D003F580639B
:1047F00098420CD003F58063984208D003F580639B
:10480000984204D04FF4BB713F48FFF7EFF9A3B2D1
:1048100013B1220C1204BAB140F277113A48FFF7F3
:10482000E5F9002210E02E1D18E0A2F1080C4FEA75
:104830008C0E17E04FF0030C01E04FF0000C0CFA67
:1048400003F38B4243D0013234FA02F359D00123EF
:1048500093402340F7D0FF2BE5D82E46FF2BE4D81A
:104860004FEA820E31680F2000FA0EF721EA0701A5
:104870004FF0040C0CFA0EFC41EA0C013160E968BF
:104880006FEA030E21EA0303EB609708B91C1F4B84
:1048900053F8211002F003039B0098400140194E89
:1048A000B542CAD006F58066B5420AD006F58066E4
:1048B000B54209D006F58066B542BBD04FF0040C76
:1048C000BDE74FF0010CBAE74FF0020CB7E70F4E0F
:1048D000BB1C56F8231021EA000046F823000C4BBD
:1048E00019680EEA0101196059680EEA0101596060
:1048F00099680EEA01019960D9680EEA0101D96050
:10490000A1E7F8BD000801406CE10008000001408B
:104910000004014008B502680B4B9A4200D008BD64
:1049200003F55843DA6842F48042DA60DA6822F428
:104930008042DA604FF4C0610448FFF74DFF252044
:10494000FFF718FCEBE700BF00380140000801400A
:1049500038B504460D4621B1A3681D4207D0012099
:1049600038BD40F2C3110348FFF740F9F4E70020D7
:10497000F6E700BF6CE1000870B5054614460E4628
:1049800021B1012C08D86CB12E6170BD40F2E31149
:104990000648FFF72BF9F4E74FF4F2710348FFF7ED
:1049A00025F9F0E736042E61EFE700BF6CE100085F
:1049B000002800F0098110B504460368844A934238
:1049C00008D002F58062934204D040F27D11814804
:1049D000FFF70CF96368013B7F4A934257D8A368FD
:1049E00013B1B3F5804F58D1E36823F47F7323F0FC
:1049F0000303002B57D12369B3F5804F02D0B3F5E1
:104A0000404F56D16369012B59D8A36933F0FE0397
:104A10005BD1E3690BB1402B5DD1236A0BB1802BD5
:104A20005FD194F83D30002B61D0242384F83D30D1
:104A30002268136823F001031360FCF719FE626813
:104A4000664B9A4259D8664B98428CBF002301238B
:104A5000002B40F0BB80634BB0FBF3F32268536044
:104A600061685E4A91424ED80133226813626168E0
:104A70005A4B994251D8431E4900B3FBF1F301331D
:104A800040F6FC7213427DD0C3F30B037BE04FF47E
:104A9000BF715048FFF7AAF8A1E740F27F114D48D7
:104AA000FFF7A4F8A0E74FF4C0714A48FFF79EF85B
:104AB000A1E740F281114748FFF798F8A2E74FF4C9
:104AC000C1714448FFF792F89FE740F283114148D3
:104AD000FFF78CF89DE74FF4C2713E48FFF786F868
:104AE0009BE740F285113B48FFF780F899E784F88F
:104AF0003C302046FFF756FD97E73B4B98428CBF72
:104B000000230123A4E74FF4967202FB03F34FF452
:104B10007A72B3FBF2F30133A7E7A368C3B9421E6D
:104B200001EB410CB2FBFCF20132C2F30B02B2FA10
:104B300082F25209002A45D1C3B9013801EB410381
:104B4000B0FBF3F30133C3F30B0343F400431AE068
:104B5000421E4FF0190C0CFB01FCB2FBFCF20132BF
:104B6000C2F30B02B2FA82F25209E3E701381923C9
:104B700001FB03F3B0FBF3F30133C3F30B0343F483
:104B8000404300E004232268D361E369216A22687C
:104B90000B4313602369E16822680B4393606369E8
:104BA000A16922680B43D3602268136843F00103B4
:104BB000136000202064202384F83D30206384F8B3
:104BC0003E0010BD0123DEE7012070470120F8E719
:104BD000005400409CE100087F1A0600A0860100F6
:104BE0007F841E0040420F00FF083D002DE9F04386
:104BF00083B00446884691461F460C9EFBF76EFB29
:104C00000546012F01D0102F08D194F83D30DBB2BA
:104C1000202B09D0022003B0BDE8F08340F69511A7
:104C20005448FEF7E3FFF0E70095192301225249AB
:104C30002046FCF7D3F8002840F0978094F83C30E9
:104C4000012B00F09480012384F83C3023681A681B
:104C500012F0010F03D11A6842F001021A602268B3
:104C6000136823F400631360212384F83D3040234C
:104C700084F83E30002323640A9B6362BDF82C3025
:104C800063853E4BE362638D2385019500963B4629
:104C90004A4641462046FCF7B1FAC0B1236C042BCA
:104CA00004D0002384F83C300320B4E7002384F8C8
:104CB0003C300120AFE7236C042B01D00320AAE78E
:104CC0002268136843F4007313600120A3E7238D67
:104CD000002B2AD02A4631462046FCF768FA0028E5
:104CE000E9D1636A5A1C626222681B781361218DC4
:104CF000013989B22185638D9BB2013B9BB26385EB
:104D000023685A6912F0040FE1D00029DFD0626AEB
:104D1000511C616212781A61238D013B2385638DDA
:104D20009BB2013B9BB26385D1E72A4631462046C0
:104D3000FCF774FB58B1236C042B01D003206AE705
:104D40002268136843F400731360012063E722684C
:104D5000136843F400731360202384F83D3000236C
:104D600084F83E3084F83C3055E7022053E70220B7
:104D700051E700BF9CE10008020010000000FFFFA7
:104D80002DE9F04387B00446884691461F46109EA1
:104D9000FBF7A4FA0546012F01D0102F09D194F892
:104DA0003D30DBB2202B0AD00227384607B0BDE8E1
:104DB000F08340F61B219848FEF718FFEFE70095B7
:104DC0001923012295492046FCF708F8002840F0F5
:104DD000628194F83C30012B00F05F81012384F85C
:104DE0003C3023681A6812F0010F03D11A6842F0B0
:104DF00001021A602268136823F4006313602223FF
:104E000084F83D30402384F83E30002323640E9B19
:104E10006362BDF83C306385814BE362638D23851B
:104E2000019500963B464A4641462046FCF752FA19
:104E3000074660B1236C042B04D0002384F83C3077
:104E40000327B2E7002384F83C300127ADE7238D28
:104E50005BB9029323685A6902929A690292029A94
:104E60001A6842F400721A6082E0012B0FD0022B04
:104E700021D02268136843F48063136000230593F4
:104E800023685A6905929B690593059B70E0226827
:104E9000136823F48063136072B6002303932368BE
:104EA0005A6903929A690392039A1A6842F400724B
:104EB0001A6062B65CE02268136843F40063136012
:104EC00072B60023049323685A6904929A69049283
:104ED000049A1A6822F480621A6062B648E02A4690
:104EE00031462046FCF720F970B923681A69636AD5
:104EF000591C61621A70238D013B2385638D9BB21F
:104F0000013B9BB2638533E0236C202B01D001274A
:104F10004BE7032749E700953346002241492046E5
:104F2000FBF75CFF002840F0BA8072B62268136875
:104F300043F40073136023681A69636A591C616241
:104F40001A70238D013B2385638D9BB2013B9BB27D
:104F5000638562B623681A69636A591C61621A70B4
:104F6000238D013B2385638D9BB2013B9BB26385FF
:104F7000238D002B00F08680032B55D8012BAED05B
:104F8000022BC8D000953346002226492046FBF765
:104F900025FF002840F085802268136823F4806391
:104FA000136072B623681A69636A591C61621A70C9
:104FB000238D013B2385638D9BB2013B9BB26385AF
:104FC00000953346002217492046FBF707FF0028CB
:104FD00069D12268136843F40073136023681A6967
:104FE000636A591C61621A70238D013B2385638DAE
:104FF0009BB2013B9BB2638562B623681A69636A00
:10500000591C61621A70238D013B2385638D9BB20D
:10501000013B9BB26385ABE79CE1000802001000F6
:105020000000FFFF040001002A4631462046FCF73D
:105030007BF800BB23681A69636A591C61621A70A5
:10504000238D013B2385638D9BB2013B9BB263851E
:1050500023685A6912F0040F8AD01A69636A591CCE
:1050600061621A70238D013B2385638D9BB2013BE6
:105070009BB263857CE7236C202B01D0012794E64B
:10508000032792E6202384F83D30002384F83E3045
:1050900084F83C3089E6022787E6022785E6032765
:1050A00083E6032781E603277FE600BF2DE9F0436F
:1050B00083B00546884617461E46BDF82C9000234F
:1050C0000193012E01D0102E50D195F83D30DBB266
:1050D000202B5AD1304B1B68DB08304AA2FB03233C
:1050E0001B0A03EB830303EB83030193019C601E04
:1050F0000190002C40D02868836913F0020FF5D18D
:1051000095F83C30012B44D0012385F83C300368EE
:1051100013F0010F03D1036843F0010303602A6811
:10512000136823F400631360212385F83D30402386
:1051300085F83E30002028640A9B6B62A5F8289011
:10514000A5F82A90164BEB62C5F84480AF64EE6474
:1051500028652A68136843F48073136085F83C005F
:105160002A68536843F4E06353600FE040F621314E
:105170000C48FEF73BFDA8E700232B63202285F8AF
:105180003D2085F83C30032000E0022003B0BDE85C
:10519000F0830220FAE700BF0000002089B5F81470
:1051A0000000FFFF9CE1000870B582B0044678B3B0
:1051B000236813B113F00F0F30D0236813F0010FE1
:1051C00046D063682BB1B3F5803F02D0B3F5A02F72
:1051D0002AD19F4B5B6803F00C03042B2FD09C4B10
:1051E0005B6803F00C03082B24D06368B3F5803FA1
:1051F0005BD0002B6FD103F1804303F504331A68B1
:1052000022F480321A601A6822F480221A6051E077
:105210004FF4B8718F48FEF7E9FCC9E740F271110D
:105220008C48FEF7E3FCC8E740F277118948FEF7A7
:10523000DDFCCEE7864B5B6813F4803FD5D0844B12
:105240001B6813F4003F03D06368002B00F02C822E
:10525000236813F0020F00F089802369012B63D8C3
:1052600063691F2B66D87A4B5B6813F00C0F6CD008
:10527000774B5B6803F00C03082B61D02369002B8C
:1052800000F09A80744B01221A60FBF727F805465C
:105290006F4B1B6813F0020F40F08580FBF71EF880
:1052A000401B0228F4D9032003E2694A136843F43F
:1052B00080331360636843B3FBF710F80546644B13
:1052C0001B6813F4003FC3D1FBF708F8401B6428A8
:1052D000F5D90320EDE1B3F5A02F09D05C4B1A6896
:1052E00022F480321A601A6822F480221A60E1E700
:1052F00003F18043A3F53C331A6842F480221A601C
:105300001A6842F480321A60D4E7FAF7E7FF0546DC
:105310004F4B1B6813F4003F9AD0FAF7DFFF401B96
:105320006428F5D90320C4E140F2AB114948FEF7E7
:105330005DFC95E74FF4D6714648FEF757FC92E7BF
:10534000434B5B6813F4803F98D1414B1B6813F0CB
:10535000020F03D02369012B40F0A8813C4A136857
:10536000616923F0F80343EAC1031360236813F073
:10537000080F3CD0A369012B30D8A369002B6FD054
:10538000354B0122C3F88024FAF7A8FF0546304BBD
:105390005B6A13F0020F27D1FAF7A0FF401B022827
:1053A000F5D9032085E12A4A1368616923F0F803DF
:1053B00043EAC1031360D9E7274B00221A60FAF7CA
:1053C0008DFF0546224B1B6813F0020FCED0FAF773
:1053D00085FF401B0228F5D903206AE14FF4F671DE
:1053E0001C48FEF703FCC8E70120FCF761F92368BD
:1053F00013F0040F00F0A480E368012B01D9052B02
:1054000041D1134BDB6913F0805F42D1104BDA6955
:1054100042F08052DA61DB6903F080530193019B13
:1054200001250E4B1B6813F4807F34D0E368012BF9
:1054300045D0002B5BD103F1804303F504331A6A96
:1054400022F001021A621A6A22F004021A623BE098
:1054500000100240C8E10008000042420070004015
:10546000964B0022C3F88024FAF738FF0546944B88
:105470005B6A13F0020FBAD0FAF730FF401B022824
:10548000F5D9032015E140F21B218E48FEF7AEFB53
:10549000B7E70025C5E78C4A136843F480731360AF
:1054A000FAF71CFF0646884B1B6813F4807FBDD1BA
:1054B000FAF714FF801B6428F5D90320F9E0804A2D
:1054C000136A43F001031362E36833B3FAF706FF8C
:1054D00006467B4B1B6A13F0020F2FD1FAF7FEFE34
:1054E000801B41F288339842F3D90320E1E0052B79
:1054F00009D0734B1A6A22F001021A621A6A22F06A
:1055000004021A62E0E76E4B1A6A42F004021A6261
:105510001A6A42F001021A62D6E7FAF7DFFE06467F
:10552000674B1B6A13F0020F08D0FAF7D7FE801BF7
:1055300041F288339842F3D90320BAE0002D53D1C9
:10554000E369022B56D8E369002B00F0B1805C4A76
:10555000526802F00C02082A00F0AD80022B40F0E5
:105560008F80236A13B1B3F5803F49D1636A4BB38F
:10557000B3F5802F26D0B3F5002F23D0B3F5402FFD
:1055800020D0B3F5801F1DD0B3F5A01F1AD0B3F5FE
:10559000C01F17D0B3F5E01F14D0B3F5001F11D012
:1055A000B3F5101F0ED0B3F5201F0BD0B3F5301F8D
:1055B00008D0B3F5401F05D0B3F5501F02D0B3F5A6
:1055C000601F23D13D4B00221A66FAF787FE05467D
:1055D0003B4B1B6813F0007F1ED0FAF77FFE401B89
:1055E0000228F5D9032064E0354AD36923F08053BB
:1055F000D361A5E740F2B9213248FEF7F7FAA2E7F6
:1056000040F2C2212F48FEF7F1FAAFE740F2C32182
:105610002C48FEF7EBFAD5E7236AB3F5803F1AD0A2
:1056200027494A68236A606A034322F474121343C9
:105630004B60224B01221A66FAF750FE0446204BBB
:105640001B6813F0007F19D1FAF748FE001B0228EF
:10565000F5D903202DE0A36813B1B3F5003F07D1BE
:10566000174A536823F40033A1680B435360D7E70C
:1056700040F2D9211348FEF7B9FAF1E7002018E00B
:105680000E4B00221A66FAF729FE04460C4B1B68E3
:1056900013F0007F06D0FAF721FE001B0228F5D98F
:1056A000032006E0002004E0012002E0012000E0E9
:1056B000002002B070BD0120FBE700BF00004242A5
:1056C00000100240C8E100080070004070B50C46B0
:1056D0000546002862D02B6813F00F0F64D0022C0F
:1056E00068D8864B1B6803F00703A3420BD2834A9A
:1056F000136823F0070323431360136803F00703C1
:10570000A34240F0F5802B6813F0020F18D0AB686D
:105710007BB1802B0DD0902B0BD0A02B09D0B02BC0
:1057200007D0C02B05D0D02B03D0E02B01D0F02B1D
:1057300046D1734A536823F0F003A9680B435360C2
:105740002B6813F0010F73D06B68022B3ED86A6888
:10575000012A41D0022A46D0694B1B6813F0020F80
:1057600000F0C88066494B6823F0030313434B6085
:10577000FAF7B4FD06466B68012B3BD0022B48D0EC
:105780005F4B5B6813F00C0F52D0FAF7A7FD831B39
:1057900041F288329342F3D903209CE040F22E314B
:1057A0005848FEF723FA96E740F22F315548FEF7A6
:1057B0001DFA94E74FF44C715248FEF717FA90E740
:1057C00040F249314F48FEF711FAB2E74FF45471F5
:1057D0004C48FEF70BFABAE7494B1B6813F4003F3D
:1057E000C0D1012077E0464B1B6813F0007FB9D190
:1057F000012070E0424B5B6803F00C03042B17D0D0
:10580000FAF76CFD831B41F288329342F2D90320F0
:1058100061E03B4B5B6803F00C03082B08D0FAF700
:105820005DFD801B41F288339842F2D9032052E09B
:10583000324B1B6803F00703A3420AD92F4A1368AF
:1058400023F0070323431360136803F00703A34205
:1058500052D12B6813F0040F14D0EB685BB1B3F591
:10586000806F08D0B3F5A06F05D0B3F5C06F02D03C
:10587000B3F5E06F30D1224A536823F4E063E9685E
:105880000B4353602B6813F0080F15D02B695BB1E5
:10589000B3F5806F08D0B3F5A06F05D0B3F5C06F36
:1058A00002D0B3F5E06F1DD1154A5368296923F47E
:1058B000605343EAC1035360FBF79EFE104B5B68E5
:1058C000C3F30313104AD35CD840104B18600F2069
:1058D000FEF718FC002070BD4FF469710948FEF70F
:1058E00085F9C8E740F2AB310648FEF77FF9DBE700
:1058F0000120F0E70120EEE70120ECE70020024064
:1059000000100240C8E100086CE30008000000201D
:1059100070B582B00446036813F0130F6FD023688C
:1059200013F0010F41D0636843B1B3F5807F05D018
:10593000B3F5007F02D0B3F5407F65D1514BDB69F1
:1059400013F0805F65D14F4BDA6942F08052DA6123
:10595000DB6903F080530193019B01254A4B1B68CF
:1059600013F4807F57D0474B1B6A13F4407313D056
:10597000626802F440729A420ED0424A136A23F4DB
:10598000407042490126C1F840640026C1F84064D5
:10599000106213F0010F52D13A4A136A23F4407394
:1059A00061680B431362002D5AD1236813F0020F74
:1059B00011D0A36843B1B3F5804F05D0B3F5004FC4
:1059C00002D0B3F5404F50D12E4A536823F44043E0
:1059D000A1680B435360236813F0100F50D0E368A5
:1059E000B3F5800F01D0002B44D1264A536823F42D
:1059F0008003E1680B435360002002B070BD7C213E
:105A00002348FEF7F3F88AE782212148FEF7EEF8F3
:105A100094E70025A2E71C4A136843F480731360DF
:105A2000FAF75CFC0646184B1B6813F4807F9AD18A
:105A3000FAF754FC801B6428F5D90320DDE7FAF758
:105A40004DFC06460F4B1B6A13F0020FA4D1FAF768
:105A500045FC801B41F288339842F3D90320CCE700
:105A6000D36923F08053D3619FE7C9210848FEF72B
:105A7000BDF8A9E740F225110548FEF7B7F8B4E7ED
:105A80000020BAE7001002400070004000004242CF
:105A9000F4E1000810B58AB0174CA36943F4007311
:105AA000A361A36903F400730093009B0223069390
:105AB0004FF40043089306A8FFF72AFFA36943F0B9
:105AC0000403A361A36903F004030193019B07236B
