:020000040800F2
:1000000000500020516F0008072A0008052A000848
:10001000032A0008012A0008FF2900080000000048
:10002000000000000000000000000000FD290008A2
:10003000FB29000800000000F9290008ED2900084C
:10004000996F0008996F0008996F0008996F000870
:10005000996F0008996F0008996F0008996F000860
:10006000996F0008996F0008996F0008996F000850
:10007000996F0008996F0008996F0008996F000840
:10008000996F0008996F0008996F0008996F000830
:10009000996F0008996F0008996F0008996F000820
:1000A000996F0008996F0008996F0008996F000810
:1000B000996F0008996F0008996F0008392A0008A5
:1000C000292A0008192A0008092A0008996F00083F
:1000D000996F00082D480008996F0008996F000873
:1000E000996F0008996F0008996F000800000000E0
:1000F0000000000000000000000000000000000000
:0C01000000000000000000005FF808F1A3
:10010C00D4B5000800000020D4010020D4B50008AC
:10011C000000000000000000D40100206C2600202C
:10012C000000000000000000F8B500BFF8BC08BCDF
:10013C009E467047F8B500BFF8BC08BC9E46704799
:08014C007D01000859010008C3
:1001580010B5054C237833B9044B13B10448AFF3F9
:1001680000800123237010BDD4010020000000008E
:10017800C8B5000808B5034B1BB103490348AFF3E2
:10018800008008BD00000000D8010020C8B50008A4
:10019800A3F5803A704700BF174B002B08BF134BDD
:1001A8009D46FFF7F5FF00218B460F461348144A7A
:1001B800121A07F0E5FC0E4B002B00D098470D4BA8
:1001C800002B00D098470020002104000D000D48A6
:1001D800002802D00C48AFF3008007F0ABFC2000E9
:1001E800290006F06DFD07F091FC00BF0000080033
:1001F800000000000000000000500020D401002092
:100208006C260020000000000000000080207047DD
:100218008020704710B483B0CBB2C1F30724B62254
:1002280002FB04F2362404FB0323C1F3074101EB6C
:10023800C10103EB4101094BA3FB0123C91A03EBDD
:100248005101C1F3C72142F20B03C1540F2901D94F
:100258000F22C25403B010BC704700BF0101100048
:10026800094B1B881BB1013B074A13807047074B9A
:100278001B78022B00D07047044B01221A70044BE4
:1002880000221A70F7E700BF522500203C25002005
:100298005025002084B08DF80800C0F307228DF89F
:1002A8000920C0F307438DF80A30029B0020DAB218
:1002B80062F30700C3F3072262F30F20C3F3074377
:1002C80063F3174004B0704782B0134BA3FB0023BD
:1002D800C3F3C7238DF800304FF4616202FB1300AB
:1002E8000E4BA3FB0023C3F347138DF80130C3EB78
:1002F8000313A0EB83008DF80200009B0020DAB204
:1003080062F30700C3F3072262F30F20C3F3074326
:1003180063F3174002B07047C5B3A29189888888F3
:1003280082B0C2B2C0F30723C3EB03139B004FF4A0
:10033800616101FB0233C0F30740184402B0704703
:1003480010B584B00C46FFF7EBFF001BFFF7BCFFAE
:1003580003460020DAB262F30700C3F3072262F310
:100368000F20C3F3074363F3174004B010BD30B543
:1003780085B00D46FFF7D4FF04462846FFF7D0FFA7
:100388002044FFF7A1FF03460020DAB262F307001A
:10039800C3F3072262F30F20C3F3074363F3174045
:1003A80005B030BD30B583B00D46FFF7B9FF044640
:1003B8002846FFF7B5FF844204D005D34FF0FF303D
:1003C80003B030BD0020FBE70120F9E7014B022212
:1003D8001A707047BA240020024B002283F83E208E
:1003E800704700BF8803002008B5114B93F83630DA
:1003F8001BB90F4B93F8423003B108BD0C4B93F86F
:10040800430093F8442040EA022093F8452040EA4C
:10041800024093F83D1020F07F40FFF791FF054B15
:100428001870C0F307225A70C0F307409870E4E7C9
:1004380088030020780300200346064A0C21117027
:10044800054951600549916007CA83E807001846C5
:10045800704700BF7C030020690400086D04000891
:10046800062070471F2806D9203800EB4000034BB0
:1004780003EB800070470248704700BFE4A60008FD
:1004880064B1000803888B4218D910B44488944298
:1004980016D9DC0813F0070F00D00134CB0804FB91
:1004A800023201F00701012303FA01F14368985C65
:1004B800084001D110BC7047FF20FBE700207047BF
:1004C8000020F7E708B58368984708BD08B5436872
:1004D800984708BD08B583690068984708BD08B5FE
:1004E800838B8B4205D3C38B934202D30369006885
:1004F800984708BDF8B50E46818BB14217D305461B
:100508001C46934228BF1446C78BA7420FD3934279
:1005180038BF13469F4208D31F4606E0224631469D
:100528002846FFF7DCFF0134A4B2A742F6D2F8BD93
:10053800F8B51E46C38BB34217D3054614468A4204
:1005480028BF0C46878BA7420FD38A4238BF0A467A
:10055800974208D3174606E0324621462846FFF759
:10056800BEFF0134A4B2A742F6D2F8BD2DE9F04788
:100578000446BDF820C01E468B4228BF0E46808B1D
:10058800B04207D36746944528BF1746B4F81EE023
:10059800BE4501D2BDE8F0878B4238BF0B461D46E9
:1005A800944538BF9446E146984228BF184680468D
:1005B800E64528BFE646F2463B4602463146204617
:1005C800FFF7B6FF53463A4631462046FFF792FFFB
:1005D800A38BAB4209D2E38B4B45DBD35346424650
:1005E80031462046FFF7A4FFD4E753463A46414632
:1005F8002046FFF77FFFEEE782B0036A0020DAB2F9
:1006080062F30700C3F3072262F30F20C3F3074323
:1006180063F3174002B0704700B583B00184090C3A
:1006280080F82210C368016A0068984703B05DF833
:1006380004FB2DE9F04F85B004460E4693461D464F
:10064800BDF83870FFF7D8FF8DF80C00C0F307230A
:100658008DF80D30C0F307408DF80E00A946B5425D
:1006680028BFB146A38B4B4507D3BA465F4528BF81
:10067800DA46B4F81E80D04502D205B0BDE8F08F46
:10068800B54238BF35465F4538BF5F46AB4228BFE5
:100698002B460193B84528BFB84609F1010B1FFA4C
:1006A8008BFB0AF10106B6B20F992046FFF7B4FF9B
:1006B8005346019A49462046FFF73AFF43465246B9
:1006C80049462046FFF716FFA38BAB4212D2019D85
:1006D800E38BBB4217D2A38B5B4506D3E38BB342B4
:1006E80003D35D4501D3B04519D203992046FFF7DE
:1006F80093FFC2E701994D1EADB2434652462046CC
:10070800FFF7F8FEE4E708F1FF3A1FFA8AFA4346D2
:10071800019A49462046FFF70BFFD046DBE71099C0
:100728002046FFF779FF07E033462A465946204618
:10073800FFF7FEFE0136B6B2B045F5D20399204662
:10074800FFF76AFF99E730B587B005460591FFF7CF
:10075800BDFE441EA4B22846FFF7B4FE431E9BB25A
:10076800059AADF80820110C8DF80A10ADF8042090
:100778008DF8061000932346002211462846FFF7FD
:1007880058FF07B030BD08B590F8232090F8241022
:1007980042EA012290F8251042EA0141FFF7D3FF0F
:1007A80008BD2DE9F04F89B0019088461D46029397
:1007B800BDF84890BDF84C4004949DF85810059138
:1007C800838B934267D39346C38BAB4263D3B8F80A
:1007D800007007FB09F7B8F8023003FB04F3039332
:1007E800149BADF818301B0C8DF81A3012AB33F887
:1007F8000C2F9B78ADF81B208DF81D30002504E0E8
:10080800059B022B05D10135EDB2012D43D8002DF2
:10081800F6D0012D02D1059B012BF4D005EB450341
:1008280008AA134413F8081C13F8072C41EA0221FC
:1008380013F8063C41EA034121F07F410198FFF794
:10084800EBFE4FF0000A1DE0A8B1029B03EB0A0281
:100858000BEB040192B289B20198FFF740FE013414
:10086800BC420DD2B4FBF9F1324689B24046FFF7DB
:1008780009FE002DE8D0012DF1D10028EFD1E4E7E1
:100888000AF1010A039B9A45BDD2049BBAFBF3F611
:10089800B6B20024E4E709B0BDE8F08F00B589B02E
:1008A8000C23ADF81830ADF81A30E0B10F4B0793B0
:1008B800002304930E4A1268ADF80C20120C8DF830
:1008C8000E200C4A1268ADF80820120C8DF80A2088
:1008D800012201920092742206A90748FFF761FFDE
:1008E80009B05DF804FB054B0793E1E70CB200087B
:1008F800C0240020C4240020F8250020F4B10008FA
:100908002DE9F04188B005460C4616461F460B688F
:100918001A78ADF81A205B689DF8388040469847E9
:10092800ADF8180023689B68404698470790A3884D
:10093800E268216960690078049008888978ADF8D0
:100948000C008DF80E1011889278ADF808108DF80B
:100958000A20019300933B46324606A92846FFF732
:1009680020FF08B0BDE8F08138B504461D46016097
:1009780042608360049BC360059B0361069B4361DF
:10098800079B836190470138A083A8470138E0831B
:1009980004AB33F8102F9B78A4F8232084F8253073
:1009A800204638BD42F20A03C35C1BB142F20A0377
:1009B8000022C254704780280FD880290FD8C90157
:1009C80089B2014488B2C1F34E01118080F001025E
:1009D80002F001021A70FF207047002070470020C3
:1009E800704710B582B00446084611460DF105035C
:1009F8000DF10602FFF7DFFF78B19DF8053073B1FE
:100A0800BDF8061021448B7A03F00F0342F20B0263
:100A1800A25C1201D2B213438B7202B010BDBDF8B2
:100A280006202244937A03F0F00342F20B01615C42
:100A380001F00F010B439372EFE710B584B0044641
:100A48000846114600238DF808308DF809308DF8D6
:100A58000A300DF105030DF10602FFF7ACFF28B3CC
:100A68009DF805304BB3BDF806002044837A1B0976
:100A780003EB0313DBB28DF808308DF809308DF8DD
:100A88000A30029BADF80C301B0C8DF80E3000209C
:100A98009DF80C3063F307009DF80D3063F30F20C9
:100AA8009DF80E3063F3174004B010BD029BADF8FB
:100AB8000C301B0C8DF80E30E9E7BDF80600204419
:100AC800837A03F00F03D3E742F20A03C35C002BD7
:100AD800FAD1704710B50024064B1B88A34207D9EA
:100AE800044B5B6853F8243098470134A4B2F3E709
:100AF80010BD00BF9824002082B0064B5A6942F00E
:100B080040025A615B6903F040030193019B02B004
:100B1800704700BF0010024008B50268034B9A42B4
:100B280000D008BD0248FFF73DFFFAE70054004037
:100B38008C0400202DE9F04385B004460F46435647
:100B480033BB042528462146ABBE0446384605B0CB
:100B5800BDE8F08314F9010B04AA1A4402F8100C3A
:100B68000133AB42F6D304AA1344002203F8102C35
:100B78004FF00408E94640464946ABBE8046761B1E
:100B8800002EE3D03546102E28BF10250023E8E7B5
:100B98000E46F5E708B5FFF7CDFF08BD90F83930E8
:100BA800DBB2212B01D0022070478368B3F5805F48
:100BB80017D0036A5A1C02621A7803685A60C38CF9
:100BC8009BB2013B9BB2C3844BB90268D36823F044
:100BD8008003D3600268D36843F04003D3600020E9
:100BE8007047036A1B880268C3F3080353600369EC
:100BF8001BB9036A02330362E1E7036A0133036244
:100C0800DDE70268D36823F49073D3600268536900
:100C180023F001035361202380F83A307047436A78
:100C28000022DA85DA84704790F83A30DBB2202B5C
:100C380020D109B312B390F83830012B20D081624B
:100C48008285C2850023C363222280F83A2080F877
:100C580038300168CA6842F48072CA6001684A691B
:100C680042F001024A610168CA6842F02002CA6083
:100C780018467047022070470120704701207047CE
:100C88000220704790F83930DBB2202B16D1B9B169
:100C9800C2B190F83830012B16D001628284C28428
:100CA8000023C363212280F8392080F83830016896
:100CB800CA6842F08002CA6018467047022070472E
:100CC80001207047012070470220704710B400F5DA
:100CD800FA64022922D801EB4103C1EBC3011F4B7F
:100CE800A3FB011302EB5303234400F2CF7003EB81
:100CF80090031B4AA2FB0020A3EB501303EBD01375
:100D080004331848A0FB03201A1A00EB520080088D
:100D1800C0EBC000181AC0B210BC704701EB410309
:100D2800C1EBC3010D4BA3FB011302EB5303234497
:100D380003EB94030A4AA2FB0424A3EB541303EB2A
:100D4800D41302330748A0FB03201A1A00EB520001
:100D58008008C0EBC000181ADDE700BF398EE33801
:100D68001F85EB512549922410F0030F14D10D4B28
:100D7800A3FB00235B09642202FB13039BB26BB93C
:100D8800084BA3FB0023DB094FF4C87202FB1300D6
:100D980080B228B9012070470020704701207047B1
:100DA800002070471F85EB512DE9F84380460F4618
:100DB80090F80F90447B857B002603E01E2D1FD8FA
:100DC80001350136BE423DD2012CF7D0032CF5D0B7
:100DD800052CF3D0072CF1D0082CEFD00A2CEDD03D
:100DE8000C2CEBD0042C15D0062C13D0092C11D0C8
:100DF8000B2C0FD0022CE4D11B2D12D80135E0E7C3
:100E08000C2C02D001340125DBE709F10109012589
:100E18002C46D6E71D2D01D80135D2E7013401252E
:100E2800CFE71C2D04D01D2DCBD101340125C8E7F7
:100E38001FFA89F0FFF798FF08B10135C1E70134BF
:100E48000125BEE788F80F90E1B288F80D10EAB2E4
:100E580088F80E204846FFF739FF88F80C00BDE8EF
:100E6800F883030903EB830300F00F0000EB430052
:100E7800C0B270470023092803D901330A38C0B229
:100E8800F9E71B01DBB2184370470368186A5B6A0D
:100E98009BB243EA0040704730B402689469A5B237
:100EA800D369916988B2854205D0D06980B240EA99
:100EB800014030BC704798B240EA0440F9E70000AE
:100EC80082B0084B1B68084AA2FB03235B0A00FB9D
:100ED80003F3019300BF019B5A1E0192002BF9D125
:100EE80002B0704700000020D34D6210014B186813
:100EF800704700BF0000002008B5FFF7F7FF044B5C
:100F08005B68C3F3C223034AD35CD84008BD00BF63
:100F180000100240DCA6000808B5FFF7E7FF044B05
:100F28005B68C3F30223034AD35CD84008BD00BF03
:100F380000100240DCA6000886B0164B0FCB0DF15E
:100F4800180C0CE90F0040F20123ADF80430124BE5
:100F58005B6803F00C02082A02D0104806B07047FC
:100F6800C3F38342624412F8102C13F4803F0CD070
:100F7800094B5B68C3F34043634413F8143C0748C8
:100F880000FB02F0B0FBF3F0E8E7054800FB02F0D5
:100F9800E4E700BF74A300080010024000127A00C2
:100FA80000093D00014B01221A60704720000E42E3
:100FB80003685A6912F4806F01D1002070476FF4FA
:100FC80080625A610423036400230363202280F8AB
:100FD8003D2080F83C3001207047438D9BB253B1CF
:100FE80003681A69436A591C41621A70438D9BB29F
:100FF800013B9BB2438500207047438D9BB253B1A0
:10100800436A5A1C426202681B781361438D9BB283
:10101800013B9BB243850020704710B48DB090F817
:101028003E30DAB2C16A046B90F83D30DBB2222B55
:101038000BD000230B9303685A690B929B690B939F
:101048000B9B00200DB010BC7047036D0BB9402AF4
:1010580017D0036D1BB90369B3F5404F19D0438D01
:101068009BB2002B25D1039303685A6903929A69AE
:101078000392039A1A6842F400721A600023036507
:10108800DFE7019303685A6901929B690193019B09
:10109800D7E70023029303685A6902929A69029279
:1010A800029A1A6842F480721A60036D013303656C
:1010B800C7E7438D9BB2012B1AD0438D9BB2022BFD
:1010C8006BD00268136843F48063136003685A683E
:1010D80012F4006F03D05A6842F480525A60002319
:1010E8000A9303685A690A929B690A930A9BC5E79F
:1010F80011F5803F16D004293DD008293BD0122C89
:1011080039D0C36A022B30D00268136823F4806395
:1011180013600023069303685A6906929B69069335
:10112800069BABE70268136823F4806313600368C7
:101138005A6812F4006F0CD01A6822F480621A60A0
:101148000023049303685A6904929B690493049BDF
:1011580094E7002205925A6905929A690592059AC0
:101168001A6842F400721A6088E70268136843F448
:1011780080631360CDE70268136823F4806313600B
:101188000023079303685A6907929A690792079A96
:101198001A6842F400721A6070E7C36A022B1BD007
:1011A8000268136843F4006313600023089303681C
:1011B8005A6908929A690892089A1A6822F4806211
:1011C8001A6003685A6812F4006F3FF457AF5A6800
:1011D80042F480525A6051E70268136843F480630E
:1011E80013600023099303685A6909929B6909935C
:1011F800099BE6E7436C0268DBB213610020704785
:1012080090F83E30DBB2402B10D00369B3F5804F25
:101218001BD0036D5BBB436C0268C3F3C81303F0B8
:10122800060343F0F003136100207047036D2BB9E8
:10123800436C026803F0FE031361F5E7436C026830
:1012480043F00103DBB21361EEE790F83D30DBB207
:10125800212B06D0436C026843F00103DBB2136113
:10126800E2E7436C026803F0FE031361DCE7036DF9
:10127800012BD9D1436C0268C3F3C81303F00603EA
:1012880043F0F1031361CFE7436A19680A6822F44F
:1012980080620A6000225A85596B4A63996B4A63D7
:1012A80093F83D20D2B2602A0BD0202283F83D204B
:1012B800002283F83E201A68136823F001031360A4
:1012C8007047202283F83D20002283F83E201A64CC
:1012D8001A68136823F001031360704703689A695A
:1012E8009B690020704790F83D30DAB2438D9BB27D
:1012F800F3B110B403681969436A5C1C446219703D
:10130800438D9BB2013B9BB24385438D9BB20BB986
:101318002A2A02D0002010BC70470268536823F4C0
:101328008063536022230363282380F83D30F1E76C
:101338000020704790F83D30DBB2C26A042A01D021
:10134800082A01D1282B07D0212B1DD003686FF460
:1013580080625A6100207047184BC3620268536864
:1013680023F4E063536003686FF480625A61026893
:10137800136823F48063136000230363202280F83A
:101388003D2080F83E30E5E70C4BC3622123036320
:10139800202380F83D30002380F83E3002685368EF
:1013A80023F4E063536003686FF480625A61026853
:1013B800136823F480631360CCE700BF0000FFFFCD
:1013C80090F83D30DAB2438D9BB27BB1436A591C29
:1013D800416201681B780B61438D9BB2013B9BB254
:1013E8004385438D9BB20BB9292A01D00020704751
:1013F8000268536823F4806353602123036328231E
:1014080080F83D30F2E7C26A438D9BB2032B10D0BF
:10141800438D9BB2022B24D003681A69436A591C76
:1014280041621A70438D9BB2013B9BB243850020F9
:101438007047042A04D0082A02D012F5803F04D14C
:101448000268136823F48063136003681A69436AA7
:10145800591C41621A70438D9BB2013B9BB2438574
:10146800E5E7042A17D0082A15D012F5803F12D0D4
:10147800022A0AD00268136823F4806313600268A2
:10148800536823F4407353600FE00268136843F411
:1014980080631360F3E70268536823F44073536072
:1014A8000268136843F40073136003681A69436A97
:1014B800591C41621A70438D9BB2013B9BB2438514
:1014C80003681A69436A591C41621A70438D9BB2BA
:1014D800013B9BB24385202380F83D300023036302
:1014E80090F83E30DBB2402B03D0002380F83E302A
:1014F8009DE7002380F83E3099E790F83D30DBB255
:10150800222B01D000207047438D9BB2032B0BD9AF
:1015180003681A69436A591C41621A70438D9BB269
:10152800013B9BB24385EDE7023B012B25D9C36AFA
:10153800022B3BD00268136823F4806313600268AF
:10154800536823F4E063536003681A69436A591CBB
:1015580041621A70438D9BB2013B9BB243852023A5
:1015680080F83D300023036390F83E30DBB2402B17
:1015780022D0002380F83E30C4E7C36A022B0FD084
:101588000268136823F4806313600268136843F4E5
:10159800006313600268536823F480635360B1E703
:1015A8000268136843F480631360F3E70268136802
:1015B80043F480631360C2E7002380F83E30A1E75C
:1015C80008B5C26A90F83D30DBB2212B01D000206B
:1015D80008BD438D9BB25BB1436A5A1C42620268E4
:1015E8001B781361438D9BB2013B9BB24385EEE7A9
:1015F800042A04D0082A02D012F5803F17D10268C5
:10160800536823F4E06353600268136843F400737B
:10161800136000230363202380F83D3090F83E30A8
:10162800DBB2402B11D0002380F83E30CFE70268B0
:10163800536823F4E063536011230363002380F8A5
:101648003E30202380F83D30C1E7002380F83E304B
:10165800FFF762FABBE710B590F83D30DBB290F8BF
:101668003E20D2B2C46A018D09B9212B05D0212BA5
:1016780038D0402A34D0002010BD042C04D0082CC7
:1016880002D014F5803F17D10268536823F4E06351
:1016980053600268136843F4007313600023036304
:1016A800202380F83D3090F83E30DBB2402B11D03B
:1016B800002380F83E30DEE70268536823F4E063D5
:1016C800536011230363002380F83E30202380F801
:1016D8003D30D0E7002380F83E30FFF71DFACAE717
:1016E800222BC8D1438D9BB22BB90268536823F4CF
:1016F80080635360BFE790F83E30DBB2402B0BD0DD
:10170800436A5A1C426202681B781361438D9BB27C
:10171800013B9BB24385AEE7036D9BB9C36C012BBC
:1017280008D0836C0268C3F307231361036D013388
:101738000365A0E7836C0268DBB21361036D0233B3
:10174800036598E7036D012B18D0036D022B92D126
:1017580090F83D30DBB2222B18D090F83D30DBB248
:10176800212B88D1436A5A1C426202681B78136194
:10177800438D9BB2013B9BB243857CE7836C026837
:10178800DBB21361036D0133036574E70268136804
:1017980043F4807313606EE708B590F82130022B8C
:1017A80003D004238363012008BD0268136823F073
:1017B8000E0313600268136823F0010313600368C3
:1017C800194A934214D0143293421FD014329342D0
:1017D8001ED0143293421ED0143293421ED01432BB
:1017E800934202D04FF0807203E04FF4801200E081
:1017F80001220E4B5A60012380F82130002380F823
:101808002030436B6BB198470020CDE71022F0E7FA
:101818004FF48072EDE74FF48052EAE74FF48032DC
:10182800E7E70020C0E700BF0800024000000240D0
:1018380010B5044690F83D30293B012B36D990F875
:101848003D30DBB2602B07D003685B6813F4006F90
:1018580002D1202380F83D300023236384F83E30F2
:101868002268136823F40063136023685A6812F42B
:10187800006F3FD05A6822F400625A60636B93F895
:101888002120012A18D0364A5A63606BFFF784FF7B
:10189800002851D02268136823F001031360202325
:1018A80084F83D30606B436B984745E00023036341
:1018B800282380F83D30D3E7A36B294A5A63A06BED
:1018C800FFF76AFF002837D023685A6912F0400FE3
:1018D80004D01A69636A591C61621A702268136815
:1018E80023F001031360202384F83D30A06B436B81
:1018F800984721E094F83D20D2B2602A09D05A696D
:1019080012F0400F18D01A69636A591C61621A7084
:1019180012E0202284F83D20002222645A6912F045
:10192800400F04D01A69636A591C61621A702268F0
:10193800136823F00103136094F83D30DBB2282BC1
:1019480000D010BD236C13F0040FFAD0054BE362EE
:1019580000232363202284F83D2084F83E30F0E7FA
:10196800911200080000FFFF10B582B090F83D30DA
:10197800DBB201684A6822F4E0624A600022019200
:10198800026851690191116841F001011160019AE1
:1019980001680A6822F480620A6001684A6812F4E1
:1019A800006F14D090F83D20D2B2222A0AD090F8C5
:1019B8003D20D2B22A2A05D0426B1268526892B2F0
:1019C800428504E0826B1268526892B24285428D69
:1019D80092B202B34A6912F0040F09D00969426A47
:1019E800541C44621170428D92B2013A92B24285FF
:1019F8000268516911F0400F09D01169426A541CFC
:101A080044621170428D92B2013A92B24285026CE0
:101A180042F004020264026C92B9282B13D02A2BDC
:101A280011D0292B0FD0026B222A01D0222B13D1DF
:101A380000230363202280F83D2080F83E300BE02D
:101A4800FFF7F6FE08E0064BC3620023036320227B
:101A580080F83D2080F83E30002002B010BD00BF65
:101A68000000FFFFF8B5044603689F695E695D687A
:101A780090F83E30DBB2102B25D0402B23D04C4BB6
:101A8800334013B115F4007F6ED14A4B334013B184
:101A980015F4007F6BD1484B3B40002B6FD0474B70
:101AA800334033B115F4806F03D0454B3340002BDE
:101AB80061D0434B334053B315F4007F27D0204601
:101AC800FFF79BFA23E016F0011F02D015F4007F00
:101AD8001ED13C4B334013B115F4007F1CD1344B5D
:101AE800334013B115F4007F1AD1334B3B401BB37D
:101AF800324B33402BB115F4806F02D0304B33405A
:101B080093B12F4B334013B115F4007F10D1F8BDBA
:101B18002046FFF775FBE8E72046FFF76BFBE4E795
:101B28002046FFF77AFAE0E72046FFF794FDEEE754
:101B38002046FFF745FDEAE7234B33402BB115F468
:101B4800806F02D01E4B334053B11D4B3340002BE6
:101B5800DDD015F4007FDAD02046FFF754FCD6E735
:101B68002046FFF7CAFCD2E7FFF7B8FBCFE72046CD
:101B7800FFF7FAFECBE72046FFF722FCC7E7124B38
:101B880033402BB115F4806F02D00D4B334053B165
:101B98000B4B3340002BBAD015F4007FB7D020464A
:101BA800FFF71BFAB3E72046FFF79DFBAFE700BF3F
:101BB8000200010010000100040010008000010074
:101BC80004000100080001004000010070B504464F
:101BD80003685D695E68334A15420ED016F4807F4B
:101BE8000BD0026C42F0010202646FF480725A61F9
:101BF8000268136843F40043136015F4813F0AD068
:101C080016F4807F07D0236C43F002032364236813
:101C18006FF400725A6115F4823F1AD016F4807F6F
:101C280017D094F83E30DBB2628D91B294F83D2023
:101C3800D2B2206B202B1DD0236C43F00403236405
:101C480094F83E30DBB2102B22D023686FF4806208
:101C58005A6115F4843F0AD016F4807F07D0236CAC
:101C680043F00803236423686FF400625A61236C0D
:101C7800A3B970BD0029DFD1212A05D0292A03D0B4
:101C8800282AD9D12128D7D12046FFF753FBE0E7EE
:101C98002268136843F400731360D6E72046FFF701
:101CA800C7FDE6E7000101000379012B1AD030B423
:101CB80001230371022343710468A36843F00103FD
:101CC800A360002304E0046851F823502560013321
:101CD8009342F8D301234371002303710368186802
:101CE80030BC7047022070470138B0F1807F0AD2BB
:101CF800064B5860064AF02182F8231000209860AD
:101D080007221A6070470120704700BF10E000E00A
:101D180000ED00E0014B1868704700BF5026002016
:101D28002DE9F84305460F4616469946DDF820800A
:101D38002C68246837EA04030CBF01240024B44249
:101D48001FD1B8F1FF3FF3D0B8F1000F05D0FFF76E
:101D5800E1FFA0EB09004045EAD92A68D36823F4DB
:101D6800D073D3602A68536923F001035361202399
:101D780085F8393085F83A30002385F83830032063
:101D880000E00020BDE8F8832DE9F04182B01E464E
:101D980090F83A30DBB2202B5BD104460D469046D2
:101DA80000295AD0002A5AD090F83830012B58D040
:101DB800012380F838300023C363222380F83A30A7
:101DC800FFF7A8FF0746A4F82C80A4F82E801DE092
:101DD80000963B46002220212046FFF7A1FF00285D
:101DE80041D1236933B923685B68C3F3080325F835
:101DF800023B0BE023685B68DBB225F8013B05E09A
:101E080023685B6803F07F0305F8013BE38D9BB211
:101E1800C3B1E28D92B2013A92B2E285A368B3F5FA
:101E2800805FD5D000963B46002220212046FFF750
:101E380077FFD0B92369002BE2D123685B6805F8E6
:101E4800013BE3E7202384F83A30002084F8380087
:101E580000E0022002B0BDE8F0810120FAE701208D
:101E6800F8E70220F6E70320F4E70320F2E72DE97C
:101E7800F04182B01E4690F83930DBB2202B58D1A1
:101E880004460D469046002957D0002A57D090F8AE
:101E98003830012B55D0012380F838300023C36334
:101EA800212380F83930FFF735FF0746A4F824804E
:101EB800A4F8268017E000963B46002280212046A1
:101EC800FFF72EFF00283ED12B882268C3F30803B2
:101ED800536023690BB9023505E0013503E015F8B5
:101EE800012B23685A60E38C9BB29BB1E28C92B2BF
:101EF800013A92B2E284A368B3F5805FDBD0009622
:101F08003B46002280212046FFF70AFF0028E6D042
:101F180003200FE000963B46002240212046FFF7B1
:101F2800FFFE90B9202384F83930002384F8383034
:101F380000E0022002B0BDE8F0810120FAE70120AC
:101F4800F8E70220F6E70320F4E70320F2E738B5C4
:101F580004460268536823F010035360FFF7DAFE63
:101F6800054623685B6813F0200F07D1FFF7D2FE00
:101F7800401BB0F57A7FF4D9032000E0002038BD7B
:101F880038B50446FFF7C6FE054623685A6812F0BE
:101F9800200F07D1FFF7BEFE401BB0F57A7FF4D9BA
:101FA800032004E05A6842F010025A60002038BD4D
:101FB80038B505460C46FFF7E3FF08B1012038BDE8
:101FC8002B68220C1A622B68A4B25C622846FFF7C1
:101FD800BEFF0028F3D00120F1E738B505460C46CE
:101FE800FFF7CEFF08B1012038BD2B68220C9A619B
:101FF8002B68A4B2DC612846FFF7A9FF0028F3D0BC
:102008000120F1E7C0B138B505460268536823F0EE
:1020180008035360FFF77EFE04462B685B6813F0E5
:10202800080F07D1FFF776FE001BB0F57A7FF4D9C9
:10203800032000E0002038BD0120704770B5054638
:102048000C4616462B68596911F0400F22D1596980
:1020580011F0100F11D124B1FFF75CFE801BA042D4
:10206800F0D92B6C43F020032B64202385F83D30F6
:10207800002385F83C30032070BD6FF010025A61D0
:1020880000232B642B63202285F83D2085F83C3003
:102098000120F1E70020EFE770B504460D4616462B
:1020A80023685B6913F0040F19D12046FEF780FFFF
:1020B800B8B9B5F1FF3FF3D025B1FFF72BFE801B70
:1020C800A842EDD9236C43F0200323640023236343
:1020D800202284F83D2084F83C30032000E00020D2
:1020E80070BD0120FCE770B504460D46164623680E
:1020F8005B6913F0800F19D12046FEF759FFB8B974
:10210800B5F1FF3FF3D025B1FFF704FE801BA842CD
:10211800EDD9236C43F0200323640023236320229A
:1021280084F83D2084F83C30032000E0002070BD96
:102138000120FCE72DE9F04105460E461746984672
:1021480033E01A6842F400721A602B686FF48062F8
:102158005A6104232B6400232B63202285F83D2039
:1021680085F83C3001202EE02FB1FFF7D3FDA0EB1E
:102178000800B84219D900232B63202285F83D2096
:1021880085F83C3003201EE02B689C6926EA04048D
:10219800A4B2003C18BF0124A4B12B685A6912F4F8
:1021A800806FCED1B7F1FF3FDED1C6F30743012BD5
:1021B800EAD12B685C6926EA0404A4B2003C18BF83
:1021C8000124E9E70020BDE8F0812DE9F041074648
:1021D8000D4690461E461EE02EB1FFF79BFD069B5E
:1021E800C01AB04217D900233B63202287F83D204C
:1021F80087F83E3087F83C3003201AE03B689C693A
:1022080025EA0404A4B2B4FA84F46409A0450FD101
:10221800B6F1FF3FE0D1C5F30743012BEED13B6890
:102228005C6925EA0404A4B2B4FA84F46409EDE70D
:102238000020BDE8F08100002DE9F04784B0044695
:102248000D4616469946DDF830800D9F02681368E2
:1022580043F4806313600368196841F4807119605E
:102268000097434600224FF00111FFF7AEFF002808
:102278007ED15FFA85FA236805F0FE051D613B46AD
:1022880042463E492046FFF755FF30B1236C042BE8
:1022980001D003206DE001206BE000230393236845
:1022A8005A6903929B690393039B3A464146204629
:1022B800FFF719FF58B1236C042B01D0032058E015
:1022C8002268136843F400731360012051E0B9F1E8
:1022D800010F0DD12368F6B21E613A4641462046E9
:1022E800FFF701FF20B3236C042B1AD0032040E032
:1022F8002368320A1A613A4641462046FFF7F3FE40
:1023080058B1236C042B01D0032032E022681368F3
:1023180043F40073136001202BE02368F6B21E61BA
:10232800DBE72268136843F400731360012020E0A0
:102338002268136843F480731360009743460022B1
:102348004FF001112046FFF740FFA8B922684AF074
:10235800010313613B46424608492046FFF7EAFE5F
:1023680038B1236C042B01D0032002E0012000E0E7
:10237800032004B0BDE8F0870320FAE7020001005B
:102388002DE9F04385B004460D46914698460C9ECB
:102398000D9F0368196841F48071196000973346EE
:1023A80000224FF00111FFF710FF00284ED12368DB
:1023B80005F0FE051D613B46324626492046FFF7DB
:1023C800B9FE30B1236C042B01D003203FE001207B
:1023D8003DE00023039323685A6903929B690393A2
:1023E800039B3A4631462046FFF77DFE58B1236CE1
:1023F800042B01D003202AE02268136843F40073F9
:102408001360012023E0B8F1010F04D123685FFABB
:1024180089F61E611BE023684FEA19221A613A46C1
:1024280031462046FFF75FFE58B1236C042B01D0DC
:1024380003200CE02268136843F400731360012042
:1024480005E023685FFA89F61E6100E0032005B005
:10245800BDE8F083020001002DE9F04F85B0064683
:102468008A4693461F46FFF755FC96F83D30DBB287
:10247800202B03D0022005B0BDE8F08F80460090E5
:102488001923012258493046FFF79FFE002840F0E3
:10249800A08096F83C30012B00F09D80012386F83F
:1024A8003C3033681A6812F0010F03D11A6842F001
:1024B80001021A603268136823F40063136024234E
:1024C80086F83D3000233364A3F58033F3624FF080
:1024D800010938E0A02386F83D3033685C69C4F30D
:1024E80040045D69C5F3802596F83D30DBB25CB9E0
:1024F80055B9A02B08D0002FECD0FFF70BFCA0EBB0
:102508000800B842E9D9E5E7202386F83D3033686A
:102518005A6912F0020F38D11A6842F400721A6030
:1025280033686FF480625A61CDF800801923012264
:102538002D493046FFF749FE002852D109F1010321
:10254800D9453ED299463268136843F480731360C4
:10255800CDF800803B4600224FF001113046FFF7CE
:1025680034FE002839D133680AF0FE021A61FFF7F9
:10257800D1FB804633685C69C4F340045D69C5F3E8
:10258800802596F83D30DBB2B1E71A6842F4007254
:102598001A600023039333685A6903929B69039373
:1025A800039BCDF80080192301220F493046FFF71D
:1025B8000CFEA0B9202386F83D30002386F83C3075
:1025C80059E7202386F83D30002386F83C30012067
:1025D80051E702204FE702204DE703204BE7032095
:1025E80049E7032047E700BF0200100070B5044622
:1025F8000E461546002303706423012229463046FF
:10260800FFF72AFF38B966602572FF23237042F26C
:102618000A030022E254204670BD30B5ADF5005DD6
:1026280085B004460D46782201A8FFF7DFFF9DF824
:102638000430FF2B09D07A2229462046FFF7D6FF1F
:1026480020460DF5005D05B030BD42F20C0201A92F
:10265800204606F01FFEF3E7F8B504460E46154679
:102668001F46002303706423012229463046FFF7E2
:10267800F3FE48B966602572FF232370BDF8183051
:10268800A3811FB1102363812046F8BD0123638114
:10269800FAE738B50446FFF73DFB0546B4F1FF3FBE
:1026A80000D00134FFF736FB401BA042FAD338BDF7
:1026B800024A136801331360704700BF5026002098
:1026C80010B584B0024603460846C3F30744009495
:1026D800C3F30723D2B2024907F0F2F904B010BDE0
:1026E80088A3000870B48FB006466C46204B93E868
:1026F800070084E8070000238DF814301D4A06926D
:1027080001228DF81C20FF218DF81D108DF81E3038
:102718008DF81F308DF820208DF821308DF822306B
:1027280004228DF823208DF8243005228DF82520E9
:10273800114A0A920A228DF82C208DF82D308DF836
:102748002E300D228DF82F208DF830308DF8313055
:102758000D9335460FCC0FC50FCC0FC50FCC0FC549
:1027680094E8030085E8030030460FB070BC70475A
:1027780098A30008E06735000000404008B5002035
:1027880006F058FD014B586008BD00BF9824002092
:10279800F8B507460E461446501C06F04BFD054694
:1027A8002246B91906F076FD00232B552846F8BDB8
:1027B800064B1B7803B9704710B5054C206806F026
:1027C80041FD00232360014A137010BD54250020E9
:1027D8005825002008B50168CA6822F04002CA607E
:1027E800202280F83920FFF7E3FF002008BD08B554
:1027F80006F028FD08BD000070B584B004462D4DD4
:102808002D4B1B68ADF808301A0C8DF80A20ADF86E
:1028180004308DF80620092600963D230422002165
:102828002846FDF706FF00963D230422012128468D
:10283800FDF79CFE214B1B68ADF808301A0C8DF88B
:102848000A20ADF804308DF80620082300930123F0
:10285800052200212846FDF7ECFE1949204604F020
:1028680089FF0446002105F041F908B904B070BD9C
:102878004FF07C51204604F075FE04F06DFD04F025
:102888008BFB04F049FE81B2C1F13B010B4B1B6885
:10289800ADF808301A0C8DF80A20ADF804308DF820
:1028A8000620072300933B23062289B22846FDF71A
:1028B800C0FEDBE7F8250020C0240020C424002047
:1028C800000060422DE9F84305460E46144612F012
:1028D800030F06D19208FFF7E7F904462046BDE842
:1028E800F8834FEA920808F101084FEA8809484638
:1028F80006F0A0FC07464A46002105F041F92246A9
:102908003146384606F0C6FC424639462846FFF7A7
:10291800CBF90446384606F095FCDFE738B504469F
:10292800456B00234363382201460448FFF7CAFF7A
:102938006563854214BF0020012038BDF0010020E6
:1029480038B50446D0F824510023C0F824314FF498
:10295800947201460448FFF7B5FFC4F82451854234
:1029680014BF0020012038BDF001002038B504460E
:10297800456800234360082201460448FFF7A2FF88
:102988006560854214BF0020012038BDF001002099
:1029980010B5044605F0C6FD01462046FEF7FAF8D4
:1029A80001210248FEF7F6F810BD00BFA4A30008F5
:1029B8000FB400B583B004AB53F8042B0193802106
:1029C800074807F0D1F8002804DC03B05DF804EBF1
:1029D80004B0704701460248FEF7DCF8F5E700BF8F
:1029E8005C25002008B5FFF763FEFEF773F808BD05
:1029F800704770477047FEE7FEE7FEE7FEE770475F
:102A080008B50248FFF7E2F808BD00BF3804002007
:102A180008B50248FFF726F808BD00BF38040020B3
:102A280008B50248FFF7D2F808BD00BFE40300204C
:102A380008B50248FFF716F808BD00BFE4030020F8
:102A48000F4B1A6842F001021A6059680D4A0A4091
:102A58005A601A6822F0847222F480321A601A6866
:102A680022F480221A605A6822F4FE025A604FF457
:102A78001F029A60044B4FF000629A60704700BFD3
:102A8800001002400000FFF800ED00E000B530B98A
:102A9800044D182420462946ABBE0446FEE7024DE5
:102AA800F7E700BF260002002300020008B503462E
:102AB8000C4A12685AB10B4A1068033323F0030317
:102AC8000344094A934206D8064A136008BD054ADA
:102AD80006491160EFE705F013F80C2303604FF087
:102AE800FF30F3E7F4250020004C00206C2600207E
:102AF80008B50348FFF74CFF0120FFF7C7FF00BFE9
:102B0800A8A3000808B50A4601460248FFF750FF87
:102B1800FFF7EEFFBCA300082DE9F843044642681E
:102B2800754B9A4200F28F80E3681BB1B3F5005FE2
:102B380040F08F80236933B1B3F5806F03D0B3F5CC
:102B4800C06F40F08C8063694FF6F372134200D176
:102B580023B940F6AA116948FFF7D4FF2268136920
:102B680023F44053E1680B431361A36822691343BC
:102B780062691A432168CB6823F4B05323F00C032D
:102B88001343CB602268536923F44073A1690B4354
:102B9800536122685A4B9A4267D0FEF7BDF900EBA1
:102BA800800000EB80006568AD00B0FBF5F5554E80
:102BB800A6FB05356D092F01FEF7AEF900EB800580
:102BC80005EB850563689B00B5FBF3F9FEF7A4F9EF
:102BD80000EB800000EB80006568AD00B0FBF5F508
:102BE800A6FB05356D094FF0640808FB15952D0106
:102BF8003235A6FB05356D0905F0F0053D44FEF7B5
:102C08008BF900EB800303EB83036768BF00B3FB1A
:102C1800F7F7FEF781F9226800EB800000EB8000EF
:102C280063689B00B0FBF3F3A6FB03135B0908FB87
:102C380013731B013233A6FB0313C3F343131D4461
:102C48009560BDE8F88340F6A7112C48FFF75AFFB6
:102C58006AE740F6A8112948FFF754FF6AE740F6EB
:102C6800A9112648FFF74EFF6DE7FEF745F919252C
:102C780005FB00F663689B00B6FBF3F66427B6FB1A
:102C8800F7F63601FEF738F905FB00F362689200A3
:102C9800B3FBF2F8FEF730F905FB00F36268920027
:102CA800B3FBF2F3B3FBF7F307FB13831B013233D8
:102CB800B3FBF7F303F0F0031E44FEF71DF905FB21
:102CC80000F362689200B3FBF2F8FEF715F9226888
:102CD80005FB00F36568AD00B3FBF5F3B3FBF7F351
:102CE80007FB13831B013233B3FBF7F303F00F0326
:102CF80033449360A5E700BF20AA4400E8A3000876
:102D0800003801401F85EB51002800F0A68070B5FF
:102D18000D4616460446002900F0A180012A2ED847
:102D2800237C012B00F09D8001232374022363740C
:102D3800002E3CD1EB78632B27D86B78013BDBB2B4
:102D48000B2B28D8AB78013BDBB21E2B29D8EB78AC
:102D5800E3736B786373AB78A373A27B617BE07BCF
:102D6800FDF7B4FF207328702046FEF795F83E4B18
:102D780098424AD8012363740020207470BD40F241
:102D8800BB213A48FFF7BEFECAE74FF43171374816
:102D9800FFF7B8FED1E740F2C5213448FFF7B2FE8D
:102DA800D0E740F2C6213148FFF7ACFECFE7E8781C
:102DB800FEF757F8632822D86878FEF752F808B16A
:102DC8000C2804D94FF434712848FFF79BFEA878E3
:102DD800FEF747F808B11F2804D940F2D12123484B
:102DE800FFF790FEE878FEF73CF8E0736878FEF7A6
:102DF80038F86073A878FEF734F8A073ADE740F2AE
:102E0800CF211A48FFF77EFED6E7A3F60F63B0FB83
:102E1800F3F503FB150529462046FFF7DEF828B130
:102E280004236374002323740120A7E72046FEF7D8
:102E38002CF8B0F1FF3F9DD085429BD900F5A83111
:102E480001F5C0712046FFF7B3F8002892D004239B
:102E5800637400232374012090E701207047012048
:102E68008CE702208AE700BF8F5F010018A40008E2
:102E7800002878D02DE9F8430C4615460646002967
:102E880073D0012A07D833685B6813F0040F08D0A1
:102E98000120BDE8F8834FF413713848FFF732FE7C
:102EA800F1E73046FDF7F8FF0746354BA3FB002353
:102EB800DB0A4FF4616202FB13023249A1FB0201F3
:102EC8004809C1F347116170C0EB0010A2EB800202
:102ED800A2702D4A974210D82370002D4BD020782D
:102EE800FDF7C8FF20706078FDF7C4FF6070A07818
:102EF800FDF7C0FFA0700020CBE7244AA2FB0328FF
:102F08004FEA181808EB4802A3EBC20323703046B7
:102F1800FDF7BBFF8146B0F1FF3F03D0874217D2D0
:102F2800A0EB07091A4800FB187739463046FFF727
:102F380054F8E0B9B9F1FF3F0DD009EB070130466D
:102F4800FFF736F8A8B941463046FDF72DFFC4E72C
:102F58004FF0FF39E6E749463046FFF729F80028E1
:102F6800F1D0012095E701207047012091E7012069
:102F78008FE701208DE700208BE700BF18A4000829
:102F8800C5B3A291898888887F510100ABAAAAAAF3
:102F9800805101002DE9F04182B00023ADF80430E2
:102FA8008DF8063048B30C461546064639B3012A53
:102FB8001DD8002201A93046FFF75AFF074600BB7B
:102FC800337B2370F07BE07096F80D8084F80180E5
:102FD800B67BA670B5B1FDF74DFFE0704046FDF732
:102FE80049FF60703046FDF745FFA0700AE040F2E7
:102FF8002D310648FFF786FDDBE7012702E00127B0
:1030080000E00127384602B0BDE8F08118A40008A6
:1030180070B5002800F0A0800C4615460646002929
:1030280000F09C80012A2BD8337C012B00F098807B
:103038000123337402237374002D39D12378172B9D
:1030480024D863783B2B27D8A3783B2B2AD8207821
:1030580062783C2303FB02F34FF4616202FB003009
:10306800A478044421463046FEF7B7FF05460028F9
:1030780051D004237374002333740125284670BD8E
:1030880040F2E9113748FFF73DFDCDE74FF4F971FC
:103098003448FFF737FDD4E740F2F3113148FFF722
:1030A80031FDD1E74FF4FA712E48FFF72BFDCEE73B
:1030B8002078FDF7D6FE17281BD86078FDF7D1FEDB
:1030C8003B281CD8A078FDF7CCFE3B281DD82078DB
:1030D800FDF7C7FE4FF4616505FB00F56078FDF765
:1030E800C0FE3C2303FB0055A078FDF7BAFE2C1860
:1030F800B8E74FF4FE711B48FFF704FDDDE740F227
:10310800FD111848FFF7FEFCDCE74FF4FF71154886
:10311800FFF7F8FCDBE73268536823F005035360D8
:103128003046FDF7B2FEB0F1FF3F01D0844204D82B
:103138000123737400233374A0E700F5A83101F567
:10314800C0713046FEF734FF0028F1D004237374B1
:1031580000233374012591E701258FE701258DE7C9
:1031680002258BE718A4000810B586B004463B4B2F
:103178000FCB0DF1180C0CE90F0040F20123ADF84C
:10318800043014F0130F08D0022C56D0102C0AD09B
:10319800012C31D0002006B010BD4FF4D371304857
:1031A800FFF7B0FCF0E72F4B5A68186810F08070F2
:1031B800F1D0C2F3834306A90B4413F8100C12F4A0
:1031C800803F15D0274B5B68C3F340430B4413F88B
:1031D800142C254BB3FBF2F300FB03F0214B5B6887
:1031E80013F4800FD7D140000323B0FBF3F0D2E7EC
:1031F8001E4B03FB00F0F1E71A4B1B6A40F2023248
:103208001A40B2F5817F23D003F44073B3F5007FF1
:1032180004D0B3F5407F09D00020BCE7114A526AB8
:1032280012F0020FF5D04FF4FA40B4E70D4B1B68CB
:1032380013F4003F0FD10020ADE7FDF75DFE094B09
:103248005B68C3F3813301335B00B0FBF3F0A2E7A3
:103258004FF400409FE74FF224409CE774A3000816
:1032680044A400080010024000127A0000093D0042
:1032780070B582B00446036813F0130F6CD023684E
:1032880013F0010F3FD0636843B1B3F5807F05D0D9
:10329800B3F5007F02D0B3F5407F62D1504BDB69B4
:1032A80013F0805F62D14E4BDA6942F08052DA61E6
:1032B800DB6903F080530193019B0125494B1B688F
:1032C80013F4807F54D0464B1B6A13F4407311D01B
:1032D800626802F440729A420CD0414A136A23F49D
:1032E8004070414901260E6000260E60106213F0FE
:1032F800010F51D13A4A136A23F4407361680B43B2
:103308001362002D59D1236813F0020F11D0A3685E
:1033180043B1B3F5804F05D0B3F5004F02D0B3F5F4
:10332800404F4FD12E4A536823F44043A1680B43C2
:103338005360236813F0100F4FD0E368B3F5800F84
:1033480001D0002B43D1264A536823F48003E16857
:103358000B435360002041E07C212448FFF7D2FB57
:103368008DE782212148FFF7CDFB97E70025A5E7E8
:103378001C4A136843F480731360FEF7CBFC0646BF
:10338800184B1B6813F4807F9DD1FEF7C3FC801B8C
:103398006428F5D9032021E0FEF7BCFC0646104B53
:1033A8001B6A13F0020FA5D1FEF7B4FC801B41F293
:1033B80088339842F3D9032010E0D36923F080536F
:1033C800D361A0E7C9210948FFF79CFBAAE740F2AF
:1033D80025110648FFF796FBB5E7002002B070BD3F
:1033E80000100240007000404004424244A400081B
:1033F80070B582B0044678B3236813B113F00F0F89
:1034080030D0236813F0010F46D063682BB1B3F5B1
:10341800803F02D0B3F5A02F2AD1AC4B5B6803F0F4
:103428000C03042B2FD0A94B5B6803F00C03082B6B
:1034380024D06368B3F5803F5BD0002B6FD103F1D4
:10344800804303F504331A6822F480321A601A683C
:1034580022F480221A6051E04FF4B8719C48FFF7BB
:1034680051FBC9E740F271119948FFF74BFBC8E7D8
:1034780040F277119648FFF745FBCEE7934B5B6820
:1034880013F4803FD5D0914B1B6813F4003F03D051
:103498006368002B00F02D82236813F0020F00F000
:1034A80089802369012B63D863691F2B66D8874BF2
:1034B8005B6813F00C0F6CD0844B5B6803F00C0353
:1034C800082B61D02369002B00F09980814B0122E1
:1034D8001A60FEF71FFC05467C4B1B6813F0020FB1
:1034E80040F08480FEF716FC401B0228F4D9032024
:1034F80004E2764A136843F480331360636843B385
:10350800FEF708FC0546714B1B6813F4003FC3D156
:10351800FEF700FC401B6428F5D90320EEE1B3F563
:10352800A02F09D0694B1A6822F480321A601A68F1
:1035380022F480221A60E1E703F18043A3F53C33CB
:103548001A6842F480221A601A6842F480321A60BB
:10355800D4E7FEF7DFFB05465C4B1B6813F4003F1E
:103568009AD0FEF7D7FB401B6428F5D90320C5E1A4
:1035780040F2AB115648FFF7C5FA95E74FF4D671FC
:103588005348FFF7BFFA92E7504B5B6813F4803F4C
:1035980098D14E4B1B6813F0020F03D02369012BFF
:1035A80040F0A981494A1368616923F0F80343EAA6
:1035B800C1031360236813F0080F3BD0A369012BE4
:1035C8002FD8A369002B50D0434B01221A60FEF775
:1035D800A1FB05463D4B5B6A13F0020F27D1FEF7AE
:1035E80099FB401B0228F5D9032087E1374A136865
:1035F800616923F0F80343EAC1031360DAE7354B46
:1036080000221A60FEF786FB0546304B1B6813F054
:10361800020FCFD0FEF77EFB401B0228F5D903200E
:103628006CE14FF4F6712A48FFF76CFAC9E70120FC
:10363800FDF746FC236813F0040F00F0A680E3684A
:10364800012B01D9052B22D1204BDB6913F0805FB8
:1036580023D11E4BDA6942F08052DA61DB6903F04C
:1036680080530193019B012518E01B4B00221A602F
:10367800FEF750FB0546154B5B6A13F0020FD9D0D5
:10368800FEF748FB401B0228F5D9032036E140F23B
:103698001B210F48FFF736FAD6E700250F4B1B68AA
:1036A80013F4807F1CD0E368012B2DD0002B43D16D
:1036B80003F1804303F504331A6A22F001021A6207
:1036C8001A6A22F004021A6223E000BF00100240C6
:1036D80074A4000800004242800442420070004086
:1036E800884A136843F480731360FEF713FB064699
:1036F800844B1B6813F4807FD5D1FEF70BFB801B2E
:103708006428F5D90320F9E07F4A136A43F00103DE
:103718001362E36833B3FEF7FDFA06467A4B1B6A79
:1037280013F0020F2FD1FEF7F5FA801B41F2883310
:103738009842F3D90320E1E0052B09D0724B1A6AAD
:1037480022F001021A621A6A22F004021A62E0E701
:103758006D4B1A6A42F004021A621A6A42F00102B8
:103768001A62D6E7FEF7D6FA0646674B1B6A13F0CD
:10377800020F08D0FEF7CEFA801B41F28833984238
:10378800F3D90320BAE0002D53D1E369022B56D8B0
:10379800E369002B00F0B1805B4A526802F00C022A
:1037A800082A00F0AD80022B40F08F80236A13B105
:1037B800B3F5803F49D1636A4BB3B3F5802F26D068
:1037C800B3F5002F23D0B3F5402F20D0B3F5801FD9
:1037D8001DD0B3F5A01F1AD0B3F5C01F17D0B3F58D
:1037E800E01F14D0B3F5001F11D0B3F5101F0ED091
:1037F800B3F5201F0BD0B3F5301F08D0B3F5401F29
:1038080005D0B3F5501F02D0B3F5601F23D13F4B4D
:1038180000221A60FEF77EFA05463B4B1B6813F040
:10382800007F1ED0FEF776FA401B0228F5D9032048
:1038380064E0354AD36923F08053D361A5E740F2A9
:10384800B9213348FFF75EF9A2E740F2C2213048B8
:10385800FFF758F9AFE740F2C3212D48FFF752F9B7
:10386800D5E7236AB3F5803F1AD027494A68236A07
:10387800606A034322F4741213434B60234B012202
:103888001A60FEF747FA04461F4B1B6813F0007FC7
:1038980019D1FEF73FFA001B0228F5D903202DE0C5
:1038A800A36813B1B3F5003F07D1174A536823F44F
:1038B8000033A1680B435360D7E740F2D92114487D
:1038C800FFF720F9F1E7002018E0104B00221A60FA
:1038D800FEF720FA04460C4B1B6813F0007F06D055
:1038E800FEF718FA001B0228F5D9032006E000208D
:1038F80004E0012002E0012000E0002002B070BDD9
:103908000120FBE7007000400010024060004242C6
:1039180074A400082DE9F04383B00546884617468D
:103928001E46BDF82C9000230193012E01D0102EC5
:1039380050D195F83D30DBB2202B5AD1304B1B6863
:10394800DB08304AA2FB03231B0A03EB830303EBC8
:1039580083030193019C601E0190002C40D02868CD
:10396800836913F0020FF5D195F83C30012B44D050
:10397800012385F83C30036813F0010F03D1036875
:1039880043F0010303602A68136823F4006313609B
:10399800212385F83D30402385F83E3000202864F7
:1039A8000A9B6B62A5F82890A5F82A90164BEB6243
:1039B800C5F84480AF64EE6428652A68136843F448
:1039C8008073136085F83C002A68536843F4E06309
:1039D80053600FE040F621310C48FFF793F8A8E751
:1039E80000232B63202285F83D2085F83C300320F6
:1039F80000E0022003B0BDE8F0830220FAE700BF30
:103A08000000002089B5F8140000FFFFA0A40008FA
:103A18002DE9F04387B00446884691461F46109E1C
:103A2800FEF778F90546012F01D0102F09D194F837
:103A38003D30DBB2202B0AD00227384607B0BDE85C
:103A4800F08340F61B219848FFF75CF8EFE70095F4
:103A58001923012295492046FEF7B7FB002840F0BC
:103A6800628194F83C30012B00F05F81012384F8D7
:103A78003C3023681A6812F0010F03D11A6842F02B
:103A880001021A602268136823F40063136022237A
:103A980084F83D30402384F83E30002323640E9B95
:103AA8006362BDF83C306385814BE362638D238597
:103AB800019500963B464A4641462046FEF7BCFB28
:103AC800074660B1236C042B04D0002384F83C30F3
:103AD8000327B2E7002384F83C300127ADE7238DA4
:103AE8005BB9029323685A6902929A690292029A10
:103AF8001A6842F400721A60A5E0012B0FD0022B5D
:103B080021D02268136843F480631360002305936F
:103B180023685A6905929B690593059B93E022687F
:103B2800136823F48063136072B600230393236839
:103B38005A6903929A690392039A1A6842F40072C6
:103B48001A6062B67FE02268136843F4006313606A
:103B580072B60023049323685A6904929A690492FE
:103B6800049A1A6822F480621A6062B66BE02A46E8
:103B780031462046FEF762FA70B923681A69636A0B
:103B8800591C61621A70238D013B2385638D9BB29A
:103B9800013B9BB2638556E0236C202B01D00127A3
:103BA8004BE7032749E70095334600224149204661
:103BB800FEF70BFB002840F0BA8072B62268136843
:103BC80043F40073136023681A69636A591C6162BD
:103BD8001A70238D013B2385638D9BB2013B9BB2F9
:103BE800638562B623681A69636A591C61621A7030
:103BF800238D013B2385638D9BB2013B9BB263857B
:103C080021E02268136843F40073136023681A697B
:103C1800636A591C61621A70238D013B2385638D89
:103C28009BB2013B9BB2638562B623681A69636ADB
:103C3800591C61621A70238D013B2385638D9BB2E9
:103C4800013B9BB26385238D002B63D0032B33D8B4
:103C5800012B8CD0022BA6D00095334600221549A3
:103C68002046FEF7B2FA002863D12268136823F4CD
:103C78008063136072B623681A69636A591C6162AB
:103C88001A70238D013B2385638D9BB2013B9BB248
:103C9800638500953346002206492046FEF795FACB
:103CA8000028AED00327C8E6A0A400080200100030
:103CB8000000FFFF040001002A4631462046FEF7B7
:103CC800BDF900BB23681A69636A591C61621A70DE
:103CD800238D013B2385638D9BB2013B9BB263859A
:103CE80023685A6912F0040FADD01A69636A591C27
:103CF80061621A70238D013B2385638D9BB2013B62
:103D08009BB263859FE7236C202B01D0012794E6A3
:103D1800032792E6202384F83D30002384F83E30C0
:103D280084F83C3089E6022787E6022785E60327E0
:103D380083E6032781E600BF2DE9F04383B00446FC
:103D4800884691461F460C9EFDF7E4FF0546012F65
:103D580001D0102F08D194F83D30DBB2202B09D0C8
:103D6800022003B0BDE8F08340F695115448FEF7F1
:103D7800C9FEF0E700951923012252492046FEF7B3
:103D880024FA002840F0978094F83C30012B00F08A
:103D98009480012384F83C3023681A6812F0010FDC
:103DA80003D11A6842F001021A602268136823F4EA
:103DB80000631360212384F83D30402384F83E30AB
:103DC800002323640A9B6362BDF82C3063853E4B55
:103DD800E362638D2385019500963B464A4641463A
:103DE8002046FEF7CDFAC0B1236C042B04D0002383
:103DF80084F83C300320B4E7002384F83C300120E9
:103E0800AFE7236C042B01D00320AAE722681368CC
:103E180043F4007313600120A3E7238D002B2AD0FD
:103E28002A4631462046FEF75EF90028E9D1636A42
:103E38005A1C626222681B781361228D013A92B281
:103E48002285638D9BB2013B9BB2638523685969C8
:103E580011F0040FE1D0002ADFD0626A511C6162C0
:103E680012781A61238D013B2385638D9BB2013B38
:103E78009BB26385D1E72A4631462046FEF70CF906
:103E880058B1236C042B01D003206AE72268136819
:103E980043F400731360012063E72268136843F456
:103EA80000731360202384F83D30002384F83E30EB
:103EB80084F83C3055E7022053E7022051E700BF61
:103EC800A0A40008020010000000FFFF70B505461E
:103ED80014460E4621B1012C08D86CB12E6170BD74
:103EE80040F2E3110648FEF70DFEF4E74FF4F271D5
:103EF8000348FEF707FEF0E736042E61EFE700BF40
:103F0800CCA4000810B5044638B101221146064871
:103F1800FFF7DCFF054B1C7210BD0022012102488F
:103F2800FFF7D4FFF6E700BF000C0140880300202C
:103F380008B5074BDB791BB9054B93F846301BB125
:103F4800FF20FFF7DFFF08BD0020FFF7DBFFFAE7E0
:103F58008803002008B5044B0022DA71034B0222C3
:103F68001A70FFF7E5FF08BD88030020BA24002077
:103F780008B5034B012283F84220FFF7EBFF08BD89
:103F880088030020F8B505460C46454B984214D0E6
:103F980003F58063984210D003F5806398420CD0F3
:103FA80003F58063984208D003F58063984204D0F3
:103FB8004FF4BB713B48FEF7A5FDA3B213B1220C29
:103FC8001204AAB140F277113648FEF79BFD002291
:103FD8000EE005F1040C15E0A2F10806B70014E0A4
:103FE800032600E0002606FA03F38B423FD0013295
:103FF80034FA02F352D0012393402340F7D0FF2B29
:10400800E7D8AC46FF2BE7D89700DCF800100F2064
:1040180000FA07F621EA06010426BE403143CCF82F
:104028000010E968DF4321EA0303EB604FEA920CD2
:104038000CF102011C4B53F8211002F003039B0002
:1040480098400140164EB542CCD006F58066B54280
:1040580009D006F58066B54207D006F58066B542F8
:10406800BED00426BFE70126BDE70226BBE70E4EF9
:104078000CF1020356F8231021EA000046F8230049
:104088000A4B19683940196059683940596099686C
:1040980039409960D9680F40DF60A8E7F8BD00BFD4
:1040A80000080140CCA400080000014000040140C1
:1040B8002DE9F04383B080460E46C24B984213D098
:1040C80003F5806398420FD003F5806398420BD0C4
:1040D80003F58063984207D003F58063984203D0C4
:1040E800CD21B948FEF70EFD33689AB212B11B0C08
:1040F8001B041BB1CE21B448FEF704FD7368012BE5
:1041080040F28C81112B00F08D81022B00F08E8102
:10411800122B00F08F81AD4A934200F08F8102F597
:104128008012934200F08E8102F58012934200F0D3
:104138008D81A2F5F812934200F08C8102F580126D
:10414800934200F08B8102F58012934200F08A813D
:10415800032B03D14FF000094D46E1E0CF219A48E7
:10416800FEF7D0FC4FF000094D46D9E0984A93423B
:1041780010D007D9974A93420CD002F58032934267
:1041880008D019E0A2F58012934203D002F57022FC
:1041980093420DD1B368022B7ED8B368002B00F090
:1041A8008980012B7ED0C8F814404FF0080903E03D
:1041B800A2F580129342EDD0FF2F7ED84046FF2F04
:1041C8007ED8AA0003680F21914023EA010309FA67
:1041D80002F213430360736813F0805F00F09F805E
:1041E8007D4B9A6942F001029A619B6903F00103D1
:1041F8000193019BAA08911C784B53F8210005F004
:10420800030399000F238B4020EA03006D4B984568
:104218005CD003F58063984500F0E48003F5806383
:10422800984500F0E18003F5806398454CD004235D
:104238004DE0F368013B022B02D8D6F80C90BBE79F
:10424800E5216148FEF75EFCF7E7F368013B022BC6
:1042580003D8F36803F10409AEE7EC215A48FEF7E6
:1042680051FCF6E7F368013B022B03D8F36803F12E
:104278000809A1E7F3215448FEF744FCF6E7F36880
:10428800013B022B03D8F36803F10C0994E7FA21E8
:104298004D48FEF737FCF6E740F207114A48FEF7AB
:1042A80031FC7AE7C8F810404FF0080984E74FF06E
:1042B800000981E74FF004097EE708F104007EE772
:1042C800A5F1080292007DE7032300E000238B405C
:1042D80003430232414941F82230736813F4803FA6
:1042E80000F084803E4A13683B431360736813F4FC
:1042F800003F00F081803A4A53683B43536073683B
:1043080013F4801F7ED0364A93683B4393607368EA
:1043180013F4001F7CD0324AD3681F43D76001359D
:104328000F2D00F2A3800124AC40336803EA040790
:1043380034EA0303F3D1234B984513D003F5806384
:1043480098450FD003F5806398450BD003F580633B
:10435800984507D003F58063984503D0DD211A48B6
:10436800FEF7D0FB7368122B3FF600AF122B3FF617
:1043780023AF01A252F823F09D4100083B420008F8
:104388006D420008B7420008C1410008C141000859
:10439800C1410008C1410008C1410008C1410008ED
:1043A800C1410008C1410008C1410008C1410008DD
:1043B800C1410008C1410008C1410008534200083A
:1043C8008742000800080140CCA400080000111032
:1043D80000002210000031100010024000000140CF
:1043E80000040140012372E7022370E7214A1368A1
:1043F80023EA0703136079E71E4A536823EA070391
:1044080053607CE71B4A936823EA070393607EE7BF
:10441800184AD36823EA0707D76080E74FF00009F6
:104428004D467DE74FF000094D4679E74FF000090A
:104438004D4675E74FF000094D4671E74FF000090A
:104448004D466DE74FF000094D4669E74FF000090A
:104458004D4665E74FF000094D4661E74FF000090A
:104468004D465DE74FF000094D4659E703B0BDE8FA
:10447800F08300BF0004014000B587B00B4B9A6978
:1044880042F008029A619B6903F008030193019BBB
:10449800012302930393002304930323059302A9A2
:1044A8000348FFF705FE07B05DF804FB0010024063
:1044B800000C014000B587B00E4B9A6942F010021B
:1044C8009A619B6903F010030193019B01230393F5
:1044D80000260496032305934FF400550295064CD5
:1044E80002A92046FFF7E4FD324629462046FFF799
:1044F800EDFCFEE7001002400010014070B50546D3
:104508000C460D4B1B78002BFBD10B4BFF221A706E
:10451800204604F08FFE094E30602246294604F0FA
:10452800B9FE224631680648FCF7ACFB00B970BDFD
:104538000120FFF7BFFF00BF5425002058250020A9
:10454800F824002010B588B000230F2B06D8C156D8
:104558000B4A1A4451720133DBB2F6E7084B0022CA
:104568005A76084B6C460FCB07C424F8023B1B0C49
:1045780023700E216846FFF7C1FF08B010BD00BFC9
:1045880088030020FCA4000808B50122094B1A7012
:10459800094B00211970094B4FF47A711980084BA7
:1045A800186008490848FCF73FFB00B908BD01201E
:1045B800FFF780FF3C2500205025002052250020D1
:1045C800382500203D250020F824002010B5234B75
:1045D8001B78012B05D0022B1BD0B3B10120FFF7AC
:1045E80069FF1F4B4FF47A721A801E4A13781E49CE
:1045F8000C781E48C45401331370184B02221A70E9
:1046080001221B48FCF710FB00B910BD0120FFF781
:1046180051FF134B4FF47A721A80124A13781249D9
:1046280008781249C8540133DBB21370102B09D033
:1046380001220D490E48FCF7F7FA0028E5D00120C1
:10464800FFF738FF054B01221A70064B00221A703B
:10465800084B1B6808469847EAE700BF3C2500203E
:1046680052250020502500203D250020402500200F
:10467800F82400203825002008B590F83A30DBB23D
:10468800222B46D18368B3F5805F0FD003690BBB3B
:1046980003685A68836A591C81621A70C38D9BB279
:1046A800013B9BB2C385F3B1002008BD826A036950
:1046B80043B903685B68C3F308031380836A023352
:1046C8008362EBE703685B68DBB21380836A0133BC
:1046D8008362E3E703685B68826A511C816203F0C6
:1046E8007F031370DAE70268D36823F02003D360EE
:1046F8000268D36823F48073D3600268536923F097
:1047080001035361202380F83A30FFF75FFF002050
:10471800CBE70220C9E7000010B504460268136819
:10472800D168526913F00F0005D113F0200F02D0A1
:1047380011F0200F13D128B112F0010213D111F496
:10474800907F10D113F0800F02D011F0800F5FD14D
:1047580013F0400F02D011F0400F5DD110BD20467C
:10476800FFF78AFFFAE713F0010F06D011F4807FF4
:1047780003D0E06B40F00100E06313F0040F04D0B5
:104788001AB1E06B40F00200E06313F0020F04D0AE
:104798001AB1E06B40F00400E06313F0080F04D096
:1047A8001AB1E26B42F00802E263E26B002AD5D04C
:1047B80013F0200F02D011F0200F22D123685B697B
:1047C80003F04003E26B12F0080F00D1EBB1204672
:1047D800FCF717FA23685A6912F0400FBED05A69DD
:1047E80022F040025A61636B002BB7D00C4A5A631F
:1047F800606BFCF7D1FF0028B0D0606B436B984723
:10480800ACE72046FFF738FFD8E70023E363A5E7C6
:104818002046FCF7C3F9A1E72046FDF7DBFF9DE73B
:10482800270C000808B50248FFF776FF08BD00BF4F
:10483800F824002000B583B00190C3B253B90846EC
:104848009DF806309DF80520044905F039F903B0B4
:104858005DF804FB0120FFF72DFE00BF0CA5000842
:1048680070B50D4B1B78FF2B12D004460A4D2978E2
:104878000131C9B22970094E8900306805F018F96C
:1048880030602B7803F18043013B40F8234070BD32
:104898000120FFF70FFE00BFF4240020F0240020C1
:1048A80010B5002214491548FEF7E2FA50B9124B28
:1048B8009A78134B1B789A4207D10F4B9A78104B72
:1048C8001A7010BD0120FFF7F5FD00220D490B48B5
:1048D800FEF760FB044648B10120FFF7EBFD0A4BE9
:1048E8001B6853F8243098470134E4B2074B1B780F
:1048F800A342F4D8E1E700BFFC010020DC2400203B
:10490800C7240020F8010020F0240020F42400200F
:1049180000B591B0154BDA6942F08052DA61DB6973
:1049280003F080530193019BFCF73CFB0C23069397
:1049380000230D93012209920C9306A8FEF758FD57
:1049480070B9012302934FF48073039302A8FEF712
:104958008FFC40B9064B01221A6011B05DF804FBC8
:104968000120FFF7A7FD0120FFF7A4FD001002407A
:104978003C04424200287BD010B5044602683D4BF7
:104988009A4203D0FC213C48FEF7BCF8A3683BB12F
:10499800802B05D0B3F5807F02D0B3F5407F12D1CC
:1049A8006368A3F580136FF48012934210D3637C7D
:1049B8009BB1022363742046FDF724FB90B10423C6
:1049C8006374012010BDFD212B48FEF79BF8E7E733
:1049D800FE212948FEF796F8E9E723742046FFF7F9
:1049E80097FFE6E72046FDF7CBFA60BB22685368DD
:1049F80023F007035360A36823B1204A136B23F005
:104A0800010313631D4AD36A23F46073A1680B433F
:104A1800D3626268B2F1FF3F19D021688B6823F036
:104A28000F0343EA12438B602168CB681B0C1B04FD
:104A380092B21343CB602046FDF789FA88B104236C
:104A480063740120BEE7042363740120BAE70120E0
:104A5800FEF78AFB08B1421EDFE7042363740120D6
:104A6800B0E70023E37301236373A3736374A9E7B7
:104A7800012070470028004018A40008006C00407E
:104A880008B51948194B03604FF0FF334360FFF72F
:104A980071FFF8B916491523CB7001234B708B7041
:104AA80005230B7000221048FEF72EF9A8B911490A
:104AB80000220A704A708A700B48FEF7A9FA78B982
:104AC80000200D4B18700D4B187004F0B3FB0C4B05
:104AD800186008BD0120FFF7EDFC0120FFF7EAFC94
:104AE8000120FFF7E7FC00BFDC240020002800407D
:104AF800F8010020FC010020C7240020F424002035
:104B0800F024002008B50E4B93F83430062B0FD84C
:104B1800DFE803F011130406080A0C0009480BE04B
:104B2800094809E0094807E0094805E0094803E0A1
:104B38000120FFF7BFFC084808BD0848FCE700BF94
:104B4800880300208CB10008A0B10008B4B10008A7
:104B5800CCB1000870B10008E4B100087CB10008CD
:104B680008B503460C4A92F835203AB14620032B83
:104B780006D8022B08D2012B0AD808BD8C20F6E7EC
:104B8800042B05D10020F8E700EB400080B2F4E7E1
:104B98000120FFF78FFC00BF8803002038B5204BA9
:104BA8001B78012B10D0022B39D013B10120FFF74D
:104BB80081FC1C4B1B881BB9194B01221A702EE073
:104BC800013B184A13802AE0174B1B681B78042BFB
:104BD8000FD0154B1B681B7883B1022B0ED0012B0D
:104BE80001D0032B0FD1114B0022DA71FFF7A0F986
:104BF80009E00F4B1A680C4B1A60EAE70B4BFF22CF
:104C0800DA71FFF795F9084D2C6814F8010BFFF7D6
:104C1800A7FF044B18802C60014B00221A7038BD86
:104C2800BA240020B8240020B424002088030020DF
:104C3800BC24002008B5074B1860074B18600378A0
:104C4800042B03D0054B01221A7008BD0120FFF781
:104C580031FC00BFBC240020B4240020BA2400206A
:104C680030B583B01A4B1868FBF714FB8DF80400B5
:104C7800C0F307238DF80530C0F307408DF8060010
:104C8800144C002584F8425094F8373094F83810C2
:104C980043EA012394F8391043EA01410198FBF7EC
:104CA80066FB84F84300C0F3072384F84430C0F35C
:104CB800074084F84500FBF797FB84F84650FFF758
:104CC80037F9FFF71FFFFFF7B5FF03B030BD00BF8F
:104CD800FC0100208803002010B582B01F4B186823
:104CE800FBF7D8FA8DF80400C0F307238DF80530D8
:104CF800C0F307408DF80600194C94F83F3094F83B
:104D0800401043EA012394F8411043EA0141019815
:104D1800FBF748FB94F83E30012B05D0022B14D04A
:104D28001BB10120FFF7C6FB08B102B010BD0C4B48
:104D3800022283F83E200B4A11889278A3F83F108C
:104D480083F84120FFF78CFFEFE70028EDD1044BF3
:104D5800002283F83E20FFF70BF9E6E7FC0100206C
:104D680088030020D403002000B585B0019000918D
:104D7800FBF718FB01282AD11B4B1868FBF78AFAA6
:104D88008DF80C00C0F307238DF80D30C0F30740F1
:104D98008DF80E0003990198FBF704FBB0F1FF3F73
:104DA80018D11249019B0B801B0C8B701048009A7C
:104DB8000280120C82700F4A0988A2F83F1082F80C
:104DC8004130012382F83E3005B05DF804FB012034
:104DD800FFF770FB00990398FBF7E4FAB0F1FF3F87
:104DE800DFD00120FFF766FBFC010020D80300207C
:104DF800D40300208803002038B505460C46FBF78D
:104E0800EBFA05F12C03A169606983E80300237FAD
:104E180085F83430637F85F83530234653F81E2FE4
:104E2800C5F836209A889B796A8785F83C3094F8CB
:104E3800253085F83D30A36AAB6494F82F3094F898
:104E4800301043EA012394F8311043EA0141E06A43
:104E5800FFF78AFF38BD0000434B93F83E30022B22
:104E680003D1414B93F8363003B1704730B583B066
:104E78003E4B1868FBF70EFA8DF80400C0F30723C1
:104E88008DF80530C0F307408DF80600364C94F8CD
:104E9800433094F8441043EA012394F8451043EA58
:104EA80001410198FBF77EFA94F8423023B1012BB7
:104EB80030D00120FFF7FEFAE8B92B4C012384F823
:104EC8004230638F94F83C1043EA01410198FBF7A4
:104ED8004EFA84F84300C0F3072384F84430C0F343
:104EE800074084F84500002384F84630FFF720F88F
:104EF800FFF730F80FE01E4B19680198FBF752FADC
:104F0800B0F1FF3F07D1184BFF2283F84620FFF787
:104F18000FF800E008B103B030BD134C002584F849
:104F2800425094F8373094F8381043EA012394F843
:104F3800391043EA01410198FBF719FA84F8430054
:104F4800C0F3072384F84430C0F3074084F84500D1
:104F5800FBF74AFA84F84650FEF7EAFFFFF7D2FD5E
:104F6800FFF768FED7E700BF88030020FC01002098
:104F7800780300202DE9F04F85B007460E4691468C
:104F88000393DDF838B09DF83CA0109DCB88B1F8AC
:104F9800048008FB03F81FFA88F814461DE0022075
:104FA800FFF788FA95F900300093039B22463146B3
:104FB8003846FBF7A5FC33685B6815F9010BC0B2EE
:104FC8009847B38803FB0044A4B2A4EB09039BB23F
:104FD800013BABF800304444A4B295F9003043B12A
:104FE8000A2BDCD0BB8BA34203D3BAF1000FE2D16A
:104FF800D8E705B0BDE8F08F2DE9F04186B0064648
:105008000F4611460D9DDDF83C801A461198FDF7B4
:10501800BFFB04460023ADF8163002909DF84030DF
:1050280001930DF1160300932B88BDF83020394603
:105038003046FFF79FFF2046FDF7D9FBB8F8002060
:10504800BDF816309A4201D2A8F800302A88BDF877
:10505800383013442B8006B0BDE8F0812DE9F04FBD
:1050680089B08246894615469DF850B0159FADF81F
:105078001E30129A4FF000011180139A138038469F
:1050880003F050FA0646D9F8003093F80080B9F8D2
:1050980008309844B9F8043008FB03F81FFA88F878
:1050A8000024224614E0A31A0597CDF810B01299EF
:1050B8000391CDF808800DF11E01019100959BB276
:1050C80049465046FFF798FF621C92B20134A4B2D9
:1050D800B44203D23B570A2BF8D1E4E7B31A059739
:1050E800CDF810B012990391CDF808800DF11E018A
:1050F800019100959BB249465046FFF77DFF139BEF
:105108001A88BDF81E309B1A139A138009B0BDE89F
:10511800F08F000030B597B0044604AB83E8060072
:10512800224D2846FBF7D2F9431E214A1268ADF8F2
:105138000820110C8DF80A10ADF804208DF806101F
:105148006B2200929BB25F2200212846FBF771FA7E
:105158009DF81030ABB9204602F0FEF802460B4627
:105168000EAC1449204604F0ABFC039400220292D2
:10517800019200925E2310490C48FFF76FFF17B0A9
:1051880030BD06AC0D4A234607CA03C323F8022BD9
:10519800120C1A70039400220292019200925E236C
:1051A80005492846FFF75AFFE9E700BFF825002020
:1051B800C024002024A50008DC25002018A500082C
:1051C80030B5A1B0059004913A4C2046FBF77EF922
:1051D800431E394A1268ADF80820110C8DF80A10E0
:1051E800ADF804208DF806105E2200929BB253227F
:1051F80000212046FBF71DFA9DF814403CB39DF8AA
:1052080015309DF8160043EA00239DF8170043EA7D
:105218000040FBF785F805460498FBF781F8281A43
:10522800FBF752F88DF87C00C0F307238DF87D302A
:10523800C0F307408DF87E001BA91F98FDF740FAC0
:10524800012C14D0022C2BD00120FFF733F907AB27
:105258001A4A07CA83E807000393002202920192C0
:105268000092522316491348FFF7F8FE16E0154B33
:1052780093E803001790ADF860100FAC17AB1BAAAA
:105288001149204604F01CFC03940022029201926A
:10529800009252230A490748FFF7E0FE21B030BDCB
:1052A8000A4B93E803001790ADF86010090C8DF8CD
:1052B8006210E2E7F8250020C024002034A5000889
:1052C800DC25002060A5000848A5000840A50008C6
:1052D80082B070B5A2B006AC84E8030005922793AB
:1052E8004A4C2046FBF7F2F8431E494A1268ADF8CB
:1052F8000820110C8DF80A10ADF804208DF806105E
:10530800522200929BB2472200212046FBF791F9D6
:105318009DF8A430022B2DD19DF89C30FF2B3BD05B
:105328009DF819309DF81A0043EA00239DF81B00E8
:1053380043EA0040FAF7F4FF04460598FAF7F0FF4D
:10534800201AFAF7C1FF8DF88400C0F307238DF8FF
:105358008530C0F307408DF886001DA92198FDF718
:10536800AFF99DF81830002B2BD0012B45D0012028
:10537800FFF7A0F809AE3446264D0FCD0FC42B68B1
:10538800238003960022029201920092462322492A
:105398001E48FFF763FE2BE009AE34461F4D0FCDC4
:1053A8000FC495E8030044F8040B218003960022FB
:1053B800029201920092462317491448FFF74EFEC5
:1053C80016E0174B93E803001990ADF8681011AC7C
:1053D80019AB1DAA1349204604F072FB039400225E
:1053E80002920192009246230B490848FFF736FEC5
:1053F80022B0BDE8704002B070470B4B1B68ADF897
:1054080064301B0C8DF86630E1E700BFF8250020FA
:10541800C024002054A50008DC25002068A5000849
:1054280080A5000848A5000888A5000870B58EB0BA
:10543800044604AB83E806001F4D2846FBF746F8F0
:10544800431E1E4A1268ADF80820110C8DF80A1088
:10545800ADF804208DF80610462200929BB23B223C
:1054680000212846FBF7E5F89DF810308BB906AD0A
:1054780022461349284604F023FB03950022029292
:10548800019200923A230F490B48FFF7E7FD0EB04F
:1054980070BD06AE34460C4D0FCD0FC42B6823707B
:1054A800039600220292019200923A23054902488B
:1054B800FFF7D4FDEBE700BFF8250020C02400204B
:1054C800A0A50008DC2500208CA5000810B596B022
:1054D80004AB83E80300264C2046FAF7F7FF431E87
:1054E800244A1268ADF80820110C8DF80A10ADF89E
:1054F80004208DF806103A2200929BB22D2200213A
:105508002046FBF796F89DF81030CBB11A4A0AAB43
:1055180007CA03C323F8022B120C1A700EAC0AAA8E
:105528001649204604F0CCFA039400220292019214
:1055380000922E2312490E48FFF790FD16B010BDB9
:105548009DF811309DF8120043EA00239DF81300DE
:1055580008A943EA0040FFF76DF906A90598FFF787
:1055680069F906AB08AA07490AA804F0A9FAD5E719
:10557800F8250020C0240020B4A50008C8A500080C
:10558800DC250020C0A500082DE9F04F95B00B469A
:105598001546062800F2B880DFE800F00477818B12
:1055A800959FA9005C4A92E803001090ADF844105A
:1055B800090C8DF84610594A1268ADF83020120CC3
:1055C8008DF83220002B00F0A2804623ADF8283059
:1055D80006AE0AAB0CAA5249304604F071FADFF85D
:1055E80070B1DFF870A110AF03974FF0FF08CDF846
:1055F8000880002401940DF11603009323462246E7
:1056080059465046FFF72AFD0396CDF808800194C5
:1056180005AB00932346224659465046FFF71EFD28
:10562800BDF81680A5EB0808C8F34E08BDF814208D
:10563800AD1AC5F34E055046FAF748FF00F1FF3999
:105648001FFA89F9BDF81620424492B2A9EB02026A
:105658000397029401940094182392B25946504635
:10566800FFF7FCFCBDF814202A4492B2A9EB020211
:105678000396029401940094222392B2594650460C
:10568800FFF7ECFC15B0BDE8F08F264A1268ADF8BC
:105698004020120C8DF84220234A0C9292E7234AAC
:1056A8001268ADF84020120C8DF84220204A0C9266
:1056B80088E7204A1268ADF84020120C8DF8422085
:1056C8001D4A0C927EE71D4A1268ADF84020120C64
:1056D8008DF842201A4A0C9274E71A4A1268ADF8FB
:1056E8004020120C8DF84220174A0C926AE7174A9C
:1056F80092E803001090ADF84410090C8DF846109C
:105708005322ADF830205DE70120FEF7D3FE532386
:10571800ADF828305CE700BFD4A50008DCA5000878
:10572800FCA50008E0A500084D4F4500E4A50008C9
:105738004D4F4900E8A500084D4F5300ECA500085F
:105748004D4F4800F0A500084D4F3500F4A500085E
:10575800DC250020F825002010B58CB004AB83E8C8
:105768000300059801F0AEFF0D4902F0B7F801F00B
:10577800F3FD02460B4608AC0A49204604F0A0F99E
:1057880003940022029201920DF11E030093182344
:1057980005490648FFF762FCBDF81E000CB010BDB5
:1057A8000024744904A6000820260020F8250020BB
:1057B80030B587B004461F4D2846FAF787FE431ECA
:1057C8001D4A1268ADF80820110C8DF80A10ADF8C2
:1057D80004208DF80610192200929BB20C22002199
:1057E8002846FAF726FF0394FF230293002201922A
:1057F8000DF116030093134610492846FFF72EFCB7
:105808002846FAF763FEBDF81620821A42F34F02C3
:10581800002A0CDB039400230293019300930D23C9
:1058280092B206490348FFF719FC07B030BD0022C1
:10583800F0E700BFF8250020C0240020DC25002068
:1058480030B58BB00590134C134B1B68ADF808307E
:105858001A0C8DF80A20ADF804308DF806200B23B9
:1058680000937323012242212046FAF7E2FE06AD97
:1058780029460598FCF724FF03950023029301931A
:1058880000930123422205492046FFF7E7FB0BB0AE
:1058980030BD00BFF8250020C0240020DC250020F2
:1058A80084B02DE9F0418CB012AC84E80F00BDF84B
:1058B8005C60BDF86070BDF86440BDF868509DF844
:1058C8004830002B61D00DF1180CDFF800E1BEE87C
:1058D8000F00ACE80F009EE803008CE80300374B8C
:1058E8001B68ADF814301B0C8DF816303319DFF82F
:1058F800D480059AADF80820120C8DF80A202F4A9A
:105908001268ADF80420120C8DF806207A1992B2AC
:1059180000929BB23A4631464046FAF78AFE0DF1AC
:1059280049030393FF23029304AB01930DF1120380
:10593800009300231A4622494046FFF78FFBBDF823
:105948001220A41A04EBD47444F34F02BDF81030AB
:10595800ED1A05EBD57545F34F03002A29DB002B1B
:1059680029DB3B4432440DF14901039100210291A6
:10597800019100919BB292B206A91248FFF76EFB03
:105988000CB0BDE8F04104B070470DF1180CDFF819
:1059980030E0BEE80F00ACE80F009EE803008CE89A
:1059A8000300094B1B68ADF814301B0C8DF816303A
:1059B8009CE70022D3E70023D3E700BFC4240020DC
:1059C800DC250020F8250020C024002038260020EF
:1059D80070B586B00E4B112604963B2503956E24B0
:1059E8000294002201921A8AADF800200FCBFFF72B
:1059F80057FF084B049603950294442201921A8A91
:105A0800ADF800200FCBFFF74BFF06B070BD00BF0D
:105A1800A0240020C824002084B02DE9F04184B0DF
:105A28000AAC84E80F003E4C3E4B19682046FAF752
:105A3800F3FD2046FAF74AFD451EADB20A98FCF779
:105A4800DBFE0B98FFF7FCFE9DF83000FAF726FF07
:105A58000DF13100FFF7ACFE334B1B68ADF8083091
:105A68001A0C8DF80A20ADF804308DF806202C2386
:105A780000932B46192200212046FAF7DAFD15ADCE
:105A880095E80300FFF768FE06469DF85C709DF8F0
:105A98005D802046FAF71AFD801B82B241463846DF
:105AA800FFF772FDBDF862309DF86410DDF85E0006
:105AB80043EA0141FFF70AFDBDF862309DF8642012
:105AC800DDF85E1043EA02429DF86500FFF7AEFC80
