:020000040800F2
:1000000000500020B94E0008A31F0008A11F0008DF
:100010009F1F00089D1F00089B1F00080000000094
:10002000000000000000000000000000991F000810
:10003000971F000800000000951F0008891F000896
:10004000014F0008014F0008014F0008014F000850
:10005000014F0008014F0008014F0008014F000840
:10006000014F0008014F0008014F0008014F000830
:10007000014F0008014F0008014F0008014F000820
:10008000014F0008014F0008014F0008014F000810
:10009000014F0008014F0008014F0008014F000800
:1000A000014F0008014F0008014F0008014F0008F0
:1000B000014F0008014F000800000000B51F0008B4
:1000C000A51F00080000000000000000014F00080C
:1000D00000000000014F0008014F00080000000070
:1000E000014F0008014F0008014F00080000000008
:1000F0000000000000000000000000000000000000
:0C01000000000000000000005FF808F1A3
:10010C00E49300080000002004020020E49300089F
:10011C000000000000000000040200204C2400201D
:10012C000000000000000000F8B500BFF8BC08BCDF
:10013C009E467047F8B500BFF8BC08BC9E46704799
:08014C007D01000859010008C3
:1001580010B5054C237833B9044B13B10448AFF3F9
:1001680000800123237010BD04020020000000005D
:10017800D893000808B5034B1BB103490348AFF3F4
:10018800008008BD0000000008020020D893000885
:10019800A3F5803A704700BF174B002B08BF134BDD
:1001A8009D46FFF7F5FF00218B460F461348144A7A
:1001B800121A05F099FC0E4B002B00D098470D4BF6
:1001C800002B00D098470020002104000D000D48A6
:1001D800002802D00C48AFF3008005F05FFC200037
:1001E800290004F01FFD05F045FC00BF00000800D1
:1001F8000000000000000000005000200402002061
:100208004C240020000000000000000080207047FF
:100218008020704710B483B0CBB2C1F30724B62254
:1002280002FB04F2362404FB0323C1F3074101EB6C
:10023800C10103EB4101094BA3FB0123C91A03EBDD
:100248005101C1F3C72142F20B03C1540F2901D94F
:100258000F22C25403B010BC704700BF0101100048
:1002680084B08DF80800C0F307228DF80920C0F388
:1002780007438DF80A30029B0020DAB262F30700C8
:10028800C3F3072262F30F20C3F3074363F3174056
:1002980004B0704782B0134BA3FB0023C3F3C723FA
:1002A8008DF800304FF4616202FB13000E4BA3FB84
:1002B8000023C3F347138DF80130C3EB0313A0EBFE
:1002C80083008DF80200009B0020DAB262F3070079
:1002D800C3F3072262F30F20C3F3074363F3174006
:1002E80002B07047C5B3A2918988888882B0C2B22B
:1002F800C0F30723C3EB03139B004FF4616101FBB9
:100308000233C0F30740184402B0704730B583B0D9
:100318000D46FFF7EBFF04462846FFF7E7FF844248
:1003280004D005DB4FF0FF3003B030BD0020FBE701
:100338000120F9E70346064A0C211170054951606E
:100348000549916007CA83E807001846704700BF4F
:10035800280200206503000869030008062070478A
:100368001F2806D9203800EB4000034B03EB800020
:1003780070470248704700BFA88500082890000809
:1003880003888B4218D910B44488944216D9DC08E3
:1003980013F0070F00D00134CB0804FB023201F040
:1003A8000701012303FA01F14368985C084001D171
:1003B80010BC7047FF20FBE7002070470020F7E7DC
:1003C80008B58368984708BD08B54368984708BDCD
:1003D80008B583690068984708BD08B5838B8B42C8
:1003E80005D3C38B934202D303690068984708BDBD
:1003F800F8B50E46818BB14217D305461C46934289
:1004080028BF1446C78BA7420FD3934238BF134661
:100418009F4208D31F4606E0224631462846FFF78A
:10042800DCFF0134A4B2A742F6D2F8BDF8B51E46E7
:10043800C38BB34217D3054614468A4228BF0C46DD
:10044800878BA7420FD38A4238BF0A46974208D300
:10045800174606E0324621462846FFF7BEFF01341C
:10046800A4B2A742F6D2F8BD2DE9F0470446BDF87C
:1004780020C01E468B4228BF0E46808BB04207D351
:100488006746944528BF1746B4F81EE0BE4501D21A
:10049800BDE8F0878B4238BF0B461D46944538BFF0
:1004A8009446E146984228BF18468046E64528BF4C
:1004B800E646F2463B46024631462046FFF7B6FF7F
:1004C80053463A4631462046FFF792FFA38BAB428C
:1004D80009D2E38B4B45DBD353464246314620468F
:1004E800FFF7A4FFD4E753463A4641462046FFF7B4
:1004F8007FFFEEE782B0036A0020DAB262F30700FA
:10050800C3F3072262F30F20C3F3074363F31740D3
:1005180002B0704700B583B00184090C80F822103E
:10052800C368016A0068984703B05DF804FB2DE9C9
:10053800F04F85B004460E4693461D46BDF8387008
:10054800FFF7D8FF8DF80C00C0F307238DF80D30A6
:10055800C0F307408DF80E00A946B54228BFB14642
:10056800A38B4B4507D3BA465F4528BFDA46B4F894
:100578001E80D04502D205B0BDE8F08FB54238BF25
:1005880035465F4538BF5F46AB4228BF2B460193CF
:10059800B84528BFB84609F1010B1FFA8BFB0AF1D1
:1005A8000106B6B20F992046FFF7B4FF5346019AE9
:1005B80049462046FFF73AFF4346524649462046F9
:1005C800FFF716FFA38BAB4212D2019DE38BBB4210
:1005D80017D2A38B5B4506D3E38BB34203D35D45A8
:1005E80001D3B04519D203992046FFF793FFC2E71C
:1005F80001994D1EADB2434652462046FFF7F8FE1C
:10060800E4E708F1FF3A1FFA8AFA4346019A494695
:100618002046FFF70BFFD046DBE710992046FFF78F
:1006280079FF07E033462A4659462046FFF7FEFE83
:100638000136B6B2B045F5D203992046FFF76AFFF6
:1006480099E730B587B005460591FFF7BDFE441E12
:10065800A4B22846FFF7B4FE431E9BB2059AADF834
:100668000820110C8DF80A10ADF804208DF806103A
:1006780000932346002211462846FFF758FF07B08B
:1006880030BD08B590F8232090F8241042EA0122E2
:1006980090F8251042EA0141FFF7D3FF08BD2DE984
:1006A800F04F89B0019088461D460293BDF84890E6
:1006B800BDF84C4004949DF858100591838B9342E3
:1006C80067D39346C38BAB4263D3B8F8007007FB7C
:1006D80009F7B8F8023003FB04F30393149BADF851
:1006E80018301B0C8DF81A3012AB33F80C2F9B788E
:1006F800ADF81B208DF81D30002504E0059B022B6A
:1007080005D10135EDB2012D43D8002DF6D0012DCC
:1007180002D1059B012BF4D005EB450308AA13442D
:1007280013F8081C13F8072C41EA022113F8063CB9
:1007380041EA034121F07F410198FFF7EBFE4FF0BA
:10074800000A1DE0A8B1029B03EB0A020BEB0401AF
:1007580092B289B20198FFF740FE0134BC420DD233
:10076800B4FBF9F1324689B24046FFF709FE002D85
:10077800E8D0012DF1D10028EFD1E4E70AF1010A10
:10078800039B9A45BDD2049BBAFBF3F6B6B200248C
:10079800E4E709B0BDE8F08F00B589B00C23ADF8E7
:1007A8001830ADF81A30E0B10F4B079300230493CB
:1007B8000E4A1268ADF80C20120C8DF80E200C4A67
:1007C8001268ADF80820120C8DF80A200122019257
:1007D8000092742206A90748FFF761FF09B05DF887
:1007E80004FB054B0793E1E71C00002004230020CD
:1007F80008230020D8230020040000202DE9F04120
:1008080088B005460C4616461F460B681A78ADF8A0
:100818001A205B689DF8388040469847ADF8180064
:1008280023689B68404698470790A388E268216937
:1008380060690078049008888978ADF80C008DF814
:100848000E1011889278ADF808108DF80A200193DF
:1008580000933B46324606A92846FFF720FF08B01A
:10086800BDE8F08138B504461D46016042608360EA
:10087800049BC360059B0361069B4361079B8361DF
:1008880090470138A083A8470138E08304AB33F8C8
:10089800102F9B78A4F8232084F82530204638BDF3
:1008A80042F20A03C35C1BB142F20A030022C2549B
:1008B800704780280FD880290FD8C90189B2014410
:1008C80088B2C1F34E01118080F0010202F00102EA
:1008D8001A70FF207047002070470020704710B53D
:1008E80082B00446084611460DF105030DF10602D3
:1008F800FFF7DFFF78B19DF8053073B1BDF806103A
:1009080021448B7A03F00F0342F20B02A25C12011E
:10091800D2B213438B7202B010BDBDF80620224438
:10092800937A03F0F00342F20B01615C01F00F01CE
:100938000B439372EFE710B584B00446084611469E
:1009480000238DF808308DF809308DF80A300DF144
:1009580005030DF10602FFF7ACFF28B39DF805303B
:100968004BB3BDF806002044837A1B0903EB03133D
:10097800DBB28DF808308DF809308DF80A30029B0B
:10098800ADF80C301B0C8DF80E3000209DF80C30A3
:1009980063F307009DF80D3063F30F209DF80E30C8
:1009A80063F3174004B010BD029BADF80C301B0C6C
:1009B8008DF80E30E9E7BDF806002044837A03F08D
:1009C8000F03D3E742F20A03C35C002BFAD1704746
:1009D80010B50024064B1B88A34207D9044B5B685B
:1009E80053F8243098470134A4B2F3E710BD00BF90
:1009F800E822002008B50268034B9A4200D008BDDF
:100A08000248FFF74DFFFAE700540040DC020020DF
:100A18002DE9F04385B004460F46435633BB042501
:100A280028462146ABBE0446384605B0BDE8F083EB
:100A380014F9010B04AA1A4402F8100C0133AB4252
:100A4800F6D304AA1344002203F8102C4FF004082C
:100A5800E94640464946ABBE8046761B002EE3D0A9
:100A68003546102E28BF10250023E8E70E46F5E787
:100A780008B5FFF7CDFF08BD10B400F5FA640229E8
:100A880022D801EB4103C1EBC3011F4BA3FB0113A8
:100A980002EB5303234400F2CF7003EB90031B4A8D
:100AA800A2FB0020A3EB501303EBD0130433184828
:100AB800A0FB03201A1A00EB52008008C0EBC0000C
:100AC800181AC0B210BC704701EB4103C1EBC30157
:100AD8000D4BA3FB011302EB5303234403EB9403D5
:100AE8000A4AA2FB0424A3EB541303EBD4130233E6
:100AF8000748A0FB03201A1A00EB52008008C0EB3D
:100B0800C000181ADDE700BF398EE3381F85EB51A6
:100B18002549922410F0030F14D10D4BA3FB002399
:100B28005B09642202FB13039BB26BB9084BA3FB5E
:100B38000023DB094FF4C87202FB130080B228B906
:100B4800012070470020704701207047002070473F
:100B58001F85EB512DE9F84380460F4690F80F901A
:100B6800447B857B002603E01E2D1FD80135013606
:100B7800BE423DD2012CF7D0032CF5D0052CF3D082
:100B8800072CF1D0082CEFD00A2CEDD00C2CEBD090
:100B9800042C15D0062C13D0092C11D00B2C0FD0F7
:100BA800022CE4D11B2D12D80135E0E70C2C02D021
:100BB80001340125DBE709F1010901252C46D6E7B7
:100BC8001D2D01D80135D2E701340125CFE71C2DB1
:100BD80004D01D2DCBD101340125C8E71FFA89F0B7
:100BE800FFF798FF08B10135C1E701340125BEE7D9
:100BF80088F80F90E1B288F80D10EAB288F80E2054
:100C08004846FFF739FF88F80C00BDE8F883030968
:100C180003EB830300F00F0000EB4300C0B2704702
:100C28000023092803D901330A38C0B2F9E71B01A8
:100C3800DBB2184370470368186A5B6A9BB243EAE1
:100C48000040704730B402689469A5B2D3699169CD
:100C580088B2854205D0D06980B240EA014030BCF4
:100C6800704798B240EA0440F9E7000082B0084BA8
:100C78001B68084AA2FB03235B0A00FB03F30193EA
:100C880000BF019B5A1E0192002BF9D102B0704798
:100C980000000020D34D6210014B1868704700BF58
:100CA8000000002008B5FFF7F7FF044B5B68C3F3AB
:100CB800C223034AD35CD84008BD00BF00100240DD
:100CC800A085000808B5FFF7E7FF044B5B68C3F38E
:100CD8000223034AD35CD84008BD00BF001002407D
:100CE800A085000886B0164B0FCB0DF1180C0CE947
:100CF8000F0040F20123ADF80430124B5B6803F09B
:100D08000C02082A02D0104806B07047C3F3834289
:100D1800624412F8102C13F4803F0CD0094B5B6826
:100D2800C3F34043634413F8143C074800FB02F044
:100D3800B0FBF3F0E8E7054800FB02F0E4E700BF8A
:100D4800B88200080010024000127A0000093D0035
:100D5800014B01221A60704720000E42438D9BB25E
:100D680053B103681A69436A591C41621A70438D6A
:100D78009BB2013B9BB2438500207047438D9BB2D9
:100D880053B1436A5A1C426202681B781361438D4F
:100D98009BB2013B9BB243850020704710B48DB0D5
:100DA80090F83E30DAB2C16A046B90F83D30DBB29D
:100DB800222B0BD000230B9303685A690B929B6973
:100DC8000B930B9B00200DB010BC7047036D0BB943
:100DD800402A17D0036D1BB90369B3F5404F19D0EA
:100DE800438D9BB2002B25D1039303685A69039264
:100DF8009A690392039A1A6842F400721A600023EF
:100E08000365DFE7019303685A6901929B690193BF
:100E1800019BD7E70023029303685A6902929A69F3
:100E28000292029A1A6842F480721A60036D0133C2
:100E38000365C7E7438D9BB2012B1AD0438D9BB244
:100E4800022B6BD00268136843F480631360036855
:100E58005A6812F4006F03D05A6842F480525A60FC
:100E680000230A9303685A690A929B690A930A9BAA
:100E7800C5E711F5803F16D004293DD008293BD09D
:100E8800122C39D0C36A022B30D00268136823F4BD
:100E9800806313600023069303685A6906929B696E
:100EA8000693069BABE70268136823F4806313601C
:100EB80003685A6812F4006F0CD01A6822F4806232
:100EC8001A600023049303685A6904929B69049387
:100ED800049B94E7002205925A6905929A69059243
:100EE800059A1A6842F400721A6088E70268136863
:100EF80043F480631360CDE70268136823F48063CA
:100F080013600023079303685A6907929A69079246
:100F1800079A1A6842F400721A6070E7C36A022BD3
:100F28001BD00268136843F400631360002308931E
:100F380003685A6908929A690892089A1A6822F40A
:100F480080621A6003685A6812F4006F3FF457AF62
:100F58005A6842F480525A6051E70268136843F4B1
:100F6800806313600023099303685A6909929B6997
:100F78000993099BE6E7436C0268DBB21361002022
:100F8800704790F83E30DBB2402B10D00369B3F5C0
:100F9800804F1BD0036D5BBB436C0268C3F3C8135F
:100FA80003F0060343F0F003136100207047036D5C
:100FB8002BB9436C026803F0FE031361F5E7436C39
:100FC800026843F00103DBB21361EEE790F83D30AD
:100FD800DBB2212B06D0436C026843F00103DBB27D
:100FE8001361E2E7436C026803F0FE031361DCE778
:100FF800036D012BD9D1436C0268C3F3C81303F006
:10100800060343F0F1031361CFE7436A19680A68DE
:1010180022F480620A6000225A85596B4A63996BF0
:101028004A6393F83D20D2B2602A0BD0202283F87D
:101038003D20002283F83E201A68136823F001033C
:1010480013607047202283F83D20002283F83E2059
:101058001A641A68136823F0010313607047036861
:101068009A699B690020704790F83D30DAB2438D49
:101078009BB2F3B110B403681969436A5C1C4462FB
:101088001970438D9BB2013B9BB24385438D9BB244
:101098000BB92A2A02D0002010BC70470268536896
:1010A80023F48063536022230363282380F83D30B0
:1010B800F1E700207047000090F83D30DBB2C26ACB
:1010C800042A01D0082A01D1282B07D0212B1DD0B2
:1010D80003686FF480625A6100207047184BC3623E
:1010E8000268536823F4E063536003686FF4806216
:1010F8005A610268136823F4806313600023036352
:10110800202280F83D2080F83E30E5E70C4BC36292
:1011180021230363202380F83D30002380F83E30EC
:101128000268536823F4E063536003686FF48062D5
:101138005A610268136823F480631360CCE700BF28
:101148000000FFFF90F83D30DAB2438D9BB27BB1CF
:10115800436A591C416201681B780B61438D9BB23D
:10116800013B9BB24385438D9BB20BB9292A01D021
:10117800002070470268536823F48063536021237A
:101188000363282380F83D30F2E7C26A438D9BB29F
:10119800032B10D0438D9BB2022B24D003681A690D
:1011A800436A591C41621A70438D9BB2013B9BB242
:1011B800438500207047042A04D0082A02D012F57B
:1011C800803F04D10268136823F4806313600368C6
:1011D8001A69436A591C41621A70438D9BB2013BDC
:1011E8009BB24385E5E7042A17D0082A15D012F5E3
:1011F800803F12D0022A0AD00268136823F4806361
:1012080013600268536823F4407353600FE0026868
:10121800136843F480631360F3E70268536823F4A8
:10122800407353600268136843F4007313600368E3
:101238001A69436A591C41621A70438D9BB2013B7B
:101248009BB2438503681A69436A591C41621A7044
:10125800438D9BB2013B9BB24385202380F83D30F0
:101268000023036390F83E30DBB2402B03D0002309
:1012780080F83E309DE7002380F83E3099E790F8EB
:101288003D30DBB2222B01D000207047438D9BB24A
:10129800032B0BD903681A69436A591C41621A70F7
:1012A800438D9BB2013B9BB24385EDE7023B012B8B
:1012B80025D9C36A022B3BD00268136823F48063E4
:1012C80013600268536823F4E063536003681A6983
:1012D800436A591C41621A70438D9BB2013B9BB211
:1012E8004385202380F83D300023036390F83E3087
:1012F800DBB2402B22D0002380F83E30C4E7C36A1B
:10130800022B0FD00268136823F48063136002680D
:10131800136843F4006313600268536823F480631E
:101328005360B1E70268136843F480631360F3E71E
:101338000268136843F480631360C2E7002380F8EF
:101348003E30A1E708B5C26A90F83D30DBB2212BE8
:1013580001D0002008BD438D9BB25BB1436A5A1C83
:10136800426202681B781361438D9BB2013B9BB2BA
:101378004385EEE7042A04D0082A02D012F5803FFC
:1013880017D10268536823F4E06353600268136856
:1013980043F40073136000230363202380F83D3077
:1013A80090F83E30DBB2402B11D0002380F83E305D
:1013B800CFE70268536823F4E063536011230363A3
:1013C800002380F83E30202380F83D30C1E7002319
:1013D80080F83E30FFF70EFBBBE710B590F83D30C4
:1013E800DBB290F83E20D2B2C46A018D09B9212B34
:1013F80005D0212B38D0402A34D0002010BD042C31
:1014080004D0082C02D014F5803F17D10268536825
:1014180023F4E06353600268136843F400731360B5
:1014280000230363202380F83D3090F83E30DBB280
:10143800402B11D0002380F83E30DEE70268536865
:1014480023F4E063536011230363002380F83E30E4
:10145800202380F83D30D0E7002380F83E30FFF7A6
:10146800C9FACAE7222BC8D1438D9BB22BB90268AF
:10147800536823F480635360BFE790F83E30DBB2D3
:10148800402B0BD0436A5A1C426202681B781361D6
:10149800438D9BB2013B9BB24385AEE7036D9BB97D
:1014A800C36C012B08D0836C0268C3F30723136154
:1014B800036D01330365A0E7836C0268DBB2136137
:1014C800036D0233036598E7036D012B18D0036D94
:1014D800022B92D190F83D30DBB2222B18D090F835
:1014E8003D30DBB2212B88D1436A5A1C4262026824
:1014F8001B781361438D9BB2013B9BB243857CE70C
:10150800836C0268DBB21361036D0133036574E712
:101518000268136843F4807313606EE708B590F8A7
:101528002130022B03D004238363012008BD026805
:10153800136823F00E0313600268136823F0010395
:1015480013600368194A934214D0143293421FD08F
:10155800143293421ED0143293421ED01432934256
:101568001ED01432934202D04FF0807203E04FF441
:10157800801200E001220E4B5A60012380F82130CE
:10158800002380F82030436B6BB198470020CDE7EB
:101598001022F0E74FF48072EDE74FF48052EAE74B
:1015A8004FF48032E7E70020C0E700BF08000240A0
:1015B8000000024010B5044690F83D30293B012B4D
:1015C80036D990F83D30DBB2602B07D003685B68F2
:1015D80013F4006F02D1202380F83D3000232363E9
:1015E80084F83E302268136823F40063136023688C
:1015F8005A6812F4006F3FD05A6822F400625A60A9
:10160800636B93F82120012A18D0364A5A63606B1D
:10161800FFF784FF002851D02268136823F00103E4
:101628001360202384F83D30606B436B984745E096
:1016380000230363282380F83D30D3E7A36B294AAE
:101648005A63A06BFFF76AFF002837D023685A69EE
:1016580012F0400F04D01A69636A591C61621A704B
:101668002268136823F001031360202384F83D30B7
:10167800A06B436B984721E094F83D20D2B2602AD2
:1016880009D05A6912F0400F18D01A69636A591CB8
:1016980061621A7012E0202284F83D200022226440
:1016A8005A6912F0400F04D01A69636A591C6162C2
:1016B8001A702268136823F00103136094F83D3010
:1016C800DBB2282B00D010BD236C13F0040FFAD026
:1016D800054BE36200232363202284F83D2084F82D
:1016E8003E30F0E7131000080000FFFF10B582B08D
:1016F80090F83D30DBB201684A6822F4E0624A6043
:1017080000220192026851690191116841F00101BA
:101718001160019A01680A6822F480620A6001680F
:101728004A6812F4006F14D090F83D20D2B2222AF1
:101738000AD090F83D20D2B22A2A05D0426B12680E
:10174800526892B2428504E0826B1268526892B283
:101758004285428D92B202B34A6912F0040F09D051
:101768000969426A541C44621170428D92B2013A6E
:1017780092B242850268516911F0400F09D011698F
:10178800426A541C44621170428D92B2013A92B27C
:101798004285026C42F004020264026C92B9282B62
:1017A80013D02A2B11D0292B0FD0026B222A01D05B
:1017B800222B13D100230363202280F83D2080F8D8
:1017C8003E300BE0FFF7F6FE08E0064BC36200234D
:1017D8000363202280F83D2080F83E30002002B0CC
:1017E80010BD00BF0000FFFFF8B5044603689F69FD
:1017F8005E695D6890F83E30DBB2102B25D0402B37
:1018080023D04C4B334013B115F4007F6ED14A4BB3
:10181800334013B115F4007F6BD1484B3B40002B8C
:101828006FD0474B334033B115F4806F03D0454B2D
:101838003340002B61D0434B334053B315F4007F42
:1018480027D02046FFF79AFA23E016F0011F02D0AE
:1018580015F4007F1ED13C4B334013B115F4007FC3
:101868001CD1344B334013B115F4007F1AD1334BDC
:101878003B401BB3324B33402BB115F4806F02D081
:10188800304B334093B12F4B334013B115F4007FE5
:1018980010D1F8BD2046FFF774FBE8E72046FFF7B4
:1018A8006AFBE4E72046FFF779FAE0E72046FFF70E
:1018B80094FDEEE72046FFF745FDEAE7234B33406A
:1018C8002BB115F4806F02D01E4B334053B11D4B22
:1018D8003340002BDDD015F4007FDAD02046FFF727
:1018E80054FCD6E72046FFF7CAFCD2E7FFF7B7FB60
:1018F800CFE72046FFF7FAFECBE72046FFF722FCAA
:10190800C7E7124B33402BB115F4806F02D00D4B53
:10191800334053B10B4B3340002BBAD015F4007F42
:10192800B7D02046FFF71AFAB3E72046FFF79CFB2B
:10193800AFE700BF02000100100001000400100022
:1019480080000100040001000800010040000100BF
:1019580070B5044603685D695E68334A15420ED067
:1019680016F4807F0BD0026C42F0010202646FF41F
:1019780080725A610268136843F40043136015F4D7
:10198800813F0AD016F4807F07D0236C43F002030E
:10199800236423686FF400725A6115F4823F1AD0E9
:1019A80016F4807F17D094F83E30DBB2628D91B286
:1019B80094F83D20D2B2206B202B1DD0236C43F02D
:1019C8000403236494F83E30DBB2102B22D0236842
:1019D8006FF480625A6115F4843F0AD016F4807F50
:1019E80007D0236C43F00803236423686FF4006274
:1019F8005A61236CA3B970BD0029DFD1212A05D013
:101A0800292A03D0282AD9D12128D7D12046FFF75F
:101A180053FBE0E72268136843F400731360D6E7CA
:101A28002046FFF7C7FDE6E7000101000138B0F1E5
:101A3800807F0AD2064B5860064AF02182F82310AC
:101A48000020986007221A6070470120704700BF85
:101A580010E000E000ED00E0014B1868704700BF9F
:101A68003024002038B504460268536823F0100378
:101A78005360FFF7F1FF054623685B6813F0200FFA
:101A880007D1FFF7E9FF401BB0F57A7FF4D90320AF
:101A980000E0002038BD38B50446FFF7DDFF0546F5
:101AA80023685A6812F0200F07D1FFF7D5FF401BB3
:101AB800B0F57A7FF4D9032004E05A6842F01002A6
:101AC8005A60002038BD38B505460C46FFF7E3FFDD
:101AD80008B1012038BD2B68220C1A622B68A4B209
:101AE8005C622846FFF7BEFF0028F3D00120F1E72B
:101AF80038B505460C46FFF7CEFF08B1012038BDC2
:101B08002B68220C9A612B68A4B2DC612846FFF787
:101B1800A9FF0028F3D00120F1E7C0B138B5054688
:101B28000268536823F008035360FFF795FF0446E3
:101B38002B685B6813F0080F07D1FFF78DFF001BB8
:101B4800B0F57A7FF4D9032000E0002038BD0120E9
:101B580070472DE9F04107460D4690461E461EE0A7
:101B68002EB1FFF779FF069BC01AB04217D90023A0
:101B78003B63202287F83D2087F83E3087F83C30C9
:101B880003201AE03B689C6925EA0404A4B2B4FA6D
:101B980084F46409A0450FD1B6F1FF3FE0D1C5F345
:101BA8000743012BEED13B685C6925EA0404A4B223
:101BB800B4FA84F46409EDE70020BDE8F081000080
:101BC8002DE9F04F85B006468A4693461F46FFF733
:101BD80043FF96F83D30DBB2202B03D0022005B03E
:101BE800BDE8F08F804600901923012258493046FD
:101BF800FFF7AFFF002840F0A08096F83C30012B9B
:101C080000F09D80012386F83C3033681A6812F092
:101C1800010F03D11A6842F001021A603268136892
:101C280023F400631360242386F83D3000233364D3
:101C3800A3F58033F3624FF0010938E0A02386F85A
:101C48003D3033685C69C4F340045D69C5F38025A1
:101C580096F83D30DBB25CB955B9A02B08D0002FFF
:101C6800ECD0FFF7F9FEA0EB0800B842E9D9E5E7A8
:101C7800202386F83D3033685A6912F0020F38D1B4
:101C88001A6842F400721A6033686FF480625A610D
:101C9800CDF80080192301222D493046FFF759FF5E
:101CA800002852D109F10103D9453ED2994632683C
:101CB800136843F480731360CDF800803B4600221C
:101CC8004FF001113046FFF744FF002839D133683F
:101CD8000AF0FE021A61FFF7BFFE804633685C69AE
:101CE800C4F340045D69C5F3802596F83D30DBB246
:101CF800B1E71A6842F400721A600023039333684C
:101D08005A6903929B690393039BCDF800801923BA
:101D180001220F493046FFF71CFFA0B9202386F89F
:101D28003D30002386F83C3059E7202386F83D30C3
:101D3800002386F83C30012051E702204FE70220BB
:101D48004DE703204BE7032049E7032047E700BF9F
:101D58000200100070B504460E46154600230370B5
:101D68006423012229463046FFF72AFF38B9666006
:101D78002572FF23237042F20A030022E254204610
:101D880070BD30B5ADF5005D85B004460D467822CE
:101D980001A8FFF7DFFF9DF80430FF2B09D07A2256
:101DA80029462046FFF7D6FF20460DF5005D05B011
:101DB80030BD42F20C0201A9204605F01FFAF3E7F4
:101DC80038B50446FFF748FE0546B4F1FF3F00D09A
:101DD8000134FFF741FE401BA042FAD338BD000092
:101DE800024A136801331360704700BF3024002093
:101DF80010B584B0024603460846C3F3074400946E
:101E0800C3F30723D2B2024905F004FE04B010BDA3
:101E1800CC82000870B584B004462F4D2F4B1B6848
:101E2800ADF808301A0C8DF80A20ADF804308DF89A
:101E38000620092600963D23042200212846FEF7A5
:101E480076FB00963D23042201212846FEF70CFB71
:101E5800234B1B68ADF808301A0C8DF80A20ADF832
:101E680004308DF806200823009301230522002161
:101E78002846FEF75CFB1B49204603F02FFC04466E
:101E8800002103F0E7FD08B904B070BD204603F057
:101E980017FA0022144B03F0B5F803F031F80246A4
:101EA8000B460020114903F0ABF803F0E9FA0C4B9C
:101EB8001B68ADF808301A0C8DF80A20ADF804300C
:101EC8008DF80620072300933B23062281B228467B
:101ED800FEF72DFBD8E700BFD823002004230020FD
:101EE80008230020000060420000E03F00804D40D1
:101EF80008B5002005F052F9014B586008BD00BF35
:101F0800E822002010B5044604F0C0FA0146204635
:101F1800FEF7AEFD01210248FEF7AAFD10BD00BF85
:101F2800DC820008F8B507460E461446501C05F03A
:101F380035F905462246B91905F060F900232B55F5
:101F48002846F8BD08B505F031F908BD0FB400B54D
:101F580083B004AB53F8042B01938021074805F0A4
:101F6800A5FD002804DC03B05DF804EB04B070475D
:101F780001460248FEF77CFDF5E700BF3C23002040
:101F880008B5FFF72DFFFEF723FD08BD7047704722
:101F98007047FEE7FEE7FEE7FEE7704708B5024830
:101FA800FFF7D6FC08BD00BF8802002008B502482C
:101FB800FFF71AFC08BD00BF880200200F4B1A6803
:101FC80042F001021A6059680D4A0A405A601A68BC
:101FD80022F0847222F480321A601A6822F4802275
:101FE8001A605A6822F4FE025A604FF41F029A607F
:101FF800044B4FF000629A60704700BF0010024027
:102008000000FFF800ED00E000B530B9044D1824D9
:1020180020462946ABBE0446FEE7024DF7E700BF5F
:10202800260002002300020008B503460C4A126885
:102038005AB10B4A1068033323F003030344094AD7
:10204800934206D8064A136008BD054A064911603E
:10205800EFE703F009FD0C2303604FF0FF30F3E7CF
:10206800D4230020004C00204C24002008B503484D
:10207800FFF748FF0120FFF7C7FF00BFE082000815
:1020880008B50A4601460248FFF760FFFFF7EEFF72
:10209800F4820008002800F0A68070B50D461646A8
:1020A8000446002900F0A180012A2ED8237C012BA8
:1020B80000F09D800123237402236374002E3CD119
:1020C800EB78632B27D86B78013BDBB20B2B28D836
:1020D800AB78013BDBB21E2B29D8EB78E3736B7826
:1020E8006373AB78A373A27B617BE07BFEF7C4FCD0
:1020F800207328702046FEF7A5FD3E4B98424AD82B
:10210800012363740020207470BD40F2BB213A485B
:10211800FFF7B6FFCAE74FF431713748FFF7B0FF52
:10212800D1E740F2C5213448FFF7AAFFD0E740F2D3
:10213800C6213148FFF7A4FFCFE7E878FEF767FD2F
:10214800632822D86878FEF762FD08B10C2804D904
:102158004FF434712848FFF793FFA878FEF757FD2E
:1021680008B11F2804D940F2D1212348FFF788FF7E
:10217800E878FEF74CFDE0736878FEF748FD607379
:10218800A878FEF744FDA073ADE740F2CF211A48C6
:10219800FFF776FFD6E7A3F60F63B0FBF3F503FB73
:1021A800150529462046FFF7A3FC28B104236374CC
:1021B800002323740120A7E72046FEF73CFDB0F179
:1021C800FF3F9DD085429BD900F5A83101F5C0712C
:1021D8002046FFF778FC002892D00423637400237C
:1021E8002374012090E70120704701208CE702202A
:1021F8008AE700BF8F5F010020830008002878D09D
:102208002DE9F8430C4615460646002973D0012AE5
:1022180007D833685B6813F0040F08D00120BDE8C5
:10222800F8834FF413713848FFF72AFFF1E7304677
:10223800FEF708FD0746354BA3FB0023DB0A4FF4E6
:10224800616202FB13023249A1FB02014809C1F392
:1022580047116170C0EB0010A2EB8002A2702D4AFA
:10226800974210D82370002D4BD02078FEF7D8FC69
:1022780020706078FEF7D4FC6070A078FEF7D0FC80
:10228800A0700020CBE7244AA2FB03284FEA1818C5
:1022980008EB4802A3EBC20323703046FEF7CBFCE1
:1022A8008146B0F1FF3F03D0874217D2A0EB070960
:1022B8001A4800FB187739463046FFF719FCE0B991
:1022C800B9F1FF3F0DD009EB07013046FFF7FBFBE3
:1022D800A8B941463046FEF73DFCC4E74FF0FF3948
:1022E800E6E749463046FFF7EEFB0028F1D001202B
:1022F80095E701207047012091E701208FE7012031
:102308008DE700208BE700BF20830008C5B3A291AA
:10231800898888887F510100ABAAAAAA8051010048
:102328002DE9F04182B00023ADF804308DF8063075
:1023380048B30C461546064639B3012A1DD8002273
:1023480001A93046FFF75AFF074600BB337B2370CD
:10235800F07BE07096F80D8084F80180B67BA6705B
:10236800B5B1FEF75DFCE0704046FEF759FC6070C1
:102378003046FEF755FCA0700AE040F22D310648C1
:10238800FFF77EFEDBE7012702E0012700E00127D7
:10239800384602B0BDE8F0812083000870B50028F7
:1023A80000F0A0800C4615460646002900F09C80E7
:1023B800012A2BD8337C012B00F098800123337439
:1023C80002237374002D39D12378172B24D863780E
:1023D8003B2B27D8A3783B2B2AD8207862783C233C
:1023E80003FB02F34FF4616202FB0030A47804445B
:1023F80021463046FFF77CFB0546002851D00423D0
:102408007374002333740125284670BD40F2E91126
:102418003748FFF735FECDE74FF4F9713448FFF739
:102428002FFED4E740F2F3113148FFF729FED1E738
:102438004FF4FA712E48FFF723FECEE72078FEF717
:10244800E6FB17281BD86078FEF7E1FB3B281CD871
:10245800A078FEF7DCFB3B281DD82078FEF7D7FBD9
:102468004FF4616505FB00F56078FEF7D0FB3C236F
:1024780003FB0055A078FEF7CAFB2C18B8E74FF409
:10248800FE711B48FFF7FCFDDDE740F2FD1118481F
:10249800FFF7F6FDDCE74FF4FF711548FFF7F0FD95
:1024A800DBE73268536823F0050353603046FEF7D4
:1024B800C2FBB0F1FF3F01D0844204D801237374FA
:1024C80000233374A0E700F5A83101F5C071304648
:1024D800FFF7F9FA0028F1D004237374002333744A
:1024E800012591E701258FE701258DE702258BE777
:1024F8002083000810B586B004463B4B0FCB0DF186
:10250800180C0CE90F0040F20123ADF8043014F068
:10251800130F08D0022C56D0102C0AD0012C31D021
:10252800002006B010BD4FF4D3713048FFF7A8FD66
:10253800F0E72F4B5A68186810F08070F1D0C2F39A
:10254800834306A90B4413F8100C12F4803F15D0EE
:10255800274B5B68C3F340430B4413F8142C254BFB
:10256800B3FBF2F300FB03F0214B5B6813F4800F1D
:10257800D7D140000323B0FBF3F0D2E71E4B03FB97
:1025880000F0F1E71A4B1B6A40F202321A40B2F52A
:10259800817F23D003F44073B3F5007F04D0B3F5F3
:1025A800407F09D00020BCE7114A526A12F0020F9E
:1025B800F5D04FF4FA40B4E70D4B1B6813F4003F15
:1025C8000FD10020ADE7FEF76DFB094B5B68C3F345
:1025D800813301335B00B0FBF3F0A2E74FF4004016
:1025E8009FE74FF224409CE7B88200084C8300081C
:1025F8000010024000127A0000093D0070B582B058
:102608000446036813F0130F6CD0236813F0010F0E
:102618003FD0636843B1B3F5807F05D0B3F5007F41
:1026280002D0B3F5407F62D1504BDB6913F0805F75
:1026380062D14E4BDA6942F08052DA61DB6903F00D
:1026480080530193019B0125494B1B6813F4807F3C
:1026580054D0464B1B6A13F4407311D0626802F4DD
:1026680040729A420CD0414A136A23F4407041499F
:1026780001260E6000260E60106213F0010F51D182
:102688003A4A136A23F4407361680B431362002DBE
:1026980059D1236813F0020F11D0A36843B1B3F5E1
:1026A800804F05D0B3F5004F02D0B3F5404F4FD15E
:1026B8002E4A536823F44043A1680B4353602368B0
:1026C80013F0100F4FD0E368B3F5800F01D0002B43
:1026D80043D1264A536823F48003E1680B435360CF
:1026E800002041E07C212448FFF7CAFC8DE78221C5
:1026F8002148FFF7C5FC97E70025A5E71C4A1368A2
:1027080043F480731360FFF7A7F90646184B1B685C
:1027180013F4807F9DD1FFF79FF9801B6428F5D9BA
:10272800032021E0FFF798F90646104B1B6A13F0C7
:10273800020FA5D1FFF790F9801B41F28833984228
:10274800F3D9032010E0D36923F08053D361A0E7C5
:10275800C9210948FFF794FCAAE740F22511064869
:10276800FFF78EFCB5E7002002B070BD00100240F4
:1027780000700040400442424C83000870B582B0AB
:10278800044678B3236813B113F00F0F30D02368D1
:1027980013F0010F46D063682BB1B3F5803F02D028
:1027A800B3F5A02F2AD1AC4B5B6803F00C03042BC4
:1027B8002FD0A94B5B6803F00C03082B24D0636867
:1027C800B3F5803F5BD0002B6FD103F1804303F555
:1027D80004331A6822F480321A601A6822F48022BC
:1027E8001A6051E04FF4B8719C48FFF749FCC9E7FB
:1027F80040F271119948FFF743FCC8E740F277119E
:102808009648FFF73DFCCEE7934B5B6813F4803F97
:10281800D5D0914B1B6813F4003F03D06368002B9D
:1028280000F02D82236813F0020F00F089802369DD
:10283800012B63D863691F2B66D8874B5B6813F03D
:102848000C0F6CD0844B5B6803F00C03082B61D031
:102858002369002B00F09980814B01221A60FFF751
:10286800FBF805467C4B1B6813F0020F40F0848090
:10287800FFF7F2F8401B0228F4D9032004E2764A55
:10288800136843F480331360636843B3FFF7E4F8D5
:102898000546714B1B6813F4003FC3D1FFF7DCF802
:1028A800401B6428F5D90320EEE1B3F5A02F09D029
:1028B800694B1A6822F480321A601A6822F480225E
:1028C8001A60E1E703F18043A3F53C331A6842F448
:1028D80080221A601A6842F480321A60D4E7FFF73F
:1028E800BBF805465C4B1B6813F4003F9AD0FFF712
:1028F800B3F8401B6428F5D90320C5E140F2AB11B9
:102908005648FFF7BDFB95E74FF4D6715348FFF7DC
:10291800B7FB92E7504B5B6813F4803F98D14E4B5E
:102928001B6813F0020F03D02369012B40F0A98123
:10293800494A1368616923F0F80343EAC103136045
:10294800236813F0080F3BD0A369012B2FD8A36984
:10295800002B50D0434B01221A60FFF77DF8054643
:102968003D4B5B6A13F0020F27D1FFF775F8401B48
:102978000228F5D9032087E1374A1368616923F0F3
:10298800F80343EAC1031360DAE7354B00221A6003
:10299800FFF762F80546304B1B6813F0020FCFD0E3
:1029A800FFF75AF8401B0228F5D903206CE14FF4D1
:1029B800F6712A48FFF764FBC9E70120FEF756F9CC
:1029C800236813F0040F00F0A680E368012B01D9F7
:1029D800052B22D1204BDB6913F0805F23D11E4BDE
:1029E800DA6942F08052DA61DB6903F080530193BF
:1029F800019B012518E01B4B00221A60FFF72CF8F9
:102A08000546154B5B6A13F0020FD9D0FFF724F87F
:102A1800401B0228F5D9032036E140F21B210F485C
:102A2800FFF72EFBD6E700250F4B1B6813F4807FBA
:102A38001CD0E368012B2DD0002B43D103F1804338
:102A480003F504331A6A22F001021A621A6A22F0A4
:102A580004021A6223E000BF001002407C830008D1
:102A6800000042428004424200700040884A1368D5
:102A780043F480731360FEF7EFFF0646844B1B6830
:102A880013F4807FD5D1FEF7E7FF801B6428F5D9C2
:102A98000320F9E07F4A136A43F001031362E368F5
:102AA80033B3FEF7D9FF06467A4B1B6A13F0020FC1
:102AB8002FD1FEF7D1FF801B41F288339842F3D91A
:102AC8000320E1E0052B09D0724B1A6A22F00102BB
:102AD8001A621A6A22F004021A62E0E76D4B1A6A57
:102AE80042F004021A621A6A42F001021A62D6E738
:102AF800FEF7B2FF0646674B1B6A13F0020F08D0B9
:102B0800FEF7AAFF801B41F288339842F3D90320CD
:102B1800BAE0002D53D1E369022B56D8E369002BA4
:102B280000F0B1805B4A526802F00C02082A00F0FB
:102B3800AD80022B40F08F80236A13B1B3F5803F3C
:102B480049D1636A4BB3B3F5802F26D0B3F5002F74
:102B580023D0B3F5402F20D0B3F5801F1DD0B3F597
:102B6800A01F1AD0B3F5C01F17D0B3F5E01F14D0BB
:102B7800B3F5001F11D0B3F5101F0ED0B3F5201F09
:102B88000BD0B3F5301F08D0B3F5401F05D0B3F50F
:102B9800501F02D0B3F5601F23D13F4B00221A60AB
:102BA800FEF75AFF05463B4B1B6813F0007F1ED00B
:102BB800FEF752FF401B0228F5D9032064E0354A8E
:102BC800D36923F08053D361A5E740F2B921334894
:102BD800FFF756FAA2E740F2C2213048FFF750FA51
:102BE800AFE740F2C3212D48FFF74AFAD5E7236A39
:102BF800B3F5803F1AD027494A68236A606A0343BD
:102C080022F4741213434B60234B01221A60FEF71F
:102C180023FF04461F4B1B6813F0007F19D1FEF7F2
:102C28001BFF001B0228F5D903202DE0A36813B170
:102C3800B3F5003F07D1174A536823F40033A1685E
:102C48000B435360D7E740F2D9211448FFF718FA2D
:102C5800F1E7002018E0104B00221A60FEF7FCFE96
:102C680004460C4B1B6813F0007F06D0FEF7F4FEF9
:102C7800001B0228F5D9032006E0002004E001200B
:102C880002E0012000E0002002B070BD0120FBE757
:102C98000070004000100240600042427C8300083F
:102CA8002DE9F04383B00546884617461E46BDF811
:102CB8002C9000230193012E01D0102E50D195F8AD
:102CC8003D30DBB2202B5AD1304B1B68DB08304A31
:102CD800A2FB03231B0A03EB830303EB8303019388
:102CE800019C601E0190002C40D02868836913F075
:102CF800020FF5D195F83C30012B44D0012385F81B
:102D08003C30036813F0010F03D1036843F001035B
:102D180003602A68136823F400631360212385F88D
:102D28003D30402385F83E30002028640A9B6B62C2
:102D3800A5F82890A5F82A90164BEB62C5F84480B0
:102D4800AF64EE6428652A68136843F480731360DF
:102D580085F83C002A68536843F4E06353600FE049
:102D680040F621310C48FFF78BF9A8E700232B63C5
:102D7800202285F83D2085F83C30032000E0022021
:102D880003B0BDE8F0830220FAE700BF000000208E
:102D980089B5F8140000FFFFA883000870B5054640
:102DA80014460E4621B1012C08D86CB12E6170BDB5
:102DB80040F2E3110648FFF763F9F4E74FF4F271C4
:102DC8000348FFF75DF9F0E736042E61EFE700BF2F
:102DD800D48300082DE9F04383B081460E46C44BE6
:102DE80098420FD003F5806398420BD003F58063B7
:102DF800984207D003F58063984203D0CD21BD489F
:102E0800FFF73EF933689AB212B11B0C1B041BB1D1
:102E1800CE21B848FFF734F97368012B40F28A8154
:102E2800112B00F08B81022B00F08C81122B00F00B
:102E38008D81B14A934200F08D8102F58012934250
:102E480000F08C8102F58012934200F08B81A2F58C
:102E5800F812934200F08A8102F58012934200F042
:102E6800898102F58012934200F08881032B03D1F7
:102E78004FF00008454694E0CF219E48FFF700F93F
:102E88004FF0000845468CE09C4A934210D007D981
:102E98009B4A93420CD002F58032934208D01BE043
:102EA800A2F58012934203D002F5702293420FD10B
:102EB800B368022B00F2F780B368002B00F00181A1
:102EC800012B00F0F680C9F814404FF0080803E021
:102ED800A2F580129342EBD0FF2F00F2F58048460E
:102EE800FF2F00F2F480AA0003680F21914023EA23
:102EF800010308FA02F213430360736813F0805F5A
:102F08004ED0804B9A6942F001029A619B6903F0A6
:102F180001030193019BAA08911C7B4B53F82100E4
:102F280005F0030399000F238B4020EA0300704B40
:102F3800994500F0D28003F58063994500F0CF8071
:102F480003F58063994500F0C68003238B40034353
:102F580002326D4941F82230736813F4803F00F063
:102F6800C0806A4A13683B431360736813F4003FD8
:102F780000F0CE80654A53683B435360736813F48E
:102F8800801F00F0CB80614A93683B43936073686D
:102F980013F4001F00F0C8805C4AD3681F43D76051
:102FA80001350F2D00F2EE800124AC40336803EAAE
:102FB800040734EA0303F3D14D4B99450FD003F5C9
:102FC800806399450BD003F58063994507D003F5D5
:102FD8008063994503D0DD214648FFF751F87368AF
:102FE800122B3FF651AF122B3FF676AF01A252F8E3
:102FF80023F000BFB92E0008493000087B300008D4
:10300800C5300008E12E0008E12E0008E12E000876
:10301800E12E0008E12E0008E12E0008E12E00084C
:10302800E12E0008E12E0008E12E0008E12E00083C
:10303800E12E0008E12E00086130000895300008F4
:10304800F368013B022B02D8D6F80C8044E7E5214F
:103058002848FFF715F8F7E7F368013B022B03D878
:10306800F36803F1040837E7EC212248FFF708F872
:10307800F6E7F368013B022B03D8F36803F108086D
:103088002AE7F3211B48FEF7FBFFF6E7F368013B4D
:10309800022B03D8F36803F10C081DE7FA21154841
:1030A800FEF7EEFFF6E740F207111248FEF7E8FFD9
:1030B80002E7C9F810404FF008080DE74FF0000884
:1030C8000AE74FF0040807E709F1040008E7A5F14B
:1030D8000802920008E7022338E7002336E70123B5
:1030E80034E70A4A136823EA070313603DE700BF81
:1030F80000080140D48300080000111000002210CD
:10310800000031100010024000000140000401409E
:103118001E4A536823EA070353602FE71B4A936844
:1031280023EA0703936032E7184AD36823EA0707BC
:10313800D76035E74FF00008454632E74FF0000802
:1031480045462EE74FF0000845462AE74FF00008AD
:10315800454626E74FF00008454622E74FF00008AD
:1031680045461EE74FF0000845461AE74FF00008AD
:10317800454616E74FF00008454612E74FF00008AD
:1031880045460EE703B0BDE8F08300BF00040140E8
:1031980000B587B00E4B9A6942F010029A619B699C
:1031A80003F010030193019B012303930026049667
:1031B800032305934FF400550295064C02A92046B7
:1031C800FFF708FE324629462046FFF7E7FDFEE7EF
:1031D800001002400010014000B583B00190C3B256
:1031E80053B908469DF806309DF80520044904F0B7
:1031F80011FC03B05DF804FB0120FFF7C9FF00BF15
:103208000484000870B50D4B1B78FF2B12D00446C0
:103218000A4D29780131C9B22970094E89003068F0
:1032280004F0F0FB30602B7803F18043013B40F859
:10323800234070BD0120FFF7ABFF00BF38230020FB
:103248003423002010B5002214491548FEF7D6FF94
:1032580050B9124B9A78134B1B789A4207D10F4BEF
:103268009A78104B1A7010BD0120FFF791FF0022C9
:103278000D490B48FFF754F8044648B10120FFF701
:1032880087FF0A4B1B6853F8243098470134E4B28F
:10329800074B1B78A342F4D8E1E700BF24020020C3
:1032A800202300200B2300202002002034230020AC
:1032B8003823002000B591B0154BDA6942F08052EE
:1032C800DA61DB6903F080530193019BFDF740FD50
:1032D8000C23069300230D93012209920C9306A850
:1032E800FFF74CFA70B9012302934FF480730393EC
:1032F80002A8FFF783F940B9064B01221A6011B002
:103308005DF804FB0120FFF743FF0120FFF740FFB2
:10331800001002403C04424200287BD010B504460D
:1033280002683D4B9A4203D0FC213C48FEF7A8FEB8
:10333800A3683BB1802B05D0B3F5807F02D0B3F5ED
:10334800407F12D16368A3F580136FF48012934213
:1033580010D3637C9BB1022363742046FEF7DDFB28
:1033680090B104236374012010BDFD212B48FEF7A2
:1033780087FEE7E7FE212948FEF782FEE9E7237486
:103388002046FFF797FFE6E72046FEF784FB60BB81
:103398002268536823F007035360A36823B1204AC7
:1033A800136B23F0010313631D4AD36A23F460737C
:1033B800A1680B43D3626268B2F1FF3F19D021685C
:1033C8008B6823F00F0343EA12438B602168CB68B4
:1033D8001B0C1B0492B21343CB602046FEF742FB42
:1033E80088B1042363740120BEE7042363740120B9
:1033F800BAE70120FFF77EF808B1421EDFE7042391
:1034080063740120B0E70023E37301236373A3739C
:103418006374A9E701207047002800402083000852
:10342800006C004008B51948194B03604FF0FF3392
:103438004360FFF771FF00BB16491523CB700123CA
:103448004B708B7005230B7000221048FEF722FE8C
:10345800B0B9114900220A704A7032238B700B48A8
:10346800FEF79CFF78B900200C4B18700C4B1870B5
:1034780003F094FE0B4B186008BD0120FFF788FE8F
:103488000120FFF785FE0120FFF782FE20230020A0
:103498000028004020020020240200200B230020E6
:1034A800382300203423002010B582B01A4B186846
:1034B800FCF7D6FE8DF80400C0F307238DF805301D
:1034C800C0F307408DF80600144CE38F94F84010C1
:1034D80043EA01410198FCF719FF94F83D30012BAC
:1034E80005D0022B10D06BB10120FFF751FE48B96F
:1034F8000A4B022283F83D20094A11889278D9871D
:1035080083F8402002B010BD0028FBD1034B0022F5
:1035180083F83D20F6E700BF240200203402002093
:103528008002002000B585B001900091FCF7EEFE06
:10353800012829D11B4B1868FCF792FE8DF80C0066
:10354800C0F307238DF80D30C0F307408DF80E0047
:1035580003990198FCF7DAFEB0F1FF3F17D1124941
:10356800019B0B801B0C8B701048009A0280120C78
:1035780082700F4A0988D18782F84030012382F887
:103588003D3005B05DF804FB0120FFF701FE00990E
:103598000398FCF7BBFEB0F1FF3FE0D00120FFF736
:1035A800F7FD00BF240200208402002080020020D2
:1035B800340200202DE9F04F85B007460E469146AB
:1035C8000393DDF838B09DF83CA0109DCB88B1F886
:1035D800048008FB03F81FFA88F814461DE002204F
:1035E800FFF7D6FD95F900300093039B224631463C
:1035F8003846FDF703F933685B6815F9010BC0B26B
:103608009847B38803FB0044A4B2A4EB09039BB218
:10361800013BABF800304444A4B295F9003043B103
:103628000A2BDCD0BB8BA34203D3BAF1000FE2D143
:10363800D8E705B0BDE8F08F2DE9F04186B0064621
:103648000F4611460D9DDDF83C801A461198FEF78D
:1036580069FC044602909DF8403001930DF1160371
:1036680000932B88BDF8302039463046FFF7A2FF7B
:103678002046FEF767FCB8F80020BDF816309A42DD
:1036880001D2A8F800302A88BDF8383013442B80BE
:1036980006B0BDE8F0812DE9F04F89B08246894631
:1036A80015469DF850B0159FADF81E30129A4FF090
:1036B80000011180139A1380384602F0E7FE06468F
:1036C800D9F8003093F80080B9F808309844B9F870
:1036D800043008FB03F81FFA88F80024224614E097
:1036E800A31A0597CDF810B012990391CDF8088068
:1036F8000DF11E01019100959BB249465046FFF716
:103708009BFF621C92B20134A4B2B44203D23B576D
:103718000A2BF8D1E4E7B31A0597CDF810B012993F
:103728000391CDF808800DF11E01019100959BB21F
:1037380049465046FFF780FF139B1A88BDF81E3094
:103748009B1A139A138009B0BDE8F08F30B597B073
:10375800044604AB83E80600224D2846FCF734FEF5
:10376800431E214A1268ADF80820110C8DF80A1082
:10377800ADF804208DF806106B2200929BB25F22F0
:1037880000212846FCF7D3FE9DF81030ABB920463F
:1037980001F096FD02460B460EAC1449204604F093
:1037A80039F9039400220292019200925E23104993
:1037B8000C48FFF770FF17B030BD06AC0D4A234622
:1037C80007CA03C323F8022B120C1A7003940022B1
:1037D8000292019200925E2305492846FFF75BFF9B
:1037E800E9E700BFD8230020042300201C84000838
:1037F800BC2300201084000830B5A1B005900491C6
:103808003A4C2046FCF7E0FD431E394A1268ADF8F1
:103818000820110C8DF80A10ADF804208DF8061058
:103828005E2200929BB2532200212046FCF77FFEC5
:103838009DF814403CB39DF815309DF8160043EAF6
:1038480000239DF8170043EA0040FCF74FFD0546AA
:103858000498FCF74BFD281AFCF71CFD8DF87C003A
:10386800C0F307238DF87D30C0F307408DF87E0044
:103878001BA91F98FEF7BCFA012C14D0022C2BD0E0
:103888000120FFF785FC07AB1A4A07CA83E807003F
:103898000393002202920192009252231649134880
:1038A800FFF7F9FE16E0154B93E803001790ADF803
:1038B80060100FAC17AB1BAA1149204604F0AAF8F8
:1038C8000394002202920192009252230A49074867
:1038D800FFF7E1FE21B030BD0A4B93E803001790D3
:1038E800ADF86010090C8DF86210E2E7D8230020CB
:1038F800042300202C840008BC23002058840008DE
:10390800408400083884000870B5A2B0079006917A
:1039180004A981E80C00494C2046FCF755FD431EDC
:10392800474A1268ADF80820110C8DF80A10ADF856
:1039380004208DF80610522200929BB247220021E3
:103948002046FCF7F4FD9DF89830022B2DD19DF808
:103958001030FF2B3BD09DF81D309DF81E0043EA28
:1039680000239DF81F0043EA0040FCF7BFFC044613
:103978000698FCF7BBFC201AFCF78CFC8DF8840039
:10398800C0F307238DF88530C0F307408DF8860013
:103998001DA92198FEF72CFA9DF81C30002B2BD07E
:1039A800012B42D00120FFF7F3FB09AE3446254D29
:1039B8000FCD0FC42B682380039600220292019238
:1039C8000092462320491D48FFF765FE2BE009AE0B
:1039D80034461E4D0FCD0FC495E8030044F8040B80
:1039E80021800396002202920192009246231649F2
:1039F8001248FFF750FE16E0154B93E803001990A4
:103A0800ADF8681011AC19AB1DAA1249204604F094
:103A180001F80394002202920192009246230A4977
:103A28000648FFF738FE22B070BD0B4B1B68ADF897
:103A380064301B0C8DF86630E4E700BFD823002003
:103A4800042300204C840008BC2300206084000864
:103A580078840008408400088084000870B58EB01F
:103A6800044604AB83E806001F4D2846FCF7ACFC6F
:103A7800431E1E4A1268ADF80820110C8DF80A1072
:103A8800ADF804208DF80610462200929BB23B2226
:103A980000212846FCF74BFD9DF810308BB906AD88
:103AA80022461349284603F0B5FF039500220292E7
:103AB800019200923A230F490B48FFF7ECFD0EB034
:103AC80070BD06AE34460C4D0FCD0FC42B68237065
:103AD800039600220292019200923A230549024875
:103AE800FFF7D9FDEBE700BFD8230020042300200F
:103AF80098840008BC2300208484000810B596B080
:103B080004AB83E80300264C2046FCF75DFC431E0B
:103B1800244A1268ADF80820110C8DF80A10ADF887
:103B280004208DF806103A2200929BB22D22002123
:103B38002046FCF7FCFC9DF81030CBB11A4A0AABC2
:103B480007CA03C323F8022B120C1A700EAC0AAA78
:103B58001649204603F05EFF039400220292019268
:103B680000922E2312490E48FFF795FD16B010BD9E
:103B78009DF811309DF8120043EA00239DF81300C8
:103B880008A943EA0040FFF727FB06A90598FFF7B5
:103B980023FB06AB08AA07490AA803F03BFFD5E7B1
:103BA800D823002004230020AC840008C084000827
:103BB800BC230020B88400082DE9F04F8FB00C46D4
:103BC800062800F2B580DFE800F004747E88929C35
:103BD800A600594B93E803000A90ADF82C10090C85
:103BE8008DF82E10554B1B68ADF818301B0C8DF84E
:103BF8001A30DFF878A1DFF878910AAE0396FF272C
:103C080002974FF00008CDF804800DF116030093D9
:103C18004346424651464846FFF73DFD06AD0395EB
:103C28000297CDF8048005AB0093434642465146BF
:103C38004846FFF730FDBDF81670E71B07EBD7774E
:103C4800C7F34F07BDF81410641A04EBD474C4F317
:103C58004F044846FCF7B8FB00F1FF3B1FFA8BFB0B
:103C6800BDF816203A4492B2ABEB02020396CDF8A7
:103C78000880CDF80480CDF80080182392B2514610
:103C88004846FFF708FDBDF814201444A4B2ABEB76
:103C980004020395CDF80880CDF80480CDF80080A3
:103CA800222392B251464846FFF7F5FC0FB0BDE813
:103CB800F08F234B1B68ADF828301B0C8DF82A3089
:103CC800204B069395E7204B1B68ADF828301B0C5A
:103CD8008DF82A301D4B06938BE71D4B1B68ADF8FA
:103CE80028301B0C8DF82A301A4B069381E71A4BA3
:103CF8001B68ADF828301B0C8DF82A30174B06933B
:103D080077E7174B1B68ADF828301B0C8DF82A3065
:103D1800144B06936DE7144B93E803000A90ADF833
:103D28002C10090C8DF82E105323ADF8183060E7CD
:103D38000120FFF72DFA00BFCC840008D4840008C6
:103D4800D88400084D4F4500DC8400084D4F4900D9
:103D5800E08400084D4F5300E48400084D4F4800AC
:103D6800E88400084D4F3500EC840008BC2300208F
:103D7800D823002010B58CB004AB83E80300059865
:103D880001F054FC0D4901F05DFD01F099FA02467D
:103D98000B4608AC0A49204603F03CFE0394002277
:103DA800029201920DF11E0300931823054906485B
:103DB800FFF771FCBDF81E000CB010BD002474495B
:103DC800F484000800240020D823002030B587B0F0
:103DD8000446204D2846FCF7F7FA431E1E4A12688F
:103DE800ADF80820110C8DF80A10ADF804208DF8F4
:103DF8000610192200929BB20C2200212846FCF7DB
:103E080096FB0394FF230293002201920DF11603FF
:103E18000093134611492846FFF73DFC2846FCF756
:103E2800D3FABDF81620821A02EBD27242F34F027F
:103E3800002A0CDB039400230293019300930D23C3
:103E480092B206490348FFF726FC07B030BD0022AE
:103E5800F0E700BFD823002004230020BC23002063
:103E680030B58BB00590134C134B1B68ADF8083078
:103E78001A0C8DF80A20ADF804308DF806200B23B3
:103E880000937323012242212046FCF750FB06AD24
:103E980029460598FDF7ACFF03950023029301938B
:103EA80000930123422205492046FFF7F4FB0BB09B
:103EB80030BD00BFD823002004230020BC230020ED
:103EC80084B02DE9F0418CB012AC84E80F00BDF845
:103ED8005C60BDF86070BDF86440BDF868509DF83E
:103EE8004830002B61D00DF1180CDFF800E1BEE876
:103EF8000F00ACE80F009EE803008CE80300374B86
:103F08001B68ADF814301B0C8DF816303319DFF828
:103F1800D480059AADF80820120C8DF80A202F4A93
:103F28001268ADF80420120C8DF806207A1992B2A6
:103F380000929BB23A4631464046FCF7F8FA0DF13A
:103F480049030393FF23029304AB01930DF112037A
:103F5800009300231A4622494046FFF79CFBBDF810
:103F68001220A41A04EBD47444F34F02BDF81030A5
:103F7800ED1A05EBD57545F34F03002A29DB002B15
:103F880029DB3B4432440DF14901039100210291A0
:103F9800019100919BB292B206A91248FFF77BFBF0
:103FA8000CB0BDE8F04104B070470DF1180CDFF813
:103FB80030E0BEE80F00ACE80F009EE803008CE894
:103FC8000300094B1B68ADF814301B0C8DF8163034
:103FD8009CE70022D3E70023D3E700BF0823002093
:103FE800BC230020D823002004230020182400200C
:103FF80070B586B00E4B112604963B2503956E24AA
:104008000294002201921A8AADF800200FCBFFF724
:1040180057FF084B049603950294442201921A8A8A
:10402800ADF800200FCBFFF74BFF06B070BD00BF07
:10403800F02200200C23002084B0F0B585B00AAC33
:1040480084E80F00404C414B19682046FCF762FA9F
:104058002046FCF7B9F9451EADB20A98FDF7DAFE1D
:104068000B98FFF7FDFE9DF82F00FCF795FB0CA8B9
:10407800FFF7ACFE364B1B68ADF808301A0C8DF80C
:104088000A20ADF804308DF806202C2300932B4627
:10409800192200212046FCF74AFA15AD95E80300DD
:1040A800FFF768FE06469DF85C702046FCF78CF921
:1040B800801B81B23846FFF77FFD9DF861309DF87F
:1040C800621043EA01239DF86310DDF85D0043EABE
:1040D8000141FFF713FD9DF861309DF8622043EA26
:1040E80002239DF86320DDF85D1043EA02429DF843
:1040F8006400FFF7B3FCDDF8650000909DF86130BF
:104108009DF8622043EA02239DF86310DDF85D20E4
:1041180043EA01430B99DDF86900FFF7F5FB0B99BA
:10412800DDF86500FFF768FB95E806001C98FFF7C7
:104138000DFBFFF75DFF2046FCF74AF905B0BDE827
:10414800F04004B0704700BFD823002008230020A7
:104158000423002070B590B0FFF7A6F90D4B1A782C
:104168000D4E32715A7872719B78B3716C4606F1B4
:1041780010050FCD0FC40FCD0FC40FCD0FC495E898
:10418800070084E8070096E80F00FFF755FF10B016
:1041980070BD00BF240200203402002008B5037857
:1041A800FF2B00D108BD0120FEF7F2FF70B582B0E9
:1041B80004460D461646FFF7F1FF2046FCF702FCC1
:1041C80042F20A03FF22E25401960095012340229D
:1041D800217A6068FEF764FD08B902B070BD42F24A
:1041E8000A030022E2540120FEF7D2FF30B583B063
:1041F80004460D46FFF7D2FF2046FCF7E3FB657245
:1042080042F20A03FF22E2540123019304F1090256
:1042180000920022217A6068FEF742FD08B903B0D7
:1042280030BD42F20A030022E2540120FEF7B0FF3B
:1042380070B505469DF810609DF814000C4601B154
:1042480001240AB144F002040BB144F004040EB195
:1042580044F0100408B144F04004A0212846FFF7B8
:10426800C5FF21462846FFF7C1FF70BD70B511F0A4
:10427800800F11D104460D46164612F0800F0BD15F
:104288007521FFF7B3FF29462046FFF7AFFF3146F8
:104298002046FFF7ABFF70BD0120FEF779FF38B568
:1042A80011F0800F09D104460D46A221FFF79EFFA9
:1042B80029462046FFF79AFF38BD0120FEF768FF20
:1042C80038B511F0800F09D104460D46A121FFF73A
:1042D8008DFF29462046FFF789FF38BD0120FEF7EC
:1042E80057FF08B5032907D8DFE801F0090D0204D4
:1042F800A62105E0A72103E00120FEF749FFA4213C
:10430800FFF774FF08BDA521FAE738B5A1F110033E
:10431800DBB2702B0AD805460139CCB2A821FFF7C9
:1043280065FF21462846FFF761FF38BD0120FEF7EB
:104338002FFF38B5072909D804460D46BE21FFF7D7
:1043480055FF29462046FFF751FF38BD0120FEF7EB
:104358001FFF38B54B1EDBB20E2B09D804460D469D
:10436800B621FFF743FF29462046FFF73FFF38BD38
:104378000120FEF70DFF38B5044661B960250AB182
:1043880045F00105D5212046FFF730FF2946204694
:10439800FFF72CFF38BD6225F1E738B5082909D8A1
:1043A80004460D46BC21FFF721FF29462046FFF7AA
:1043B8001DFF38BD0120FEF7EBFE38B504460D465B
:1043C800AB21FFF713FF25B101212046FFF70EFFB0
:1043D80038BD00212046FFF709FFF9E738B5013954
:1043E800C9B20F2902D805460F2A02D90120FEF7C3
:1043F800CFFE1201D4B22144CCB2B321FFF7F6FEAE
:1044080021462846FFF7F2FE38BD38B529B10546E2
:104418001AB10F2901D80F2A02D90120FEF7B8FED8
:1044280001F00F031201D2B243EA0204B121FFF7EF
:10443800DDFE21462846FFF7D9FE38BD08B5B9216B
:10444800FFF7D4FE08BD70B53F2904D804460D46D1
:1044580016463F2A02D90120FEF79AFE1521FFF7DA
:10446800C5FE29462046FFF7C1FE31462046FFF724
:10447800BDFE70BD10B504463F220021FFF7E3FFE3
:104488007F2200212046FFF7F1FE4FF4005204F18D
:104498000A012046FFF78AFE10BD38B504460D46CE
:1044A8008121FFF7A3FE29462046FFF79FFE38BD6E
:1044B80008B5AE21FFF79AFE08BD08B5AF21FFF792
:1044C80095FE08BD10B582B00446FFF767FE20468A
:1044D800FFF7EEFF012211462046FFF796FF002264
:1044E80001212046FFF77AFFFF212046FFF765FFED
:1044F80008212046FFF751FF0022FF212046FFF741
:104508003AFF04212046FFF724FF07212046FFF742
:1045180010FF80212046FFF7F8FEFF212046FFF715
:10452800BCFF00212046FFF7CBFE00212046FFF705
:10453800B6FE3F2200212046FFF785FF7F2200219B
:104548002046FFF793FE2046FFF778FFFF210191F1
:10455800009100231A462046FFF76AFE00212046F4
:10456800FFF7BFFE4FF40052002104F10A0001F0EA
:10457800BBFA2046FFF77EFF2046FFF79EFF02B0FA
:1045880010BD000010B5041E08DB04F01F0264090A
:1045980001239340044A42F8243010BDCE21034839
:1045A800FDF76EFDF1E700BF00E100E0FC840008C4
:1045B80070B505460C4616460F2A25D80F2C28D864
:1045C8001B4BDB68C3F30223C3F10701042928BF8F
:1045D80004211A1D062A21D9033B4FF0FF3202FAA3
:1045E80001F124EA01049C4002FA03F326EA0306D7
:1045F8003443002D14DB2401E4B205F1604505F5D0
:10460800614585F8004370BDBA210A48FDF738FDB9
:10461800D4E7BB210748FDF733FDD1E70023DCE7EA
:1046280005F00F052401E4B2034B5C55EBE700BF2E
:1046380000ED00E0FC84000814ED00E00268174B70
:104648009A4200D0704710B586B003F5DE339A69F8
:1046580042F008029A619B6903F008030193019BE9
:10466800C023029312230393012404940323059384
:1046780002A90B48FEF7AEFB224600212020FFF7D7
:1046880097FF2020FFF77EFF022200211F20FFF75F
:104698008FFF1F20FFF776FF06B010BD00540040C3
:1046A800000C0140002800F0058138B50446026876
:1046B800824B9A4204D040F27D118148FDF7E0FC1C
:1046C8006368013B7F4A934277D8A36813B1B3F577
:1046D800804F78D1E36823F47F7323F00303002B22
:1046E80077D12369B3F5804F02D0B3F5404F76D127
:1046F8006369012B79D8A36933F0FE037BD1E369A1
:104708000BB1402B7DD1236A0BB1802B7FD194F85C
:104718003D30002B00F08180242384F83D3022684E
:10472800136823F001031360FCF7CCFA6268664B48
:104738009A4278D8654B98428CBF00230123002BFE
:1047480040F0BA80624AB0FBF2F223685A606168AE
:104758005D4B99426DD8531C2268136261685A4BAD
:10476800994270D8431E4900B3FBF1F3013340F678
:10477800FC72134200F09A80C3F30B032268D361E2
:10478800E369216A22680B4313602369E1682268A0
:104798000B4393606369A16922680B43D360226865
:1047A800136843F00103136000202064202384F879
:1047B8003D30206384F83E0038BD4FF4BF71404857
:1047C800FDF75EFC81E740F27F113D48FDF758FC9C
:1047D80080E74FF4C0713A48FDF752FC81E740F298
:1047E80081113748FDF74CFC82E74FF4C17134481A
:1047F800FDF746FC7FE740F283113148FDF740FCA6
:104808007DE74FF4C2712E48FDF73AFC7BE740F292
:1048180085112B48FDF734FC79E784F83C302046B5
:10482800FFF70CFF78E72B4B98428CBF002301233E
:1048380085E74FF4967303FB02F34FF47A72B3FBE8
:10484800F2F3013388E7A368BBB9421E01EB4105C7
:10485800B2FBF5F20132C2F30B02B2FA82F252094C
:1048680032BBBBB9013801EB4103B0FBF3F30133B1
:10487800C3F30B0343F4004380E7421E192505FBED
:1048880001F5B2FBF5F20132C2F30B02B2FA82F281
:104898005209E5E70138192303FB01F3B0FBF3F3F1
:1048A8000133C3F30B0343F4404367E7042365E78D
:1048B800012363E70120704701207DE70054004091
:1048C800A88300087F1A0600A08601007F841E00C6
:1048D80040420F00FF083D0000B583B0104BDA6975
:1048E80042F40012DA61DB6903F400130193019BBF
:1048F8000C480D4B03600D4B436000238360C3607D
:104908004FF48042026143618361C3610362FFF730
:10491800C9FE10B903B05DF804FB0120FEF738FCAE
:10492800001002408802002000540040801A06004F
:1049380008B5FFF7D1FF08BD10B504460B4B1B683F
:104948000B48A0FB03308009FDF770F858B90F2C0D
:1049580001D9012008E0002221464FF0FF30FFF77F
:1049680027FE002000E0012010BD00BF000000204D
:10497800D34D621070B50C460546002862D02B68EE
:1049880013F00F0F64D0022C68D8864B1B6803F015
:104998000703A3420BD2834A136823F00703234378
:1049A8001360136803F00703A34240F0F5802B68F7
:1049B80013F0020F18D0AB687BB1802B0DD0902B71
:1049C8000BD0A02B09D0B02B07D0C02B05D0D02BF3
:1049D80003D0E02B01D0F02B46D1734A536823F063
:1049E800F003A9680B4353602B6813F0010F73D0D1
:1049F8006B68022B3ED86A68012A41D0022A46D049
:104A0800694B1B6813F0020F00F0C88066494B68B9
:104A180023F0030313434B60FDF71EF806466B684B
:104A2800012B3BD0022B48D05F4B5B6813F00C0F77
:104A380052D0FDF711F8831B41F288329342F3D923
:104A480003209CE040F22E315848FDF719FB96E709
:104A580040F22F315548FDF713FB94E74FF44C71A2
:104A68005248FDF70DFB90E740F249314F48FDF7FA
:104A780007FBB2E74FF454714C48FDF701FBBAE766
:104A8800494B1B6813F4003FC0D1012077E0464B27
:104A98001B6813F0007FB9D1012070E0424B5B68BE
:104AA80003F00C03042B17D0FCF7D6FF831B41F24D
:104AB80088329342F2D9032061E03B4B5B6803F0F4
:104AC8000C03082B08D0FCF7C7FF801B41F2883382
:104AD8009842F2D9032052E0324B1B6803F00703D7
:104AE800A3420AD92F4A136823F00703234313600C
:104AF800136803F00703A34252D12B6813F0040F85
:104B080014D0EB685BB1B3F5806F08D0B3F5A06F34
:104B180005D0B3F5C06F02D0B3F5E06F30D1224AAB
:104B2800536823F4E063E9680B4353602B6813F080
:104B3800080F15D02B695BB1B3F5806F08D0B3F5BA
:104B4800A06F05D0B3F5C06F02D0B3F5E06F1DD1EB
:104B5800154A5368296923F4605343EAC103536033
:104B6800FCF7C0F8104B5B68C3F30313104AD35C1F
:104B7800D840104B18600F20FFF7DEFE002070BDF4
:104B88004FF469710948FDF77BFAC8E740F2AB3189
:104B98000648FDF775FADBE70120F0E70120EEE7AC
:104BA8000120ECE700200240001002407C8300084E
:104BB800908500080000002000B591B000230993FB
:104BC8000A930B930C93012206924FF480320792BA
:104BD800089302230D930E924FF4E0130F9306A847
:104BE800FDF7CCFD80B90F23019302210291002328
:104BF80003934FF480620492059301A8FFF7BAFE6D
:104C080028B911B05DF804FB0120FEF7C1FA0120B4
:104C1800FEF7BEFA08B5FFF7CFFFFDF769F9FFF712
:104C280087FE08BD2DE98048ADF5015D81B0FFF72D
:104C3800F1FFFEF7F7FB6420FDF7C2F8764D7749E0
:104C480006A8FDF79EF842F20C0206A9284602F0D3
:104C5800D5FA2846FFF736FC714F00243C707C706B
:104C6800BC70DFF808824FF0FF0988F8009088F8D8
:104C7800019088F80290DFF8F8A13B68ADF8103091
:104C88001B0C8DF81230674B0393674B0293674BED
:104C98000193674B0093674B674A294606A8FBF7C1
:104CA800E1FD564606AD0FCD0FC60FCD0FC695E8F0
:104CB800030086E803000DF5005534352846FBF758
:104CC80039FB01260DF5005333331E705B4B1D6015
:104CD8009E80DC801C811F61C3F80C800DF500529A
:104CE80033325A61564B1D609E80DC801C81C3F8AC
:104CF8001080DF605A61534B1D604FF0020BA3F820
:104D080004B0DC801C811F61C3F80C805A615046D6
:104D1800FBF7B7FC5046FBF75BFB4B4D4B4B2B604F
:104D28004FF00D0E85F804E025236B711E23AB713F
:104D380085F8079005F10807DFF838C1BCE80F00CF
:104D48000FC7DCF800303B7085F82C40404B2B63D4
:104D5800062385F8343085F8354085F8364085F8DF
:104D6800376085F8384085F83940042385F83A30AB
:104D780085F83B40052385F83C3085F83D4085F8AB
:104D88003E4085F83F4085F8404085F8416085F809
:104D980042E0262385F8433085F844402D4BAB6428
:104DA8002D490B4603F8014B2C4A1068C1F8010045
:104DB80012791A712A4D2A4602F8014B294B03CB66
:104DC800C5F8010051602848FEF71CFA0DF500539C
:104DD80030331C700DF5005331331E700DF5005340
:104DE80032331C700DF500532C331C700DF5005335
:104DF8002D3383F800B00DF500532E331C700DF5DC
:104E080000532C3319680DF5005330331868FEF73A
:104E180089FBFEF717FAFCE7DC0200208802002075
:104E2800042300207D4400083F090008E708000823
:104E38001D0200081902000815020008BC23002002
:104E4800182400200024002034020020CDCC4C3F40
:104E5800E067350000004040F0220020408500084F
:104E68000C230020488500085D4100080823002025
:104E7800D82300202C85000800B583B00C461946BD
:104E8800134652B1074A53B1019300922346024692
:104E98000548FDF75BF8FDF7E9F8044AF3E7034B2B
:104EA800F2E700BF5085000860850008C882000846
:104EB800002103E00B4B5B58435004310A480B4B6D
:104EC80042189A42F6D30A4A02E0002342F8043B09
:104ED800084B9A42F9D3FDF771F800F0DFFDFFF7B0
:104EE800A1FE7047E493000800000020040200209F
:104EF800040200204C240020FEE70000000000000F
:104F0800F8B5C1F30A57A7F2FF35132D0B460C4627
:104F18000246064620DC002D40DB354F2F4101EAD2
:104F2800070C5CEA000C14D02FA3D3E9002300F08F
:104F380069F80022002300F099FA40B1002C03DA46
:104F48004FF480132B411C44002624EA0704324600
:104F5800234610461946F8BD332D07DDB5F5806F99
:104F6800F7D100F04FF802460B46F2E74FF0FF3C4E
:104F7800A7F213472CFA07F70742EAD01AA3D3E996
:104F8800002300F03FF80022002300F06FFA002809
:104F9800DDD0002C1BDB26EA0706D8E712A3D3E9ED
:104FA800002300F02FF80022002300F05FFA002809
:104FB800CDD0002C02DB00263446C8E724F000439D
:104FC8000C4A1E43002E18BF14460026BFE7142DB6
:104FD80008D00122C5F1340302FA03F39E1928BF51
:104FE800A418D8E70134D6E79C7500883CE4377EDE
:104FF800FFFF0F000000F0BF81F0004102E000BF9A
:1050080083F0004330B54FEA41044FEA430594EA80
:10501800050F08BF90EA020F1FBF54EA000C55EABB
:10502800020C7FEA645C7FEA655C00F0E2804FEA8C
:105038005454D4EB5555B8BF6D420CDD2C4480EA6E
:10504800020281EA030382EA000083EA010180EA9E
:10505800020281EA0303362D88BF30BD11F0004FEC
:105068004FEA01314FF4801C4CEA113102D0404222
:1050780061EB410113F0004F4FEA03334CEA13335D
:1050880002D0524263EB430394EA050F00F0A78075
:10509800A4F10104D5F1200E0DDB02FA0EFC22FA70
:1050A80005F2801841F1000103FA0EF2801843FA64
:1050B80005F359410EE0A5F120050EF1200E012A55
:1050C80003FA0EFC28BF4CF0020C43FA05F3C01893
:1050D80051EBE37101F0004507D54FF0000EDCF10C
:1050E800000C7EEB00006EEB0101B1F5801F1BD3B5
:1050F800B1F5001F0CD349085FEA30004FEA3C0CB9
:1051080004F101044FEA445212F5800F80F09A80AE
:10511800BCF1004F08BF5FEA500C50F1000041EBB2
:10512800045141EA050130BD5FEA4C0C404141EBB6
:105138000101013C28BFB1F5801FE9D291F0000FB1
:1051480004BF01460020B1FA81F308BF2033A3F160
:105158000B03B3F120020CDA0C3208DD02F1140C57
:10516800C2F10C0201FA0CF021FA02F10CE002F192
:105178001402D8BFC2F1200C01FA02F120FA0CFC8B
:10518800DCBF41EA0C019040E41AA2BF01EB0451D4
:10519800294330BD6FEA04041F3C1CDA0C340EDCD2
:1051A80004F11404C4F1200220FA04F001FA02F315
:1051B80040EA030021FA04F345EA030130BDC4F1D3
:1051C8000C04C4F1200220FA02F001FA04F340EAC8
:1051D8000300294630BD21FA04F0294630BD94F079
:1051E800000F83F4801306BF81F480110134013D60
:1051F8004EE77FEA645C18BF7FEA655C29D094EAD1
:10520800050F08BF90EA020F05D054EA000C04BF4E
:105218001946104630BD91EA030F1EBF0021002039
:1052280030BD5FEA545C05D14000494128BF41F0D8
:10523800004130BD14F580043CBF01F5801130BD3C
:1052480001F0004545F0FE4141F470014FF00000C7
:1052580030BD7FEA645C1ABF194610467FEA655C78
:105268001CBF0B46024650EA013406BF52EA03351A
:1052780091EA030F41F4002130BD00BF90F0000F08
:1052880004BF0021704730B54FF4806404F1320444
:105298004FF000054FF0000150E700BF90F0000FFD
:1052A80004BF0021704730B54FF4806404F1320424
:1052B80010F0004548BF40424FF000013EE700BFF4
:1052C80042004FEAE2014FEA31014FEA02701FBF84
:1052D80012F07F4393F07F4F81F06051704732F0B6
:1052E8007F4208BF704793F07F4F04BF41F400210D
:1052F800704730B54FF4607401F0004521F000416B
:105308001CE700BF50EA010208BF704730B54FF0F4
:1053180000050AE050EA010208BF704730B511F0F5
:10532800004502D5404261EB41014FF4806404F12D
:1053380032045FEA915C3FF4D8AE4FF003025FEAB3
:10534800DC0C18BF03325FEADC0C18BF033202EB37
:10535800DC02C2F1200300FA03FC20FA02F001FA91
:1053680003FE40EA0E0021FA02F11444BDE600BF34
:105378004FF0FF3C06E000BF4FF0010C02E000BF19
:105388004FF0010C4DF804CD4FEA410C7FEA6C5CFC
:105398004FEA430C18BF7FEA6C5C1BD001B050EA9F
:1053A800410C0CBF52EA430C91EA030F02BF90EA8A
:1053B800020F0020704710F1000F91EA030F58BF49
:1053C800994208BF90422CBFD8176FEAE37040F0AB
:1053D800010070474FEA410C7FEA6C5C02D150EA49
:1053E800013C07D14FEA430C7FEA6C5CD6D152EA04
:1053F800033CD3D05DF8040B704700BF84461046C9
:1054080062468C461946634600E000BF01B5FFF7C7
:10541800B7FF002848BF10F1000F01BD4DF808ED97
:10542800FFF7F4FF0CBF012000205DF808FB00BF68
:105438004DF808EDFFF7EAFF34BF012000205DF8C2
:1054480008FB00BF4DF808EDFFF7E0FF94BF01200F
:1054580000205DF808FB00BF4DF808EDFFF7CEFF10
:1054680094BF012000205DF808FB00BF4DF808ED4F
:10547800FFF7C4FF34BF012000205DF808FB00BF20
:105488004A0011D212F5001211D20DD56FF47873BB
:10549800B3EB62520ED44FEAC12343F0004343EA10
:1054A800505323FA02F070474FF00000704750EA5B
:1054B800013002D14FF0FF3070474FF000007047C5
:1054C80080F0004002E000BF81F0004142001FBFB1
:1054D8005FEA410392EA030F7FEA226C7FEA236CBA
:1054E8006AD04FEA1262D2EB1363C1BFD2184140AF
:1054F80048404140B8BF5B42192B88BF704710F045
:10550800004F40F4000020F07F4018BF404211F0E7
:10551800004F41F4000121F07F4118BF494292EA4F
:10552800030F3FD0A2F1010241FA03FC10EB0C007B
:10553800C3F1200301FA03F100F0004302D5494208
:1055480060EB4000B0F5000F13D3B0F1807F06D3B5
:1055580040084FEA310102F10102FE2A51D2B1F1AD
:10556800004F40EBC25008BF20F0010040EA0300A2
:105578007047490040EB0000013A28BFB0F5000F22
:10558800EDD2B0FA80FCACF1080CB2EB0C0200FAD8
:105598000CF0AABF00EBC25052421843BCBFD04027
:1055A8001843704792F0000F81F4000106BF80F4A1
:1055B80000000132013BB5E74FEA41037FEA226C64
:1055C80018BF7FEA236C21D092EA030F04D092F02F
:1055D800000F08BF0846704790EA010F1CBF002063
:1055E800704712F07F4F04D1400028BF40F00040C0
:1055F800704712F100723CBF00F50000704700F0E0
:10560800004343F0FE4040F4000070477FEA226206
:1056180016BF08467FEA23630146420206BF5FEAD7
:10562800412390EA010F40F4800070474FF00003D7
:1056380004E000BF10F0004348BF40425FEA000C9E
:1056480008BF704743F0964301464FF000001CE046
:1056580050EA010208BF70474FF000030AE000BF9C
:1056680050EA010208BF704711F0004302D54042DA
:1056780061EB41015FEA010C02BF8446014600204C
:1056880043F0B64308BFA3F18053A3F50003BCFA67
:105698008CF2083AA3EBC25310DB01FA02FC634414
:1056A80000FA02FCC2F12002BCF1004F20FA02F21B
:1056B80043EB020008BF20F00100704702F120020E
:1056C80001FA02FCC2F1200250EA4C0021FA02F26F
:1056D80043EB020008BF20EADC7070474FF0FF0C74
:1056E8001CEAD0521EBF1CEAD15392EA0C0F93EA6F
:1056F8000C0F6FD01A4480EA010C400218BF5FEA11
:1057080041211ED04FF0006343EA501043EA511183
:10571800A0FB01310CF00040B1F5000F3EBF49007D
:1057280041EAD3715B0040EA010062F17F02FD2A81
:105738001DD8B3F1004F40EBC25008BF20F0010064
:10574800704790F0000F0CF0004C08BF49024CEA7B
:10575800502040EA51207F3AC2BFD2F1FF0340EA0D
:10576800C250704740F400004FF00003013A5DDC7E
:1057780012F1190FDCBF00F000407047C2F10002BF
:10578800410021FA02F1C2F1200200FA02FC5FEAAC
:10579800310040F1000053EA4C0308BF20EADC70F6
:1057A800704792F0000F00F0004C02BF400010F468
:1057B800000F013AF9D040EA0C0093F0000F01F015
:1057C800004C02BF490011F4000F013BF9D041EA37
:1057D8000C018FE70CEAD15392EA0C0F18BF93EA39
:1057E8000C0F0AD030F0004C18BF31F0004CD8D163
:1057F80080EA010000F00040704790F0000F17BFEA
:1058080090F0004F084691F0000F91F0004F14D02F
:1058180092EA0C0F01D142020FD193EA0C0F03D187
:105828004B0218BF084608D180EA010000F000408A
:1058380040F0FE4040F40000704740F0FE4040F465
:10584800400070474FF0FF0C1CEAD0521EBF1CEA04
:10585800D15392EA0C0F93EA0C0F69D0A2EB030222
:1058680080EA010C49024FEA402037D04FF08053BC
:1058780043EA111143EA10130CF000408B4238BF81
:105888005B0042F17D024FF4000C8B4224BF5B1A8F
:1058980040EA0C00B3EB510F24BFA3EB510340EADD
:1058A8005C00B3EB910F24BFA3EB910340EA9C008B
:1058B800B3EBD10F24BFA3EBD10340EADC001B01FB
:1058C80018BF5FEA1C1CE0D1FD2A3FF650AF8B429F
:1058D80040EBC25008BF20F0010070470CF0004CAC
:1058E8004CEA50207F32C2BFD2F1FF0340EAC250D7
:1058F800704740F400004FF00003013A37E792F098
:10590800000F00F0004C02BF400010F4000F013AF5
:10591800F9D040EA0C0093F0000F01F0004C02BFF0
:10592800490011F4000F013BF9D041EA0C0195E759
:105938000CEAD15392EA0C0F08D142027FF47DAFF2
:1059480093EA0C0F7FF470AF084676E793EA0C0FE2
:1059580004D14B023FF44CAF08466EE730F0004CE0
:1059680018BF31F0004CCAD130F000427FF45CAF70
:1059780031F000437FF43CAF5FE700BF4FF0FF3CDE
:1059880006E000BF4FF0010C02E000BF4FF0010C31
:105998004DF804CD4FEA40024FEA41037FEA226CFA
:1059A80018BF7FEA236C11D001B052EA530C18BF1C
:1059B80090EA010F58BFB2EB030088BFC81738BF81
:1059C8006FEAE17018BF40F0010070477FEA226C6F
:1059D80002D15FEA402C05D17FEA236CE4D15FEA6B
:1059E800412CE1D05DF8040B704700BF844608469F
:1059F8006146FFE70FB5FFF7C9FF002848BF10F160
:105A0800000F0FBD4DF808EDFFF7F4FF0CBF0120A4
:105A180000205DF808FB00BF4DF808EDFFF7EAFF2E
:105A280034BF012000205DF808FB00BF4DF808EDE9
:105A3800FFF7E0FF94BF012000205DF808FB00BFDE
:105A48004DF808EDFFF7D2FF94BF012000205DF864
:105A580008FB00BF4DF808EDFFF7C8FF34BF012071
:105A680000205DF808FB00BF014B1868704700BFB5
:105A78003400002008B5074B044613B10021AFF3EA
:105A88000080054B1868836A03B198472046FCF7E5
:105A9800BBFA00BF000000009891000870B500260E
:105AA8000C4D0D4C641BA410A64209D1FAF73EFB1D
:105AB80000260A4D0A4C641BA410A64205D170BDED
:105AC80055F8043B98470136EEE755F8043B9847EC
