:020000040800F2
:10000000005000200D0100080D8C00080F8C000826
:10001000118C0008138C0008158C000800000000EB
:10002000000000000000000000000000178C000825
:10003000198C0008000000001B8C00081D8C0008B3
:10004000298C0008298C0008298C0008298C0008BC
:10005000298C0008298C0008298C0008298C0008AC
:10006000298C0008298C0008298C0008298C00089C
:10007000298C0008298C0008298C0008298C00088C
:10008000298C0008298C0008298C0008298C00087C
:10009000298C0008298C0008298C0008298C00086C
:1000A000298C0008298C0008298C0008298C00085C
:1000B000298C0008298C0008298C00086189000817
:1000C000718900088189000891890008298C00083D
:1000D000298C0008A1890008298C0008298C0008B7
:1000E000298C0008298C0008298C000800000000D9
:1000F0000000000000000000000000000000000000
:1001000000000000000000005FF808F108B500F0F2
:10011000ABF82DE9F04182B004460D46124B5F6BFF
:10012000D3F838809E6A1B6B13F0020F03D00E4B7E
:10013000DB6A002B0BDB0D4803F020FD00954346E6
:100140003A463146204603F033FD00BEFEE74BF64B
:10015000AB6103F045FE0028EDD0034B4FF00042A9
:10016000DA6202B0BDE8F08100ED00E0ECAC00081E
:1001700080B582B004460D46084B5F6BD3F83880DB
:100180009E6A074803F0FAFC009543463A4631461A
:10019000204603F00DFD00BEFEE700BF00ED00E0CD
:1001A000FCAC000880B582B004460D46084B5F6B7E
:1001B000D3F838809E6A074803F0E0FC0095434678
:1001C0003A463146204603F0F3FC00BEFEE700BF8E
:0801D00000ED00E008AD00089D
:1001D80074B90008000000206800002074B9000805
:1001E80000000000000000006800002040250020FA
:1001F8000000000000000000F8B500BFF8BC08BC13
:100208009E467047F8B500BFF8BC08BC9E467047CC
:08021800450200082102000864
:1002200010B5054C237833B9044B13B10448AFF330
:1002300000800123237010BD680000200000000032
:1002400068B9000808B5034B1BB103490348AFF375
:10025000008008BD000000006C00002068B90008A4
:10026000A3F5803A704700BF174B002B08BF134B14
:100270009D46FFF7F5FF00218B460F461348144AB1
:10028000121A09F087FE0E4B002B00D098470D4B39
:10029000002B00D098470020002104000D000D48DD
:1002A000002802D00C48AFF3008009F04DFE20007A
:1002B000290008F07DFB09F033FE00BF00000800B4
:1002C0000000000000000000005000206800002036
:1002D000402500200000000000000000024A1368D2
:1002E00001331360704700BF2C250020014B1868B4
:1002F000704700BF2C25002038B50446FFF7F6FFF5
:100300000546B4F1FF3F00D00134FFF7EFFF401B7B
:10031000A042FAD338BD00000138B0F1807F0BD283
:100320004FF0E0235861054AF02182F823100020A5
:10033000986107221A6170470120704700ED00E0C4
:100340000379012B1BD010B40123037102234371E5
:100350000468A36843F00103A360002305E0046878
:1003600051F823C0C4F800C001339342F7D30123EE
:100370004371002303710368186810BC70470220A2
:100380007047000008B590F82130022B03D00423F9
:100390008363012008BD0268136823F00E03136015
:1003A0000268136823F0010313600368194A93423B
:1003B00014D0143293421FD0143293421ED0143200
:1003C00093421ED0143293421ED01432934202D074
:1003D0004FF0807203E04FF4801200E001220E4BD8
:1003E0005A60012380F82130002380F82030436BCD
:1003F0006BB198470020CDE71022F0E74FF48072F0
:10040000EDE74FF48052EAE74FF48032E7E700204F
:10041000C0E700BF080002400000024090F83D30F5
:10042000DBB2222B01D000207047438D9BB2032BFF
:100430000BD903681A69436A591C41621A70438DCB
:100440009BB2013B9BB24385EDE7023B012B25D9D3
:10045000C36A022B3BD00268136823F480631360E5
:100460000268536823F4E063536003681A69436ABF
:10047000591C41621A70438D9BB2013B9BB243856C
:10048000202380F83D300023036390F83E30DBB238
:10049000402B22D0002380F83E30C4E7C36A022BF1
:1004A0000FD00268136823F4806313600268136836
:1004B00043F4006313600268536823F4806353605D
:1004C000B1E70268136843F480631360F3E70268DE
:1004D000136843F480631360C2E7002380F83E3062
:1004E000A1E7C26A438D9BB2032B10D0438D9BB210
:1004F000022B24D003681A69436A591C41621A709E
:10050000438D9BB2013B9BB2438500207047042A78
:1005100004D0082A02D012F5803F04D10268136883
:1005200023F48063136003681A69436A591C4162AB
:100530001A70438D9BB2013B9BB24385E5E7042AC9
:1005400017D0082A15D012F5803F12D0022A0AD0FF
:100550000268136823F4806313600268536823F40D
:10056000407353600FE00268136843F480631360C4
:10057000F3E70268536823F440735360026813681A
:1005800043F40073136003681A69436A591C41629B
:100590001A70438D9BB2013B9BB2438503681A6975
:1005A000436A591C41621A70438D9BB2013B9BB256
:1005B0004385202380F83D300023036390F83E30CC
:1005C000DBB2402B03D0002380F83E309DE70023B0
:1005D00080F83E3099E790F83E30DBB2402B10D0E7
:1005E0000369B3F5804F1BD0036D5BBB436C02689E
:1005F000C3F3C81303F0060343F0F00313610020B4
:100600007047036D2BB9436C026803F0FE0313615E
:10061000F5E7436C026843F00103DBB21361EEE7D8
:1006200090F83D30DBB2212B06D0436C026843F0DA
:100630000103DBB21361E2E7436C026803F0FE03DF
:100640001361DCE7036D012BD9D1436C0268C3F35E
:10065000C81303F0060343F0F1031361CFE7436CC3
:100660000268DBB213610020704710B48DB090F8BF
:100670003E30DAB2C16A046B90F83D30DBB2222B17
:100680000BD000230B9303685A690B929B690B9361
:100690000B9B00200DB010BC7047036D0BB9402AB6
:1006A00017D0036D1BB90369B3F5404F19D0438DC3
:1006B0009BB2002B25D1039303685A6903929A6970
:1006C0000392039A1A6842F400721A6000230365C9
:1006D000DFE7019303685A6901929B690193019BCB
:1006E000D7E70023029303685A6902929A6902923B
:1006F000029A1A6842F480721A60036D013303652E
:10070000C7E7438D9BB2012B1AD0438D9BB2022BBE
:100710006BD00268136843F48063136003685A68FF
:1007200012F4006F03D05A6842F480525A600023DA
:100730000A9303685A690A929B690A930A9BC5E760
:1007400011F5803F16D004293DD008293BD0122C4A
:1007500039D0C36A022B30D00268136823F4806357
:1007600013600023069303685A6906929B690693F7
:10077000069BABE70268136823F480631360036889
:100780005A6812F4006F0CD01A6822F480621A6062
:100790000023049303685A6904929B690493049BA1
:1007A00094E7002205925A6905929A690592059A82
:1007B0001A6842F400721A6088E70268136843F40A
:1007C00080631360CDE70268136823F480631360CD
:1007D0000023079303685A6907929A690792079A58
:1007E0001A6842F400721A6070E7C36A022B1BD0C9
:1007F0000268136843F400631360002308930368DE
:100800005A6908929A690892089A1A6822F48062D2
:100810001A6003685A6812F4006F3FF457AF5A68C1
:1008200042F480525A6051E70268136843F48063CF
:1008300013600023099303685A6909929B6909931D
:10084000099BE6E790F83D30DAB2438D9BB27BB16D
:10085000436A591C416201681B780B61438D9BB24E
:10086000013B9BB24385438D9BB20BB9292A01D032
:10087000002070470268536823F48063536021238B
:100880000363282380F83D30F2E7438D9BB253B1D8
:10089000436A5A1C426202681B781361438D9BB203
:1008A000013B9BB243850020704790F83D30DAB29F
:1008B000438D9BB2F3B110B403681969436A5C1CA1
:1008C00044621970438D9BB2013B9BB24385438DBB
:1008D0009BB20BB92A2A02D0002010BC70470268D4
:1008E000536823F48063536022230363282380F832
:1008F0003D30F1E700207047438D9BB253B1036850
:100900001A69436A591C41621A70438D9BB2013BBC
:100910009BB243850020704703689A699B69002059
:100920007047000090F83D30DBB2C26A042A01D063
:10093000082A01D1282B07D0212B1DD003686FF482
:1009400080625A6100207047184BC3620268536886
:1009500023F4E063536003686FF480625A610268B5
:10096000136823F48063136000230363202280F85C
:100970003D2080F83E30E5E70C4BC3622123036342
:10098000202380F83D30002380F83E300268536811
:1009900023F4E063536003686FF480625A61026875
:1009A000136823F480631360CCE700BF0000FFFFEF
:1009B00010B5044690F83D30293B012B36D990F80C
:1009C0003D30DBB2602B07D003685B6813F4006F27
:1009D00002D1202380F83D300023236384F83E3089
:1009E0002268136823F40063136023685A6812F4C2
:1009F000006F3FD05A6822F400625A60636B93F82C
:100A00002120012A18D0364A5A63606BFFF7BAFCDE
:100A1000002851D02268136823F0010313602023BB
:100A200084F83D30606B436B984745E000230363D7
:100A3000282380F83D30D3E7A36B294A5A63A06B83
:100A4000FFF7A0FC002837D023685A6912F0400F46
:100A500004D01A69636A591C61621A7022681368AB
:100A600023F001031360202384F83D30A06B436B17
:100A7000984721E094F83D20D2B2602A09D05A6903
:100A800012F0400F18D01A69636A591C61621A701B
:100A900012E0202284F83D20002222645A6912F0DC
:100AA000400F04D01A69636A591C61621A70226887
:100AB000136823F00103136094F83D30DBB2282B58
:100AC00000D010BD236C13F0040FFAD0054BE36285
:100AD00000232363202284F83D2084F83E30F0E791
:100AE000C10C00080000FFFF70B5044603685D6993
:100AF0005E68334A15420ED016F4807F0BD0026C2C
:100B000042F0010202646FF480725A610268136855
:100B100043F40043136015F4813F0AD016F4807F3C
:100B200007D0236C43F00203236423686FF4007240
:100B30005A6115F4823F1AD016F4807F17D094F8CA
:100B40003E30DBB2628D91B294F83D20D2B2206B80
:100B5000202B1DD0236C43F00403236494F83E3013
:100B6000DBB2102B22D023686FF480625A6115F437
:100B7000843F0AD016F4807F07D0236C43F008032B
:100B8000236423686FF400625A61236CA3B970BDBB
:100B90000029DFD1212A05D0292A03D0282AD9D13A
:100BA0002128D7D12046FFF7BDFEE0E72268136871
:100BB00043F400731360D6E72046FFF7F9FEE6E73B
:100BC0000001010010B582B090F83D30DBB2016841
:100BD0004A6822F4E0624A60002201920268516988
:100BE0000191116841F001011160019A01680A68E0
:100BF00022F480620A6001684A6812F4006F14D01F
:100C000090F83D20D2B2222A0AD090F83D20D2B2EC
:100C10002A2A05D0426B1268526892B2428504E0DB
:100C2000826B1268526892B24285428D92B202B3D0
:100C30004A6912F0040F09D00969426A541C4462DF
:100C40001170428D92B2013A92B2428502685169A6
:100C500011F0400F09D01169426A541C44621170AE
:100C6000428D92B2013A92B24285026C42F0040285
:100C70000264026C92B9282B13D02A2B11D0292B95
:100C80000FD0026B222A01D0222B13D10023036341
:100C9000202280F83D2080F83E300BE0FFF788FEF0
:100CA00008E0064BC36200230363202280F83D2046
:100CB00080F83E30002002B010BD00BF0000FFFFF2
:100CC000436A19680A6822F480620A6000225A8521
:100CD000596B4A63996B4A6393F83D20D2B2602AFC
:100CE0000BD0202283F83D20002283F83E201A6892
:100CF000136823F0010313607047202283F83D201E
:100D0000002283F83E201A641A68136823F0010356
:100D1000136070472DE9F04107460D4690461E4688
:100D200020E02EB1FFF7E2FA069BC01AB04219D9B3
:100D300000233B63202287F83D2087F83E3087F868
:100D40003C3003201EE03B689C6925EA040C1FFA36
:100D50008CFCBCFA8CFC4FEA5C1CE04511D1B6F16E
:100D6000FF3FDED1C5F30743012BECD13B685B6944
:100D700025EA030C1FFA8CFCBCFA8CFC4FEA5C1CC5
:100D8000EBE70020BDE8F0812DE9F04385B0044693
:100D9000884691461D46FFF7A9FA94F83D30DBB22C
:100DA000202B03D0022005B0BDE8F083064600905A
:100DB0001923012255492046FFF7ACFF002840F0D7
:100DC0009A8094F83C30012B00F09780012384F83E
:100DD0003C3023681A6812F0010F03D11A6842F000
:100DE00001021A602268136823F40063136024234D
:100DF00084F83D3000232364A3F58033E3620127A8
:100E000035E0A02384F83D3022685369C3F34003E2
:100E10005269C2F3802294F83D10C9B253B94AB95D
:100E2000A02907D0002DECD0FFF760FA801BA84264
:100E3000EAD9E6E7202384F83D3023685A6912F0A6
:100E4000020F35D11A6842F400721A6023686FF4F9
:100E500080625A610096192301222C492046FFF72F
:100E600059FF00284FD17B1C4F453CD21F462268BA
:100E7000136843F48073136000962B4600224FF0F2
:100E800001112046FFF746FF002838D1236808F0FB
:100E9000FE021A61FFF72AFA064622685369C3F375
:100EA00040035269C2F3802294F83D10C9B2B5E7FD
:100EB0001A6842F400721A600023039323685A6987
:100EC00003929B690393039B0096192301220F4908
:100ED0002046FFF71FFFA0B9202384F83D300023F0
:100EE00084F83C305FE7202384F83D30002384F809
:100EF0003C30012057E7022055E7022053E703204A
:100F000051E703204FE703204DE700BF0200100028
:100F10002DE9F04105460E461746984633E01A681B
:100F200042F400721A602B686FF480625A610423E5
:100F30002B6400232B63202285F83D2085F83C306C
:100F400001202EE02FB1FFF7D1F9A0EB0800B84245
:100F500019D900232B63202285F83D2085F83C30E9
:100F600003201EE02B689C6926EA0404A4B2003C1E
:100F700018BF0124A4B12B685A6912F4806FCED136
:100F8000B7F1FF3FDED1C6F30743012BEAD12B684F
:100F90005C6926EA0404A4B2003C18BF0124E9E716
:100FA0000020BDE8F08170B505460C4616462B685A
:100FB000596911F0400F22D1596911F0100F11D168
:100FC00024B1FFF793F9801BA042F0D92B6C43F0BA
:100FD00020032B64202385F83D30002385F83C3026
:100FE000032070BD6FF010025A6100232B642B6345
:100FF000202285F83D2085F83C300120F1E70020D3
:10100000EFE703685A6912F4806F01D1002070473E
:101010006FF480625A610423036400230363202277
:1010200080F83D2080F83C300120704770B50446C0
:101030000D46164623685B6913F0800F19D12046D0
:10104000FFF7DFFFB8B9B5F1FF3FF3D025B1FFF7E8
:101050004DF9801BA842EDD9236C43F02003236493
:1010600000232363202284F83D2084F83C300320B1
:1010700000E0002070BD0120FCE700002DE9F043F6
:1010800085B004460D46914698460C9E0D9F036818
:10109000196841F4807119600097334600224FF0BF
:1010A0000111FFF737FE00284ED1236805F0FE0539
:1010B0001D613B46324626492046FFF729FF30B1E5
:1010C000236C042B01D003203FE001203DE00023EE
:1010D000039323685A6903929B690393039B3A46DF
:1010E00031462046FFF7A2FF58B1236C042B01D0F4
:1010F00003202AE02268136843F400731360012080
:1011000023E0B8F1010F04D123685FFA89F61E616C
:101110001BE023684FEA19221A613A4631462046FD
:10112000FFF784FF58B1236C042B01D003200CE09F
:101130002268136843F400731360012005E02368FC
:101140005FFA89F61E6100E0032005B0BDE8F08378
:10115000020001002DE9F04784B004460D46164612
:101160009946DDF830800D9F0268136843F4806370
:1011700013600368196841F4807119600097434651
:1011800000224FF00111FFF7C5FD00287ED15FFA64
:1011900085FA236805F0FE051D613B4642463E493F
:1011A0002046FFF7B5FE30B1236C042B01D003209D
:1011B0006DE001206BE00023039323685A690392DA
:1011C0009B690393039B3A4641462046FFF72EFF57
:1011D00058B1236C042B01D0032058E02268136817
:1011E00043F400731360012051E0B9F1010F0DD1F8
:1011F0002368F6B21E613A4641462046FFF716FFC5
:1012000020B3236C042B1AD0032040E02368320A59
:101210001A613A4641462046FFF708FF58B1236C51
:10122000042B01D0032032E02268136843F40073DA
:10123000136001202BE02368F6B21E61DBE7226811
:10124000136843F400731360012020E022681368E0
:1012500043F4807313600097434600224FF001115E
:101260002046FFF757FDA8B922684AF00103136131
:101270003B46424608492046FFF74AFE38B1236CF8
:10128000042B01D0032002E0012000E0032004B081
:10129000BDE8F0870320FAE70200010070B50446BC
:1012A0000D46164623685B6913F0040F19D12046DA
:1012B000FFF7A7FEB8B9B5F1FF3FF3D025B1FFF7AF
:1012C00015F8801BA842EDD9236C43F0200323645A
:1012D00000232363202284F83D2084F83C3003203F
:1012E00000E0002070BD0120FCE70000014B01225E
:1012F0001A62704700000E4286B0164B0FCB0DF1FC
:10130000180C0CE90F0040F20123ADF80430124B29
:101310005B6803F00C02082A02D0104806B0704740
:10132000C3F38342624412F8100C13F4803F0CD0D4
:10133000094B5B68C3F34043634413F8143C074A0A
:1013400002FB00F0B0FBF3F0E8E7054B03FB00F015
:10135000E4E700BFA4A800080010024000127A00D1
:1013600000093D00014B1868704700BF00000020D5
:1013700008B5FFF7F7FF044B5B68C3F30223034A8A
:10138000D35CD84008BD00BF0010024038AD000853
:1013900008B5FFF7E7FF044B5B68C3F3C223034ABA
:1013A000D35CD84008BD00BF0010024038AD000833
:1013B00082B0084B1B68084AA2FB03235B0A00FBB0
:1013C00003F3019300BF019B5A1E0192002BF9D138
:1013D00002B0704700000020D34D6210C0B138B594
:1013E00005460268536823F008035360FEF77EFF4A
:1013F00004462B685B6813F0080F07D1FEF776FFF1
:10140000001BB0F57A7FF4D9032000E0002038BD3E
:101410000120704710B4026894691FFA84FCD369F4
:10142000916988B2844505D0D06980B240EA014014
:1014300010BC704798B240EA0440F9E70368186AA4
:101440005B6A9BB243EA0040704738B50446FEF73A
:101450004DFF054623685A6812F0200F07D1FEF7AA
:1014600045FF401BB0F57A7FF4D9032004E05A68A9
:1014700042F010025A60002038BD38B504460268B8
:10148000536823F010035360FEF730FF05462368CE
:101490005B6813F0200F07D1FEF728FF401BB0F563
:1014A0007A7FF4D9032000E0002038BD38B5054626
:1014B0000C46FFF7CAFF08B1012038BD2B68220C8B
:1014C0009A612B68A4B2DC612846FFF7D6FF00289A
:1014D000F3D00120F1E738B505460C46FFF7B5FF1C
:1014E00008B1012038BD2B68220C1A622B68A4B207
:1014F0005C622846FFF7C1FF0028F3D00120F1E726
:10150000002302E001330A38C0B20928FAD81B01CF
:10151000DBB218437047030903EB830300F00F00AD
:1015200000EB4300C0B2704710F0030F14D10D4B15
:10153000A3FB00235B09642202FB13039BB26BB97C
:10154000084BA3FB0023DB094FF4C87202FB130016
:1015500080B228B9012070470020704701207047F1
:10156000002070471F85EB5100F5FA6C022921D845
:1015700001EB4103C1EBC3011E4BA3FB011302EBC3
:101580005303634400F2CF7003EB90031A4AA2FBAB
:101590000020A3EB501303EBD01304331748A0FB38
:1015A00003201A1A00EB52008008C0EBC000181A82
:1015B000C0B2704701EB4103C1EBC3010D4BA3FB6C
:1015C000011302EB5303634403EB9C030A4AA2FB9F
:1015D0000C2CA3EB5C1303EBDC1302330748A0FBDA
:1015E00003201A1A00EB52008008C0EBC000181A42
:1015F000DEE700BF398EE3381F85EB512549922481
:101600002DE9F84380460F4690F80F90447B857B88
:10161000002603E01E2D1FD801350136BE423DD203
:10162000012CF7D0032CF5D0052CF3D0072CF1D0EA
:10163000082CEFD00A2CEDD00C2CEBD0042C15D0BC
:10164000062C13D0092C11D00B2C0FD0022CE4D176
:101650001B2D12D80135E0E70C2C02D001340125F6
:10166000DBE709F1010901252C46D6E71D2D01D83C
:101670000135D2E701340125CFE71C2D04D01D2D03
:10168000CBD101340125C8E71FFA89F0FFF74CFFE1
:1016900008B10135C1E701340125BEE788F80F9094
:1016A000E1B288F80D10EAB288F80E204846FFF73C
:1016B0005BFF88F80C00BDE8F88390F83930DBB2A6
:1016C000202B19D1D1B1DAB190F83830012B19D0D3
:1016D000012380F8383001628284C2840023C3630E
:1016E000212280F8392080F838300168CA6842F039
:1016F0008002CA6018467047022070470120704778
:10170000012070470220704790F83A30DBB2202B5E
:1017100023D121B32AB390F83830012B23D00123F1
:1017200080F8383081628285C2850023C36322221B
:1017300080F83A2080F838300168CA6842F4807234
:10174000CA6001684A6942F001024A610168CA68D8
:1017500042F02002CA6018467047022070470120FC
:1017600070470120704702207047436A0022DA85E3
:10177000DA8470472DE9F84305460F461646994628
:10178000DDF820802C68246837EA04030CBF4FF092
:10179000010C4FF0000CB4451FD1B8F1FF3FF1D060
:1017A000B8F1000F05D0FEF7A1FDA0EB0900404500
:1017B000E8D92A68D36823F4D073D3602A685369C0
:1017C00023F001035361202385F8393085F83A303E
:1017D000002385F83830032000E00020BDE8F883BE
:1017E0002DE9F04182B01E4690F83930DBB2202B53
:1017F00055D104460D469046002954D0002A54D0B5
:1018000090F83830012B52D0012380F83830002373
:10181000C363212380F83930FEF768FD0746A4F83A
:101820002480A4F8268010E000963B460022802108
:101830002046FFF79FFF00283BD12B882268C3F387
:10184000080353602369CBB90235E38C9BB2BBB16B
:10185000E28C92B2013A92B2E284A368B3F5805F5F
:10186000E2D000963B46002280212046FFF782FF0F
:1018700008BB15F8012B23685A60E6E70135E4E759
:1018800000963B46002240212046FFF773FFA0B997
:10189000202384F83930002384F8383000E0022017
:1018A00002B0BDE8F0810120FAE70120F8E702204C
:1018B000F6E70320F4E70320F2E70320F0E72DE941
:1018C000F04182B01E4690F83A30DBB2202B5BD15B
:1018D00004460D46904600295AD0002A5AD090F866
:1018E0003830012B58D0012380F838300023C363EF
:1018F000222380F83A30FEF7F9FC0746A4F82C8042
:10190000A4F82E801DE000963B46002220212046B0
:10191000FFF730FF002841D1236933B923685B68A2
:10192000C3F3080325F8023B0BE023685B68DBB2D6
:1019300025F8013B05E023685B6803F07F0305F8A9
:10194000013BE38D9BB2C3B1E28D92B2013A92B2F8
:10195000E285A368B3F5805FD5D000963B460022B0
:1019600020212046FFF706FFD0B92369002BE2D1E2
:1019700023685B6805F8013BE3E7202384F83A30ED
:10198000002084F8380000E0022002B0BDE8F081B9
:101990000120FAE70120F8E70220F6E70320F4E748
:1019A0000320F2E70268D36823F49073D3600268DF
:1019B000536923F001035361202380F83A307047C4
:1019C00090F83930DBB2212B01D0022070478368B8
:1019D000B3F5805F17D0036A5A1C02621A78036855
:1019E0005A60C38C9BB2013B9BB2C3844BB9026863
:1019F000D36823F08003D3600268D36843F04003C8
:101A0000D36000207047036A1B880268C3F3080391
:101A1000536003691BB9036A02330362E1E7036A97
:101A200001330362DDE72DE9F04385B004460F463C
:101A3000435633BB042528462146ABBE04463846F0
:101A400005B0BDE8F08314F901CB04AA1A4402F8EA
:101A500010CC0133AB42F6D304AA1344002203F89E
:101A6000102C4FF00408E94640464946ABBE80467C
:101A7000761B002EE3D03546102E28BF10250023FC
:101A8000E8E70E46F5E708B5FFF7CDFF08BD9A4237
:101A900000D28854704770470146002008E000EBF0
:101AA0008000531C0B6092F9003003EB400030388B
:101AB0000A6892F90030303BDBB2092BEFD970474E
:101AC0002DE9F04F83B005460E4693461F46DDF8DC
:101AD00030A00D9CDDF838900F9B13F0030F19D147
:101AE000A0460192C84509D202F1010B3B4631469E
:101AF0002020A84708F101085A46F3E7DDF804B0B2
:101B000008E0013C02F101083B4631461AF90400A5
:101B1000A8474246002CF4D10F9B13F0020F03D1CB
:101B2000104603B0BDE8F08FA2EB0B034B45F7D294
:101B3000541C3B4631462020A8472246F4E72DE9B5
:101B4000F04385B00C9D0D9C9DF83890DDF83C80ED
:101B5000DDF840E0119F129E16F0020F21D17FB1F7
:101B600016F0010F0CD0B9F1000F02D116F00C0FD6
:101B700006D0013F04E04FF0300C05F804C00134FA
:101B8000744501D21F2CF6D916F0010F09D0BC42C2
:101B900007D21F2C05D84FF0300C05F804C00134D3
:101BA000F2E716F0100F17D016F4806F04D11CB1B5
:101BB000744524D0BC4222D0B8F1100F2BD0B8F11C
:101BC000100F33D0B8F1020F3BD01F2C04D84FF0C8
:101BD000300C05F804C001341F2C07D8B9F1000FF0
:101BE00037D04FF02D0C05F804C00134039602974E
:101BF00001940095FFF764FF05B0BDE8F083B4F1F0
:101C0000010C06D0B8F1100F01D06446D4E7023CB5
:101C1000D2E76446D0E716F0200FD0D11F2CCED8E3
:101C20004FF0780C05F804C00134CEE716F0200F11
:101C3000C8D01F2CC6D84FF0580C05F804C001348A
:101C4000C3E71F2CC1D84FF0620C05F804C0013463
:101C5000BBE716F0040F05D04FF02B0C05F804C0BD
:101C60000134C3E716F0080FC0D04FF0200C05F880
:101C700004C00134BAE72DE9F04190B0169C189EDB
:101C80001B9F0CB927F0100717F4806516D074B3AA
:101C9000002513E00EF1300C4FFA8CFC05F1010E1B
:101CA0000DF14008454405F820CCB4FBF6FCB442E5
:101CB0001ED3BEF11F0F1BD875466446B4FBF6FC5D
:101CC00006FB1C4E4FFA8EFCBCF1090FE2DD17F04B
:101CD000200F09D04FF0410CF4445FFA8CFCACF1BA
:101CE0000A0C4FFA8CFCD9E74FF0610CF4E7A646DA
:101CF00006971A9C0594199C049403969DF85C40E1
:101D00000294CDF804E008AC0094FFF718FF10B07F
:101D1000BDE8F0812DE9F04F95B009900A910B9242
:101D20009B461E9D1F9E229FDDF88C80DDF898A0AB
:101D300055EA060301D12AF0100A1AF480641CD077
:101D400055EA06032DD0002417E0303252B204F1D8
:101D5000010914AB1C4404F8202C3A46434628469B
:101D6000314607F053FFBD4276EB08031BD3B9F1B0
:101D70001F0F18D84C4605460E463A46434628469D
:101D8000314607F043FF53B2092BDEDD1AF0200F76
:101D900005D041231A44D2B20A3A52B2D7E761239E
:101DA000F8E74FF00009CDF818A0259B0593249B78
:101DB000049303979DF880300293CDF804900CAB08
:101DC00000935B460B9A0A990998FFF7B8FE15B085
:101DD000BDE8F08F000000002DE9F04F93B083467E
:101DE0000D4614469A461C9E07961D9F089732463C
:101DF0003B463046394607F0A9F9002800F00C812F
:101E00004FF0FF32AE4B3046394607F0C7F9002895
:101E100040F002814FF0FF326FF4801330463946B4
:101E200007F09EF9002840F0F78000220023079E6B
:101E30003046089F394607F093F9002840F0FF80AC
:101E4000079A089B09921093209B13F480631193C7
:101E500001D106231E93099A109BC3F30A50C3F3C2
:101E60001303164643F07F5747F44017A0F2FF30A4
:101E700007F0ACF882A3D3E9002307F099F982A315
:101E8000D3E9002306F056FF8046894600228D4B99
:101E90003046394606F04CFF7DA3D3E9002307F016
:101EA00087F902460B464046494606F043FF07F0D5
:101EB00091FB814607F08AF806460F4676A3D3E9E0
:101EC000002307F075F900227F4B06F033FF07F07F
:101ED00081FB804672A3D3E900233046394607F0E0
:101EE00067F906460F46404607F070F86EA3D3E93F
:101EF000002307F05DF902460B463046394606F0EE
:101F000017FF06460F4602460B4607F051F9CDE98A
:101F10000C0108F2FF3800210022CDE90A124FEA35
:101F200008510B9100210A9132463B463046394612
:101F300006F000FFCDE90E0132463B4600204FF08F
:101F4000804106F0F5FE06460F4600225F4BDDE9B4
:101F50000C0107F057FA00225D4B06F0EBFE02463B
:101F60000B46DDE90C0107F04DFA0022594B06F053
:101F7000E1FE02460B46DDE90C0107F043FA02469A
:101F80000B463046394606F0D5FE02460B46DDE9E3
:101F90000E0107F037FA00224F4B06F0CBFEDDE9C9
:101FA0000A2307F005F906460F46CDE90A67099AA4
:101FB000109B07F0F3F848B109F1FF390022444BB8
:101FC0003046394607F01EFACDE90A0109F16303EC
:101FD000C62B39D80426209B13F4006F3ED034A3BF
:101FE000D3E90023DDF824804046109F394607F0EE
:101FF000CBF8002837D030A3D3E900234046394638
:1020000007F0AEF800282ED01E9B4B451EDDA3EB3B
:102010000903013B1E931BE0209B04931F9B03932A
:102020001E9B0293079A089BCDE900235346224644
:102030002946584600F0BCF813B0BDE8F08F099669
:1020400007F100431093FFE60526C4E700231E9323
:10205000209B43F4806320930026B1461F9B9E4241
:102060003CD29F1B3BE01E9B002BF7D0119B002B0B
:10207000F4D01E9B013B1E93F0E700BFAFF300803E
:10208000FB799F501344D33FB3C8608B288AC63F67
:1020900061436F63A787D23F71A379094F930A40C9
:1020A0001655B5BBB16B0240EF39FAFE422EE63F42
:1020B0002D431CEBE2361A3F0000000080842E41C5
:1020C000FFFFEF7F0000F83F0000E03F00002C40E2
:1020D00000002440000018400000F03F0027209B33
:1020E00013F0020801D006B10027B9F1000F07D0A4
:1020F000DDE90A230998109907F084F909901091F5
:10210000002200230798089907F02AF800283BD1FD
:10211000209B23F40063049303971E9B0293099A68
:10212000109BCDE90023534622462946584600F02D
:102130003FF8002E80D0209B13F0200F29D0452798
:10214000431C07935346024629463846D84789EA36
:10215000E973A3EBE97305220592013E0496002280
:1021600003920A2202924FEAD970019000935346DB
:10217000079A29465846FFF77EFDB8F1000F3FF455
:102180005BAF02461F9F0CE0109901F100431093D2
:10219000BEE76527D4E7561C534629462020D8477A
:1021A0003246131BBB42F6D3104645E70000000041
:1021B0002DE9F04F97B007900A9192469B46DDE9D2
:1021C0002089229D42464B464046494606F0BEFFC6
:1021D00000283FD04FF0FF326FF48013404649464D
:1021E00006F0BEFF002844D14FF0FF32AC4B404612
:1021F000494606F0D3FF00284AD1A5A3D3E900231E
:102200004046494606F0CAFF002859D1A2A3D3E9A7
:1022100000234046494606F0A3FF002850D1002283
:1022200000234046494606F09BFF002856D1002374
:102230000B93249B13F4806F5BD000241F2C5AD87F
:10224000092D58D916AB2344302203F8202C013D28
:102250000134F3E7249B0393239B0293032301930D
:10226000904B00935B4652460A990798FFF728FC6B
:1022700009E1249B0393239B0293042301938A4B3C
:1022800000935B4652460A990798FFF719FCFAE05B
:10229000249B13F004030FD0844A7BB104232499B8
:1022A000039123990291019300925B4652460A9949
:1022B0000798FFF705FCE6E07D4AEEE70323EEE72B
:1022C000249B0493239B03930295CDE900895B46ED
:1022D00052460A990798FFF77FFDD4E042464B46E5
:1022E0000020002106F024FD8046894601230B933F
:1022F0009FE70625A1E74046494607F06BF90646E9
:1023000006F064FE02460B464046494606F010FDC4
:10231000684B03EBC503D3E90023CDE90C2306F09A
:1023200047FF02460B46CDE9082307F07BF9074635
:1023300006F03CFE02460B46DDE9080106F0F8FC1B
:1023400002460B46CDE9082300225B4B06F026FF30
:1023500050B30137384606F029FE02460B46DDE948
:102360000C0106F007FF08B10136002755BB3046C7
:1023700006F02CFE02460B464046494606F0D8FCC5
:102380000746884600224C4B06F0EAFE38B1002290
:10239000494B3846414606F001FF00283ED016F072
:1023A000010F3BD0013639E00022434BDDE9080143
:1023B00006F0D6FE0028D9D117B117F0010FD5D0FD
:1023C0000137D3E71F2C15D8013D3C4BA3FB072356
:1023D000DB08194603EB8303A7EB43033033621C8E
:1023E00016A8044404F8203C092F02D90F461446CD
:1023F000E8E714461F2C09D86B1E3DB116AA2244EB
:10240000302102F8201C1D460134F3E71F2C05D8AB
:1024100016AB23442E2203F8202C01341F2C15D890
:10242000274A82FB0632F317C3EBA2031A4603EBDB
:102430008303A6EB43033033611C16A8044404F85D
:10244000203C16460AB10C46E8E70C46249B03F0F4
:102450000303012B36D01F2C08D80B9B002B4DD02B
:1024600016AB23442D2203F8202C0134249B039324
:10247000239B029301940EAB00935B4652460A994C
:102480000798FFF71DFB17B0BDE8F08FAFF3008092
:102490000000000065CDCD410000000065CDCDC13C
:1024A000FFFFEF7FC4A80008C8A80008BCA8000868
:1024B000B8A8000850B800080000E03FCDCCCCCC54
:1024C00067666666239BABB10B9B1BB9249B13F01D
:1024D0000C0F11D0239B013B2393194605E016AB4B
:1024E0002344302203F8202C01348C42B3D21F2C19
:1024F000F5D9B0E72399F8E72399F6E7249B13F081
:10250000040F06D016AB23442B2203F8202C0134F1
:10251000ACE7249B13F0080FA8D016AB234420226D
:1025200003F8202C0134A1E72DE9F04F8FB00746C6
:1025300016460D938846002900F02D8300240D9B3C
:1025400093F90000002800F02883252809D0651C95
:10255000334622464146B8470D9B01330D932C4626
:10256000EDE701330D9300250D9B93F90010A1F1C8
:102570002002102A0AD8DFE802F03A09093F0909C7
:10258000090909090935093009092B00A1F13003AE
:10259000DBB2092B35D92A2938D000230A930D9BA9
:1025A00093F900202E2A41D04FF0000B0D9A92F99A
:1025B0000030683B122B7AD8DFE803F06679D779D0
:1025C0005779797979797979757979797979DC00B7
:1025D00045F0010501330D93C6E745F002050133CF
:1025E0000D93C1E745F0040501330D93BCE745F0B9
:1025F000080501330D93B7E745F0100501330D933E
:10260000B2E70DA8FFF748FA0A90C8E7189B1A1D11
:1026100018921868002804DB0A900D9B01330D9373
:10262000BDE745F0020543420A93F6E745F48065AD
:102630005A1C0D9293F90120A2F13003DBB2092B51
:1026400004D92A2A07D04FF0000BAFE70DA8FFF7F7
:1026500023FA8346AAE7189B1A1D18921B6823EADF
:10266000E37B0D9B01330D93A0E745F48071531C70
:102670000D9392F901206C2A01D00D4617E045F424
:10268000407501330D9312E045F08001531C0D930A
:1026900092F90120682A01D00D4608E045F0C005F6
:1026A00001330D9303E045F4807501320D920D9BCB
:1026B00093F90000A0F12503532B00F26282DFE8BA
:1026C00013F0550260026002600260026002600264
:1026D00060026002600260026002600260026002EA
:1026E00060026002600260026002600260026002DA
:1026F00060026002600260026002600260026002CA
:1027000060027401540174016002600260026002A0
:1027100060026002600260026002600260026002A9
:1027200060026002600260025E006002600260029D
:102730006002600260026002600260025E009B0153
:102740005E0074015401740160025E006002600268
:102750006002600260025E003A0260026002D5011F
:1027600060025E00600260025E0045F400750132A6
:102770000D929CE745F4807501320D9297E7782819
:1027800009D058283AD06F283AD062283AD025F09C
:1027900010050A2300E01023582835D0692803D0FB
:1027A000642801D025F00C0515F4806F01D025F0C8
:1027B000010569282BD0642829D015F4007F40F04A
:1027C000978015F4807F40F0AE8015F0400F00F048
:1027D000BF80189A111D1891127805950A990491D5
:1027E000CDF80CB0029300230193009233462246A9
:1027F00041463846FFF73FFA04462AE01023CBE76C
:102800000823C9E70223C7E745F02005C6E715F40A
:10281000007F22D115F4807F43D115F0400F59D0AD
:10282000189A111D189192F9002082EAE271A1EB29
:10283000E27105950A980490CDF80CB00293D20F7E
:10284000019200913346224641463846FFF713FA7B
:1028500004460D9B01330D9371E6189A073222F05E
:10286000070202F108011891516812680846002910
:1028700013DB08950A9D0795CDF818B00493002343
:102880000593C90F029100920190334622464146BA
:102890003846FFF73FFA0446DBE7524261EB41005E
:1028A000E7E7189A111D1891126882EAE271A1EB0C
:1028B000E27105950A980490CDF80CB00293D20FFE
:1028C000019200913346224641463846FFF7D3F93C
:1028D0000446BEE715F0800F05D0189A111D189117
:1028E000B2F90020A1E7189A111D189112689CE70F
:1028F000189A073222F0070202F108011891089590
:102900000A990791CDF818B000210493059102911E
:102910000CCACDE900233346224641463846FFF72C
:10292000F9F9044695E7189A111D189105950A9929
:102930000491CDF80CB00293002301931368009327
:102940003346224641463846FFF795F9044680E76C
:1029500015F0800F04D0189A111D189112883CE7C9
:10296000189A111D1891126837E746281AD0189B3B
:10297000073323F0070303F10802189204950A9A1B
:102980000392CDF808B0D3E90023CDE90023334604
:10299000224641463846FFF70BFC04460D9B0133A7
:1029A0000D93CCE545F02005E1E7672801D04728E5
:1029B00001D145F40065452801D0472801D145F0F3
:1029C0002005189B073323F0070303F10802189230
:1029D00004950A9A0392CDF808B0D3E90023CDE913
:1029E00000233346224641463846FFF7F5F90446B0
:1029F0000D9B01330D93A2E515F0020520D04FF099
:102A000001091898031D189304F1010A3346224660
:102A1000414690F90000B847BDB90D9B01330D93B5
:102A200054468CE502F1010A334641462020B8475E
:102A30004B46524603F101099B45F3D81446E0E7A3
:102A40000123DDF828B02246F4E75246DDF828A03D
:102A500006E0551C334641462020B847A1462A4689
:102A600009F10104CA45F4D89246D6E7189B1A1D0D
:102A70001892D3F800A0BBF1000F1ED14FF0FF3326
:102A8000D14602E009F10109134699F9002012B17B
:102A90005A1E002BF6D1A9EB0A0915F480630B939B
:102AA00002D0D94528BFD94615F002030C9306D0B1
:102AB00022465C46B3460B9E1DE05B46E0E722469D
:102AC0000A9C4B4607E002F10109334641462020AB
:102AD000B8472B464A465D1C9C42F4D8A9465C4642
:102AE000B3460B9E07E01C460AF1010A551C5B46E3
:102AF0004146B8472A469AF9000020B1002EF3D08B
:102B0000631E002CEFD114465E460C9B1BB90D9B37
:102B100001330D9313E5DDF828A006E0551C33467C
:102B200041462020B847A1462A4609F10104CA457A
:102B3000F4D81446EBE745F02105189B1A1D1892AE
:102B40001B68059508220492CDF80CB01022029261
:102B50000022019200933346224641463846FFF751
:102B60008AF804460D9B01330D93E8E4651C334657
:102B7000224641462520B8470D9B01330D932C4634
:102B8000DDE4651C334622464146B8470D9B0133C0
:102B90000D932C46D3E4074FD0E4B44201D3721E08
:102BA00000E02246334641460020B84720460FB099
:102BB000BDE8F08F971A000882B0064B5A6942F0C0
:102BC00040025A615B6903F040030193019B02B02C
:102BD000704700BF0010024010B5002406E0064B0D
:102BE0005B6853F8243098470134A4B2024B1B8829
:102BF000A342F4D810BD00BF1C230020F8B5044642
:102C00000E4615461F460023037064230122294601
:102C10003046FEF7B9F848B966602572FF23237085
:102C2000BDF81830A3811FB1102363812046F8BD81
:102C300001236381FAE770B504460E46154600236A
:102C400003706423012229463046FEF79DF838B907
:102C500066602572FF23237004F5005300229A72E8
:102C6000204670BD30B5ADF5005D85B004460D461B
:102C7000782201A8FFF7DFFF9DF80430FF2B09D071
:102C80007A2229462046FFF7D6FF20460DF5005D43
:102C900005B030BD42F20C0201A9204607F050FAFF
:102CA000F3E700F500539B7A002BFAD17047802898
:102CB0000FD880290FD8C90189B2014488B2C1F365
:102CC0004E01118080F0010202F001021A70FF2013
:102CD00070470020704700207047000082B00191CB
:102CE0009DF804209DF80530B62101FB03F3362141
:102CF00001FB02339DF8062002EBC20203EB420304
:102D0000084AA2FB03129B1A02EB5303C3F3C72327
:102D100000F50052D3720F2B01D90F23D37202B0EA
:102D2000704700BF0101100010B582B0044608468C
:102D300011460DF105030DF10602FFF7B8FF80B152
:102D40009DF805307BB1BDF806202244937A03F04C
:102D50000F03937204F50054E17A0901C9B20B43E1
:102D6000937202B010BDBDF806202244937A03F09E
:102D7000F003937204F50054E17A01F00F010B4364
:102D80009372EEE710B584B004460846114600235E
:102D90008DF808308DF809308DF80A300DF10503F3
:102DA0000DF10602FFF783FF28B39DF805304BB302
:102DB000BDF806002044837A1B0903EB0313DBB242
:102DC0008DF808308DF809308DF80A30029BADF887
:102DD0000C301B0C8DF80E3000209DF80C3063F386
:102DE00007009DF80D3063F30F209DF80E3063F35C
:102DF000174004B010BD029BADF80C301B0C8DF8D1
:102E00000E30E9E7BDF806002044837A03F00F0393
:102E1000D3E7802070478020704700F500539B7AED
:102E20001BB100F5005000238372704708B502689B
:102E3000034B9A4200D008BD0248FFF7EEFFFAE7C5
:102E4000005400401003002010B590F83D30DBB274
:102E500090F83E20D2B2C46A018D09B9212B05D069
:102E6000212B38D0402A34D0002010BD042C04D0AF
:102E7000082C02D014F5803F17D10268536823F460
:102E8000E06353600268136843F400731360002327
:102E90000363202380F83D3090F83E30DBB2402BB6
:102EA00011D0002380F83E30DEE70268536823F437
:102EB000E063536011230363002380F83E30202336
:102EC00080F83D30D0E7002380F83E30FFF7AEFFBA
:102ED000CAE7222BC8D1438D9BB22BB90268536835
:102EE00023F480635360BFE790F83E30DBB2402BA1
:102EF0000BD0436A5A1C426202681B781361438DEF
:102F00009BB2013B9BB24385AEE7036D9BB9C36C9B
:102F1000012B08D0836C0268C3F307231361036D90
:102F200001330365A0E7836C0268DBB21361036DB4
:102F30000233036598E7036D012B18D0036D022B54
:102F400092D190F83D30DBB2222B18D090F83D3072
:102F5000DBB2212B88D1436A5A1C426202681B787B
:102F60001361438D9BB2013B9BB243857CE7836C2D
:102F70000268DBB21361036D0133036574E7026815
:102F8000136843F4807313606EE708B5C26A90F863
:102F90003D30DBB2212B01D0002008BD438D9BB218
:102FA0005BB1436A5A1C426202681B781361438D0D
:102FB0009BB2013B9BB24385EEE7042A04D0082A6A
:102FC00002D012F5803F17D10268536823F4E06302
:102FD00053600268136843F40073136000230363B3
:102FE000202380F83D3090F83E30DBB2402B11D0EA
:102FF000002380F83E30CFE70268536823F4E06393
:10300000536011230363002380F83E30202380F8AF
:103010003D30C1E7002380F83E30FFF707FFBBE7F4
:10302000F8B5044603689F695E695D6890F83E30B4
:10303000DBB2102B25D0402B23D04C4B334013B1A7
:1030400015F4007F6ED14A4B334013B115F4007F65
:103050006BD1484B3B40002B6FD0474B334033B1D3
:1030600015F4806F03D0454B3340002B61D0434BA8
:10307000334053B315F4007F27D02046FDF705FCFD
:1030800023E016F0011F02D015F4007F1ED13C4B47
:10309000334013B115F4007F1CD1344B334013B1CE
:1030A00015F4007F1AD1334B3B401BB3324B3340F6
:1030B0002BB115F4806F02D0304B334093B12F4BBE
:1030C000334013B115F4007F10D1F8BD2046FDF751
:1030D00082FAE8E72046FDF7C2FAE4E72046FDF76A
:1030E000C4FAE0E72046FFF7AFFEEEE72046FFF721
:1030F0004CFFEAE7234B33402BB115F4806F02D02D
:103100001E4B334053B11D4B3340002BDDD015F423
:10311000007FDAD02046FDF7E4F9D6E72046FDF738
:103120007DF9D2E7FDF7F8FBCFE72046FDF74AFD32
:10313000CBE72046FDF786FBC7E7124B33402BB1A8
:1031400015F4806F02D00D4B334053B10B4B33401D
:10315000002BBAD015F4007FB7D02046FDF7CCFB8A
:10316000B3E72046FDF7A1FBAFE700BF0200010077
:1031700010000100040010008000010004000100A4
:10318000080001004000010038B504461D460160FA
:1031900042608360049BC360059B0361069B43619F
:1031A000079B836190470138A083A8470138E083DB
:1031B000BDF820209DF82230A4F8232084F8253083
:1031C000204638BD00B583B0019101840B0C80F816
:1031D0002230C368016A0068984703B05DF804FBB9
:1031E00082B0036AADF804301B0C8DF80630002065
:1031F0009DF8043063F307009DF8053063F30F205A
:103200009DF8063063F3174002B0704708B5838B12
:103210008B4205D3C38B934202D30369006898475E
:1032200008BD08B583690068984708BD08B54368BC
:10323000984708BD08B58368984708BDF8B51E468D
:10324000C38BB34217D3054614468A4228BF0C46A7
:10325000878BA7420FD38A4238BF0A46974208D3CA
:10326000174606E0324621462846FFF7CFFF0134D5
:10327000A4B2A742F6D2F8BDF8B50E46818BB14292
:1032800017D305461C46934228BF1446C78BA74256
:103290000FD3934238BF13469F4208D31F4606E020
:1032A000224631462846FFF7B1FF0134A4B2A742B7
:1032B000F6D2F8BD2DE9F0470446BDF820C01E4601
:1032C0008B4228BF0E46808BB04207D36746944599
:1032D00028BF1746B4F81EE0BE4501D2BDE8F0870E
:1032E0008B4238BF0B461D46944538BF9446E14695
:1032F000984228BF18468046E64528BFE646F24673
:103300003B46024631462046FFF798FF53463A4671
:1033100031462046FFF7B0FFA38BAB4209D2E38BC7
:103320004B45DBD35346424631462046FFF786FFE6
:10333000D4E753463A4641462046FFF79DFFEEE765
:103340002DE9F04F85B004460E4693461D46BDF864
:103350003870FFF745FF8DF80C00C0F307238DF898
:103360000D30C0F307408DF80E00A946B54228BFC6
:10337000B146A38B4B4507D3BA465F4528BFDA4613
:10338000B4F81E80D04502D205B0BDE8F08FB5423A
:1033900038BF35465F4538BF5F46AB4228BF2B4636
:1033A0000193B84528BFB84609F1010B1FFA8BFB02
:1033B0000AF10106B6B20F992046FFF703FF534604
:1033C000019A49462046FFF739FF4346524649468F
:1033D0002046FFF751FFA38BAB4212D2019DE38B36
:1033E000BB4217D2A38B5B4506D3E38BB34203D317
:1033F0005D4501D3B04519D203992046FFF7E2FE9F
:10340000C2E701994D1EADB2434652462046FFF732
:1034100033FFE4E708F1FF3A1FFA8AFA4346019ABC
:1034200049462046FFF70AFFD046DBE710992046C1
:10343000FFF7C8FE07E033462A4659462046FFF705
:10344000FDFE0136B6B2B045F5D203992046FFF72E
:10345000B9FE99E730B587B005460591FFF7E6FE5E
:10346000441EA4B22846FFF7E5FE431E9BB2059A10
:10347000ADF80820110C8DF80A10ADF804208DF875
:10348000061000932346002211462846FFF758FFF6
:1034900007B030BD08B590F8232090F8241042EA18
:1034A000012290F8251042EA0141FFF7D3FF08BD41
:1034B00003888B4219D9B0F802C0944517D94FEA56
:1034C000D30C13F0070F01D00CF1010CCB080CFB4F
:1034D000023201F00701012303FA01F14368985C0D
:1034E000084000D17047FF2070470020704700203F
:1034F000F8E72DE9F04F89B00190884693461A46C7
:103500000293BDF84890BDF84C1004919DF85830D6
:103510000593838B5B4566D3C38B934263D3B8F823
:10352000007007FB09F7B8F8023003FB01F30393BF
:10353000149BADF818301B0C8DF81A30BDF85420D0
:103540009DF85630ADF81B208DF81D30002504E0A5
:10355000059B022B05D10135EDB2012D43D8002D7D
:10356000F6D0012D02D1059B012BF4D005EB4503CC
:1035700008AA134413F8081C13F8072C41EA022187
:1035800013F8063C41EA034121F07F410198FFF71F
:1035900019FE4FF0000A1DE0A8B1029B03EB0A02DE
:1035A0000BEB040192B289B20198FFF72FFE0134B0
:1035B000BC420DD2B4FBF9F1324689B24046FFF766
:1035C00077FF002DE8D0012DF1D10028EFD1E4E7FD
:1035D0000AF1010A039B9A45BDD2049BBAFBF3F69C
:1035E000B6B20024E4E709B0BDE8F08F2DE9F04160
:1035F00088B005460C4616461F460B681A78ADF88B
:103600001A205B689DF8388040469847ADF818004E
:1036100023689B68404698470790A388E268216921
:1036200060690078049008888978ADF80C008DF8FE
:103630000E1011889278ADF808108DF80A200193C9
:1036400000933B46324606A92846FFF752FF08B0D2
:10365000BDE8F081062070471F2806D9203800EB0E
:103660004000034B03EB800070470248704700BFE7
:1036700040AD0008C0B700080C220270024A426048
:10368000024A8260704700BF55360008593600086C
:10369000044B93F82130013B984201D8FF2070473A
:1036A00000207047E4000020044A1178044B19718F
:1036B0005178597192789A71704700BF900000203C
:1036C0000C020020024B002283F84420704700BF08
:1036D0000C02002008B5FFF7F5FF08BD014B0222E0
:1036E0001A7070473E23002010B5002406E0064BF8
:1036F0001B6853F8243098470134E4B2034B1B781D
:10370000A342F4D810BD00BF682300206C23002022
:1037100000B589B00C23ADF81830ADF81A30E0B11F
:103720000F4B0793002304930E4A1268ADF80C2048
:10373000120C8DF80E200C4A1268ADF80820120CFD
:103740008DF80A20012201920092742206A90748EE
:10375000FFF7CFFE09B05DF804FB054B0793E1E7E7
:10376000B8B800084423002048230020D4240020B7
:10377000A0B8000882B001909DF804209DF80530A3
:10378000C3EB031398004FF4616303FB02009DF841
:103790000630184402B0704782B0164BA3FB0023DA
:1037A000C3F3C7238DF800304FF4616202FB1300AE
:1037B000114BA3FB0023C3F347138DF80130C3EB78
:1037C0000313A0EB83008DF80200009BADF80430DA
:1037D0001B0C8DF8063000209DF8043063F30700C1
:1037E0009DF8053063F30F209DF8063063F3174012
:1037F00002B07047C5B3A2918988888810B582B09D
:1038000001900091FFF7B6FF04460098FFF7B2FF62
:10381000844204D005D34FF0FF3002B010BD002029
:10382000FBE70120F9E7000038B5104CE38F94F86E
:10383000401043EA01416068FFF7E0FF054694F855
:10384000413094F8421043EA012394F8431043EACC
:1038500001416068FFF7D2FF012D03D0012803D09A
:10386000002038BD0120FCE70220FAE70C0200200E
:1038700010B584B001900091FFF77CFF04460098DA
:10388000FFF778FF2044FFF787FF8DF80C00C0F3A7
:1038900007238DF80D30C0F307408DF80E0000208F
:1038A0009DF80C3063F307009DF80D3063F30F2093
:1038B0009DF80E3063F3174004B010BD10B584B00E
:1038C00001900C46FFF756FF001BFFF765FF8DF8D0
:1038D0000C00C0F307238DF80D30C0F307408DF8BE
:1038E0000E0000209DF80C3063F307009DF80D30AA
:1038F00063F30F209DF80E3063F3174004B010BD42
:1039000010B584B0FFF748FF8DF80C00C0F3072313
:103910008DF80D30C0F307408DF80E001F4C94F861
:10392000370094F8383040EA032094F8393040EA00
:10393000034094F83D1020F07F40FFF7BFFF8DF863
:103940000800C0F307238DF80930C0F307408DF855
:103950000A00B4F8372094F83930ADF804208DF817
:10396000063002990398FFF749FF01280ED003990A
:103970000298FFF743FFB0F1FF3F0AD00199039887
:10398000FFF73CFF012806D0022000E0002004B031
:1039900010BD0220FBE70120F9E700BF0C02002068
:1039A00010B582B004462D4B93F84830012B2CD92A
:1039B000022B42D1294B598F93F83CC093F8372002
:1039C00093F8380042EA002293F8390041EA0C41AA
:1039D00042EA0040FFF74CFF8DF80400C0F30722D5
:1039E0008DF80520C0F307438DF806302146019875
:1039F000FFF764FF8DF80000C0F307238DF8013056
:103A0000C0F307408DF8020017E0144A92F83730EF
:103A100092F8380043EA002392F83900214643EA3D
:103A20000040FFF74BFF8DF80000C0F307238DF82F
:103A30000130C0F307408DF80200084C009960681F
:103A4000FFF716FF84F84900C0F3072384F84A30D3
:103A5000C0F3074084F84B0002B010BD0C020020F8
:103A600000B585B0019000910846FFF783FE01463E
:103A70000198FFF723FF8DF80C00C0F307238DF8A2
:103A80000D30C0F307408DF80E0000209DF80C307B
:103A900063F307009DF80D3063F30F209DF80E309F
:103AA00063F3174005B05DF804FB000030B583B048
:103AB000244BDA8F93F8401042EA01415868FFF72F
:103AC0009DFE01283BD01F4DEB8F95F8401043EA37
:103AD00001416868FFF7C4FF8DF80000C0F30723B9
:103AE0008DF80130C0F307408DF802000098FFF711
:103AF00041FE04466A8F95F83C1095F8373095F8EA
:103B0000380043EA002395F8390042EA014143EACC
:103B10000040FFF7ADFE8DF80400C0F307238DF8D9
:103B20000530C0F307408DF806000198FFF722FE2C
:103B3000B4FBF0F300FB134000B203B030BD4FF014
:103B4000FF30FAE70C020020094B1B881BB1013B38
:103B5000074A13807047074B1B78022B00D0704731
:103B6000044B01221A70044B00221A70F7E700BFC1
:103B70002A240020E4230020282400200FB400B5CC
:103B800083B004AB53F8042B01938021074806F05F
:103B900033FB002804DC03B05DF804EB04B070478D
:103BA00001460248FDF76FFFF5E700BF342400200F
:103BB000F8B504460D4617461E462748FFF7DEFFB8
:103BC00021682648FFF7DAFF61682548FFF7D6FF2E
:103BD000A1682448FFF7D2FFE1682348FFF7CEFF32
:103BE00021692248FFF7CAFF61692148FFF7C6FF34
:103BF000A1692048FFF7C2FFE1691F48FFF7BEFF38
:103C00001E48FFF7BBFF29461D48FFF7B7FF1D4CB5
:103C1000E16A1D48FFF7B2FF216B1C48FFF7AEFFBA
:103C2000E16B1B48FFF7AAFF15F0800F0AD115F4CE
:103C3000004F0CD11748FFF7A1FF06991648FFF770
:103C40009DFFF8BD39461548FFF798FFEFE731466D
:103C50001348FFF793FFEDE7D0A80008E0A800089D
:103C6000F0A8000800A9000810A9000820A9000871
:103C700030A9000840A9000850A9000860A9000860
:103C80006CA9000800ED00E07CA900088CA90008E0
:103C90009CA90008CCA90008D4A90008ACA9000878
:103CA000BCA900080EB400B584B0014605AA52F8BC
:103CB000043B039200924FF0FF320448FEF734FCBD
:103CC00004B05DF804EB03B0704700BF8F1A000822
:103CD00010B58EB0044623496846FFF7E3FF002382
:103CE0008DF81430204A069201228DF81C20FF2105
:103CF0008DF81D108DF81E308DF81F308DF82020A6
:103D00008DF821308DF8223004228DF823208DF893
:103D1000243005228DF82520144A0A920A228DF8B3
:103D20002C208DF82D308DF82E300D228DF82F207F
:103D30008DF830308DF831300D93A646EC46BCE856
:103D40000F00AEE80F00BCE80F00AEE80F00BCE8C3
:103D50000F00AEE80F009CE803008EE80300204649
:103D60000EB010BDECA90008E0673500000040402F
:103D700000B585B0039008469DF80E3000939DF87D
:103D80000D309DF80C200349FFF78CFF05B05DF85E
:103D900004FB00BFF8A900080CB410B584B00A46B3
:103DA00006AC54F8043B0394009401460348FEF724
:103DB000BBFB04B0BDE8104002B070478F1A00088A
:103DC00010B5044606F0E4F901462046FDF75BFE17
:103DD00001210248FDF757FE10BD00BF68A9000889
:103DE00038B583691B888B4201D0002038BD04465A
:103DF00003684568013B302B69D8DFE803F04621B2
:103E00001C1C5E30332D1919681919191919361926
:103E10002468192768396868686868686868686825
:103E20006868686868686868686868686819190018
:103E30004FF0FF330360A3690233A3610120D5E78C
:103E400000230360F7E700230360F4E700232B60FF
:103E50006B60AB60EB60EEE700230360EBE7AB6801
:103E60000360E8E700230360E5E700230360E2E77F
:103E7000BFF34F8F1749CA6802F4E062164B134331
:103E8000CB60BFF34F8F00BFFDE71449286806F0F1
:103E90006DF940B96B6813B901232360CBE7042B9C
:103EA00005D0082B06D04FF0FF332360C3E7022371
:103EB0002360C0E703232360BDE72B68023B012B8F
:103EC00002D9AB680360B6E700230360B3E70020C4
:103ED0008CE700BF00ED00E00400FA0508AA000826
:103EE00008B506F025F908BD064B1B7803B97047E5
:103EF00010B5054C206806F01BF900232360014A29
:103F0000137010BD2C2400203024002008B5016857
:103F1000CA6822F04002CA60202280F83920FFF7E8
:103F2000E3FF002008BDF8B507460E461446501CB6
:103F300006F0F6F805462246B91906F001F9002305
:103F40002B552846F8BD000008B5002006F0E8F81B
:103F5000014B586008BD00BF1C2300202DE9F84329
:103F600005460E46144612F0030F06D19208FCF7E0
:103F7000E7F904462046BDE8F8834FEA920808F1C5
:103F800001084FEA8809484606F0CAF807464A463B
:103F9000002105F0FFFF22463146384606F0D0F8F2
:103FA000424639462846FCF7CBF90446384606F027
:103FB000BFF8DFE738B504464568002343600822B0
:103FC00001460448FFF7CAFF6560854214BF002020
:103FD000012038BD8400002038B50446D0F82451B3
:103FE0000023C0F824314FF4947201460448FFF7CF
:103FF000B5FFC4F82451854214BF0020012038BD0C
:104000008400002038B50446456B00234363382202
:1040100001460448FFF7A2FF6563854214BF0020F4
:10402000012038BD8400002070B584B004462D4DB9
:104030002D4B1B68ADF808301A0C8DF80A20ADF82E
:1040400004308DF80620092600963D230422002125
:104050002846FFF775F900963D23042201212846E2
:10406000FFF728F9214B1B68ADF808301A0C8DF8C2
:104070000A20ADF804308DF80620082300930123B0
:10408000052200212846FFF75BF91949204605F073
:10409000F7FB0446002105F0AFFD08B904B070BD80
:1040A0004FF07C51204605F0E3FA04F0A1FF04F044
:1040B000BFFD05F0B7FA81B2C1F13B010B4B1B68A4
:1040C000ADF808301A0C8DF80A20ADF804308DF8E0
:1040D0000620072300933B23062289B22846FFF7D8
:1040E0002FF9DBE7D42400204423002048230020BC
:1040F0000000604208B503460C4A12685AB10B4AE8
:104100001068033323F003030344094A934206D89B
:10411000064A136008BD054A06491160EFE705F03D
:10412000F9FE0C2303604FF0FF30F3E7CC240020AE
:10413000004C00204025002000B530B9044D182463
:1041400020462946ABBE0446FEE7024DF7E700BF16
:10415000260002002300020008B50348FFF730FEE6
:104160000120FFF7E9FF00BF0CAA000808B50A46C6
:1041700001460248FFF702FDFFF7EEFF20AA000804
:1041800070B505460C4616460F2A25D80F2C28D8A0
:104190001B4BDB68C3F30223C3F10701042928BFCB
:1041A00004211A1D062A21D9033B4FF0FF3202FADF
:1041B00001F124EA01049C4002FA03F326EA030613
:1041C0003443002D14DB2401E4B205F1604505F50C
:1041D000614585F8004370BDBA210A48FFF7C6FF64
:1041E000D4E7BB210748FFF7C1FFD1E70023DCE795
:1041F00005F00F052401E4B2034B5C55EBE700BF6B
:1042000000ED00E04CAA000814ED00E010B50446F3
:104210000C4B18680C4BA3FB00308009FCF77CF8B2
:1042200068B90F2C01D901200AE0002221464FF085
:10423000FF30FFF7A5FF054B1C60002000E00120C8
:1042400010BD00BF00000020D34D621030250020BB
:1042500010B5041E08DB04F01F026409012393401B
:10426000044A42F8243010BDCE210348FFF77EFFF8
:10427000F1E700BF00E100E04CAA000810B5041E01
:1042800009DB04F01F026409012393402034044A2F
:1042900042F8243010BDDE210248FFF767FFF0E747
:1042A00000E100E04CAA0008A0B110B50446026885
:1042B000094B9A4203D077210848FFF757FF6379EB
:1042C0001BB101236371002010BD23712046FEF74E
:1042D00073FCF6E701207047003002407CAA00081A
:1042E0002DE9F04383B080460E46844B984213D0AC
:1042F00003F5806398420FD003F5806398420BD09A
:1043000003F58063984207D003F58063984203D099
:10431000CD217B48FFF72AFF33689AB212B11B0CFC
:104320001B041BB1CE217648FFF720FF7368012BD9
:1043300040F28881112B00F08981022B00F08A81E4
:10434000122B00F08B816F4A934200F08B8102F5B3
:104350008012934200F08A8102F58012934200F0AD
:104360008981A2F5F812934200F0888102F580124B
:10437000934200F0878102F58012934200F086811B
:10438000032B03D14FF000094D46EDE0CF215C48EF
:10439000FFF7ECFE4FF000094D46E5E05A4A934224
:1043A00010D007D9594A93420CD002F5803293427B
:1043B00008D019E0A2F58012934203D002F57022D2
:1043C00093420DD1B368022B7ED8B368002B00F066
:1043D0008980012B7ED0C8F814404FF0080903E013
:1043E000A2F580129342EDD0FF2F7ED84046FF2FDA
:1043F0007ED8AA0003680F21914023EA010309FA3D
:1044000002F213430360736813F0805F00F0AB8027
:104410003F4B9A6942F001029A619B6903F00103E4
:104420000193019BAA08911C3A4B53F8210005F017
:10443000030399000F238B4020EA03002F4B98457C
:104440006AD003F58063984500F0E08003F580634F
:10445000984500F0DD8003F5806398454CD0042337
:104460005BE0F368013B022B02D8D6F80C90BBE767
:10447000E5212348FFF77AFEF7E7F368013B022BBB
:1044800003D8F36803F10409AEE7EC211C48FFF7F9
:104490006DFEF6E7F368013B022B03D8F36803F1E6
:1044A0000809A1E7F3211648FFF760FEF6E7F36875
:1044B000013B022B03D8F36803F10C0994E7FA21BE
:1044C0000F48FFF753FEF6E740F207110C48FFF7DD
:1044D0004DFE7AE7C8F810404FF0080984E74FF026
:1044E000000981E74FF004097EE708F104007EE748
:1044F000A5F1080292007DE703230EE000080140C9
:10450000A8AA0008000011100000221000003110BD
:10451000001002400000014000238B4003430232A0
:104520005E4941F82230736813F4803F72D05C4AD0
:1045300013683B431360736813F4003F70D0584A0C
:1045400053683B435360736813F4801F6ED0544A22
:1045500093683B439360736813F4001F6CD0504A18
:10456000D3681F43D76001350F2D00F293800124DB
:10457000AC40336803EA040734EA0303F3D1494B40
:10458000984513D003F5806398450FD003F58063F9
:1045900098450BD003F58063984507D003F58063F9
:1045A000984503D0DD214048FFF7E0FD7368122BEA
:1045B0003FF6F4AE122B3FF617AF01A252F823F0EC
:1045C000C54300086344000895440008DF44000820
:1045D000E9430008E9430008E9430008E94300080B
:1045E000E9430008E9430008E9430008E9430008FB
:1045F000E9430008E9430008E9430008E9430008EB
:10460000E94300087B440008AF440008012384E725
:10461000022382E7224A136823EA070313608AE72A
:104620001F4A536823EA070353608CE71C4A9368C8
:1046300023EA070393608EE7194AD36823EA070742
:10464000D76090E74FF000094D468DE74FF0000925
:104650004D4689E74FF000094D4685E74FF00009C8
:104660004D4681E74FF000094D467DE74FF00009C8
:104670004D4679E74FF000094D4675E74FF00009C8
:104680004D4671E74FF000094D466DE74FF00009C8
:104690004D4669E703B0BDE8F08300BF000001406C
:1046A0000004014000080140A8AA000810B586B027
:1046B00003682B4A934204D02A4A934228D006B07A
:1046C00010BD294B9A6942F008029A619B6903F078
:1046D00008030093009BC023029312230393012439
:1046E00004940323059302A92048FFF7F9FD22460D
:1046F00000212020FFF744FD2020FFF7A9FD022222
:1047000000211F20FFF73CFD1F20FFF7A1FDD6E78A
:10471000154B9A6942F008029A619B6903F00803FD
:104720000193019B4FF440630293122303930124EE
:1047300004940323059302A90C48FFF7D1FD2246F8
:1047400000212220FFF71CFD2220FFF781FD02221D
:1047500000212120FFF714FD2120FFF779FDAEE7AE
:10476000005400400058004000100240000C01407E
:1047700002681E4B9A4200D07047F0B587B003F52F
:1047800058439A6942F480429A619A6902F48042DD
:104790000092009A9A6942F004029A619B6903F0C0
:1047A00004030193019B4FF40073029302230393CC
:1047B00001240494032705970D4E02A93046FFF704
:1047C0008FFD4FF4806302930025039504940597B1
:1047D00002A93046FFF784FD224629462520FFF72F
:1047E000CFFC2520FFF734FD07B0F0BD00380140B5
:1047F0000008014000B587B00B4B9A6942F00802EF
:104800009A619B6903F008030193019B01230293C2
:104810000393002304930323059302A90348FFF79E
:104820005FFD07B05DF804FB00100240000C014082
:10483000F8B505460C46494B984214D003F5806301
:10484000984210D003F5806398420CD003F5806342
:10485000984208D003F58063984204D04FF4BB71AE
:104860003F48FFF783FCA3B213B1220C1204BAB184
:1048700040F277113A48FFF779FC002210E02E1D34
:1048800018E0A2F1080C4FEA8C0E17E04FF0030C71
:1048900001E04FF0000C0CFA03F38B4243D00132DD
:1048A00034FA02F359D0012393402340F7D0FF2B71
:1048B000E5D82E46FF2BE4D84FEA820E31680F2050
:1048C00000FA0EF721EA07014FF0040C0CFA0EFC77
:1048D00041EA0C013160E9686FEA030E21EA030343
:1048E000EB609708B91C1F4B53F8211002F003032B
:1048F0009B0098400140194EB542CAD006F580662B
:10490000B5420AD006F58066B54209D006F5806644
:10491000B542BBD04FF0040CBDE74FF0010CBAE735
:104920004FF0020CB7E70F4EBB1C56F8231021EADC
:10493000000046F823000C4B19680EEA01011960CB
:1049400059680EEA0101596099680EEA01019960FF
:10495000D9680EEA0101D960A1E7F8BD000801405D
:10496000A8AA0008000001400004014002680F4BA3
:104970009A4200D0704710B503F55843DA6842F404
:104980008042DA60DA6822F48042DA60084C4FF440
:1049900000712046FFF74CFF4FF480612046FFF77F
:1049A00047FF2520FFF76AFC10BD00BF003801401B
:1049B0000008014070B5054614460E4621B1012C91
:1049C00008D86CB12E6170BD40F2E3110648FFF7C4
:1049D000CDFBF4E74FF4F2710348FFF7C7FBF0E7B4
:1049E00036042E61EFE700BFA8AA000800B587B023
:1049F0000E4B9A6942F010029A619B6903F0100312
:104A00000193019B0123039300260496032305933E
:104A10004FF400550295064C02A92046FFF760FCB2
:104A2000324629462046FFF7C5FFFEE70010024048
:104A30000010014038B50446094D2988013189002C
:104A4000686805F08BFB686038B1054A51681388C7
:104A500041F823400133138038BD0120FFF7C6FF22
:104A60001C23002008B50023044A1370044A136075
:104A7000044A13700448FFF7DDFF08BD2C24002012
:104A800030240020E4230020493B000810B582B008
:104A90000446084B00936846FFF706FC38B902ABA2
:104AA00013E9030084E80300204602B010BD012092
:104AB000FFF79CFF0030024008B50378FF2B00D1C0
:104AC00008BD0120FFF792FF30B583B004460D46C4
:104AD000002303704160144B1B68ADF804301B0CBD
:104AE0008DF806304FF47A73022201A92846FCF7AC
:104AF00077FE98B94FF47A73022201A92846FCF791
:104B0000DEFE032807D060B901A9084805F02EFB96
:104B100008B9FF232370204603B030BD0120FFF702
:104B200065FF0120FFF762FFD8AA0008DCAA000891
:104B30002DE9F04F85B007460E4691460393DDF808
:104B400038B09DF83CA0109DB1F806808B8803FB1F
:104B500008F81FFA88F8144614E00220FFF746FF11
:104B600033685B6815F9010BC0B29847B38803FB43
:104B70000044A4B2A4EB09039BB2013BABF80030A4
:104B80004444A4B295F900308BB10A2BE5D0BB8B1D
:104B9000A3420CD3BAF1000FE2D195F90030009393
:104BA000039B224631463846FEF720FDD8E705B084
:104BB000BDE8F08F2DE9F04186B006460F4611465C
:104BC0000D9DDDF83C801A461198FFF7ACF90446BC
:104BD0000023ADF8163002909DF8403001930DF19E
:104BE000160300932B88BDF8302039463046FFF776
:104BF0009FFF2046FFF774F9B8F80020BDF8163083
:104C00009A4201D2A8F800302A88BDF838301344FF
:104C10002B8006B0BDE8F0812DE9F04F89B08246C7
:104C2000884615469DF850B0159FADF81E30129B72
:104C30004FF000021A80BDF81E30139A13803846D8
:104C400005F0A6FA0646D8F8003093F80090B8F8B8
:104C500008304B44B8F8049003FB09F91FFA89F9AE
:104C60000024224601E00134A4B2B44216D23B57DC
:104C70000A2BF8D1A31A0597CDF810B01299039119
:104C8000CDF808900DF11E01019100959BB24146AF
:104C90005046FFF78FFF621C92B2E4E7B31A059704
:104CA000CDF810B012990391CDF808900DF11E01C6
:104CB000019100959BB241465046FFF77BFF139B45
:104CC0001A88BDF81E309B1A139A138009B0BDE8EC
:104CD000F08F000084B02DE9F0418CB012AC84E874
:104CE0000F00BDF85C60BDF86070BDF86440BDF8B1
:104CF00068509DF84830002B61D00DF1180CDFF89A
:104D0000F0E0BEE80F00ACE80F009EE803008CE87E
:104D10000300384B1B68ADF814301B0C8DF81630AF
:104D20003319DFF8D480059AADF80820120C8DF8FD
:104D30000A20304A1268ADF80420120C8DF80620C3
:104D40007A1992B200929BB23A4631464046FEF73B
:104D5000F7FA0DF149030393FF23029304AB019388
:104D60000DF11203009300231A4624494046FFF731
:104D700053FFBDF81220A41A04EBD47444F34F027D
:104D8000BDF81030ED1A05EBD57545F34F03002A39
:104D900029DB002B29DB3B4432440DF1490103910F
:104DA00000210291019100919BB292B206A9124892
:104DB000FFF732FF0CB0BDE8F04104B070470DF1D1
:104DC000180CDFF838E0BEE80F00ACE80F009EE8F2
:104DD00003008CE803000A4B1B68ADF814301B0C71
:104DE0008DF816309CE70022D3E70023D3E700BFFD
:104DF0001425002048230020D4240020B4240020BF
:104E00004423002070B586B00E4B112604963B2536
:104E100003956E240294002201921A8AADF80020B4
:104E20000FCBFFF757FF084B0496039502944422DB
:104E300001921A8AADF800200FCBFFF74BFF06B0A6
:104E400070BD00BF242300205423002030B58BB058
:104E50000590134C134B1B68ADF808301A0C8DF8F5
:104E60000A20ADF804308DF806200B23009373233D
:104E7000012242212046FEF763FA06AD2946059835
:104E8000FEF776FF0395002302930193009301231D
:104E9000422205492046FFF7BFFE0BB030BD00BFE0
:104EA000D424002044230020B424002030B587B04F
:104EB00004461F4D2846FEF7B9F9431E1D4A1268E5
:104EC000ADF80820110C8DF80A10ADF804208DF80B
:104ED0000610192200929BB20C2200212846FEF7F0
:104EE0002FFA0394FF230293002201920DF116037F
:104EF0000093134610492846FFF78EFE2846FEF71A
:104F000095F9BDF81620821A42F34F02002A0CDBF5
:104F1000039400230293019300930D2392B2064958
:104F20000348FFF779FE07B030BD0022F0E700BF6D
:104F3000D424002044230020B424002010B58CB0D9
:104F400004AB83E80300084604F042FC0E4904F079
:104F50004BFD08AC04F04CF8CDE900010B4A1021E0
:104F60002046FEF719FF03940022029201920DF1F0
:104F70001E030093182306490648FFF74DFEBDF8AF
:104F80001E000CB010BD00BF00247449E0AA000848
:104F9000FC240020D424002030B58FB0044604AB9C
:104FA00083E806001E4D2846FEF740F9431E1D4AC1
:104FB0001168ADF808100A0C8DF80A20ADF804103D
:104FC0008DF80620462200929BB23B220021284603
:104FD000FEF7B6F99DF810308BB906AD224612499E
:104FE0002846FEF75FFE039500220292019200928E
:104FF0003A230E490A48FFF70FFE0FB030BD06AC4A
:105000000B492046FEF74EFE0394002202920192C5
:1050100000923A2305492846FFF7FEFDEDE700BF61
:10502000D424002044230020FCAA0008B42400203B
:10503000E8AA000830B597B0044604AB83E8060040
:10504000204D2846FEF7F2F8431E1F4A1268ADF8BD
:105050000820110C8DF80A10ADF804208DF8061008
:105060006B2200929BB25F2200212846FEF768F96E
:105070009DF81030ABB9204603F0BAFF02460B464C
:105080000EAC12492046FEF70DFE03940022029258
:10509000019200925E230E490A48FFF7BDFD17B04A
:1050A00030BD06AC0B492046FEF7FCFD0394002200
:1050B0000292019200925E2305492846FFF7ACFD5B
:1050C000EDE700BFD4240020442300201CAB0008DF
:1050D000B424002010AB000808B5074B1860074B3C
:1050E00018600378042B03D0054B01221A7008BD09
:1050F0000120FFF77BFC00BF402300203823002065
:105100003E23002008B503460C4A92F835203AB1F8
:105110004620032B06D8022B08D2012B0AD808BD43
:105120008C20F6E7042B05D10020F8E700EB4000C7
:1051300080B2F4E70120FFF759FC00BF0C02002009
:1051400008B50E4B93F83430062B0FD8DFE803F088
:1051500011130406080A0C0009480BE0094809E08D
:10516000094807E0094805E0094803E00120FFF786
:105170003DFC084808BD0848FCE700BF0C020020C1
:10518000E8B70008FCB7000810B8000828B8000805
:10519000CCB7000840B80008D8B7000870B50D4B70
:1051A0001B78FF2B12D004460A4D29780131C9B271
:1051B0002970094E8900306804F0D0FF30602B78E8
:1051C00003F18043013B40F8234070BD0120FFF70D
:1051D0000DFC00BF882300208423002070B50D4BF8
:1051E0001B78FF2B12D004460A4D29780131C9B231
:1051F0002970094E8900306804F0B0FF30602B78C8
:1052000003F18043013B40F8234070BD0120FFF7CC
:10521000EDFB00BF6C2300206823002008B5431E6F
:10522000062B07D8DFE803F0050505050505040092
:10523000002008BD0120FFF7D9FB00002DE9F04F49
:1052400095B00C461546062800F2A880DFE800F06D
:10525000047079828B949D00544910A8FEF722FDBA
:1052600053490CA8FEF71EFD002C00F09A8051490E
:105270000AA8FEF717FD06AE0AAB0CAA4E49304647
:10528000FEF710FDDFF834B1DFF834A110AF03975B
:105290004FF0FF08CDF80880002401940DF11603AB
:1052A00000932346224659465046FFF7B5FC039625
:1052B000CDF80880019405AB009323462246594659
:1052C0005046FFF7A9FCBDF81680A5EB0808C8F307
:1052D0004E08BDF81420AD1AC5F34E055046FDF733
:1052E000A5FF00F1FF391FFA89F9BDF816204244E5
:1052F00092B2A9EB0202039702940194009418233E
:1053000092B259465046FFF787FCBDF814202A4454
:1053100092B2A9EB02020396029401940094222314
:1053200092B259465046FFF777FC15B0BDE8F08FB2
:10533000244910A8FEF7B6FC23490CA8FEF7B2FCDE
:1053400092E7224910A8FEF7ADFC21490CA8FEF710
:10535000A9FC89E71F4910A8FEF7A4FC1E490CA868
:10536000FEF7A0FC80E71D4910A8FEF79BFC1C4936
:105370000CA8FEF797FC77E71A4910A8FEF792FCF5
:1053800019490CA8FEF78EFC6EE7184910A8FEF725
:1053900089FC17490CA8FEF785FC65E70120FFF79B
:1053A00025FB13490AA8FEF77DFC64E72CAB000837
:1053B00034AB00086CAB000870AB0008B4240020CC
:1053C000D424002038AB00083CAB000840AB0008F8
:1053D00044AB000848AB00084CAB000850AB0008D9
:1053E00054AB000858AB00085CAB000860AB000889
:1053F00068AB000882B010B5A2B006AC84E8030028
:1054000005922593414C2046FDF710FF431E404A6C
:105410001268ADF80820110C8DF80A10ADF80420C0
:105420008DF80610522200929BB24722002120469E
:10543000FDF786FF9DF8A230022B29D19DF894300C
:10544000FF2B35D09DF819309DF81A0043EA002350
:105450009DF81B00059943EA0040FEF701FB8DF81B
:105460008400C0F307238DF88530C0F307408DF822
:1054700086001DA92198FEF77BFC9DF81830012BB2
:1054800026D9022B3ED1234919A8FEF70BFC23E0B5
:1054900009AC21492046FEF705FC03940022029244
:1054A0000192009246231D491848FFF7B5FB24E0FE
:1054B00009AC1B492046FEF7F5FB0394002202923B
:1054C00001920092462315491048FFF7A5FB14E00E
:1054D000144919A8FEF7E6FB11AC19AB1DAA124935
:1054E0002046FEF7DFFB0394002202920192009215
:1054F00046230A490548FFF78FFB22B0BDE810405C
:1055000002B070470120FFF771FA00BFD4240020D9
:1055100044230020ACAB000878AB0008B424002082
:105520008CAB0008A4AB0008B0AB000830B5A3B04A
:105530000DF1140C8CE807000493374C2046FDF75E
:1055400075FE431E354A1268ADF80820110C8DF81F
:105550000A10ADF804208DF806105E2200929BB26E
:10556000532200212046FDF7EBFE9DF81A403CB384
:105570009DF81B309DF81C0043EA00239DF81D0098
:1055800043EA0040FEF7F6F805460498FEF7F2F805
:10559000281AFEF701F98DF88400C0F307238DF86F
:1055A0008530C0F307408DF886001DA92198FEF7CD
:1055B000DFFB012C14D0022C29D00120FFF716FAB2
:1055C00009AC17492046FEF76DFB039400220292B6
:1055D00001920092522313490F48FFF71DFB14E07C
:1055E000114919A8FEF75EFB11AC19AB1DAA0F49B2
:1055F0002046FEF757FB039400220292019200928C
:10560000522308490448FFF707FB23B030BD08497F
:1056100019A8FEF747FBE7E7D42400204423002025
:10562000BCAB0008B424002084AB0008B0AB000879
:10563000C8AB000800B583B001909DF8043053B9A1
:1056400008469DF806309DF805200449FEF72AFB20
:1056500003B05DF804FB0120FFF7C8F9D0AB0008E8
:1056600010B596B004AB83E80300244C2046FDF748
:10567000DDFD431E224A1268ADF80820110C8DF89A
:105680000A10ADF804208DF806103A2200929BB261
:105690002D2200212046FDF753FE9DF81030ABB1BE
:1056A00018490AA8FEF7FEFA0EAC0AAA16492046C7
:1056B000FEF7F8FA039400220292019200922E2340
:1056C00012490E48FFF7A8FA16B010BD9DF8113028
:1056D0009DF8120043EA00239DF8130008A943EA4D
:1056E0000040FFF7A7FF06A90598FFF7A3FF06AB49
:1056F00008AA07490AA8FEF7D5FAD5E7D42400205E
:1057000044230020DCAB0008F0AB0008B4240020E8
:10571000E8AB000884B02DE9F04184B00AAC84E81D
:105720000F00424C424B19682046FDF74BFD2046C6
:10573000FDF77CFD451EADB20A98FEF775FC0B988F
:10574000FFF784FB9DF83000FDF7E2FF0DF131001B
:10575000FFF7ACFB374B1B68ADF808301A0C8DF81F
:105760000A20ADF804308DF806202C2300932B4638
:10577000192200212046FDF7E3FD15AD95E8030051
:10578000FFF7DCFB06469DF85C709DF85D802046C7
:10579000FDF74CFD821B92B241463846FFF74EFDA5
:1057A000BDF862309DF86410DDF85E0043EA014107
:1057B000FFF756FFBDF862309DF86420DDF85E10FB
:1057C00043EA02429DF86500FFF7E6FB01ABDDF816
:1057D0006600DDF86A1003C3BDF86E201A80BDF8BC
:1057E00062209DF86430ADF800208DF80230DDF8BD
:1057F0005E300B9A1CA903C9FFF7FCFD0B9BDDF87B
:105800006600DDF86A10BDF86E20FFF78FFE95E8A0
:1058100006001E98FFF70EFCFFF7F4FA2046FDF78E
:1058200000FD04B0BDE8F04104B07047D42400206E
:10583000482300204423002070B505460C460D4B3C
:105840001B78002BFBD10B4BFF221A70204604F073
:1058500067FC094E30602246294604F071FC22465E
:1058600031680648FBF729FF00B970BD0120FFF73A
:10587000BDF800BF2C24002030240020A0230020ED
:10588000F8B5431EDBB23A2B1CD806460F46451D21
:10589000EDB2284604F044FC044600F8015B3246B1
:1058A000394604F04DFC2E1F324621460748FEF7CC
:1058B00055FBA05129462046FFF7BEFF204604F0C5
:1058C00037FCF8BD0120FFF791F800BF84000020ED
:1058D0002DE9F04180460E4617468D1CEDB2284654
:1058E00004F01EFC04460123037080F80180324658
:1058F0003946023004F024FC21462846FFF7C0FF59
:10590000204604F015FCBDE8F081000030B583B0FE
:105910004C78631EDBB21F2B0ED8FF22A31C9842CB
:1059200000D15AB901208DF807000DF10702014698
:10593000FFF7CEFF03B030BD0022EFE7064D224651
:10594000023105F1090004F0FBFB2C4400236372D3
:10595000024BFF221A70EDE70C0200204C230020BE
:105960002DE9F0410E4F384604F012FC06465FFA6E
:1059700080F808F10105EDB2284604F0D1FB044699
:1059800000F8018B3246394604F0DAFB22462946FC
:105990000220FFF79DFF204604F0CAFBBDE8F0811E
:1059A0001502002000B583B0064B93F821308DF826
:1059B00007300DF1070201210320FFF789FF03B033
:1059C0005DF804FBE400002001280AD000220C4B03
:1059D00093F82130802B06D02AB10A4BFF225A704F
:1059E0007047FF22F3E700B583B001218DF807105F
:1059F0000DF107020520FFF76BFF03B05DF804FB14
:105A0000E40000204C230020012800D0704700B59E
:105A100083B0074B93F822318DF807300DF1070260
:105A200001210620FFF754FF03B05DF804FB00BF1F
:105A3000E400002030B583B002280CD000254C785B
:105A40002046FDF725FE40B13DB1094B1C70094BC6
:105A5000FF229A7009E0FF25F1E701218DF8071078
:105A60000DF107020720FFF733FF03B030BD00BF81
:105A70009D2300204C23002030B583B04C78631E5A
:105A8000DBB20F2B0ED8FF22A31C984200D15AB9CB
:105A900001218DF807100DF107020820FFF718FF0C
:105AA00003B030BD0022EFE7054D22460231284603
:105AB00004F046FB00232B55024BFF22DA70EFE780
:105AC0008C2300204C23002008B5012204490548FE
