:020000040800F2
:10000000005000204D620008332600083126000809
:100010002F2600082D2600082B26000800000000CF
:100020000000000000000000000000002926000879
:1000300027260008000000002526000819260008D1
:1000400095620008956200089562000895620008B4
:1000500095620008956200089562000895620008A4
:100060009562000895620008956200089562000894
:100070009562000895620008956200089562000884
:100080009562000895620008956200089562000874
:100090009562000895620008956200089562000864
:1000A0009562000895620008956200089562000854
:1000B00095620008956200089562000865260008B0
:1000C00055260008452600083526000895620008D8
:1000D0009562000895620008956200089562000824
:1000E0009562000895620008956200080000000013
:1000F0000000000000000000000000000000000000
:0C01000000000000000000005FF808F1A3
:10010C006CA8000800000020D40100206CA8000896
:10011C000000000000000000D40100200026002098
:10012C000000000000000000F8B500BFF8BC08BCDF
:10013C009E467047F8B500BFF8BC08BC9E46704799
:08014C007D01000859010008C3
:1001580010B5054C237833B9044B13B10448AFF3F9
:1001680000800123237010BDD4010020000000008E
:1001780060A8000808B5034B1BB103490348AFF357
:10018800008008BD00000000D801002060A8000819
:10019800A3F5803A704700BF174B002B08BF134BDD
:1001A8009D46FFF7F5FF00218B460F461348144A7A
:1001B800121A06F061FE0E4B002B00D098470D4B2B
:1001C800002B00D098470020002104000D000D48A6
:1001D800002802D00C48AFF3008006F027FE20006C
:1001E800290005F00BFF06F00DFE00BF0000080017
:1001F800000000000000000000500020D401002092
:100208000026002000000000000000008020704749
:100218008020704710B483B0CBB2C1F30724B62254
:1002280002FB04F2362404FB0323C1F3074101EB6C
:10023800C10103EB4101094BA3FB0123C91A03EBDD
:100248005101C1F3C72142F20B03C1540F2901D94F
:100258000F22C25403B010BC704700BF0101100048
:1002680084B08DF80800C0F307228DF80920C0F388
:1002780007438DF80A30029B0020DAB262F30700C8
:10028800C3F3072262F30F20C3F3074363F3174056
:1002980004B0704782B0134BA3FB0023C3F3C723FA
:1002A8008DF800304FF4616202FB13000E4BA3FB84
:1002B8000023C3F347138DF80130C3EB0313A0EBFE
:1002C80083008DF80200009B0020DAB262F3070079
:1002D800C3F3072262F30F20C3F3074363F3174006
:1002E80002B07047C5B3A2918988888882B0C2B22B
:1002F800C0F30723C3EB03139B004FF4616101FBB9
:100308000233C0F30740184402B0704710B584B0F8
:100318000C46FFF7EBFF001BFFF7BCFF034600206E
:10032800DAB262F30700C3F3072262F30F20C3F3C4
:10033800074363F3174004B010BD30B585B00D46D0
:10034800FFF7D4FF04462846FFF7D0FF2044FFF705
:10035800A1FF03460020DAB262F30700C3F30722C5
:1003680062F30F20C3F3074363F3174005B030BDB2
:1003780030B583B00D46FFF7B9FF04462846FFF7AE
:10038800B5FF844204D005D34FF0FF3003B030BD31
:100398000020FBE70120F9E7014B02221A707047A1
:1003A800B2240020024B002283F83E20704700BF91
:1003B8008803002008B5114B93F836301BB90F4B52
:1003C80093F8423003B108BD0C4B93F8430093F8FF
:1003D800442040EA022093F8452040EA024093F87E
:1003E8003D1020F07F40FFF791FF054B1870C0F3D8
:1003F80007225A70C0F307409870E4E7880300208A
:10040800780300200346064A0C2111700549516003
:100418000549916007CA83E807001846704700BF7E
:100428007C030020350400083904000806207047C2
:100438001F2806D9203800EB4000034B03EB80004F
:1004480070470248704700BF8099000800A4000860
:1004580003888B4218D910B44488944216D9DC0812
:1004680013F0070F00D00134CB0804FB023201F06F
:100478000701012303FA01F14368985C084001D1A0
:1004880010BC7047FF20FBE7002070470020F7E70B
:1004980008B58368984708BD08B54368984708BDFC
:1004A80008B583690068984708BD08B5838B8B42F7
:1004B80005D3C38B934202D303690068984708BDEC
:1004C800F8B50E46818BB14217D305461C469342B8
:1004D80028BF1446C78BA7420FD3934238BF134691
:1004E8009F4208D31F4606E0224631462846FFF7BA
:1004F800DCFF0134A4B2A742F6D2F8BDF8B51E4617
:10050800C38BB34217D3054614468A4228BF0C460C
:10051800878BA7420FD38A4238BF0A46974208D32F
:10052800174606E0324621462846FFF7BEFF01344B
:10053800A4B2A742F6D2F8BD2DE9F0470446BDF8AB
:1005480020C01E468B4228BF0E46808BB04207D380
:100558006746944528BF1746B4F81EE0BE4501D249
:10056800BDE8F0878B4238BF0B461D46944538BF1F
:100578009446E146984228BF18468046E64528BF7B
:10058800E646F2463B46024631462046FFF7B6FFAE
:1005980053463A4631462046FFF792FFA38BAB42BB
:1005A80009D2E38B4B45DBD35346424631462046BE
:1005B800FFF7A4FFD4E753463A4641462046FFF7E3
:1005C8007FFFEEE782B0036A0020DAB262F3070029
:1005D800C3F3072262F30F20C3F3074363F3174003
:1005E80002B0704700B583B00184090C80F822106E
:1005F800C368016A0068984703B05DF804FB2DE9F9
:10060800F04F85B004460E4693461D46BDF8387037
:10061800FFF7D8FF8DF80C00C0F307238DF80D30D5
:10062800C0F307408DF80E00A946B54228BFB14671
:10063800A38B4B4507D3BA465F4528BFDA46B4F8C3
:100648001E80D04502D205B0BDE8F08FB54238BF54
:1006580035465F4538BF5F46AB4228BF2B460193FE
:10066800B84528BFB84609F1010B1FFA8BFB0AF100
:100678000106B6B20F992046FFF7B4FF5346019A18
:1006880049462046FFF73AFF434652464946204628
:10069800FFF716FFA38BAB4212D2019DE38BBB423F
:1006A80017D2A38B5B4506D3E38BB34203D35D45D7
:1006B80001D3B04519D203992046FFF793FFC2E74B
:1006C80001994D1EADB2434652462046FFF7F8FE4B
:1006D800E4E708F1FF3A1FFA8AFA4346019A4946C5
:1006E8002046FFF70BFFD046DBE710992046FFF7BF
:1006F80079FF07E033462A4659462046FFF7FEFEB3
:100708000136B6B2B045F5D203992046FFF76AFF25
:1007180099E730B587B005460591FFF7BDFE441E41
:10072800A4B22846FFF7B4FE431E9BB2059AADF863
:100738000820110C8DF80A10ADF804208DF8061069
:1007480000932346002211462846FFF758FF07B0BA
:1007580030BD08B590F8232090F8241042EA012211
:1007680090F8251042EA0141FFF7D3FF08BD2DE9B3
:10077800F04F89B0019088461D460293BDF8489015
:10078800BDF84C4004949DF858100591838B934212
:1007980067D39346C38BAB4263D3B8F8007007FBAB
:1007A80009F7B8F8023003FB04F30393149BADF880
:1007B80018301B0C8DF81A3012AB33F80C2F9B78BD
:1007C800ADF81B208DF81D30002504E0059B022B99
:1007D80005D10135EDB2012D43D8002DF6D0012DFC
:1007E80002D1059B012BF4D005EB450308AA13445D
:1007F80013F8081C13F8072C41EA022113F8063CE9
:1008080041EA034121F07F410198FFF7EBFE4FF0E9
:10081800000A1DE0A8B1029B03EB0A020BEB0401DE
:1008280092B289B20198FFF740FE0134BC420DD262
:10083800B4FBF9F1324689B24046FFF709FE002DB4
:10084800E8D0012DF1D10028EFD1E4E70AF1010A3F
:10085800039B9A45BDD2049BBAFBF3F6B6B20024BB
:10086800E4E709B0BDE8F08F00B589B00C23ADF816
:100878001830ADF81A30E0B10F4B079300230493FA
:100888000E4A1268ADF80C20120C8DF80E200C4A96
:100898001268ADF80820120C8DF80A200122019286
:1008A8000092742206A90748FFF761FF09B05DF8B6
:1008B80004FB054B0793E1E7A8A40008B82400202F
:1008C800BC2400208C25002090A400082DE9F041CC
:1008D80088B005460C4616461F460B681A78ADF8D0
:1008E8001A205B689DF8388040469847ADF8180094
:1008F80023689B68404698470790A388E268216967
:1009080060690078049008888978ADF80C008DF843
:100918000E1011889278ADF808108DF80A2001930E
:1009280000933B46324606A92846FFF720FF08B049
:10093800BDE8F08138B504461D4601604260836019
:10094800049BC360059B0361069B4361079B83610E
:1009580090470138A083A8470138E08304AB33F8F7
:10096800102F9B78A4F8232084F82530204638BD22
:1009780042F20A03C35C1BB142F20A030022C254CA
:10098800704780280FD880290FD8C90189B201443F
:1009980088B2C1F34E01118080F0010202F0010219
:1009A8001A70FF207047002070470020704710B56C
:1009B80082B00446084611460DF105030DF1060202
:1009C800FFF7DFFF78B19DF8053073B1BDF8061069
:1009D80021448B7A03F00F0342F20B02A25C12014E
:1009E800D2B213438B7202B010BDBDF80620224468
:1009F800937A03F0F00342F20B01615C01F00F01FE
:100A08000B439372EFE710B584B0044608461146CD
:100A180000238DF808308DF809308DF80A300DF173
:100A280005030DF10602FFF7ACFF28B39DF805306A
:100A38004BB3BDF806002044837A1B0903EB03136C
:100A4800DBB28DF808308DF809308DF80A30029B3A
:100A5800ADF80C301B0C8DF80E3000209DF80C30D2
:100A680063F307009DF80D3063F30F209DF80E30F7
:100A780063F3174004B010BD029BADF80C301B0C9B
:100A88008DF80E30E9E7BDF806002044837A03F0BC
:100A98000F03D3E742F20A03C35C002BFAD1704775
:100AA80010B50024064B1B88A34207D9044B5B688A
:100AB80053F8243098470134A4B2F3E710BD00BFBF
:100AC8009024002082B0064B5A6942F040025A61D5
:100AD8005B6903F040030193019B02B0704700BFBC
:100AE8000010024008B50268034B9A4200D008BDC6
:100AF8000248FFF73DFFFAE7005400408404002055
:100B08002DE9F04385B004460F46435633BB042510
:100B180028462146ABBE0446384605B0BDE8F083FA
:100B280014F9010B04AA1A4402F8100C0133AB4261
:100B3800F6D304AA1344002203F8102C4FF004083B
:100B4800E94640464946ABBE8046761B002EE3D0B8
:100B58003546102E28BF10250023E8E70E46F5E796
:100B680008B5FFF7CDFF08BD10B400F5FA640229F7
:100B780022D801EB4103C1EBC3011F4BA3FB0113B7
:100B880002EB5303234400F2CF7003EB90031B4A9C
:100B9800A2FB0020A3EB501303EBD0130433184837
:100BA800A0FB03201A1A00EB52008008C0EBC0001B
:100BB800181AC0B210BC704701EB4103C1EBC30166
:100BC8000D4BA3FB011302EB5303234403EB9403E4
:100BD8000A4AA2FB0424A3EB541303EBD4130233F5
:100BE8000748A0FB03201A1A00EB52008008C0EB4C
:100BF800C000181ADDE700BF398EE3381F85EB51B6
:100C08002549922410F0030F14D10D4BA3FB0023A8
:100C18005B09642202FB13039BB26BB9084BA3FB6D
:100C28000023DB094FF4C87202FB130080B228B915
:100C3800012070470020704701207047002070474E
:100C48001F85EB512DE9F84380460F4690F80F9029
:100C5800447B857B002603E01E2D1FD80135013615
:100C6800BE423DD2012CF7D0032CF5D0052CF3D091
:100C7800072CF1D0082CEFD00A2CEDD00C2CEBD09F
:100C8800042C15D0062C13D0092C11D00B2C0FD006
:100C9800022CE4D11B2D12D80135E0E70C2C02D030
:100CA80001340125DBE709F1010901252C46D6E7C6
:100CB8001D2D01D80135D2E701340125CFE71C2DC0
:100CC80004D01D2DCBD101340125C8E71FFA89F0C6
:100CD800FFF798FF08B10135C1E701340125BEE7E8
:100CE80088F80F90E1B288F80D10EAB288F80E2063
:100CF8004846FFF739FF88F80C00BDE8F883030978
:100D080003EB830300F00F0000EB4300C0B2704711
:100D18000023092803D901330A38C0B2F9E71B01B7
:100D2800DBB2184370470368186A5B6A9BB243EAF0
:100D38000040704730B402689469A5B2D3699169DC
:100D480088B2854205D0D06980B240EA014030BC03
:100D5800704798B240EA0440F9E7000082B0084BB7
:100D68001B68084AA2FB03235B0A00FB03F30193F9
:100D780000BF019B5A1E0192002BF9D102B07047A7
:100D880000000020D34D6210014B1868704700BF67
:100D98000000002008B5FFF7F7FF044B5B68C3F3BA
:100DA800C223034AD35CD84008BD00BF00100240EC
:100DB8007899000808B5FFF7E7FF044B5B68C3F3B1
:100DC8000223034AD35CD84008BD00BF001002408C
:100DD8007899000886B0164B0FCB0DF1180C0CE96A
:100DE8000F0040F20123ADF80430124B5B6803F0AA
:100DF8000C02082A02D0104806B07047C3F3834299
:100E0800624412F8102C13F4803F0CD0094B5B6835
:100E1800C3F34043634413F8143C074800FB02F053
:100E2800B0FBF3F0E8E7054800FB02F0E4E700BF99
:100E3800589600080010024000127A0000093D0090
:100E4800014B01221A60704720000E4203685A695C
:100E580012F4806F01D1002070476FF480625A61EC
:100E68000423036400230363202280F83D2080F8D4
:100E78003C3001207047438D9BB253B103681A6917
:100E8800436A591C41621A70438D9BB2013B9BB265
:100E9800438500207047438D9BB253B1436A5A1C67
:100EA800426202681B781361438D9BB2013B9BB27F
:100EB80043850020704710B48DB090F83E30DAB208
:100EC800C16A046B90F83D30DBB2222B0BD00023B3
:100ED8000B9303685A690B929B690B930B9B002039
:100EE8000DB010BC7047036D0BB9402A17D0036DC5
:100EF8001BB90369B3F5404F19D0438D9BB2002B42
:100F080025D1039303685A6903929A690392039A55
:100F18001A6842F400721A6000230365DFE7019340
:100F280003685A6901929B690193019BD7E70023E3
:100F3800029303685A6902929A690292029A1A689D
:100F480042F480721A60036D01330365C7E7438D6D
:100F58009BB2012B1AD0438D9BB2022B6BD0026837
:100F6800136843F48063136003685A6812F4006FCF
:100F780003D05A6842F480525A6000230A930368E7
:100F88005A690A929B690A930A9BC5E711F5803F43
:100F980016D004293DD008293BD0122C39D0C36A79
:100FA800022B30D00268136823F480631360002397
:100FB800069303685A6906929B690693069BABE7FA
:100FC8000268136823F48063136003685A6812F494
:100FD800006F0CD01A6822F480621A600023049310
:100FE80003685A6904929B690493049B94E700225E
:100FF80005925A6905929A690592059A1A6842F407
:1010080000721A6088E70268136843F4806313600B
:10101800CDE70268136823F4806313600023079305
:1010280003685A6907929A690792079A1A6842F4FC
:1010380000721A6070E7C36A022B1BD0026813683B
:1010480043F4006313600023089303685A69089205
:101058009A690892089A1A6822F480621A600368EA
:101068005A6812F4006F3FF457AF5A6842F480523E
:101078005A6051E70268136843F4806313600023E1
:10108800099303685A6909929B690993099BE6E7E2
:10109800436C0268DBB213610020704790F83E3061
:1010A800DBB2402B10D00369B3F5804F1BD0036D22
:1010B8005BBB436C0268C3F3C81303F0060343F039
:1010C800F003136100207047036D2BB9436C02686D
:1010D80003F0FE031361F5E7436C026843F0010374
:1010E800DBB21361EEE790F83D30DBB2212B06D07E
:1010F800436C026843F00103DBB21361E2E7436C1F
:10110800026803F0FE031361DCE7036D012BD9D1FC
:10111800436C0268C3F3C81303F0060343F0F103FA
:101128001361CFE7436A19680A6822F480620A608B
:1011380000225A85596B4A63996B4A6393F83D209C
:10114800D2B2602A0BD0202283F83D20002283F8F7
:101158003E201A68136823F00103136070472022A9
:1011680083F83D20002283F83E201A641A68136829
:1011780023F001031360704703689A699B69002094
:10118800704790F83D30DAB2438D9BB2F3B110B49A
:1011980003681969436A5C1C44621970438D9BB2E9
:1011A800013B9BB24385438D9BB20BB92A2A02D0DF
:1011B800002010BC70470268536823F480635360B2
:1011C80022230363282380F83D30F1E7002070478D
:1011D80090F83D30DBB2C26A042A01D0082A01D156
:1011E800282B07D0212B1DD003686FF480625A6129
:1011F80000207047184BC3620268536823F4E06309
:10120800536003686FF480625A610268136823F4BC
:101218008063136000230363202280F83D2080F858
:101228003E30E5E70C4BC36221230363202380F89B
:101238003D30002380F83E300268536823F4E063B1
:10124800536003686FF480625A610268136823F47C
:1012580080631360CCE700BF0000FFFF90F83D30CB
:10126800DAB2438D9BB27BB1436A591C4162016873
:101278001B780B61438D9BB2013B9BB24385438D29
:101288009BB20BB9292A01D0002070470268536825
:1012980023F48063536021230363282380F83D30BF
:1012A800F2E7C26A438D9BB2032B10D0438D9BB2E9
:1012B800022B24D003681A69436A591C41621A70C8
:1012C800438D9BB2013B9BB2438500207047042AA3
:1012D80004D0082A02D012F5803F04D102681368AE
:1012E80023F48063136003681A69436A591C4162D6
:1012F8001A70438D9BB2013B9BB24385E5E7042AF4
:1013080017D0082A15D012F5803F12D0022A0AD029
:101318000268136823F4806313600268536823F437
:10132800407353600FE00268136843F480631360EE
:10133800F3E70268536823F4407353600268136844
:1013480043F40073136003681A69436A591C4162C5
:101358001A70438D9BB2013B9BB2438503681A699F
:10136800436A591C41621A70438D9BB2013B9BB280
:101378004385202380F83D300023036390F83E30F6
:10138800DBB2402B03D0002380F83E309DE70023DA
:1013980080F83E3099E790F83D30DBB2222B01D03F
:1013A80000207047438D9BB2032B0BD903681A6941
:1013B800436A591C41621A70438D9BB2013B9BB230
:1013C8004385EDE7023B012B25D9C36A022B3BD0AD
:1013D8000268136823F4806313600268536823F477
:1013E800E063536003681A69436A591C41621A70C2
:1013F800438D9BB2013B9BB24385202380F83D304F
:101408000023036390F83E30DBB2402B22D0002348
:1014180080F83E30C4E7C36A022B0FD00268136815
:1014280023F4806313600268136843F40063136055
:101438000268536823F480635360B1E70268136855
:1014480043F480631360F3E70268136843F480632E
:101458001360C2E7002380F83E30A1E708B5C26AEE
:1014680090F83D30DBB2212B01D0002008BD438D20
:101478009BB25BB1436A5A1C426202681B781361D3
:10148800438D9BB2013B9BB24385EEE7042A04D00F
:10149800082A02D012F5803F17D10268536823F456
:1014A800E06353600268136843F400731360002319
:1014B8000363202380F83D3090F83E30DBB2402BA8
:1014C80011D0002380F83E30CFE70268536823F438
:1014D800E063536011230363002380F83E30202328
:1014E80080F83D30C1E7002380F83E30FFF7FAFA74
:1014F800BBE710B590F83D30DBB290F83E20D2B291
:10150800C46A018D09B9212B05D0212B38D0402A76
:1015180034D0002010BD042C04D0082C02D014F5BF
:10152800803F17D10268536823F4E0635360026870
:10153800136843F40073136000230363202380F8C7
:101548003D3090F83E30DBB2402B11D0002380F8BC
:101558003E30DEE70268536823F4E06353601123EA
:101568000363002380F83E30202380F83D30D0E725
:10157800002380F83E30FFF7B5FACAE7222BC8D11E
:10158800438D9BB22BB90268536823F48063536080
:10159800BFE790F83E30DBB2402B0BD0436A5A1CB1
:1015A800426202681B781361438D9BB2013B9BB278
:1015B8004385AEE7036D9BB9C36C012B08D0836CE0
:1015C8000268C3F307231361036D01330365A0E7C2
:1015D800836C0268DBB21361036D0233036598E71D
:1015E800036D012B18D0036D022B92D190F83D307A
:1015F800DBB2222B18D090F83D30DBB2212B88D1FA
:10160800436A5A1C426202681B781361438D9BB27D
:10161800013B9BB243857CE7836C0268DBB21361B4
:10162800036D0133036574E70268136843F480733C
:1016380013606EE708B590F82130022B03D004231D
:101648008363012008BD0268136823F00E0313604A
:101658000268136823F0010313600368194A934270
:1016680014D0143293421FD0143293421ED0143235
:1016780093421ED0143293421ED01432934202D0A9
:101688004FF0807203E04FF4801200E001220E4B0D
:101698005A60012380F82130002380F82030436B02
:1016A8006BB198470020CDE71022F0E74FF4807225
:1016B800EDE74FF48052EAE74FF48032E7E7002085
:1016C800C0E700BF080002400000024010B5044611
:1016D80090F83D30293B012B36D990F83D30DBB2EC
:1016E800602B07D003685B6813F4006F02D12023D6
:1016F80080F83D300023236384F83E302268136865
:1017080023F40063136023685A6812F4006F3FD013
:101718005A6822F400625A60636B93F82120012A08
:1017280018D0364A5A63606BFFF784FF002851D0FF
:101738002268136823F001031360202384F83D30E6
:10174800606B436B984745E000230363282380F8C8
:101758003D30D3E7A36B294A5A63A06BFFF76AFFB2
:10176800002837D023685A6912F0400F04D01A694C
:10177800636A591C61621A702268136823F00103B6
:101788001360202384F83D30A06B436B984721E019
:1017980094F83D20D2B2602A09D05A6912F0400F5D
:1017A80018D01A69636A591C61621A7012E0202203
:1017B80084F83D20002222645A6912F0400F04D0B8
:1017C8001A69636A591C61621A702268136823F0E7
:1017D8000103136094F83D30DBB2282B00D010BD14
:1017E800236C13F0040FFAD0054BE3620023236344
:1017F800202284F83D2084F83E30F0E72D110008BF
:101808000000FFFF10B582B090F83D30DBB20168F0
:101818004A6822F4E0624A60002201920268516933
:101828000191116841F001011160019A01680A688B
:1018380022F480620A6001684A6812F4006F14D0CA
:1018480090F83D20D2B2222A0AD090F83D20D2B298
:101858002A2A05D0426B1268526892B2428504E087
:10186800826B1268526892B24285428D92B202B37C
:101878004A6912F0040F09D00969426A541C44628B
:101888001170428D92B2013A92B242850268516952
:1018980011F0400F09D01169426A541C446211705A
:1018A800428D92B2013A92B24285026C42F0040231
:1018B8000264026C92B9282B13D02A2B11D0292B41
:1018C8000FD0026B222A01D0222B13D100230363ED
:1018D800202280F83D2080F83E300BE0FFF7F6FE2E
:1018E80008E0064BC36200230363202280F83D20F2
:1018F80080F83E30002002B010BD00BF0000FFFF9E
:10190800F8B5044603689F695E695D6890F83E30E3
:10191800DBB2102B25D0402B23D04C4B334013B1D6
:1019280015F4007F6ED14A4B334013B115F4007F94
:101938006BD1484B3B40002B6FD0474B334033B102
:1019480015F4806F03D0454B3340002B61D0434BD7
:10195800334053B315F4007F27D02046FFF79BFA96
:1019680023E016F0011F02D015F4007F1ED13C4B76
:10197800334013B115F4007F1CD1344B334013B1FD
:1019880015F4007F1AD1334B3B401BB3324B334025
:101998002BB115F4806F02D0304B334093B12F4BED
:1019A800334013B115F4007F10D1F8BD2046FFF77E
:1019B80075FBE8E72046FFF76BFBE4E72046FFF7F7
:1019C8007AFAE0E72046FFF794FDEEE72046FFF7B6
:1019D80045FDEAE7234B33402BB115F4806F02D065
:1019E8001E4B334053B11D4B3340002BDDD015F453
:1019F800007FDAD02046FFF754FCD6E72046FFF7F1
:101A0800CAFCD2E7FFF7B8FBCFE72046FFF7FAFE9C
:101A1800CBE72046FFF722FCC7E7124B33402BB138
:101A280015F4806F02D00D4B334053B10B4B33404C
:101A3800002BBAD015F4007FB7D02046FFF71BFA69
:101A4800B3E72046FFF79DFBAFE700BF02000100A8
:101A580010000100040010008000010004000100D3
:101A6800080001004000010070B5044603685D6984
:101A78005E68334A15420ED016F4807F0BD0026C94
:101A880042F0010202646FF480725A6102681368BE
:101A980043F40043136015F4813F0AD016F4807FA5
:101AA80007D0236C43F00203236423686FF40072A9
:101AB8005A6115F4823F1AD016F4807F17D094F833
:101AC8003E30DBB2628D91B294F83D20D2B2206BE9
:101AD800202B1DD0236C43F00403236494F83E307C
:101AE800DBB2102B22D023686FF480625A6115F4A0
:101AF800843F0AD016F4807F07D0236C43F0080394
:101B0800236423686FF400625A61236CA3B970BD23
:101B18000029DFD1212A05D0292A03D0282AD9D1A2
:101B28002128D7D12046FFF753FBE0E72268136846
:101B380043F400731360D6E72046FFF7C7FDE6E7D6
:101B4800000101000379012B1AD030B4012303717D
:101B5800022343710468A36843F00103A3600023D0
:101B680004E0046851F82350256001339342F8D308
:101B780001234371002303710368186830BC704760
:101B8800022070470138B0F1807F0AD2064B5860B6
:101B9800064AF02182F823100020986007221A6074
:101BA80070470120704700BF10E000E000ED00E042
:101BB800014B1868704700BFE425002038B504467B
:101BC8000268536823F010035360FFF7F1FF0546DE
:101BD80023685B6813F0200F07D1FFF7E9FF401B6C
:101BE800B0F57A7FF4D9032000E0002038BD38B57D
:101BF8000446FFF7DDFF054623685A6812F0200FF8
:101C080007D1FFF7D5FF401BB0F57A7FF4D9032041
:101C180004E05A6842F010025A60002038BD38B516
:101C280005460C46FFF7E3FF08B1012038BD2B68D5
:101C3800220C1A622B68A4B25C622846FFF7BEFF2A
:101C48000028F3D00120F1E738B505460C46FFF728
:101C5800CEFF08B1012038BD2B68220C9A612B6891
:101C6800A4B2DC612846FFF7A9FF0028F3D00120C1
:101C7800F1E7C0B138B505460268536823F0080398
:101C88005360FFF795FF04462B685B6813F0080F55
:101C980007D1FFF78DFF001BB0F57A7FF4D9032039
:101CA80000E0002038BD0120704770B505460C469D
:101CB80016462B68596911F0400F22D1596911F065
:101CC800100F11D124B1FFF773FF801BA042F0D988
:101CD8002B6C43F020032B64202385F83D30002330
:101CE80085F83C30032070BD6FF010025A61002364
:101CF8002B642B63202285F83D2085F83C30012099
:101D0800F1E70020EFE770B504460D461646236854
:101D18005B6913F0040F19D12046FFF797F8B8B99B
:101D2800B5F1FF3FF3D025B1FFF742FF801BA84272
:101D3800EDD9236C43F0200323640023236320227E
:101D480084F83D2084F83C30032000E0002070BD7A
:101D58000120FCE770B504460D46164623685B690A
:101D680013F0800F19D12046FFF770F8B8B9B5F114
:101D7800FF3FF3D025B1FFF71BFF801BA842EDD929
:101D8800236C43F02003236400232363202284F878
:101D98003D2084F83C30032000E0002070BD012085
:101DA800FCE72DE9F04105460E461746984633E014
:101DB8001A6842F400721A602B686FF480625A61E4
:101DC80004232B6400232B63202285F83D2085F80B
:101DD8003C3001202EE02FB1FFF7EAFEA0EB08000F
:101DE800B84219D900232B63202285F83D2085F8B5
:101DF8003C3003201EE02B689C6926EA0404A4B248
:101E0800003C18BF0124A4B12B685A6912F4806FF2
:101E1800CED1B7F1FF3FDED1C6F30743012BEAD19C
:101E28002B685C6926EA0404A4B2003C18BF0124AC
:101E3800E9E70020BDE8F0812DE9F04107460D46AD
:101E480090461E461EE02EB1FFF7B2FE069BC01A52
:101E5800B04217D900233B63202287F83D2087F83A
:101E68003E3087F83C3003201AE03B689C6925EA3D
:101E78000404A4B2B4FA84F46409A0450FD1B6F1FD
:101E8800FF3FE0D1C5F30743012BEED13B685C6906
:101E980025EA0404A4B2B4FA84F46409EDE7002046
:101EA800BDE8F0812DE9F04784B004460D4616469A
:101EB8009946DDF830800D9F0268136843F480630B
:101EC80013600368196841F48071196000974346EC
:101ED80000224FF00111FFF7AFFF00287ED15FFA13
:101EE80085FA236805F0FE051D613B4642463E49DA
:101EF8002046FFF756FF30B1236C042B01D0032096
:101F08006DE001206BE00023039323685A69039274
:101F18009B690393039B3A4641462046FFF71AFF05
:101F280058B1236C042B01D0032058E022681368B1
:101F380043F400731360012051E0B9F1010F0DD192
:101F48002368F6B21E613A4641462046FFF702FF73
:101F580020B3236C042B1AD0032040E02368320AF4
:101F68001A613A4641462046FFF7F4FE58B1236C01
:101F7800042B01D0032032E02268136843F4007375
:101F8800136001202BE02368F6B21E61DBE72268AC
:101F9800136843F400731360012020E0226813687B
:101FA80043F4807313600097434600224FF00111F9
:101FB8002046FFF741FFA8B922684AF001031361E0
:101FC8003B46424608492046FFF7EBFE38B1236CF2
:101FD800042B01D0032002E0012000E0032004B01C
:101FE800BDE8F0870320FAE7020001002DE9F0437D
:101FF80085B004460D46914698460C9E0D9F036891
:10200800196841F4807119600097334600224FF037
:102018000111FFF711FF00284ED1236805F0FE05D6
:102028001D613B46324626492046FFF7BAFE30B1CD
:10203800236C042B01D003203FE001203DE0002366
:10204800039323685A6903929B690393039B3A4657
:1020580031462046FFF77EFE58B1236C042B01D091
:1020680003202AE02268136843F4007313600120F8
:1020780023E0B8F1010F04D123685FFA89F61E61E5
:102088001BE023684FEA19221A613A463146204676
:10209800FFF760FE58B1236C042B01D003200CE03D
:1020A8002268136843F400731360012005E0236875
:1020B8005FFA89F61E6100E0032005B0BDE8F083F1
:1020C800020001002DE9F04F85B006468A46934686
:1020D8001F46FFF76DFD96F83D30DBB2202B03D08D
:1020E800022005B0BDE8F08F804600901923012238
:1020F80058493046FFF7A0FE002840F0A08096F827
:102108003C30012B00F09D80012386F83C30336879
:102118001A6812F0010F03D11A6842F001021A601E
:102128003268136823F400631360242386F83D3073
:1021380000233364A3F58033F3624FF0010938E0DC
:10214800A02386F83D3033685C69C4F340045D69B8
:10215800C5F3802596F83D30DBB25CB955B9A02BA4
:1021680008D0002FECD0FFF723FDA0EB0800B84201
:10217800E9D9E5E7202386F83D3033685A6912F03B
:10218800020F38D11A6842F400721A6033686FF48B
:1021980080625A61CDF80080192301222D4930460A
:1021A800FFF74AFE002852D109F10103D9453ED272
:1021B80099463268136843F480731360CDF8008041
:1021C8003B4600224FF001113046FFF735FE00284C
:1021D80039D133680AF0FE021A61FFF7E9FC80463C
:1021E80033685C69C4F340045D69C5F3802596F8DB
:1021F8003D30DBB2B1E71A6842F400721A6000237E
:10220800039333685A6903929B690393039BCDF840
:102218000080192301220F493046FFF70DFEA0B9AF
:10222800202386F83D30002386F83C3059E72023E8
:1022380086F83D30002386F83C30012051E7022023
:102248004FE702204DE703204BE7032049E703202F
:1022580047E700BF0200100070B504460E46154659
:10226800002303706423012229463046FFF72AFF22
:1022780038B966602572FF23237042F20A030022F0
:10228800E254204670BD30B5ADF5005D85B004461A
:102298000D46782201A8FFF7DFFF9DF80430FF2BD9
:1022A80009D07A2229462046FFF7D6FF20460DF5A9
:1022B800005D05B030BD42F20C0201A9204606F0CF
:1022C80065F9F3E7F8B504460E4615461F460023A0
:1022D80003706423012229463046FFF7F3FE48B90C
:1022E80066602572FF232370BDF81830A3811FB1E3
:1022F800102363812046F8BD01236381FAE738B5CE
:102308000446FFF755FC0546B4F1FF3F00D0013401
:10231800FFF74EFC401BA042FAD338BD024A1368AF
:1023280001331360704700BFE425002010B584B066
:10233800024603460846C3F307440094C3F3072341
:10234800D2B2024906F02EFD04B010BD6C9600080A
:1023580070B48FB006466C46204B93E8070084E8BB
:10236800070000238DF814301D4A069201228DF8CB
:102378001C20FF218DF81D108DF81E308DF81F30A0
:102388008DF820208DF821308DF8223004228DF828
:1023980023208DF8243005228DF82520114A0A9231
:1023A8000A228DF82C208DF82D308DF82E300D2234
:1023B8008DF82F208DF830308DF831300D9335465B
:1023C8000FCC0FC50FCC0FC50FCC0FC594E8030079
:1023D80085E8030030460FB070BC70477C96000853
:1023E800E06735000000404070B584B004462D4DCC
:1023F8002D4B1B68ADF808301A0C8DF80A20ADF883
:1024080004308DF80620092600963D230422002179
:102418002846FEF7F4F800963D23042201212846B9
:10242800FEF78AF8214B1B68ADF808301A0C8DF8B6
:102438000A20ADF804308DF8062008230093012304
:10244800052200212846FEF7DAF81949204604F04B
:102458000DFB0446002104F0C5FC08B904B070BDAA
:102468004FF07C51204604F0F9F904F0F1F803F03C
:102478000FFF04F0CDF981B2C1F13B010B4B1B6892
:10248800ADF808301A0C8DF80A20ADF804308DF834
:102498000620072300933B23062289B22846FEF72D
:1024A800AEF8DBE78C250020B8240020BC240020EF
:1024B8000000604208B5002006F038F8014B58606B
:1024C80008BD00BF9024002010B5044605F0A6F909
:1024D80001462046FEF744FB01210248FEF740FB77
:1024E80010BD00BF8896000808B506F027F808BD9B
:1024F8002DE9F84305460E46144612F0030F06D19F
:102508009208FFF71FFB04462046BDE8F8834FEA10
:10251800920808F101084FEA8809484606F006F8CB
:1025280007464A46002104F0A7FC224631463846B1
:1025380006F02CF8424639462846FFF703FB0446C6
:10254800384605F0FBFFDFE738B50446456B002346
:102558004363382201460448FFF7CAFF6563854292
:1025680014BF0020012038BDF001002038B5044612
:10257800D0F824510023C0F824314FF49472014656
:102588000448FFF7B5FFC4F82451854214BF002062
:10259800012038BDF001002038B504464568002305
:1025A8004360082201460448FFF7A2FF65608542A0
:1025B80014BF0020012038BDF0010020F8B50746FF
:1025C8000E461446501C05F0B1FF05462246B919BF
:1025D80005F0DCFF00232B552846F8BD0FB400B5E5
:1025E80083B004AB53F8042B01938021074806F00D
:1025F8002DFC002804DC03B05DF804EB04B0704740
:1026080001460248FEF7ACFAF5E700BFF0240020C7
:1026180008B5FFF783FEFEF743FA08BD7047704719
:102628007047FEE7FEE7FEE7FEE7704708B5024899
:10263800FFF71AFA08BD00BF3004002008B50248A9
:10264800FFF75EF908BD00BF3004002008B5024856
:10265800FFF70AFA08BD00BFDC03002008B50248EE
:10266800FFF74EF908BD00BFDC0300200F4B1A68C6
:1026780042F001021A6059680D4A0A405A601A6805
:1026880022F0847222F480321A601A6822F48022BE
:102698001A605A6822F4FE025A604FF41F029A60C8
:1026A800044B4FF000629A60704700BF0010024070
:1026B8000000FFF800ED00E000B530B9044D182423
:1026C80020462946ABBE0446FEE7024DF7E700BFA9
:1026D800260002002300020008B503460C4A1268CF
:1026E8005AB10B4A1068033323F003030344094A21
:1026F800934206D8064A136008BD054A0649116088
:10270800EFE704F079FB0C2303604FF0FF30F3E7A9
:1027180088250020004C00200026002008B503482A
:10272800FFF7D2FE0120FFF7C7FF00BF8C96000815
:1027380008B50A4601460248FFF750FFFFF7EEFFCB
:10274800A0960008002800F0A68070B50D46164631
:102758000446002900F0A180012A2ED8237C012BF1
:1027680000F09D800123237402236374002E3CD162
:10277800EB78632B27D86B78013BDBB20B2B28D87F
:10278800AB78013BDBB21E2B29D8EB78E3736B786F
:102798006373AB78A373A27B617BE07BFEF7E4F9FC
:1027A800207328702046FEF7C5FA3E4B98424AD857
:1027B800012363740020207470BD40F2BB213A48A5
:1027C800FFF7B6FFCAE74FF431713748FFF7B0FF9C
:1027D800D1E740F2C5213448FFF7AAFFD0E740F21D
:1027E800C6213148FFF7A4FFCFE7E878FEF787FA5C
:1027F800632822D86878FEF782FA08B10C2804D931
:102808004FF434712848FFF793FFA878FEF777FA5A
:1028180008B11F2804D940F2D1212348FFF788FFC7
:10282800E878FEF76CFAE0736878FEF768FA607388
:10283800A878FEF764FAA073ADE740F2CF211A48F2
:10284800FFF776FFD6E7A3F60F63B0FBF3F503FBBC
:10285800150529462046FFF7F7F928B104236374C4
:10286800002323740120A7E72046FEF75CFAB0F1A5
:10287800FF3F9DD085429BD900F5A83101F5C07175
:102888002046FFF7CCF9002892D004236374002374
:102898002374012090E70120704701208CE7022073
:1028A8008AE700BF8F5F0100CC960008002878D027
:1028B8002DE9F8430C4615460646002973D0012A2F
:1028C80007D833685B6813F0040F08D00120BDE80F
:1028D800F8834FF413713848FFF72AFFF1E73046C1
:1028E800FEF728FA0746354BA3FB0023DB0A4FF413
:1028F800616202FB13023249A1FB02014809C1F3DC
:1029080047116170C0EB0010A2EB8002A2702D4A43
:10291800974210D82370002D4BD02078FEF7F8F995
:1029280020706078FEF7F4F96070A078FEF7F0F98F
:10293800A0700020CBE7244AA2FB03284FEA18180E
:1029480008EB4802A3EBC20323703046FEF7EBF90D
:102958008146B0F1FF3F03D0874217D2A0EB0709A9
:102968001A4800FB187739463046FFF76DF9E0B989
:10297800B9F1FF3F0DD009EB07013046FFF74FF9DA
:10298800A8B941463046FEF75DF9C4E74FF0FF3974
:10299800E6E749463046FFF742F90028F1D0012022
:1029A80095E701207047012091E701208FE701207A
:1029B8008DE700208BE700BFCC960008C5B3A29135
:1029C800898888887F510100ABAAAAAA8051010092
:1029D8002DE9F04182B00023ADF804308DF80630BF
:1029E80048B30C461546064639B3012A1DD80022BD
:1029F80001A93046FFF75AFF074600BB337B237017
:102A0800F07BE07096F80D8084F80180B67BA670A4
:102A1800B5B1FEF77DF9E0704046FEF779F96070D0
:102A28003046FEF775F9A0700AE040F22D310648ED
:102A3800FFF77EFEDBE7012702E0012700E0012720
:102A4800384602B0BDE8F081CC96000870B5002881
:102A580000F0A0800C4615460646002900F09C8030
:102A6800012A2BD8337C012B00F098800123337482
:102A780002237374002D39D12378172B24D8637857
:102A88003B2B27D8A3783B2B2AD8207862783C2385
:102A980003FB02F34FF4616202FB0030A4780444A4
:102AA80021463046FFF7D0F80546002851D00423C8
:102AB8007374002333740125284670BD40F2E91170
:102AC8003748FFF735FECDE74FF4F9713448FFF783
:102AD8002FFED4E740F2F3113148FFF729FED1E782
:102AE8004FF4FA712E48FFF723FECEE72078FEF761
:102AF80006F917281BD86078FEF701F93B281CD87F
:102B0800A078FEF7FCF83B281DD82078FEF7F7F8E8
:102B18004FF4616505FB00F56078FEF7F0F83C239B
:102B280003FB0055A078FEF7EAF82C18B8E74FF435
:102B3800FE711B48FFF7FCFDDDE740F2FD11184868
:102B4800FFF7F6FDDCE74FF4FF711548FFF7F0FDDE
:102B5800DBE73268536823F0050353603046FEF71D
:102B6800E2F8B0F1FF3F01D0844204D80123737426
:102B780000233374A0E700F5A83101F5C071304691
:102B8800FFF74DF80028F1D0042373740023337441
:102B9800012591E701258FE701258DE702258BE7C0
:102BA800CC96000810B586B004463B4B0FCB0DF110
:102BB800180C0CE90F0040F20123ADF8043014F0B2
:102BC800130F08D0022C56D0102C0AD0012C31D06B
:102BD800002006B010BD4FF4D3713048FFF7A8FDB0
:102BE800F0E72F4B5A68186810F08070F1D0C2F3E4
:102BF800834306A90B4413F8100C12F4803F15D038
:102C0800274B5B68C3F340430B4413F8142C254B44
:102C1800B3FBF2F300FB03F0214B5B6813F4800F66
:102C2800D7D140000323B0FBF3F0D2E71E4B03FBE0
:102C380000F0F1E71A4B1B6A40F202321A40B2F573
:102C4800817F23D003F44073B3F5007F04D0B3F53C
:102C5800407F09D00020BCE7114A526A12F0020FE7
:102C6800F5D04FF4FA40B4E70D4B1B6813F4003F5E
:102C78000FD10020ADE7FEF78DF8094B5B68C3F371
:102C8800813301335B00B0FBF3F0A2E74FF400405F
:102C98009FE74FF224409CE758960008F8960008F2
:102CA8000010024000127A0000093D0070B582B0A1
:102CB8000446036813F0130F6CD0236813F0010F58
:102CC8003FD0636843B1B3F5807F05D0B3F5007F8B
:102CD80002D0B3F5407F62D1504BDB6913F0805FBF
:102CE80062D14E4BDA6942F08052DA61DB6903F057
:102CF80080530193019B0125494B1B6813F4807F86
:102D080054D0464B1B6A13F4407311D0626802F426
:102D180040729A420CD0414A136A23F440704149E8
:102D280001260E6000260E60106213F0010F51D1CB
:102D38003A4A136A23F4407361680B431362002D07
:102D480059D1236813F0020F11D0A36843B1B3F52A
:102D5800804F05D0B3F5004F02D0B3F5404F4FD1A7
:102D68002E4A536823F44043A1680B4353602368F9
:102D780013F0100F4FD0E368B3F5800F01D0002B8C
:102D880043D1264A536823F48003E1680B43536018
:102D9800002041E07C212448FFF7CAFC8DE782210E
:102DA8002148FFF7C5FC97E70025A5E71C4A1368EB
:102DB80043F480731360FEF7FBFE0646184B1B684E
:102DC80013F4807F9DD1FEF7F3FE801B6428F5D9AC
:102DD800032021E0FEF7ECFE0646104B1B6A13F0B9
:102DE800020FA5D1FEF7E4FE801B41F2883398421A
:102DF800F3D9032010E0D36923F08053D361A0E70F
:102E0800C9210948FFF794FCAAE740F225110648B2
:102E1800FFF78EFCB5E7002002B070BD001002403D
:102E28000070004040044242F896000870B582B035
:102E3800044678B3236813B113F00F0F30D023681A
:102E480013F0010F46D063682BB1B3F5803F02D071
:102E5800B3F5A02F2AD1AC4B5B6803F00C03042B0D
:102E68002FD0A94B5B6803F00C03082B24D06368B0
:102E7800B3F5803F5BD0002B6FD103F1804303F59E
:102E880004331A6822F480321A601A6822F4802205
:102E98001A6051E04FF4B8719C48FFF749FCC9E744
:102EA80040F271119948FFF743FCC8E740F27711E7
:102EB8009648FFF73DFCCEE7934B5B6813F4803FE1
:102EC800D5D0914B1B6813F4003F03D06368002BE7
:102ED80000F02D82236813F0020F00F08980236927
:102EE800012B63D863691F2B66D8874B5B6813F087
:102EF8000C0F6CD0844B5B6803F00C03082B61D07B
:102F08002369002B00F09980814B01221A60FEF79B
:102F18004FFE05467C4B1B6813F0020F40F084807F
:102F2800FEF746FE401B0228F4D9032004E2764A45
:102F3800136843F480331360636843B3FEF738FEC5
:102F48000546714B1B6813F4003FC3D1FEF730FEF2
:102F5800401B6428F5D90320EEE1B3F5A02F09D072
:102F6800694B1A6822F480321A601A6822F48022A7
:102F78001A60E1E703F18043A3F53C331A6842F491
:102F880080221A601A6842F480321A60D4E7FEF789
:102F98000FFE05465C4B1B6813F4003F9AD0FEF702
:102FA80007FE401B6428F5D90320C5E140F2AB11A8
:102FB8005648FFF7BDFB95E74FF4D6715348FFF726
:102FC800B7FB92E7504B5B6813F4803F98D14E4BA8
:102FD8001B6813F0020F03D02369012B40F0A9816D
:102FE800494A1368616923F0F80343EAC10313608F
:102FF800236813F0080F3BD0A369012B2FD8A369CE
:10300800002B50D0434B01221A60FEF7D1FD054634
:103018003D4B5B6A13F0020F27D1FEF7C9FD401B39
:103028000228F5D9032087E1374A1368616923F03C
:10303800F80343EAC1031360DAE7354B00221A604C
:10304800FEF7B6FD0546304B1B6813F0020FCFD0D4
:10305800FEF7AEFD401B0228F5D903206CE14FF4C2
:10306800F6712A48FFF764FBC9E70120FDF776FEF1
:10307800236813F0040F00F0A680E368012B01D940
:10308800052B22D1204BDB6913F0805F23D11E4B27
:10309800DA6942F08052DA61DB6903F08053019308
:1030A800019B012518E01B4B00221A60FEF780FDEA
:1030B8000546154B5B6A13F0020FD9D0FEF778FD71
:1030C800401B0228F5D9032036E140F21B210F48A6
:1030D800FFF72EFBD6E700250F4B1B6813F4807F04
:1030E8001CD0E368012B2DD0002B43D103F1804382
:1030F80003F504331A6A22F001021A621A6A22F0EE
:1031080004021A6223E000BF00100240289700085A
:10311800000042428004424200700040884A13681E
:1031280043F480731360FEF743FD0646844B1B6827
:1031380013F4807FD5D1FEF73BFD801B6428F5D9B9
:103148000320F9E07F4A136A43F001031362E3683E
:1031580033B3FEF72DFD06467A4B1B6A13F0020FB8
:103168002FD1FEF725FD801B41F288339842F3D911
:103178000320E1E0052B09D0724B1A6A22F0010204
:103188001A621A6A22F004021A62E0E76D4B1A6AA0
:1031980042F004021A621A6A42F001021A62D6E781
:1031A800FEF706FD0646674B1B6A13F0020F08D0B0
:1031B800FEF7FEFC801B41F288339842F3D90320C6
:1031C800BAE0002D53D1E369022B56D8E369002BEE
:1031D80000F0B1805B4A526802F00C02082A00F045
:1031E800AD80022B40F08F80236A13B1B3F5803F86
:1031F80049D1636A4BB3B3F5802F26D0B3F5002FBE
:1032080023D0B3F5402F20D0B3F5801F1DD0B3F5E0
:10321800A01F1AD0B3F5C01F17D0B3F5E01F14D004
:10322800B3F5001F11D0B3F5101F0ED0B3F5201F52
:103238000BD0B3F5301F08D0B3F5401F05D0B3F558
:10324800501F02D0B3F5601F23D13F4B00221A60F4
:10325800FEF7AEFC05463B4B1B6813F0007F1ED003
:10326800FEF7A6FC401B0228F5D9032064E0354A86
:10327800D36923F08053D361A5E740F2B9213348DD
:10328800FFF756FAA2E740F2C2213048FFF750FA9A
:10329800AFE740F2C3212D48FFF74AFAD5E7236A82
:1032A800B3F5803F1AD027494A68236A606A034306
:1032B80022F4741213434B60234B01221A60FEF769
:1032C80077FC04461F4B1B6813F0007F19D1FEF7EB
:1032D8006FFC001B0228F5D903202DE0A36813B169
:1032E800B3F5003F07D1174A536823F40033A168A8
:1032F8000B435360D7E740F2D9211448FFF718FA77
:10330800F1E7002018E0104B00221A60FEF750FC8D
:1033180004460C4B1B6813F0007F06D0FEF748FCF0
:10332800001B0228F5D9032006E0002004E0012054
:1033380002E0012000E0002002B070BD0120FBE7A0
:1033480000700040001002406000424228970008C8
:103358002DE9F04383B00546884617461E46BDF85A
:103368002C9000230193012E01D0102E50D195F8F6
:103378003D30DBB2202B5AD1304B1B68DB08304A7A
:10338800A2FB03231B0A03EB830303EB83030193D1
:10339800019C601E0190002C40D02868836913F0BE
:1033A800020FF5D195F83C30012B44D0012385F864
:1033B8003C30036813F0010F03D1036843F00103A5
:1033C80003602A68136823F400631360212385F8D7
:1033D8003D30402385F83E30002028640A9B6B620C
:1033E800A5F82890A5F82A90164BEB62C5F84480FA
:1033F800AF64EE6428652A68136843F48073136029
:1034080085F83C002A68536843F4E06353600FE092
:1034180040F621310C48FFF78BF9A8E700232B630E
:10342800202285F83D2085F83C30032000E002206A
:1034380003B0BDE8F0830220FAE700BF00000020D7
:1034480089B5F8140000FFFF549700082DE9F043F0
:1034580087B00446884691461F46109EFEF7A8FB93
:103468000546012F01D0102F09D194F83D30DBB269
:10347800202B0AD00227384607B0BDE8F08340F673
:103488001B219848FFF754F9EFE70095192301220B
:1034980095492046FEF7D0FC002840F0628194F858
:1034A8003C30012B00F05F81012384F83C30236815
:1034B8001A6812F0010F03D11A6842F001021A606B
:1034C8002268136823F400631360222384F83D30D4
:1034D800402384F83E30002323640E9B6362BDF8CA
:1034E8003C306385814BE362638D238501950096AB
:1034F8003B464A4641462046FEF7D4FC074660B1A3
:10350800236C042B04D0002384F83C300327B2E753
:10351800002384F83C300127ADE7238D5BB9029383
:1035280023685A6902929A690292029A1A6842F4C6
:1035380000721A60A5E0012B0FD0022B21D022685F
:10354800136843F4806313600023059323685A6962
:1035580005929B690593059B93E02268136823F401
:103568008063136072B60023039323685A69039239
:103578009A690392039A1A6842F400721A6062B652
:103588007FE02268136843F40063136072B6002377
:10359800049323685A6904929A690492049A1A68EF
:1035A80022F480621A6062B66BE02A4631462046F1
:1035B800FEF77BFB70B923681A69636A591C61625C
:1035C8001A70238D013B2385638D9BB2013B9BB20F
:1035D800638556E0236C202B01D001274BE7032796
:1035E80049E700953346002241492046FEF724FC6E
:1035F800002840F0BA8072B62268136843F400735A
:10360800136023681A69636A591C61621A70238DF2
:10361800013B2385638D9BB2013B9BB2638562B6F8
:1036280023681A69636A591C61621A70238D013B09
:103638002385638D9BB2013B9BB2638521E02268A1
:10364800136843F40073136023681A69636A591C8A
:1036580061621A70238D013B2385638D9BB2013B08
:103668009BB2638562B623681A69636A591C6162F2
:103678001A70238D013B2385638D9BB2013B9BB25E
:103688006385238D002B63D0032B33D8012B8CD07B
:10369800022BA6D000953346002215492046FEF796
:1036A800CBFB002863D12268136823F4806313607E
:1036B80072B623681A69636A591C61621A70238D8D
:1036C800013B2385638D9BB2013B9BB263850095CB
:1036D8003346002206492046FEF7AEFB0028AED04E
:1036E8000327C8E654970008020010000000FFFFF7
:1036F800040001002A4631462046FEF7D6FA00BBF0
:1037080023681A69636A591C61621A70238D013B28
:103718002385638D9BB2013B9BB2638523685A69FD
:1037280012F0040FADD01A69636A591C61621A70ED
:10373800238D013B2385638D9BB2013B9BB263853F
:103748009FE7236C202B01D0012794E6032792E6FC
:10375800202384F83D30002384F83E3084F83C3040
:1037680089E6022787E6022785E6032783E60327FB
:1037780081E600BF2DE9F04383B0044688469146B0
:103788001F460C9EFEF714FA0546012F01D0102F94
:1037980008D194F83D30DBB2202B09D0022003B0C9
:1037A800BDE8F08340F695115448FEF7C1FFF0E7F5
:1037B80000951923012252492046FEF73DFB0028B7
:1037C80040F0978094F83C30012B00F0948001235E
:1037D80084F83C3023681A6812F0010F03D11A6884
:1037E80042F001021A602268136823F40063136030
:1037F800212384F83D30402384F83E30002323649D
:103808000A9B6362BDF82C3063853E4BE362638D8F
:103818002385019500963B464A4641462046FEF7D9
:10382800E5FBC0B1236C042B04D0002384F83C30A2
:103838000320B4E7002384F83C300120AFE7236C71
:10384800042B01D00320AAE72268136843F400730D
:1038580013600120A3E7238D002B2AD02A46314686
:103868002046FEF777FA0028E9D1636A5A1C62629B
:1038780022681B781361228D013A92B22285638DEA
:103888009BB2013B9BB263852368596911F0040F11
:10389800E1D0002ADFD0626A511C616212781A6195
:1038A800238D013B2385638D9BB2013B9BB26385CE
:1038B800D1E72A4631462046FEF725FA58B1236C4F
:1038C800042B01D003206AE72268136843F40073CD
:1038D8001360012063E72268136843F400731360E0
:1038E800202384F83D30002384F83E3084F83C30AF
:1038F80055E7022053E7022051E700BF549700081C
:10390800020010000000FFFF70B5054614460E4681
:1039180021B1012C08D86CB12E6170BD40F2E311C1
:103928000648FEF705FFF4E74FF4F2710348FEF787
:10393800FFFEF0E736042E61EFE700BF809700082E
:1039480010B5044638B1012211460648FFF7DCFFDE
:10395800054B1C7210BD002201210248FFF7D4FF5D
:10396800F6E700BF000C01408803002008B5074BAC
:10397800DB791BB9054B93F846301BB1FF20FFF7E5
:10398800DFFF08BD0020FFF7DBFFFAE78803002010
:1039980008B5044B0022DA71034B02221A70FFF7B4
:1039A800E5FF08BD88030020B224002008B5034BBA
:1039B800012283F84220FFF7EBFF08BD88030020AF
:1039C8002DE9F04383B080460E46C24B984213D08F
:1039D80003F5806398420FD003F5806398420BD0BB
:1039E80003F58063984207D003F58063984203D0BB
:1039F800CD21B948FEF79CFE33689AB212B11B0C70
:103A08001B041BB1CE21B448FEF792FE7368012B4C
:103A180040F28C81112B00F08D81022B00F08E81F9
:103A2800122B00F08F81AD4A934200F08F8102F58E
:103A38008012934200F08E8102F58012934200F0CA
:103A48008D81A2F5F812934200F08C8102F5801264
:103A5800934200F08B8102F58012934200F08A8134
:103A6800032B03D14FF000094D46E1E0CF219A48DE
:103A7800FEF75EFE4FF000094D46D9E0984A9342A2
:103A880010D007D9974A93420CD002F5803293425E
:103A980008D019E0A2F58012934203D002F57022F3
:103AA80093420DD1B368022B7ED8B368002B00F087
:103AB8008980012B7ED0C8F814404FF0080903E034
:103AC800A2F580129342EDD0FF2F7ED84046FF2FFB
:103AD8007ED8AA0003680F21914023EA010309FA5E
:103AE80002F213430360736813F0805F00F09F8055
:103AF8007D4B9A6942F001029A619B6903F00103C8
:103B08000193019BAA08911C784B53F8210005F0FA
:103B1800030399000F238B4020EA03006D4B98455F
:103B28005CD003F58063984500F0E48003F580637A
:103B3800984500F0E18003F5806398454CD0042354
:103B48004DE0F368013B022B02D8D6F80C90BBE796
:103B5800E5216148FEF7ECFDF7E7F368013B022B2E
:103B680003D8F36803F10409AEE7EC215A48FEF7DD
:103B7800DFFDF6E7F368013B022B03D8F36803F196
:103B88000809A1E7F3215448FEF7D2FDF6E7F368E8
:103B9800013B022B03D8F36803F10C0994E7FA21DF
:103BA8004D48FEF7C5FDF6E740F207114A48FEF713
:103BB800BFFD7AE7C8F810404FF0080984E74FF0D6
:103BC800000981E74FF004097EE708F104007EE769
:103BD800A5F1080292007DE7032300E000238B4053
:103BE80003430232414941F82230736813F4803F9D
:103BF80000F084803E4A13683B431360736813F4F3
:103C0800003F00F081803A4A53683B435360736831
:103C180013F4801F7ED0364A93683B4393607368E1
:103C280013F4001F7CD0324AD3681F43D760013594
:103C38000F2D00F2A3800124AC40336803EA040787
:103C480034EA0303F3D1234B984513D003F580637B
:103C580098450FD003F5806398450BD003F5806332
:103C6800984507D003F58063984503D0DD211A48AD
:103C7800FEF75EFD7368122B3FF600AF122B3FF67E
:103C880023AF01A252F823F0AD3A00084B3B0008DD
:103C98007D3B0008C73B0008D13A0008D13A00082C
:103CA800D13A0008D13A0008D13A0008D13A0008C0
:103CB800D13A0008D13A0008D13A0008D13A0008B0
:103CC800D13A0008D13A0008D13A0008633B00080D
:103CD800973B000800080140809700080000111079
:103CE80000002210000031100010024000000140C6
:103CF80000040140012372E7022370E7214A136898
:103D080023EA0703136079E71E4A536823EA070387
:103D180053607CE71B4A936823EA070393607EE7B6
:103D2800184AD36823EA0707D76080E74FF00009ED
:103D38004D467DE74FF000094D4679E74FF0000901
:103D48004D4675E74FF000094D4671E74FF0000901
:103D58004D466DE74FF000094D4669E74FF0000901
:103D68004D4665E74FF000094D4661E74FF0000901
:103D78004D465DE74FF000094D4659E703B0BDE8F1
:103D8800F08300BF0004014000B587B00B4B9A696F
:103D980042F008029A619B6903F008030193019BB2
:103DA800012302930393002304930323059302A999
:103DB8000348FFF705FE07B05DF804FB001002405A
:103DC800000C014000B587B00E4B9A6942F0100212
:103DD8009A619B6903F010030193019B01230393EC
:103DE80000260496032305934FF400550295064CCC
:103DF80002A92046FFF7E4FD324629462046FFF790
:103E080083FDFEE7001002400010014000B583B0BA
:103E18000190C3B253B908469DF806309DF80520B5
:103E2800044904F0BFFF03B05DF804FB0120FFF76D
:103E3800C9FF00BFB097000870B50D4B1B78FF2B6A
:103E480012D004460A4D29780131C9B22970094EA9
:103E58008900306804F09EFF30602B7803F18043BE
:103E6800013B40F8234070BD0120FFF7ABFF00BFC6
:103E7800EC240020E824002010B50022144915483D
:103E8800FEF714FD50B9124B9A78134B1B789A42DF
:103E980007D10F4B9A78104B1A7010BD0120FFF70D
:103EA80091FF00220D490B48FEF792FD044648B1E8
:103EB8000120FFF787FF0A4B1B6853F82430984707
:103EC8000134E4B2074B1B78A342F4D8E1E700BF02
:103ED800FC010020D4240020BF240020F801002089
:103EE800E8240020EC24002000B591B0154BDA69D5
:103EF80042F08052DA61DB6903F080530193019B41
:103F0800FCF79EFF0C23069300230D9301220992D0
:103F18000C9306A8FEF78AFF70B9012302934FF4A9
:103F28008073039302A8FEF7C1FE40B9064B012235
:103F38001A6011B05DF804FB0120FFF743FF012070
:103F4800FFF740FF001002403C04424200287BD0AB
:103F580010B5044602683D4B9A4203D0FC213C4808
:103F6800FEF7E6FBA3683BB1802B05D0B3F5807F55
:103F780002D0B3F5407F12D16368A3F580136FF4C4
:103F88008012934210D3637C9BB102236374204652
:103F9800FDF76FFE90B104236374012010BDFD216D
:103FA8002B48FEF7C5FBE7E7FE212948FEF7C0FBD3
:103FB800E9E723742046FFF797FFE6E72046FDF779
:103FC80016FE60BB2268536823F007035360A3689A
:103FD80023B1204A136B23F0010313631D4AD36AEC
:103FE80023F46073A1680B43D3626268B2F1FF3FA8
:103FF80019D021688B6823F00F0343EA12438B60C2
:104008002168CB681B0C1B0492B21343CB6020467B
:10401800FDF7D4FD88B1042363740120BEE70423AF
:1040280063740120BAE70120FEF7BCFD08B1421E07
:10403800DFE7042363740120B0E70023E37301235F
:104048006373A3736374A9E70120704700280040D5
:10405800CC960008006C004008B51948194B03605D
:104068004FF0FF334360FFF771FFF8B91649152386
:10407800CB7001234B708B7005230B700022104806
:10408800FEF760FBA8B9114900220A704A708A70CD
:104098000B48FEF7DBFC78B900200D4B18700D4B70
:1040A800187004F043FA0C4B186008BD0120FFF7A4
:1040B80089FE0120FFF786FE0120FFF783FE00BF7F
:1040C800D424002000280040F8010020FC01002032
:1040D800BF240020EC240020E824002008B50E4B63
:1040E80093F83430062B0FD8DFE803F011130406D9
:1040F800080A0C0009480BE0094809E0094807E0EC
:10410800094805E0094803E00120FFF75BFE08487D
:1041180008BD0848FCE700BF8803002028A4000861
:104128003CA4000850A4000868A400080CA40008D7
:1041380080A4000818A4000808B503460C4A92F8A1
:1041480035203AB14620032B06D8022B08D2012B82
:104158000AD808BD8C20F6E7042B05D10020F8E723
:1041680000EB400080B2F4E70120FFF72BFE00BF10
:104178008803002038B5204B1B78012B10D0022B68
:1041880039D013B10120FFF71DFE1C4B1B881BB94A
:10419800194B01221A702EE0013B184A13802AE0BD
:1041A800174B1B681B78042B0FD0154B1B681B780B
:1041B80083B1022B0ED0012B01D0032B0FD1114B51
:1041C8000022DA71FFF7D2FB09E00F4B1A680C4B9B
:1041D8001A60EAE70B4BFF22DA71FFF7C7FB084DBD
:1041E8002C6814F8010BFFF7A7FF044B18802C600C
:1041F800014B00221A7038BDB2240020B0240020E0
:10420800AC24002088030020B424002008B5074B04
:104218001860074B18600378042B03D0054B012264
:104228001A7008BD0120FFF7CDFD00BFB42400209F
:10423800AC240020B224002030B583B01A4B186893
:10424800FCF70EF88DF80400C0F307238DF805304D
:10425800C0F307408DF80600144C002584F842503E
:1042680094F8373094F8381043EA012394F8391059
:1042780043EA01410198FCF760F884F84300C0F371
:10428800072384F84430C0F3074084F84500FCF75E
:1042980091F884F84650FFF769FBFFF71FFFFFF717
:1042A800B5FF03B030BD00BFFC010020880300202B
:1042B80010B582B01F4B1868FBF7D2FF8DF80400C9
:1042C800C0F307238DF80530C0F307408DF80600CA
:1042D800194C94F83F3094F8401043EA012394F8BD
:1042E800411043EA01410198FCF742F894F83E3046
:1042F800012B05D0022B14D01BB10120FFF762FD62
:1043080008B102B010BD0C4B022283F83E200B4AC4
:1043180011889278A3F83F1083F84120FFF78CFFAB
:10432800EFE70028EDD1044B002283F83E20FFF789
:104338003DFBE6E7FC01002088030020D4030020B1
:1043480000B585B001900091FCF712F801282AD138
:104358001B4B1868FBF784FF8DF80C00C0F307238C
:104368008DF80D30C0F307408DF80E0003990198C1
:10437800FBF7FEFFB0F1FF3F18D11249019B0B80FC
:104388001B0C8B701048009A0280120C82700F4A26
:104398000988A2F83F1082F84130012382F83E30A4
:1043A80005B05DF804FB0120FFF70CFD00990398A8
:1043B800FBF7DEFFB0F1FF3FDFD00120FFF702FD82
:1043C800FC010020D8030020D4030020880300202B
:1043D80038B505460C46FBF7E5FF05F12C03A16946
:1043E800606983E80300237F85F83430637F85F8AC
:1043F8003530234653F81E2FC5F836209A889B7906
:104408006A8785F83C3094F8253085F83D30A36AF2
:10441800AB6494F82F3094F8301043EA012394F8F1
:10442800311043EA0141E06AFFF78AFF38BD000016
:10443800434B93F83E30022B03D1414B93F836306F
:1044480003B1704730B583B03E4B1868FBF708FFDF
:104458008DF80400C0F307238DF80530C0F307403A
:104468008DF80600364C94F8433094F8441043EA2B
:10447800012394F8451043EA01410198FBF778FFBE
:1044880094F8423023B1012B30D00120FFF79AFC79
:10449800E8B92B4C012384F84230638F94F83C1020
:1044A80043EA01410198FBF748FF84F84300C0F351
:1044B800072384F84430C0F3074084F845000023FC
:1044C80084F84630FFF752FAFFF762FA0FE01E4B06
:1044D80019680198FBF74CFFB0F1FF3F07D1184B63
:1044E800FF2283F84620FFF741FA00E008B103B045
:1044F80030BD134C002584F8425094F8373094F8B6
:10450800381043EA012394F8391043EA014101982D
:10451800FBF713FF84F84300C0F3072384F8443003
:10452800C0F3074084F84500FBF744FF84F8465081
:10453800FFF71CFAFFF7D2FDFFF768FED7E700BFC9
:1045480088030020FC010020780300202DE9F04FAB
:1045580085B007460E4691460393DDF838B09DF8BE
:104568003CA0109DCB88B1F8048008FB03F81FFA23
:1045780088F814461DE00220FFF724FC95F9003066
:104588000093039B224631463846FCF79FF933686F
:104598005B6815F9010BC0B29847B38803FB004468
:1045A800A4B2A4EB09039BB2013BABF8003044442E
:1045B800A4B295F9003043B10A2BDCD0BB8BA342DF
:1045C80003D3BAF1000FE2D1D8E705B0BDE8F08F08
:1045D8002DE9F04186B006460F4611460D9DDDF8DF
:1045E8003C801A461198FDF7E9FF04460023ADF810
:1045F800163002909DF8403001930DF11603009398
:104608002B88BDF8302039463046FFF79FFF2046FB
:10461800FDF76AFFB8F80020BDF816309A4201D2BB
:10462800A8F800302A88BDF8383013442B8006B02B
:10463800BDE8F0812DE9F04F89B0824689461546DC
:104648009DF850B0159FADF81E30129A4FF000013A
:104658001180139A1380384603F0E0F80646D9F81B
:10466800003093F80080B9F808309844B9F804305D
:1046780008FB03F81FFA88F80024224614E0A31A5E
:104688000597CDF810B012990391CDF808800DF177
:104698001E01019100959BB249465046FFF798FFCD
:1046A800621C92B20134A4B2B44203D23B570A2B23
:1046B800F8D1E4E7B31A0597CDF810B01299039131
:1046C800CDF808800DF11E01019100959BB2494675
:1046D8005046FFF77DFF139B1A88BDF81E309B1AC2
:1046E800139A138009B0BDE8F08F000030B597B079
:1046F800044604AB83E80600224D2846FBF7CCFEAF
:10470800431E214A1268ADF80820110C8DF80A10D2
:10471800ADF804208DF806106B2200929BB25F2240
:1047280000212846FBF76BFF9DF81030ABB92046F7
:1047380001F08EFF02460B460EAC1449204604F0E9
:1047480031FB039400220292019200925E231049E9
:104758000C48FFF76FFF17B030BD06AC0D4A234673
:1047680007CA03C323F8022B120C1A700394002201
:104778000292019200925E2305492846FFF75AFFEC
:10478800E9E700BF8C250020B8240020C89700085E
:1047980070250020BC97000830B5A1B005900491A1
:1047A8003A4C2046FBF778FE431E394A1268ADF8AA
:1047B8000820110C8DF80A10ADF804208DF80610A9
:1047C8005E2200929BB2532200212046FBF717FF7E
:1047D8009DF814403CB39DF815309DF8160043EA47
:1047E80000239DF8170043EA0040FBF77FFD0546CC
:1047F8000498FBF77BFD281AFBF74CFD8DF87C002D
:10480800C0F307238DF87D30C0F307408DF87E0094
:104818001BA91F98FDF78AFD012C14D0022C2BD060
:104828000120FFF7CFFA07AB1A4A07CA83E8070047
:1048380003930022029201920092522316491348D0
:10484800FFF7F8FE16E0154B93E803001790ADF854
:1048580060100FAC17AB1BAA1149204604F0A2FA4E
:104868000394002202920192009252230A490748B7
:10487800FFF7E0FE21B030BD0A4B93E80300179024
:10488800ADF86010090C8DF86210E2E78C25002065
:10489800B8240020D8970008702500200498000844
:1048A800EC970008E497000882B070B5A2B006AC97
:1048B80084E80300059227934A4C2046FBF7ECFD59
:1048C800431E494A1268ADF80820110C8DF80A10E9
:1048D800ADF804208DF80610522200929BB24722B0
:1048E80000212046FBF78BFE9DF8A430022B2DD12A
:1048F8009DF89C30FF2B3BD09DF819309DF81A008D
:1049080043EA00239DF81B0043EA0040FBF7EEFC56
:1049180004460598FBF7EAFC201AFBF7BBFC8DF868
:104928008400C0F307238DF88530C0F307408DF865
:1049380086001DA92198FDF7F9FC9DF81830002B79
:104948002BD0012B45D00120FFF73CFA09AE3446A5
:10495800264D0FCD0FC42B682380039600220292A8
:1049680001920092462322491E48FFF763FE2BE07E
:1049780009AE34461F4D0FCD0FC495E8030044F827
:10498800040B218003960022029201920092462392
:1049980017491448FFF74EFE16E0174B93E803003B
:1049A8001990ADF8681011AC19AB1DAA134920462F
:1049B80004F0F8F90394002202920192009246232F
:1049C8000B490848FFF736FE22B0BDE8704002B038
:1049D80070470B4B1B68ADF864301B0C8DF86630C4
:1049E800E1E700BF8C250020B8240020F8970008D4
:1049F800702500200C98000824980008EC970008FF
:104A08002C98000870B58EB0044604AB83E8060005
:104A18001F4D2846FBF740FD431E1E4A1268ADF89D
:104A28000820110C8DF80A10ADF804208DF8061036
:104A3800462200929BB23B2200212846FBF7DFFD6D
:104A48009DF810308BB906AD22461349284604F06C
:104A5800A9F9039500220292019200923A230F4984
:104A68000B48FFF7E7FD0EB070BD06AE34460C4D9F
:104A78000FCD0FC42B682370039600220292019277
:104A880000923A2305490248FFF7D4FDEBE700BF3F
:104A98008C250020B82400204498000870250020A8
:104AA8003098000810B596B004AB83E80300264C94
:104AB8002046FBF7F1FC431E244A1268ADF8082093
:104AC800110C8DF80A10ADF804208DF806103A2262
:104AD80000929BB22D2200212046FBF790FD9DF805
:104AE8001030CBB11A4A0AAB07CA03C323F8022B0A
:104AF800120C1A700EAC0AAA1649204604F052F994
:104B0800039400220292019200922E2312490E4829
:104B1800FFF790FD16B010BD9DF811309DF81200FA
:104B280043EA00239DF8130008A943EA0040FFF771
:104B38006DF906A90598FFF769F906AB08AA0749B0
:104B48000AA804F02FF9D5E78C250020B824002006
:104B5800589800086C980008702500206498000890
:104B68002DE9F04F95B00B461546062800F2B8809F
:104B7800DFE800F00477818B959FA9005C4A92E8F2
:104B880003001090ADF84410090C8DF84610594AEE
:104B98001268ADF83020120C8DF83220002B00F08E
:104BA800A2804623ADF8283006AE0AAB0CAA5249BB
:104BB800304604F0F7F8DFF870B1DFF870A110AFF5
:104BC80003974FF0FF08CDF80880002401940DF1F9
:104BD800160300932346224659465046FFF72AFDFE
:104BE8000396CDF80880019405AB0093234622462E
:104BF80059465046FFF71EFDBDF81680A5EB08087C
:104C0800C8F34E08BDF81420AD1AC5F34E0550463A
:104C1800FBF742FC00F1FF391FFA89F9BDF81620AD
:104C2800424492B2A9EB02020397029401940094C1
:104C3800182392B259465046FFF7FCFCBDF81420E1
:104C48002A4492B2A9EB02020396029401940094BA
:104C5800222392B259465046FFF7ECFC15B0BDE846
:104C6800F08F264A1268ADF84020120C8DF84220C9
:104C7800234A0C9292E7234A1268ADF84020120C9E
:104C88008DF84220204A0C9288E7204A1268ADF835
:104C98004020120C8DF842201D4A0C927EE71D4AD6
:104CA8001268ADF84020120C8DF842201A4A0C9276
:104CB80074E71A4A1268ADF84020120C8DF84220A9
:104CC800174A0C926AE7174A92E803001090ADF869
:104CD8004410090C8DF846105322ADF830205DE7DA
:104CE8000120FFF76FF85323ADF828305CE700BFC9
:104CF8007898000880980008A09800088498000810
:104D08004D4F4500889800084D4F49008C98000881
:104D18004D4F5300909800084D4F48009498000854
:104D28004D4F350098980008702500208C250020EC
:104D380010B58CB004AB83E80300059801F03EFE83
:104D48000D4901F047FF01F083FC02460B4608AC11
:104D58000A49204604F026F80394002202920192A0
:104D68000DF11E030093182305490648FFF762FC5E
:104D7800BDF81E000CB010BD00247449A8980008A6
:104D8800B42500208C25002030B587B004461F4D7F
:104D98002846FBF781FB431E1D4A1268ADF8082020
:104DA800110C8DF80A10ADF804208DF806101922A0
:104DB80000929BB20C2200212846FBF720FC0394AA
:104DC800FF230293002201920DF11603009313466C
:104DD80010492846FFF72EFC2846FBF75DFBBDF877
:104DE8001620821A42F34F02002A0CDB0394002398
:104DF8000293019300930D2392B206490348FFF7EB
:104E080019FC07B030BD0022F0E700BF8C25002058
:104E1800B82400207025002030B58BB00590134CC5
:104E2800134B1B68ADF808301A0C8DF80A20ADF842
:104E380004308DF806200B230093732301224221AE
:104E48002046FBF7DCFB06AD29460598FDF76EFA10
:104E580003950023029301930093012342220549FD
:104E68002046FFF7E7FB0BB030BD00BF8C250020C4
:104E7800B82400207025002084B02DE9F0418CB0C2
:104E880012AC84E80F00BDF85C60BDF86070BDF836
:104E98006440BDF868509DF84830002B61D00DF192
:104EA800180CDFF800E1BEE80F00ACE80F009EE840
:104EB80003008CE80300374B1B68ADF814301B0C5B
:104EC8008DF816303319DFF8D480059AADF808202C
:104ED800120C8DF80A202F4A1268ADF80420120C23
:104EE8008DF806207A1992B200929BB23A46314662
:104EF8004046FBF784FB0DF149030393FF2302931C
:104F080004AB01930DF11203009300231A462249C2
:104F18004046FFF78FFBBDF81220A41A04EBD474A7
:104F280044F34F02BDF81030ED1A05EBD57545F383
:104F38004F03002A29DB002B29DB3B4432440DF1C7
:104F48004901039100210291019100919BB292B213
:104F580006A91248FFF76EFB0CB0BDE8F04104B09B
:104F680070470DF1180CDFF830E0BEE80F00ACE830
:104F78000F009EE803008CE80300094B1B68ADF89E
:104F880014301B0C8DF816309CE70022D3E7002361
:104F9800D3E700BFBC240020702500208C2500200A
:104FA800B8240020CC25002070B586B00E4B112601
:104FB80004963B2503956E240294002201921A8AD6
:104FC800ADF800200FCBFFF757FF084B0496039569
:104FD8000294442201921A8AADF800200FCBFFF701
:104FE8004BFF06B070BD00BF98240020C0240020ED
:104FF80084B02DE9F04184B00AAC84E80F003E4C3F
:105008003E4B19682046FBF7EDFA2046FBF744FAB9
:10501800451EADB20A98FDF7E7F90B98FFF7FCFEBD
:105028009DF83000FBF720FC0DF13100FFF7ACFED6
:10503800334B1B68ADF808301A0C8DF80A20ADF810
:1050480004308DF806202C2300932B4619220021CA
:105058002046FBF7D4FA15AD95E80300FFF768FE84
:1050680006469DF85C709DF85D802046FBF714FAB3
:10507800801B82B241463846FFF772FDBDF86230A8
:105088009DF86410DDF85E0043EA0141FFF70AFD70
:10509800BDF862309DF86420DDF85E1043EA0242F4
:1050A8009DF86500FFF7AEFCDDF8660001900AABDD
:1050B80033F83A2F9B78ADF800208DF80230DDF8F0
:1050C8005E300B9ADDF86A009DF86E10FFF7ECFB76
:1050D8000B99DDF86600FFF75FFB95E806001C9862
:1050E800FFF704FBFFF760FF2046FBF7D9F904B090
:1050F800BDE8F04104B070478C250020BC24002096
:10510800B824002070B590B0FFF7D2F8FFF790F9F7
:105118000D4B1A780D4E32715A7872719B78B371B3
:105128006C4606F110050FCD0FC40FCD0FC40FCD7F
:105138000FC495E8070084E8070096E80F00FFF71A
:1051480057FF10B070BD00BFFC010020880300208D
:1051580008B50378FF2B00D108BD0120FEF732FE09
:1051680070B582B004460D461646FFF7F1FF20469B
:10517800FBF790FC42F20A03FF22E25401960095E5
:1051880001234022217A6068FEF7E2F808B902B0EC
:1051980070BD42F20A030022E2540120FEF712FE1B
:1051A80030B583B004460D46FFF7D2FF2046FBF723
:1051B80071FC657242F20A03FF22E2540123019353
:1051C80004F1090200920022217A6068FEF7C0F813
:1051D80008B903B030BD42F20A030022E2540120AC
:1051E800FEF7F0FD70B505469DF810609DF81400B7
:1051F8000C4601B101240AB144F002040BB144F099
:1052080004040EB144F0100408B144F04004A02195
:105218002846FFF7C5FF21462846FFF7C1FF70BDA6
:1052280070B511F0800F11D104460D46164612F0E4
:10523800800F0BD17521FFF7B3FF29462046FFF7F2
:10524800AFFF31462046FFF7ABFF70BD0120FEF7E8
:10525800B9FD38B511F0800F09D104460D46A221D9
:10526800FFF79EFF29462046FFF79AFF38BD012029
:10527800FEF7A8FD38B511F0800F09D104460D4698
:10528800A121FFF78DFF29462046FFF789FF38BD8A
:105298000120FEF797FD08B5032907D8DFE801F0DC
:1052A800090D0204A62105E0A72103E00120FEF76D
:1052B80089FDA421FFF774FF08BDA521FAE738B5D9
:1052C800A1F11003DBB2702B0AD805460139CCB224
:1052D800A821FFF765FF21462846FFF761FF38BD83
:1052E8000120FEF76FFD38B5072909D804460D4699
:1052F800BE21FFF755FF29462046FFF751FF38BD6D
:105308000120FEF75FFD38B54B1EDBB20E2B09D826
:1053180004460D46B621FFF743FF29462046FFF70E
:105328003FFF38BD0120FEF74DFD38B5044661B991
:1053380060250AB145F00105D5212046FFF730FF69
:1053480029462046FFF72CFF38BD6225F1E738B51E
:10535800082909D804460D46BC21FFF721FF294634
:105368002046FFF71DFF38BD0120FEF72BFD38B59D
:1053780004460D46AB21FFF713FF25B10121204656
:10538800FFF70EFF38BD00212046FFF709FFF9E7B8
:1053980038B50139C9B20F2902D805460F2A02D9F2
:1053A8000120FEF70FFD1201D4B22144CCB2B32183
:1053B800FFF7F6FE21462846FFF7F2FE38BD38B55E
:1053C80029B105461AB10F2901D80F2A02D901209F
:1053D800FEF7F8FC01F00F031201D2B243EA02040F
:1053E800B121FFF7DDFE21462846FFF7D9FE38BD7B
:1053F80008B5B921FFF7D4FE08BD70B53F2904D818
:1054080004460D4616463F2A02D90120FEF7DAFC6B
:105418001521FFF7C5FE29462046FFF7C1FE314694
:105428002046FFF7BDFE70BD10B504463F2200219F
:10543800FFF7E3FF7F2200212046FFF7F1FE4FF43C
:10544800005204F10A012046FFF78AFE10BD38B564
:1054580004460D468121FFF7A3FE29462046FFF7A3
:105468009FFE38BD08B5AE21FFF79AFE08BD08B506
:10547800AF21FFF795FE08BD10B582B00446FFF7CF
:1054880067FE2046FFF7EEFF012211462046FFF790
:1054980096FF002201212046FFF77AFFFF212046D0
:1054A800FFF765FF08212046FFF751FF0022FF2183
:1054B8002046FFF73AFF04212046FFF724FF072183
:1054C8002046FFF710FF80212046FFF7F8FEFF2156
:1054D8002046FFF7BCFF00212046FFF7CBFE002146
:1054E8002046FFF7B6FE3F2200212046FFF785FF42
:1054F8007F2200212046FFF793FE2046FFF778FF22
:10550800FF210191009100231A462046FFF76AFE09
:1055180000212046FFF7BFFE4FF40052002104F19E
:105528000A0001F0A9FC2046FFF77EFF2046FFF79E
:105538009EFF02B010BD2DE9F04184B007460E462B
:1055480090461C4613E0642302930195CDF8008031
:105558007B893246397A7868FEF70CF968B9641B9A
:10556800A4B22E44B6B2A8440A20FCF7C8FE3CB147
:10557800BD89A542E7D92546E5E70120FEF722FCCB
:1055880004B0BDE8F081000038B504460D4600239C
:105598004363382201460548FCF7AAFF60633823B5
:1055A800224629460248FFF7C6FF38BDF001002011
:1055B8000002002038B504460D460023C0F8243107
:1055C8004FF4947201460648FCF792FFC4F8240190
:1055D8004FF49473224629460248FFF7ACFF38BDC2
:1055E800F00100200002002008B5034B5988034849
:1055F800FFF7E0FF08BD00BF1002002050020020A6
:1056080038B5044600254560082201460548FCF7E0
:105618006FFF60600823224629460348FFF78BFF87
:1056280038BD00BFF00100200002002010B5CCB04A
:105638000124ADF828410823ADF82A314AA8FFF71C
:10564800DFFF104A6B4607CA03C323F8022B120C6C
:105658001A708DF821404FF4807200210DF122005C
:1056680001F00AFCBDF82A1101F59473ADF8223057
:1056780000238DF8223149936846FFF79BFF4CB011
:1056880010BD00BFB098000810B584B0642402941F
:105698000193009243890A46017A4068FDF7D6FED5
:1056A80008B904B010BD0120FEF78CFB08B502460E
:1056B80038230248FFF7E8FF08BD00BF00020020BA
:1056C80038B5104B93F82231834216D004460D4B5F
:1056D80093F82130834211D90A4D85F82201FFF74A
:1056E80083FF103405EB4404074D61882846FFF713
:1056F800DDFF29460548FEF76BFE38BD0120FEF7A1
:1057080061FB00BF5002002018020020880300201F
:1057180008B502464FF494730148FFF7B5FF08BD7A
:105728000002002008B50246082300210148FFF7BF
:10573800ABFF08BD0002002010B50B4C2046FFF758
:10574800F1FF2046FCF728FF00B910BD074C064BB7
:1057580059882046FFF7DCFF2046FCF707FF0028A2
:10576800F3D0FF20F1E700BF100200205002002014
:10577800F0B59DB0FFF7E0FF08B100260AE0FFF79B
:1057880055FFFFF7D9FF0028F7D10120FEF71AFBD4
:105798000136F6B21F4B93F82130B3422DD906F1EA
:1057A80010031C4A02EB43035F8839460EA8FFF733
:1057B8007DFF0EA8FCF7C8FE0028E9D16846FCF773
:1057C800C7FD0EAD6C460FCC0FC50FCC0FC50FCC67
:1057D8000FC594E8030085E8030039460EA8FFF7D3
:1057E800D3FE39460EA8FFF761FF0EA8FCF7ACFE02
:1057F8000028CDD10120FEF7E5FA064B93F82221C7
:10580800103203EB420359880348FFF74FFF1DB0DE
:10581800F0BD00BF500200201802002038B5044631
:10582800094D298801318900686803F0B3FA686076
:1058380038B1054A5168138841F823400133138071
:1058480038BD0120FEF7BEFA90240020A0B110B5A3
:1058580004460268094B9A4203D077210848FCF7AE
:1058680067FF63791BB101236371002010BD2371A9
:105878002046FBF727F9F6E7012070470030024081
:10588800BC98000810B582B00446084B00936846DF
:10589800FFF7DCFF38B902AB13E9030084E8030023
:1058A800204602B010BD0120FEF78CFA00300240FD
:1058B80010B5041E08DB04F01F026409012393409D
:1058C800044A42F8243010BDCE210348FCF730FFCB
:1058D800F1E700BF00E100E0E898000870B5054670
:1058E8000C4616460F2A25D80F2C28D81B4BDB68E8
:1058F800C3F30223C3F10701042928BF04211A1D99
:10590800062A21D9033B4FF0FF3202FA01F124EABB
:1059180001049C4002FA03F326EA03063443002DEF
:1059280014DB2401E4B205F1604505F5614585F80D
:10593800004370BDBA210A48FCF7FAFED4E7BB2140
:105948000748FCF7F5FED1E70023DCE705F00F0573
:105958002401E4B2034B5C55EBE700BF00ED00E027
:10596800E898000814ED00E010B586B003682B4AEB
:10597800934204D02A4A934228D006B010BD294B3E
:105988009A6942F008029A619B6903F00803009340
:10599800009BC0230293122303930124049403233E
:1059A800059302A92048FEF70BF822460021202083
:1059B800FFF794FF2020FFF77BFF022200211F2022
:1059C800FFF78CFF1F20FFF773FFD6E7154B9A6987
:1059D80042F008029A619B6903F008030193019B56
:1059E8004FF4406302931223039301240494032386
:1059F800059302A90C48FDF7E3FF22460021222067
:105A0800FFF76CFF2220FFF753FF0222002121201D
:105A1800FFF764FF2120FFF74BFFAEE7005400407B
:105A28000058004000100240000C0140002800F01F
:105A3800098138B504460368844A934208D002F5C0
:105A48008062934204D040F27D118148FCF770FED9
:105A58006368013B7F4A934277D8A36813B1B3F5D3
:105A6800804F78D1E36823F47F7323F00303002B7E
:105A780077D12369B3F5804F02D0B3F5404F76D183
:105A88006369012B79D8A36933F0FE037BD1E369FD
:105A98000BB1402B7DD1236A0BB1802B7FD194F8B9
:105AA8003D30002B00F08180242384F83D302268AB
:105AB800136823F001031360FBF77CF96268664BF7
:105AC8009A4278D8654B98428CBF00230123002B5B
